:020000040000FA
:5C000000FFFF62FF2E00FFFFFFFFFFFFFFFFFFFFFFFFFFFFFFFFFFFFFFFFFFFFFFFFFFFFFFFFFFFFFFFFFFFFFFFFFFFFFFFFFFFFFFFFFFFFFFFFFFFFFFFFFFFFFFFFFFFFFFFFFFFFFFFFFFFFFFFFFFFFFFFFFFFFFFFFFFFFFFFFFFFFFFFFFFFF6D
:5C005C0060180C8361300C86C1301806C360180C8361300C86C1301806C360180C8361300C86C1301806C360180C0300000000C0301806C360180C8361300C86C1305806CB60580C8B61312C86C1301806C360180C8361300C96C1B21806A0FCEC
:5C00B800401008024120080481201004824010080241200804812010048240100802412008048120100482401008020000000080201004824010080241200804812038048740380807E1201C048120100482401008024120080EC171100440F40D
:5C01140000000000000000000000000000000000000000000000000000000000000000000000000000000000000000000000000000000000000000000000000000000000000000000000000000000000000000000000000000000000000010FF80
:5C01700000000000000000000000000000000000000000000000000000000000000000000000000000000000000000000000000000000000000000000000000000000000000000000000000000000000000000000000000000000000000010FF24
:5C01CC00000000000000000000000000000000000000000000000000000000000000000000000000000000000000000000000000000000000000000000000000000020000400200004800412000000000000000000000000002800410000A0F7F9
:5C022800000000000000000000000000000000000000000000000000000000000000000000000000000000000000000000000000000000000000000000000000000028000300090009200004000000000000000000000000000240110200F0F2E2
:5C02840000000000000000000000000000000000000000000000000000000000000000000000000000000000000000000000008000000000000000000000000000000000000000000000000000000000000000000000000000000000000032F577
:5C02E00000000000000000000000000000000000000000000000000000000000000000000000000000000000000000000000000000000000000000000000000000000000000000000000000000000000000000000000000000000000000010FFB3
:5C033C0000000000000000000000000000000000000000000000000000000000000000000000000000000000000000000000000000000000040000000000000000000000000000000000000000000000000000000000000000010000000010FA56
:5C039800040000000000000000000000000000000000000000000000000000000000000000000000000000000000000000000080000000000000000000000000000000000000000000000000000000000000000008000000000000000000D0F3BA
:5C03F40000000000000000000000000000000000000000000000000000000000000000000000000000000000000000000000000000000000000000000000000000000000000000000000000000000000000000000000000000000000000010FF9E
:5C04500000000000000000000000000000000000000000000000000000000000000000000000000000000000000000000000000000000002000000000000000000000000000000000000000000000000000000000000000000000000000030FD21
:5C04AC0000000000000000000000000000000000000000000000000000000000000000000000000000000000000000000000000000000000000000000000000000000000000000000000000000000000000000000000000000000000000010FFE5
:5C05080000000000000000000000000000000000000000000000000000000000000000000000000000000000000000000000000000000000080000000000000000000000000000000000000000000000000000000000002000000000000010F56A
:5C05640000000000000000000000000000000000000000000000000000000000000000000000000000000000000000000000000000040000000000000000000000000000000000000000000000000000000000000000000000000000000010FB2C
:5C05C00000000000000000000000000000000000000000000000000000000000000000000000000000000000000000000000000000000000000000000000000000000000000000000000000000000000000000000000000000000000000010FFD0
:5C061C0000000000000000000000000000000000000000000000000000000000000000000000000000000000000000000000000000000000000000000000000000000000000000000000000000000000000000000800000000000000000090FFEB
:5C06780000000000000000000000000000000000000000000000000000000000000000000000000000000000000000000000000000000000000000000000000000000000000000000000000000000000000000000000000000000000000010FF17
:5C06D40000000000000000000000000000000000000000000000000000000000000000000000000000000000000000000000000000000000000000000000000000000000000000000000000000000000000000000000000000000000000010FFBB
:5C07300000000000000000000000000000000000000000000000000000000000000000000000000000000000000000000000000008000000000000000000000000000000000000000000000000000000000000000000000000000000000090F7DE
:5C078C0000000000000000000000000000000000000000000000000000000000000000000000000000000000000000000000000000000010000000000000000000000000000000000000000000000000000000000000000008000000000080F782
:5C07E80000000000000000000000000000000000000000000000000000000000000000000000000000000000000000000000000000000000000000000000000000000000000000000000000000000000000000000000000000000000000010FFA6
:5C08440000000000000000000000000000000000000000000000000000000000000000000000000000000000000000000000000000000000000000000000000000000000000000000000000000000000000000000000000000000000000010FF49
:5C08A00000000000000000000000000000000000000000000000000000000000000000000000000000000000000000000000000010000040000000000000000000000000000000000000000000000000000000002000000004000000000000F98F
:5C08FC0000000000000000000000000000000000000000000000000000000000000000000000000000000000000000000000000000000000000000000000000000000000000000000000000000000000000000000000000000000000000010FF91
:5C09580000000000000000000000000000000000000000000000000000000000000000000000000000000000000000000000000000000000000000000000000000000000000000000000000000000000000000000000000000000000000098F7B4
:5C09B40000000000000000000000000000000000000000000000000000000000000000000000000000000000000000000000000018000000000000000000000000000000000000000000000000000000000000000000000000000000000080F758
:5C0A100000000000000000000000000000000000000000000000000000000000000000000000000000000000000000000000000000000000000000000000000000000000000000000000000000000000000000000000000000000000000010FF7B
:5C0A6C0000000000000000000000000000000000000000000000000000000000000000000000000000000000000000000000000000000000000000000000000000000000000000000000000000000000000000000000000000000000000010FF1F
:5C0AC80000000000000000000000000000000000000000000000000000000000000000000000000000000000000000000000000000000000000000000000000000000000000000000000000000000000000000000000000000000000000010FFC3
:5C0B2400040000000000000000000000000000000000000000000000000000000000000000000000000000000000000000000000000000000000000000000000000000008000000000000000000000000000000000000000000000000000D0F32E
:5C0B800000000000000000000000000000000000000000000000000000000000000000000000000000000000000000000000000000000000000000000000000000000000000000000000000000000000000000000000000000000000000010FF0A
:5C0BDC0000000000000000000000000000000000000000000000000000000000000000000000000000000000000000000000104000014000800000000000004000000000000002000000000000000000000000004011080000800000002020F65B
:5C0C380000000000000000000000000000000000000000000000000000000000000000000000000000000000000000020008020000000000000000000000000000000000000000000000000000000000000000000000000000800000000010FFC5
:5C0C9400000000000000000000000000000000000000000000000000000000000000000000000000000000000000000100081200020140000000000000000040000000000000000000000000000000000000000000000000000000000020A0F4B2
:5C0CF00000000000000000000000000000000000000000000000000000000000000000000000000000000000000000000000000000000000000000000000000000000000000000000000000000000000000000000000000000000000000010FF99
:5C0D4C00000000000000000000000000000000000000000000000000000000000000000000000000000000000000000000000040000000008000000000000000000000000000030000000000000000000000000040110C00000000000000A0F992
:5C0DA80002000000000000000000000000000000000000000000000000000000000000000000000000000000000000000000000000000000000000000000000000000000000000000000000000000000000000000000000000000000000021FCD0
:5C0E040000000000000000000000000000000000000000000000000000000000000000000000000000000000000000000000000000000000000000000000000000000000000000000000000000000000000000000000000000000000000001FE93
:5C0E600080001000024000080001200004800010000240000800012000048000100002400008000120000480001000000000000001200004800010000240000800012000048000100002400008000120000480001000024000080001200082FF0A
:5C0EBC00800010000240000800012000048000100002400008000120000480001000024000080001200004800010000000000000012000048000100002400008000120000480001000024000080001200004800010000240000800012000B1FC82
:5C0F1800000000000000000000000000000000000000000000000000000000000000000000000000000000000000000000000000400000800000000000000000000000000000000000000000000000000000000000010000000000000000D1FFEC
:5C0F74000200000000000000000000000000000000000000000000000000000000000000000000000000000000000000000000C004000013000000000000000000000000000000000000000000000000000000004C000030050000000000D1F501
:5C0FD0000000000000000000000000000000000000000000000000000000000000000000000000000000000000000000000000002000000C0800000000000000000000000000000000000000000000000000000004000010040000000000F0FE8B
:5C102C000200000000000000000000000000000000000000000000000000000000000000000000000000000000000000000000800400000E000000000000000000000000000000000000000000000000000000000804006001000000000051FD19
:5C10880000000000000000000000000000000000000000000000000000000000000000000000000000000000000000000000000083000028000000000000000000000000000000000000000000000000000000003400005000000000000040F2AB
:5C10E4000000000000000000000000000000000000000000000000000000000000000000000000000000000000000000000000000000000C000000000000000000000000000000000000000000000000000000003400005081000000000000F4AB
:5C114000000000000000000000000000000000000000000000000000000000000000000000000000000000000000000000000000000000280000000000000000000000000000000000000000000000000000000000000040000000000000B0F348
:5C119C000000000000000000000000000000000000000000000000000000000000000000000000000000000000000000000000000000001C000000000000000000000000000000000000000000000000000000000000004009000000000050FE44
:5C11F80002000000000000000000000000000000000000000000000000000000000000000000000000000000000000000000000000000000010000000000000000000000000000000000000000000000000000000000000000000000000021FD7A
:5C1254000000000000000000000000000000000000000000000000000000000000000000000000000000000000000000000000C003040013000000000000000000000000000000000000000000000000000000000C010030010100000000C0F570
:5C12B00000000000000000000000000000000000000000000000000000000000000000000000000000000000000000000000000000000000000000000000000000000000000000000000000000000000000000000002000000000000000030FDB3
:5C130C00000000000000000000000000000000000000000000000000000000000000000000000000000000000000000000000080030100020800000000000000000000000000000000000000000000000000000048000020210000000000B0F8C6
:5C1368000200000000000000000000000000000000000000000000000000000000000000000000000000000000000000000000000800000002000000000000000000000000000000000000000000000000000000300400C0200000000000C1FD4B
:5C13C4000200000000000000000000000000000000000000000000000000000000000000000000000000000000000000000000000000000C0000000000000000000000000000000000000000000000000000000000000000000000000000E1F0EE
:5C14200004000000000000000000000000000000000000000000000000000000000000000000000000000000000000000000000003000000000000000000000000000000000000000000000000000000000000000000000000000000000042FA2D
:5C147C0002000000000000000000000000000000000000000000000000000000000000000000000000000000000000000000000003000000000000000000000000000000000000000000000000000000000000000000000000000000000011FFFF
:5C14D800020000000000000000000000000000000000000000000000000000000000000000000000000000000000000000000000800000000000000000000000000000000000000000000000000000000000000000000000000000000000A1FC99
:5C1534000200000000000000000000000000000000000000000000000000000000000000000000000000000000000000000000C004000043000000000000000000000000000000000000000000000000000000000C01003004000000000081F19F
:5C15900000000000000000000000000000000000000000000000000000000000000000000000000000000000000000000000000003000001010000000000000000000000000000000000000000000000000000000002001004000000000050FB99
:5C15EC00000000000000000000000000000000000000000000000000000000000000000000000000000000000000000000000080170000020000000000000000000000000000000000000000000000000000000048000060000000000000D0F0A2
:5C1648000000000000000000000000000000000000000000000000000000000000000000000000000000000000000000000000000200000D0000000000000000000000000000000000000000000000000000000000040050000000000000A0F152
:5C16A4000200000000000000000000000000000000000000000000000000000000000000000000000000000000000000000000000B00000D000000000000000000000000000000000000000000000000000000003000005040000000000001FC13
:5C17000000000000000000000000000000000000000000000000000000000000000000000000000000000000000000000000000002000000000000000000000000000000000000000000000000000000000000000000004000000000000030F922
:5C175C00000000000000000000000000000000000000000000000000000000000000000000000000000000000000000000000000030200000000000000000000000000000000000000000000000000000000000000000040090000000000B0F340
:5C17B80000000000000000000000000000000000000000000000000000000000000000000000000000000000000000000000000000000000010000000000000000000000000000000000000000000000000000000000000010000000000000FEC6
:5C1814000000000000000000000000000000000000000000000000000000000000000000000000000000000000000000000000C004040013000000000000000000000000430000000000000000000000000000004C020030010000000000C0F328
:5C187000020000000000000000000000000000000000000000000000000000000000000000000000000000000000000000000040000000440000000000000000000000000100000000000000000000000000000000080000000000000000A1F5F7
:5C18CC000000000000000000000000000000000000000000000000000000000000000000000000000000000000000000000000801100000E000000000000000000000000320000000000000000000000000000001800002021000000000070FB2B
:5C1928000000000000000000000000000000000000000000000000000000000000000000000000000000000000000000000000400100000C0400000000000000000000000D000000000000000000000000000000100000C0200000000000E0F243
:5C198400000000000000000000000000000000000000000000000000000000000000000000000000000000000000000000000040810000100000000000000000000000000D00000000000000000000000000000000200000000000000000B0F762
:5C19E0000200000000000000000000000000000000000000000000000000000000000000000000000000000000000000000000000100008C000000000000000000000000000000000000000000000000000000001000000000000000000071F0AB
:5C1A3C000000000000000000000000000000000000000000000000000000000000000000000000000000000000000000000000004100000C0000000000000000000000000000000000000000000000000000000050040000000000000000D1F2EA
:5C1A980000000000000000000000000000000000000000000000000000000000000000000000000000000000000000000000000000020010000000000000000000000000000000000000000000000000000000000000000001000000000032FEAF
:5C1AF4000000000000000000000000000000000000000000000000000000000000000000000000000000000000000000000000C00400001F000000000000000000000000000000000000000000000000000000004C02003001000000000051FDE6
:5C1B50000000000000000000000000000000000000000000000000000000000000000000000000000000000000000000000000000B00000010000000000000000000000000000000000000000000000000000000000800C010000000000031F025
:5C1BAC000200000000000000000000000000000000000000000000000000000000000000000000000000000000000000000000800700000200000000000000000000000000000000000000000000000000000000280000E0000000000000F1FD5C
:5C1C080000000000000000000000000000000000000000000000000000000000000000000000000000000000000000000000000000000008000000000000000000000000000000000000000000000000000000002000000000000000000090F5D3
:5C1C64000000000000000000000000000000000000000000000000000000000000000000000000000000000000000000000000000F00002800000000000000000000000000000000000000000000000000000000002000C041000000000030F5A7
:5C1CC00000000000000000000000000000000000000000000000000000000000000000000000000000000000000000000000000000000000000000000000000000000000000000000000000000000000000000002000000000000000000010FD9B
:5C1D1C000200000000000000000000000000000000000000000000000000000000000000000000000000000000000000000000000300001001000000000000000000000000000000000000000000000000000000600400C000000000000041F000
:5C1D780002000000000000000000000000000000000000000000000000000000000000000000000000000000000000000000000000020000000000000000000000000000000000000000000000000000000000000000000001000000000020FEEC
:5C1DD4000400000000000000000000000000000000000000000000000000000000000000000000000000000000000000000000C007000053000000000000000000000000000000000000000000000000000000000C01003001000000000080F0E7
:5C1E30000200000000000000000000000000000000000000000000000000000000000000000000000000000000000000000000000000000100000000000000000000000000000000000000000000000000000000200000C004000000000060F619
:5C1E8C000200000000000000000000000000000000000000000000000000000000000000000000000000000000000000000000800004002600000000000000000000000000000000000000000000000000000000F80000E0000000000000F0F690
:5C1EE80002000000000000000000000000000000000000000000000000000000000000000000000000000000000000000000000002000005000000000000000000000000000000000000000000000000000000003010000004000000000001FC54
:5C1F44000000000000000000000000000000000000000000000000000000000000000000000000000000000000000000000000000602000501000000000000000000000000000000000000000000000000000000400000C001000000000030F60C
:5C1FA00000000000000000000000000000000000000000000000000000000000000000000000000000000000000000000000000000000004010000000000000000000000000000000000000000000000000000003000000000000000000050F967
:5C1FFC000000000000000000000000000000000000000000000000000000000000000000000000000000000000000000000000001000000400000000000000000000000000000000000000000000000000000000700400C000000000000000F44D
:5C20580002000000000000000000000000000000000000000000000000000000000000000000000000000000000000000000000010000010000000000000000000000000000000000000000000000000000000000000000000000000000021FCED
:5C20B4000000000000000000000000000000000000000000000000000000000000000000000000000000000000000000000000C004000013000000000000000000000000030400000000000000000000000000004C020030110000000000C1F2B0
:5C2110000000000000000000000000000000000000000000000000000000000000000000000000000000000000000000000000400800000010000000000000000000000000000000000000000000000000000000000800C004000000000062F0FD
:5C216C000000000000000000000000000000000000000000000000000000000000000000000000000000000000000000000000800500000E00000000000000000000000002000000000000000000000000000000380000E000000000000031F247
:5C21C800000000000000000000000000000000000000000000000000000000000000000000000000000000000000000000000040010000400000000000000000000000000C0000000000000000000000000000003000000004000000000011F0F9
:5C222400020000000000000000000000000000000000000000000000000000000000000000000000000000000000000000000040250000000000000000000000000000000C000000000000000000000000000000002000C001000000000061FCAD
:5C228000000000000000000000000000000000000000000000000000000000000000000000000000000000000000000000000000410000080200000000000000000000000C00000000000000000000000000000030000000000000000000C0FBC0
:5C22DC00000000000000000000000000000000000000000000000000000000000000000000000000000000000000000000000000010000180000000000000000000000000C000000000000000000000000000000300000C000000000000090F50C
:5C23380000000000000000000000000000000000000000000000000000000000000000000000000000000000000000000000000000000000080000000000000000000000000000000000000000000000000000000000000008000000000090FFAA
:5C2394000200000000000000000000000000000000000000000000000000000000000000000000000000000000000000000000C084000013000000000000000000000000030400000000000000000000000000008C0000F001000000000051F2CD
:5C23F00000000000000000000000000000000000000000000000000000000000000000000000000000000000000000000000004000000000000000000000000000000000000000000000000000000000000000000400000000000000000050FB02
:5C244C000000000000000000000000000000000000000000000000000000000000000000000000000000000000000000000000800D00000E10000000000000000000000002000000000000000000000000000000080400E0020000000000D0FFCA
:5C24A800000000000000000000000000000000000000000000000000000000000000000000000000000000000000000000000040010400400000000000000000000000000C0000000000000000000000000000003400000002000000000020F3FE
:5C250400000000000000000000000000000000000000000000000000000000000000000000000000000000000000000000000040050000000000000000000000000000000C0000000000000000000000000000003400000000000000000000F105
:5C256000020000000000000000000000000000000000000000000000000000000000000000000000000000000000000000000000410000080200000000000000000000000C000000000000000000000000000000000000C0000000000000F1F71E
:5C25BC00000000000000000000000000000000000000000000000000000000000000000000000000000000000000000000000000010000180000000000000000000000000C000000000000000000000000000000000000C000000000000090F658
:5C26180000000000000000000000000000000000000000000000000000000000000000000000000000000000000000000000000001000004000000000000000000000000040000000000000000000000000000001000004000000000000040FBD2
:5C26740000000000000000000000000000000000000000000000000000000000000000000000000000000000000000000000000000000000000000000000000000000000000000000000000000000000000000000000000000000000000010FFFB
:5C26D000800010000240000800012000048000100002400008000120000480001000024000080001200004800010000000000000002000008000100002400008000120000080001000024000080001200004800000000200000800012000F0F973
:5C272C00800010000240000800012000048000100002400008000120000480001000024000080001200004800010000000000000012000048000100002400008000120000480001000024000080001200004800010000240000800012000A0FD09
:5C27880000000000000000000000000000000000000000000000000000000000000000000000000000000000000000000000004004000041000000000000000000000000100003000000000000000000000000004480021000800200000040F3D2
:5C27E40000000000000000000000000000000000000000000000000000000000000000000000000000000000000000000000000000000000000000000000000000000000000000000000000000000000000000000000000000000000000010FF8A
:5C28400000000000000400000000000000000000000000000000000000000000000000000000000000000000000000080040020000000000000000000020004000000000080001000020000000000000000000000000000000000000000000F86D
:5C289C000000000000000000000000000000000000000000000000000000000000000000000000000000000000000000001000000000000000000000000000A0000000000000000000000000020000000000000000000000010008000000B0F67F
:5C28F8000000000000040000000000000000000000000000000000000000000000000000000000000000000000000008004802400400004100000000002000E000000000100002000020000002000000000000004480001001800800000040FFD9
:5C29540000000000000000000000000000000000000000000000000000000000000000000000000000000000000000000000000000000000000000000000000000000000000000000000000000000000000000000000000000000000000010FF18
:5C29B00000000000000000000000000000000000000000000000000000000000000000000000000000000000000000000000000000000000000000000000000000000000000000000000000000000000000000000000000000000000000010FFBC
:5C2A0C0000000000000000000000000000000000000000000000000000000000000000000000000000000000000000000000000000000000000000000000000000000000000000000000000000000000000000000000000000000000000010FF5F
:5C2A680008000000000000000000000000000000000000000000000000000000000000000000000000000000000000000000000000000000000000000000000000000000000000000000000000000000000000000000000000000000000018FFF3
:5C2AC40000000000000000000000000000000000000000000000000000000000000000000000000000000000000000000000000000010000000000000000000000000000000000000000000000000000000000000000000010000000000000FEA7
:5C2B200000000000000000000000000000000000000000000000000000000000000000000000000000000000000000000000000004000030040000000000000000000000000000000000000000000000000000000001000001000000000060FFC0
:5C2B7C0000000000000000000000000000000000000000000000000000000000000000000000000000000000000000000000000000000000000000000000000000000000000000000000000000000000000000000010000000000000000000FFEE
:5C2BD80000000000000000000000000000000000000000000000000000000000000000000000000000000000000000000000000000000000000000000000000000000000000000000000000000000000000000000000000000000000000010FF92
:5C2C340000000000000000000000000000000000000000000000000000000000000000000000000000000000000000000000000000020000080000000000000000000000000000000000000000000000000000000000000000000000000010F535
:5C2C900000000000000000000000000000000000000000000000000000000000000000000000000000000000000000000000000000000001000000000000000000000000000000000000000000000000000000000000001000000000000022FDB8
:5C2CEC0000000000000000000000000000000000000000000000000000000000000000000000000000000000000000000000000002000000000000000000000000000000000000000000000000000000000000006000000020000000000010FBFF
:5C2D48000000000000000000000000000000000000000000000000000000000000000000000000000000000000000000000000000000000C0000000000000000000000000000000000000000000000000000000000000000000000000000D0F360
:5C2DA40000000000000000000000000000000000000000000000000000000000000000000000000000000000000000000000000000000000000000000000000000000000000000000000000000000000000000000000000000000000000010FFC4
:5C2E000000000000000000000000000000000000000000000000000000000000000000000000000000000000000000000000000000000000000000000000000000000000000000000000000000000000000000000000000000000000000010FF67
:5C2E5C0000000000000000000000000000000000000000000000000000000000000000000000000000000000000000000000000000000008000000000000000000000000000000000000000000000000000000000000000000000000000090F78B
:5C2EB80000000000000000000000000000000000000000000000000000000000000000000000000000000000000000000000000000000000000000000000000000000000000000000000000000000000000000000000000000000000000010FFAF
:5C2F1400080000000000000000000000000000000000000000000000000000000000000000000000000000000000000000000000200000000000000000000000000000000000000000000000000000000000000000000000000000000000B0F792
:5C2F700000000000000000000000000000000000000000000000000000000000000000000000000000000000000000000000000000040000010000000000000000000000000000000000000000000000000000000004008000000000000050F636
:5C2FCC0000000000000000000000000000000000000000000000000000000000000000000000000000000000000000000000000000000000000000000000000000000000000000000000000000000000000000000000000000000000000010FF9A
:5C30280000000000000000000000000000000000000000000000000000000000000000000000000000000000000000000000000000000000000000000000000000000000000000000000000000000000000000000000000000000000000010FF3D
:5C30840000000000000000000000000000000000000000000000000000000000000000000000000000000000000000000000000000000000000000000000000000000000000000000000000000000000000000000000000001000000000000FEF1
:5C30E00000000000000000000000000000000000000000000000000000000000000000000000000000000000000000000000000080000000020000000000000000000000000000000000000000000000000000000000000000000000000090FD85
:5C313C00000000000000000000000000000000000000000000000000000000000000000000000000000000000000000000000000800000000000000000000000000000000000000000000000000000000000000000000020020000000000B0FFE6
:5C31980000000000000000000000000000000000000000000000000000000000000000000000000000000000000000000000000002000000000000000000000000000000000000000000000000000000000000000000000000000000000030FDAC
:5C31F40000000000000000000000000000000000000000000000000000000000000000000000000000000000000000000000000000000000000000000000000000000000000000000000000000000000000000000000000000000000000010FF70
:5C32500000000000000000000000000000000000000000000000000000000000000000000000000000000000000000000000000000000000000000000000000000000000000000000000000000000000000000000000000000000000000098F793
:5C32AC0000000000000000000000000000000000000000000000000000000000000000000000000000000000000000020000000000000000000000000000000000000000000000000000000000000000000400000000000000000001400000F887
:5C33080000000000000000000000000000000000000000000000000000000000000000000000000000000000000000000000000000000000000000000000000000000000020000000000000000000000000000000000000000000000000010FD5A
:5C33640002000000000000000000000000000000000000000000000000000000000000000000000000000000000000000000000000000000100000800100000000000000000000040000100000008008000000000000000000020000080020FBB9
:5C33C000000000000000000000000000000000000000000000000000000000000000000000000000000000000000000000000000000000000000000100000000000000000000000010004040000000002000000000000000000008000020F0FFE9
:5C341C0000000000000000000000000000000000000000000000000000000000000000000000000000000000000000000000000000000000000000000000000000000000000000000000000000000000000000000000000000000000000010FF45
:5C34780010000000000000000000000000000000000000000000000000000000000000000000000000000000000000000000000000000004000000000000000000000000000800000001000004800000000000000000000000008000000098F649
:5C34D40000000000000000000000000000000000000000000000000000000000000000000000000000000000000000000000000000000000000000000000000000000000000000000000000000000000000000000000000000000000000010FF8D
:5C35300000000000000000000000000000000000000000000000000000000000000000000000000000000000000000000000000000000002000000000000000400000000000000000000000000000000000000000000000000000000000070FDCC
:5C358C000000000000000000000000000000000000000000000000000000000000000000000000000000000000000000000018000000000000000020000000000000000000000000020400000010000000000C000000000000000000030090FEF8
:5C35E80000000000000000000000000000000000000000000000000000000000000000000000000000000000000000000000000000000000000000000004000800000000040000002000030001000000400000000000000000001000004080FE45
:5C36440000000000000000000000000000000000000000000000000000000000000000000000000000000000000000000000000000000000000000000000000000000200000000000021000084801000004000000000000000000000000040F77C
:5C36A00000000000000000000000000000000000000000000000000000000000000000000000000000000000000000000000000000000000000000000000002000000000000000000000000000000000000000000000000000000000000010FDA1
:5C36FC0000000000000000000000000000000000000000000000000000000000000000000000000000000000000000000000000000000000000000000000000000000000000000000000000000000000008000000000000000000000000010F7EB
:5C37580000000000000000000000000000000000000000000000000000000000000000000000000000000000000000000000000000000000000000000000000000000000200000000000000000000000000000000000000000000000000030FDC8
:5C37B40000000000000000000000000000000000000000000000000000000000000000000000000000000000000000000000000000000000000008004800008000100000400000000000040000000000200000000000000000000000800C20F0D9
:5C38100000000000000000000000000000000000000000000000000000000000000000000000000000000000000000000000000000000000000000000000000000000000000000000800000000000000060000000000000000000000000090F9C5
:5C386C0000000000000000000000000000000000000000000000000000000000000000000000000000000000000000000000000000000008000000000000000000020000080000000000000000000000000000000000000000000000000090FD61
:5C38C800000000000000000000000000000000000000000000000000000000000000000000000000000000000000000000000000000000000000000000000000000000000000000000800000000000000002000000000000000000000000B0FF73
:5C392400080000000000000000000000000000000000000000000000000000000000000000000000000000000000000000000000000000000000000000000000000000000000000000000000000000020000000000000000000000000000B0F598
:5C39800000000000000000000000000000000000000000000000000000000000000000000000000000000000000000000000000000000000000000000000000000000000000000000000000000000000000000000000000000000000010010FEDC
:5C39DC0000000000000000000000000000000000000000000000000000000000000000000000000000000000000000000000000000000040000000000000000000000000040000008000000000000000000000000000000000000100000062F177
:5C3A380000000000000000000000000000000000000000000000000000000000000000000000000000000000000000000000000000000020080000000000004004000000000200000040000000092000000000000000000000000000000010FC4F
:5C3A940000000000000000000000000000000000000000000000000000000000000000000000000000000000000000000000000000000000000000000000000000200000000000000000000000000000000000000000000000000000000030FD89
:5C3AF00000000000000000000000000000000000000000000000000000000000000000000000000000000000000000000000000000000000000000100000000000000000000000000000000000000101000000000000000000000000200020FD2B
:5C3B4C00180000000000000000000000000000000000000000000000000000000000000000000000000000000000000000000000000000000000000000000000000000000000000000000000000000000000000000000000000000000000A2F56E
:5C3BA80000000000000000000000000000000000000000000000000000000000000000000000000000000000000000000000000000000000000000000000000000000000000000000000000000000800000000000000000000000000000090FF2A
:5C3C040000000000000000000000000000000000000000000000000000000000000000000000000000000000000000B000B014000802600144000090081701A24000014401000000800E9145841006202201000000000000110201108022F0FA78
:5C3C6000000000000000000000000000000000000000000000000000000000000000000000000000000000000000000202000000080020004000000008000000000000000000000000000000080000000800000000000000010001000000F0F2A0
:5C3CBC000000000000000000000000000000000000000000000000000000000000000000000000000000000000000049024812000002400004000000000001A000000000010000000000000080040000000000000000000000000000002020F764
:5C3D1800000000000000000000000000000000000000000000000000000000000000000000000000000000000000000000000000000000000000000000110002000000000000000000048100000002000000000000000000000000000000D0F3F2
:5C3D74000000000000000000000000000000000000000000000000000000000000000000000000000000000000000000000080080000000100000098000700004000015C0000000080089045041006202A0100000000000010020050C002E0F276
:5C3DD00002000000000000000000000000000000000000000000000000000000000000000000000000000000000000000000000000000000000000000000000000000000000000000000000000000000000000000000000000000000000021FC78
:5C3E2C0002000000000000000000000000000000000000000000000000000000000000000000000000000000000000000000001000000000000000000000000000000000000000000000000000000000000000000000000000000000000021FD0A
:5C3E8800840010000240000800012000048000100002400008000120000480001000024000080001200004800010000000000000012000048000100002400008000120000480001000024000080001200004800010000240000800012000C2FB72
:5C3EE40082001000024000080001200004800010000240000800012000048000100002400008000120000480001000000000000001200004800010000240000800012000048000100002400008000120000480001000024000080001200091FE46
:5C3F4000020000000000000000000000000000000000000000000000000000000000000000000000000000000000000000000008000000080000200000000000000000000000000000000000100003011008000000000000000000020002A1F62C
:5C3F9C000200000000000000000000000000000000000000000000000000000000000000000000000000000000000000000000080000005B00002CC0070200A6C00001002300006C8109F28106D007180007020000000000000EC4025C0091F8C5
:5C3FF800000000000000000000000000000000000000000000000000000000000000000000000000000000000000000000000000000000490000200000000082008000000004002008000000000880000004010000000000001000024204C0F041
:5C4054000200000000000000000000000000000000000000000000000000000000000000000000000000000000000000000000000000001E000068200904002C800600001200002800012109048004F00806000000000000001C9002500061F46B
:5C40B0000200000000000000000000000000000000000000000000000000000000000000000000000000000000000000000000000000000D000020088600000A000200000C0000102006C210180000000004000000000000009000022000F0F524
:5C410C000400000000000000000000000000000000000000000000000000000000000000000000000000000000000000000000000000000D020010000600002A1086000010100070000EC00020010060408800000000000000180009600860F6E8
:5C4168000200000000000000000000000000000000000000000000000000000000000000000000000000000000000000000000000000000C0100100000000008000000000C0000301006000000010060000800000000000000100811602020FD53
:5C41C4000200000000000000000000000000000000000000000000000000000000000000000000000000000000000000000000000000000C0000A00006000028080604000C0000700000C00020000060003800000000000000380002E000F0FEB5
:5C42200002000000000000000000000000000000000000000000000000000000000000000000000000000000000000000000000000000000020000012000000004000000000800000000000410000000200000000000000000000002000291F94F
:5C427C000000000000000000000000000000000000000000000000000000000000000000000000000000000000000000000000010000001300004C8005000026C00001001300001C810F3200162000380083000000000000000EC4029C0030F2A6
:5C42D80000000000000000000000000000000000000000000000000000000000000000000000000000000000000000000000800200000000000004040400000000800000000000A00000000810000040000C000000000000000000220004C0F79B
:5C43340000000000000000000000000000000000000000000000000000000000000000000000000000000000000000000000800200000002010008000D04002484070000020100380081A00034010070403E000000000000000C9006500080FFF0
:5C439000020000000000000000000000000000000000000000000000000000000000000000000000000000000000000000000000000000000000340082000018000300000C0000200100401010000040000C00000000000000800002210091F001
:5C43EC000000000000000000000000000000000000000000000000000000000000000000000000000000000000000000000000000000001C100034000600000004870000000200300000420048000060020C000000000000002800012008B1FA5E
:5C44480000000000000000000000000000000000000000000000000000000000000000000000000000000000000000000000000000000000000000000600000000000000000000202000400148000040200000000000000000300009A00082F39B
:5C44A40000000000000000000000000000000000000000000000000000000000000000000000000000000000000000000000000000000000000000000601000000030000000000300000C000300000E0000000000000000000180006600041FAF9
:5C45000000000000000000000000000000000000000000000000000000000000000000000000000000000000000000000000000000000028000020101000000000020000100000000000000200000000200000000000000000000000020081F54B
:5C455C000200000000000000000000000000000000000000000000000000000000000000000000000000000000000000000000000000000B00004C800B000086C01300000300003C9003B100A6C08238004F000000000000004EC007380151F144
:5C45B800000000000000000000000000000000000000000000000000000000000000000000000000000000000000000000000000000000490000102004000082400202000C0000300400820802020001000000000000000000500008400020F3EA
:5C4614000000000000000000000000000000000000000000000000000000000000000000000000000000000000000000000000000000000E000038001F00000C80070000420000480003A00004800030400E040000000000003C8003F00190FBE4
:5C4670000000000000000000000000000000000000000000000000000000000000000000000000000000000000000000000000000000001D000000001400000A420B000000000030201040101A000000002000000000000000500000400090F765
:5C46CC000200000000000000000000000000000000000000000000000000000000000000000000000000000000000000000000020000000D000010010600002A400700000C100040000EC0001A0024A0020C0000000000000018000F600211F455
:5C4728000200000000000000000000000000000000000000000000000000000000000000000000000000000000000000000000010000000C0100300004000008004200000C0000000000C440000000C0000C000000000000001010034040F0F543
:5C4784000400000000000000000000000000000000000000000000000000000000000000000000000000000000000000000000000000000C0000A0004E000028080300000C000030000AC00100001060000000000000000000180000600080FD3C
:5C47E000020000000000000000000000000000000000000000000000000000000000000000000000000000000000000000000000000000000800000000000000100000000000002000060020080003000100000000000000000020000200D0FA25
:5C483C000200000000000000000000000000000000000000000000000000000000000000000000000000000000000000000080100000001F00004CA029000026C00001001301004C9003310106E003BA00230000000000000026C000F808C0F0F2
:5C489800020000000000000000000000000000000000000000000000000000000000000000000000000000000000000000000008000000000000000800000000008000002C000000080602000A002040000001000000000000200000404071FD7D
:5C48F40000000000000000000000000000000000000000000000000000000000000000000000000000000000000000000000800000000002100038000D040024840500001E0000280003E009049004F00112000000000000003C800BB00000F9A3
:5C4950000000000000000000000000000000000000000000000000000000000000000000000000000000000000000000000000020000004800000000820000180001000080000000201600100A000040010004000000000000000010400140F987
:5C49AC00000000000000000000000000000000000000000000000000000000000000000000000000000000000000000000008000000000080000B00002000000048500000C000060000EC000820000600010000000000000001810032000C0F4C1
:5C4A080002000000000000000000000000000000000000000000000000000000000000000000000000000000000000000000000000000040000030000A00000000000000000000200806C40000020040400000000000000000180003600831FAB4
:5C4A6400000000000000000000000000000000000000000000000000000000000000000000000000000000000000000000000010000000100000300006000000000504000C000040000AC00008000060000C00000000000000180003000021F6DB
:5C4AC00000000000000000000000000000000000000000000000000000000000000000000000000000000000000000000000000000000000100020000000000000220000400000200000040200000000100000000000000000002000000072FD43
:5C4B1C000000000000000000000000000000000000000000000000000000000000000000000000000000000000000000000000080000000300004CA08F000026C20600000B00004C9001700126C181780007100000000000003EC014984021F27C
:5C4B7800000000000000000000000000000000000000000000000000000000000000000000000000000000000000000000000000000000000000101006000098008200000800000004008000000000610001000000000000003840406000D1F4D6
:5C4BD40002000000000000000000000000000000000000000000000000000000000000000000000000000000000000000000000100000002010078001100001C800400008A0000680001E1035C8000900816010000000000002480007008B1F433
:5C4C3000000000000000000000000000000000000000000000000000000000000000000000000000000000000000000000000000000000000000000886000080000201000400000020068200400000600041000000000000001840036000F0F3EC
:5C4C8C000000000000000000000000000000000000000000000000000000000000000000000000000000000000000000000000000000001C1000100000000038000600003C000060000EC002380024004001000000000000000050036000E0F2C4
:5C4CE800000000000000000000000000000000000000000000000000000000000000000000000000000000000000000000000000000000000000300000000000000200000C0200204006808018000000000400000000000000000000000010F9A5
:5C4D4400020000000000000000000000000000000000000000000000000000000000000000000000000000000000000000000000000000000000A00006000018000304001C0000000000C00018001060000401000000000000180000000041FE8C
:5C4DA000000000000000000000000000000000000000000000000000000000000000000000000000000000000000000000000000000000100000000004000000000201000808000001040020000002004000000000000000001000200001D1F730
:5C4DFC000000000000000000000000000000000000000000000000000000000000000000000000000000000000000000000000000000001F00004C8245000066C00200001F00004C8001F80106C422F800830000000000000006C804B80032FDFC
:5C4E580000000000000000000000000000000000000000000000000000000000000000000000000000000000000000000000000000000080000030000404005800820000090400000800C40010000201000000000000000000000000010091F4FA
:5C4EB400000000000000000000000000000000000000000000000000000000000000000000000000000000000000000000000000000000120000780105000024800400001E0000280001200904900690083200000000000000148403D04071F486
:5C4F1000020000000000000000000000000000000000000000000000000000000000000000000000000000000000000000000000000000480000300004000000010201004D0000102008C01010002260000000000000000000000008008051FA09
:5C4F6C0000000000000000000000000000000000000000000000000000000000000000000000000000000000000000000000000000000008000030000C040038000600001D0000500000000088000260400008000000000000101007400040F825
:5C4FC80000000000000000000000000000000000000000000000000000000000000000000000000000000000000000000000000000000040000000000002001800020000080100500000000018000002000000000000000000100403000060FB4C
:5C50240000000000000000000000000000000000000000000000000000000000000000000000000000000000000000000000000000000010000000000E000018000302000C0000300028C00008080360000C000000000000002000032008B0F562
:5C508000020000000000000000000000000000000000000000000000000000000000000000000000000000000000000000000000000000100000200000000020001000000000000000028000000002404000000000000000001000020000B1F2B9
:5C50DC000000000000000000000000000000000000000000000000000000000000000000000000000000000000000000000000000000001300006C8203020026C00000005300000C900134819EC0229800030200000000000006C8227820B1F998
:5C51380000000000000000000000000000000000000000000000000000000000000000000000000000000000000000000000000000000080000020000000001800000200210000000406020800008200208C00000000000000002002004052FD4D
:5C5194000000000000000000000000000000000000000000000000000000000000000000000000000000000000000000000000000000001E000068010D04001C88040000160000780007A0001C880250001E000000000000003480029100B1FD41
:5C51F000000000000000000000000000000000000000000000000000000000000000000000000000000000000000003F0000800000000000000020020001000001000000850000002000001080000201000000000000000000000002600861F38A
:5C524C00020000000000000000000000000000000000000000000000000000000000000000000000000000000000807F0000000000000000040020000C00001800070400150000700048800018000440400000000000000000101002620051FFF5
:5C52A8000000000000000000000000000000000000000000000000000000000000000000000000000000000000008004000000000000008800002000800000000003000004010030004680001900024010000000000000000010200A000070F0FB
:5C530400000000000000000000000000000000000000000000000000000000000000000000000000000000000000000100000000000000080000D000020000180003000014000030000E0000000003840000000000000000000000016000A0FF7E
:5C536000000000000000000000000000000000000000000000000000000000000000000000000000000000000000800000000000000000000000000004000020000000000000000000088000001002404000000000000000000000100000F0F83B
:5C53BC000200000000000000000000000000000000000000000000000000000000000000000000000000000000000000000000000000001B01001CC001020026C01000001301007C9001308106C022980007100000000000001EC804B820C1FBBB
:5C54180000000000000000000000000000000000000000000000000000000000000000000000000000000000000000000000000000000008000004010000009800000000000000000400000000000201004100000000000000006040000421F98D
:5C5474000000000000000000000000000000000000000000000000000000000000000000000000000000000000000000000000000000002A000018001500001C804000000E1000480001A109048406D0081600000000000000248000500072F8BE
:5C54D000000000000000000000000000000000000000000000000000000000000000000000000000000000000000000000000000000000240000840080000080000300000000003020060210980002000001000000000000001840030010F1FE78
:5C552C000000000000000000000000000000000000000000000000000000000000000000000000000000000000000000000000000000001C00004400040000380080000020000070000E800038000642405100000000000000185003C000A1F616
:5C5588000200000000000000000000000000000000000000000000000000000000000000000000000000000000000000000000000000000C0200100404080000000000000810000000068000190040408004000000000000000000000000D1FC0F
:5C55E4000000000000000000000000000000000000000000000000000000000000000000000000000000000000000000000000000000000C0000100000000018000000000800003000000001000007000004010000000000001800002008F0F3CF
:5C56400000000000000000000000000000000000000000000000000000000000000000000000000000000000000000000000000000000004000010000000000800010000040000000000000008000000000400000000000000000001000010F7D9
:5C569C0000000000000000000000000000000000000000000000000000000000000000000000000000000000000000000000000000000000000000000000000000000000000000000000000000000000000000000000000000000000000010FFA3
:5C56F800800010000240000800012000048000100002400008000120000480001000024000080001200004800010000000000000012000008000000002400000000020000080001000024000000001200000800010000240000800002000A0F544
:5C575400800010000240000800012000048000100002400008000120000480001000024000080001200004800010000000000000012000048000100002400008000120000480001000024000080001200004800010000240000800012000A0FDB1
:5C57B0000000000000000000000000000000000000000000000000000000000000000000000000000000000000000000000000000000000100000880260000800800010040A028440C000300000814C2025104000000005000004000010060F1F3
:5C580C0000000000000000000000000000000000000000000000000000000000000000000000000000000000000000000000000000000000000000000C00010000000000100000000800000000008000000802000000000000000080000060F5BC
:5C586800000000000000000000000000000000000000000000000000000000000000000000000000000000000000000A0444220000000000008000000010044000000800004000000020000000000000000000000000000000A00000000060F73D
:5C58C40000000000000000000000000000000000000000000000000000000000000000000000000000000000000000000008000004000000000000000000002001410000200002000000000000000000000000000000000001000000000090F473
:5C59200000000000000000000000000000000000000000000000000000000000000000000000000000000000000000090248120004000001008008802C1005E00900090070E00A440C22020008089482025D06000000001001A040810100C0F703
:5C597C0000000000000000000000000000000000000000000000000000000000000000000000000000000000000000000000000000000000000000000000000000000000000000000000000000000000000000000000000000000000000010FFC0
:5C59D80000000000000000000000000000000000000000000000000000000000000000000000000000000000000000000000000000000000000000000000000000000000000000000000000000000000000000000000000000000000000010FF64
:5C5A340000000000000000000000000000000000000000000000000000000000000000000000000000000000000000000000000000000000000000000001000000000000000000000000000000000000000000000000000000000000000000FE17
:5C5A900000000000000000000000000000000000000000000000000000000000000000000000000000000000000000000000000000000000000000000000000000000000000000000000000000000000000000000000000000000000000045FA7B
:5C5AEC0000000000000000000000000000000000000000000000000000000000000000000000000000000000000000400000000000000000000000000200000000000000000000000000002000010100001000000000000000800820000040F111
:5C5B4800000000000000000000000000000000000000000000000000000000000000000000000000000000000000000000000400000000000000000000000000802800000000000000000000000000001000010000000000000000000000B0F1A3
:5C5BA40000000000000000000000000000000000000000000000000000000000000000000000000000000000000000000020000000000000000000000000000000000000000000000000000000000000000000000000000000000000000030FF56
:5C5C000000000000000000000000000000000000000000000000000000000000000000000000000000000000000000000000000000000000000000000000000000000000000000000000000000000000000000000000000000000000000010FF39
:5C5C5C0000000000000000000000000000000000000000000000000000000000000000000000000000000000000000000000000000000000080000000000000000000000000800000000000000000000000000000000000000000000000090F755
:5C5CB80000000000000000000000000000000000000000000000000000000000000000000000000000000000000000000000000000000001000000000000000200000000000000000000000000000000000000000000000000000000000020FE6F
:5C5D1400000000000000000000000000000000000000000000000000000000000000000000000000000000000000000000000000000000100000000000000000050000000100000004002000000000000008000000000000000000000000B0F948
:5C5D7000000000000000000000000000000000000000000000000000000000000000000000000000000000000000000000000000000000080000200000020000004200000800000000000000100040000000000000000000000200220010C0FE21
:5C5DCC0000000000000000000000000000000000000000000000000000000000000000000000000000000000000000000000000000000000000000000000000000000000000000000000000000000000000000000000000000000000000010FF6C
:5C5E280000000000000000000000000000000000000000000000000000000000000000000000000000000000000000000000000000000000000000000000000000000000000000000000000000000000000000000000000000000000000098F78F
:5C5E840000000000000000000000000000000000000000000000000000000000000000000000000000000000000000000000000000000001000000000000000000000000000000000000000000000000000000000000000000000000000000FEC3
:5C5EE00000000000000000000000000000000000000000000000000000000000000000000000000000000000000000000000000000000000000000048000000000000000000000000000000000000000000000000000000000000000000010F3DF
:5C5F3C00000000000000000000000000000000000000000000000000000000000000000000000000000000000000000000000000000000000000000000000000000800000000000000C0000000000080000000000000000000000000000050F77A
:5C5F980000000000000000000000000000000000000000000000000000000000000000000000000000000000000000000000000000000000000000000000000000800000000100400100800200001000000000000000000000000000000070FAEF
:5C5FF40000000000000000000000000000000000000000000000000000000000000000000000000000000000000000000000000000000000000000002000000000000400001000000000000000000000000000000000000000000000000072FEAD
:5C605000000000000000000000000000000000000000000000000000000000000000000000000000000000000000000000000000000000400000000000000000000000000000000004000010000000000800000000000000000002000008B0F6E8
:5C60AC0000000000000000000000000000000000000000000000000000000000000000000000000000000000000000000000000000000000000000080000002000000100100000000000020000080001000000000000000000000000000000FF55
:5C610800000000000000000000000000000000000000000000000000000000000000000000000000000000000000000000000000000000000200000000000000000000000000000000000000000004000008000000000000000000000000D0FD60
:5C616400000000000000000000000000000000000000000000000000000000000000000000000000000000000000000000000000000000800000000000000040000000000000000000000000000000000000000000000000000000000010D4FE3D
:5C61C00000000000000000000000000000000000000000000000000000000000000000000000000000000000000000020040000000000000000010001400000000000000000000800000008000000000011000000000000000402080400110FEDD
:5C621C0000000000000000000000000000000000000000000000000000000000000000000000000000000000000000000000000000000000000000000000000002000000000000000000000000000000000000000000000000000000000021FC07
:5C62780000000000000000000000000000000000000000000000000000000000000000000000000000000000000000000000000000000000000000000000000000000000100000000000000000000000000000000000000000000000000000FEBC
:5C62D40000000000000000000000000000000000000000000000000000000000000000000000000000000000000000000000000000000000000000000000000000000000000000000000000000000000000000000000000040000000000050FFDF
:5C63300000000000000000000000000000000000000000000000000000000000000000000000000000000000000000010000000000000000000000000000000000000000000000000000000000000000000000000000000000000000000010FE02
:5C638C000000000000000000000000000000000000000000000000000000000000000000000000000000000000000040002000000001000040000000000A480100000000000000000000000000004000000000000000001000002C00008000F7CE
:5C63E80002000000000000000000000000000000000000000000000000000000000000000000000000000000000000000000000000000000000000000000000000000000000000000000000000000000400000000000000040000000100002FACB
:5C64440000000000000000000000000000000000000000000000000000000000000000000000000000000000000000000000000000000000000000000000000000000000000000000000000000000000000000000000000000000000000010FFED
:5C64A00000000000000000000000000000000000000000000000000000000000000000000000000000000000000000000000000000000000000000000020000000000000000000000000000000000000000000000000000000000000000030FF51
:5C64FC0000000000000000000000000000000000000000000000000000000000000000000000000000000000000000000000000000000000000000000000000000000000000000000000000000000000000000000000000000000000000010FF35
:5C65580000000000000000000000000000000000000000000000000000000000000000000000000000000000000000000000000000000000000000000004000000000000000000000000000000000000000000000000000000000000000050FB98
:5C65B40000000000000000000000000000000000000000000000000000000000000000000000000000000000000000080000100000020000000000000000000000002001000000000000000000000000000000000000000000000000000010F749
:5C66100000000000000000000000000000000000000000000000000000000000000000000000000000000000000000000000000000000000000001000000000000000000000000000000000000000800000000000000000080400000000040FA2B
:5C666C00000000000000000000000000000000000000000000000000000000000000000000000000000000000000000000000000000000000000000020000000000010020000000000000000800000000000000000000000000010000000B0FF61
:5C66C80000000000000000000000000000000000000000000000000000000000000000000000000000000000000080000000000000040000000000000000000000000000000000000000000000000404000000000000000000002000000090FD3D
:5C67240000000000000000000000000000000000000000000000000000000000000000000000000000000000000000000000000000000000000000000000000000000000000000000000000000000000000000000000000000000000000010FF0A
:5C67800000000000000000000000000000000000000000000000000000000000000000000000000000000000000000000000000000000000000000000000000000000000000000000000000000000000010000000000000000000000000010FEAE
:5C67DC0000000000000000000000000000000000000000000000000000000000000000000000000000000000000000000000000010000000000000000800040000000000000000000000000000001000000000000000000000800000000000F2C3
:5C68380000000000000000000000000000000000000000000000000000000000000000000000000000000000000000000000000000000000000800800000000000000024000000000000000000000000000000000000000000000000000070F3F5
:5C68940000000000000000000000000000000000000000000000000000000000000000000000000000000000000000000000000000000000000000000000000000000000000000000000000000000000000000000000000000000000000010FF99
:5C68F00000000000000000000000000000000000000000000000000000000000000000000000000000000000000000000000000000000000000000000000000000000000000000000000000000000010000000000000002000000000000000FD1F
:5C694C0000000000000000000000000000000000000000000000000000000000000000000000000000000000000000000010000000000000000000000004000000000040000000000000000000100002000000000000000000000000200010FA5F
:5C69A80000000000000000000000000000000000000000000000000000000000000000000000000000000000000000000000000000000000000000000000000000000000000000000000000000000000000000000000000000000000000098F704
:5C6A040000000000000000000000000000000000000000000000000000000000000000000000000000000000000000000000000000000000000000000100000000000000000000000000000014000000000000000000000000000000000050FBD6
:5C6A600008000000000000000000000000000000000000000000000000000000000000000000000000000000000000000000000020000000000000000000000000001000000000000000000000000001000000000000000001000800000030F672
:5C6ABC0000000000000000000000000000000000000000000000000000000000000000000000000000000000000000000000000000000000000000004000000000000000000000000000000000000000000000000000000000000000000010FB33
:5C6B180000000000000000000000000000000000000000000000000000000000000000000000000000000000000000000000000000000000000000000000000000000000000000000000000000000000000000000000000000000000000010FF12
:5C6B740002000000000000000000000000000000000000000000000000000000000000000000000000000000000000000000000000000000000000000000000000000000000000000000000000000000000000000000000000000000000030FD96
:5C6BD00000000000000000000000000000000000000000000000000000000000000000000000000000000000000000000000000000000000000000000000000000000000000000000000000000000000000000000000000000000000000010FF5A
:5C6C2C00000000000000000000000000000000000000000000000000000000000000000000000000000000000000000A00501A400402600000000000001041A0080018000200000080080200001210A902000000000000100CA04814004050F6EA
:5C6C880000000000000000000000000000000000000000000000000000000000000000000000000000000000000000000000000004004000000000000000000000000000000000008008020000000008000000000000001004800000000090F8BE
:5C6CE4000000000000000000000000000000000000000000000000000000000000000000000000000000000000000009004812008000100002000000000000A000000000020000000000000000000000000000000000000000000000001040F776
:5C6D400000000000000000000000000000000000000000000000000000000000000000000000000000000000000000000000000000000000000000000000000000000000000000000000000000100000020000000000000000000000000000FCE9
:5C6D9C000000000000000000000000000000000000000000000000000000000000000000000000000000000000000000000080480002300002000000001041000C001800000000000000000000001081000000000000000008204857004090F50D
:5C6DF80002000000000000000000000000000000000000000000000000000000000000000000000000000000000000000000000000000000000000000000000000000000000000000000000000000000000000000000000000000000000021FC20
:5C6E540000000000000000000000000000000000000000000000000000000000000000000000000000000000000000000000001000000000000000000000000000000000000000000000000000000000000000000000000000000000000001FFD2
:5C6EB00080001000024000080001200004800010000240000800012000048000100002400008000120000480001000000000000801200004800010000240000800012000048000100002400008000120000480001000024000080001200002FFD2
:5C6F0C00800010000240000800012000048000100002400008000120000480001000024000080001200004800010000000000000012000048000100002400008000120000480001000024000080001200004800010000240000800012000B1FCD1
:5C6F6800000000000000000000000000000000000000000000000000000000000000000000000000000000000000000000000008030000008001000008000800000000000000000000000000800008000000000000000000400000006004C1FB49
:5C6FC4000200000000000000000000000000000000000000000000000000000000000000000000000000000000000000000000C084000000E00900800930010000009802000000000000000006C00418020000000000007000A60000F80031F4D7
:5C70200000000000000000000000000000000000000000000000000000000000000000000000000000000000000000000000000003000000000100802000200000000808000000000000000002020302400000000000000000820000000060F025
:5C707C0002000000000000000000000000000000000000000000000000000000000000000000000000000000000000000000008083000000C04100000BE00100000010000000000000000000048004900000000000000060802C0000F08051FCD5
:5C70D800020000000000000000000000000000000000000000000000000000000000000000000000000000000000000000000000030000000020008002C000000000680000000000000000001A0000000000000000000000042A0000600050F2A3
:5C713400040000000000000000000000000000000000000000000000000000000000000000000000000000000000000000000000470000008001008002C240000000680000000000000000001A0003E40800000000000040000A0000E00830FAE2
:5C71900002000000000000000000000000000000000000000000000000000000000000000000000000000000000000000000000003000000004000008200000000000000000000000000000000000360000000000000008001080200600020F579
:5C71EC00020000000000000000000000000000000000000000000000000000000000000000000000000000000000000000008002030000000001000002C000000000000000000000000000000000036000000000000000C000080000600060F41E
:5C72480002000000000000000000000000000000000000000000000000000000000000000000000000000000000000000000000003000000000000002000020000000000000000000000000000000000200000000000000004000400000031F971
:5C72A4000000000000000000000000000000000000000000000000000000000000000000000000000000000000000000000000C300020000E00900800130010000009810000000000000000086C00CB8000000000000003001260000188090FA03
:5C73000000000000000000000000000000000000000000000000000000000000000000000000000000000000000000000000800203000000000100800000000000002002000000000000000010040340080000000000000001000000000040F178
:5C735C0000000000000000000000000000000000000000000000000000000000000000000000000000000000000000000000808083000000C04000002B2080000000F00000000000000000001C8004710000000000000020010410003040A0F54C
:5C73B80002000000000000000000000000000000000000000000000000000000000000000000000000000000000000000000000003000000802100800A0000000000604000000000000000001800004000000000000000C008000000200091F5E3
:5C741400000000000000000000000000000000000000000000000000000000000000000000000000000000000000000000000000470000000000008002C00101000080000000000000000000380203E204000000000000C001382000200441F27E
:5C7470000000000000000000000000000000000000000000000000000000000000000000000000000000000000000000000000000300000080400000820000000000600000000000000000001000034000000000000000C0000000000000C2F056
:5C74CC000000000000000000000000000000000000000000000000000000000000000000000000000000000000000000000000000300000000010000020000000000E008000000000000000078000360100000000000000000000000A00811F8DA
