:020000040000FA
:5C000000FFFF62FF2E00FFFFFFFFFFFFFFFFFFFFFFFFFFFFFFFFFFFFFFFFFFFFFFFFFFFFFFFFFFFFFFFFFFFFFFFFFFFFFFFFFFFFFFFFFFFFFFFFFFFFFFFFFFFFFFFFFFFFFFFFFFFFFFFFFFFFFFFFFFFFFFFFFFFFFFFFFFFFFFFFFFFFFFFFFFFF6D
:5C005C0060180C8361300C86C1301806C360180C8361300C86C1301806C360180C8361300C86C1301806C360180C0300000000C0301806C360180C8361300C86C1301806C360180C8361300C86C1301806C360180C8361300C86C1301806D0F00B
:5C00B80040100802412008048120100482401008024120080481201004824010080241200804812010048240100802000000008020100482401008024120080481201004824010080241200804812010048240100802412008048120100490F565
:5C01140000000000000000000000000000000000000000000000000000000000000000000000000000000000000000000000000000000000000000000000000000000000000000000000000000000000000000000000000000000000000010FF80
:5C01700000000000000000000000000000000000000000000000000000000000000000000000000000000000000000000000000000000000000000000000000000000000000000000000000000000000000000000000000000000000000010FF24
:5C01CC0000000000000000000000000000000000000000000000000000000000000000000000000000000000000000000000000000000000000000000000000000000000000000000000000000000000000000000000000000000000000010FFC8
:5C02280000000000000000000000000000000000000000000000000000000000000000000000000000000000000000000000000000000000000000000000000000000000000000000000000000000000000000000000000000000000000010FF6B
:5C02840000000000000000000000000000000000000000000000000000000000000000000000000000000000000000000000000000000000000000000000000000000000000000000000000000000000000000000000000000000000000010FF0F
:5C02E00000000000000000000000000000000000000000000000000000000000000000000000000000000000000000000000000000000000000000000000000000000000000000000000000000000000000000000000000000000000000010FFB3
:5C033C0000000000000000000000000000000000000000000000000000000000000000000000000000000000000000000000000000000000000000000000000000000000000000000000000000000000000000000000000000000000000010FF56
:5C03980000000000000000000000000000000000000000000000000000000000000000000000000000000000000000000000000000000000000000000000000000000000000000000000000000000000000000000000000000000000000010FFFA
:5C03F40000000000000000000000000000000000000000000000000000000000000000000000000000000000000000000000000000000000000000000000000000000000000000000000000000000000000000000000000000000000000010FF9E
:5C04500000000000000000000000000000000000000000000000000000000000000000000000000000000000000000000000000000000000000000000000000000000000000000000000000000000000000000000000000000000000000010FF41
:5C04AC0000000000000000000000000000000000000000000000000000000000000000000000000000000000000000000000000000000000000000000000000000000000000000000000000000000000000000000000000000000000000010FFE5
:5C05080000000000000000000000000000000000000000000000000000000000000000000000000000000000000000000000000000000000000000000000000000000000000000000000000000000000000000000000000000000000000010FF88
:5C05640000000000000000000000000000000000000000000000000000000000000000000000000000000000000000000000000000000000000000000000000000000000000000000000000000000000000000000000000000000000000010FF2C
:5C05C00000000000000000000000000000000000000000000000000000000000000000000000000000000000000000000000000000000000000000000000000000000000000000000000000000000000000000000000000000000000000010FFD0
:5C061C0000000000000000000000000000000000000000000000000000000000000000000000000000000000000000000000000000000000000000000000000000000000000000000000000000000000000000000000000000000000000010FF73
:5C06780000000000000000000000000000000000000000000000000000000000000000000000000000000000000000000000000000000000000000000000000000000000000000000000000000000000000000000000000000000000000010FF17
:5C06D40000000000000000000000000000000000000000000000000000000000000000000000000000000000000000000000000000000000000000000000000000000000000000000000000000000000000000000000000000000000000010FFBB
:5C07300000000000000000000000000000000000000000000000000000000000000000000000000000000000000000000000000000000000000000000000000000000000000000000000000000000000000000000000000000000000000010FF5E
:5C078C0000000000000000000000000000000000000000000000000000000000000000000000000000000000000000000000000000000000000000000000000000000000000000000000000000000000000000000000000000000000000010FF02
:5C07E80000000000000000000000000000000000000000000000000000000000000000000000000000000000000000000000000000000000000000000000000000000000000000000000000000000000000000000000000000000000000010FFA6
:5C08440000000000000000000000000000000000000000000000000000000000000000000000000000000000000000000000000000000000000000000000000000000000000000000000000000000000000000000000000000000000000010FF49
:5C08A00000000000000000000000000000000000000000000000000000000000000000000000000000000000000000000000000000000000000000000000000000000000000000000000000000000000000000000000000000000000000010FFED
:5C08FC0000000000000000000000000000000000000000000000000000000000000000000000000000000000000000000000000000000000000000000000000000000000000000000000000000000000000000000000000000000000000010FF91
:5C09580000000000000000000000000000000000000000000000000000000000000000000000000000000000000000000000000000000000000000000000000000000000000000000000000000000000000000000000000000000000000010FF34
:5C09B40000000000000000000000000000000000000000000000000000000000000000000000000000000000000000000000000000000000000000000000000000000000000000000000000000000000000000000000000000000000000010FFD8
:5C0A100000000000000000000000000000000000000000000000000000000000000000000000000000000000000000000000000000000000000000000000000000000000000000000000000000000000000000000000000000000000000010FF7B
:5C0A6C0000000000000000000000000000000000000000000000000000000000000000000000000000000000000000000000000000000000000000000000000000000000000000000000000000000000000000000000000000000000000010FF1F
:5C0AC80000000000000000000000000000000000000000000000000000000000000000000000000000000000000000000000000000000000000000000000000000000000000000000000000000000000000000000000000000000000000010FFC3
:5C0B240000000000000000000000000000000000000000000000000000000000000000000000000000000000000000000000000000000000000000000000000000000000000000000000000000000000000000000000000000000000000010FF66
:5C0B800000000000000000000000000000000000000000000000000000000000000000000000000000000000000000000000000000000000000000000000000000000000000000000000000000000000000000000000000000000000000010FF0A
:5C0BDC0000000000000000000000000000000000000000000000000000000000000000000000000000000000000000000000000000000000000000000000000000000000000000000000000000000000000000000000000000000000000010FFAE
:5C0C380000000000000000000000000000000000000000000000000000000000000000000000000000000000000000000000000000000000000000000000000000000000000000000000000000000000000000000000000000000000000010FF51
:5C0C940000000000000000000000000000000000000000000000000000000000000000000000000000000000000000000000000000000000000000000000000000000000000000000000000000000000000000000000000000000000000010FFF5
:5C0CF00000000000000000000000000000000000000000000000000000000000000000000000000000000000000000000000000000000000000000000000000000000000000000000000000000000000000000000000000000000000000010FF99
:5C0D4C0000000000000000000000000000000000000000000000000000000000000000000000000000000000000000000000000000000000000000000000000000000000000000000000000000000000000000000000000000000000000010FF3C
:5C0DA800020000000000000000000000000000000000000000000000000000000000000000800000000000000000000000000000000000000000000000000000000000000000000000000000000000000000000000000000000000100000B1FCB0
:5C0E040000000000000000000000000000000000000000000000000000000000000000000020000000000000000000000000000000000000000000000000000000000000000000000000000000000000000000000000000000000004000070FB03
:5C0E600080001000024000080001200004800010000240000800012000048000100002400000000120000480001000000000000001200004800010000240000800012000048000100002400008000120000480001000024000080000200030F470
:5C0EBC00800010000240000800012000048000100002400008000120000480001000024000080001200004800010000000000000012000048000100002400008000120000480001000024000080001200004800010000240000800012000A0FD92
:5C0F180000000000000000000000000000000000000000000000000000000000000000000040000000000000000000000000000000000000000000000000000000000000000000000000000000000000000000000000000000000012000060FDCE
:5C0F74000200000000000000000000000000000000000000000000000000000000000000003E00000000000000000000000000000000000000000000000000000000000000000000000000000000000000000000000000000000C0040000B1FA72
:5C0FD000000000000000000000000000000000000000000000000000000000000000000000420000000000000000000000000000000000000000000000000000000000000000000000000000000000000000000000000000000040080000F0F15A
:5C102C000200000000000000000000000000000000000000000000000000000000000000001C0000000000000000000000000000000000000000000000000000000000000000000000000000000000000000000000000000000080040000B1FC19
:5C108800000000000000000000000000000000000000000000000000000000000000000000020000000000000000000000000000000000000000000000000000000000000000000000000000000000000000000000000000000040090000A0F031
:5C10E4000000000000000000000000000000000000000000000000000000000000000000005A0000000000000000000000000000000000000000000000000000000000000000000000000000000000000000000000000000000040030000D0F251
:5C114000000000000000000000000000000000000000000000000000000000000000000000180000000000000000000000000000000000000000000000000000000000000000000000000000000000000000000000000000000000030000B0F494
:5C119C000000000000000000000000000000000000000000000000000000000000000000001800000000000000000000000000000000000000000000000000000000000000000000000000000000000000000000000000000000000B000030FCA8
:5C11F80002000000000000000000000000000000000000000000000000000000000000000018000000000000000000000000000000000000000000000000000000000000000000000000000000000000000000000000000000000003000081F706
:5C125400000000000000000000000000000000000000000000000000000000000000000000A600000000000000000000000000000000000000000000000000000000000000000000000000000000000000000000000000000000C014000080F153
:5C12B0000000000000000000000000000000000000000000000000000000000000000000001A000000000000000000000000000000000000000000000000000000000000000000000000000000000000000000000000000000004003000090F203
:5C130C000000000000000000000000000000000000000000000000000000000000000000009C000000000000000000000000000000000000000000000000000000000000000000000000000000000000000000000000000000008013000060F8FE
:5C13680002000000000000000000000000000000000000000000000000000000000000000082000000000000000000000000000000000000000000000000000000000000000000000000000000000000000000000000000000004010000091FACA
:5C13C40000000000000000000000000000000000000000000000000000000000000000000002000000000000000000000000000000000000000000000000000000000000000000000000000000000000000000000000000000004000000030F962
:5C14200000000000000000000000000000000000000000000000000000000000000000000000000000000000000000000000000000000000000000000000000000000000000000000000000000000000000000000000000000000000000010FF61
:5C147C0000000000000000000000000000000000000000000000000000000000000000000004000000000000000000000000000000000000000000000000000000000000000000000000000000000000000000000000000000008000000050F34D
:5C14D80000000000000000000000000000000000000000000000000000000000000000000080000000000000000000000000000000000000000000000000000000000000000000000000000000000000000000000000000000000010000080FFA9
:5C1534000200000000000000000000000000000000000000000000000000000000000000000600000000000000000000000000000000000000000000000000000000000000000000000000000000000000000000000000000000C000000041F65C
:5C15900000000000000000000000000000000000000000000000000000000000000000000002000000000000000000000000000000000000000000000000000000000000000000000000000000000000000000000000000000004000000030F994
:5C15EC00000000000000000000000000000000000000000000000000000000000000000000BC000000000000000000000000000000000000000000000000000000000000000000000000000000000000000000000000000000008017000000FC54
:5C16480000000000000000000000000000000000000000000000000000000000000000000002000000000000000000000000000000000000000000000000000000000000000000000000000000000000000000000000000000004000000030F9DB
:5C16A4000200000000000000000000000000000000000000000000000000000000000000009A000000000000000000000000000000000000000000000000000000000000000000000000000000000000000000000000000000004013000031F1D9
:5C170000000000000000000000000000000000000000000000000000000000000000000000180000000000000000000000000000000000000000000000000000000000000000000000000000000000000000000000000000000000030000B0F4CE
:5C175C0000000000000000000000000000000000000000000000000000000000000000000004000000000000000000000000000000000000000000000000000000000000000000000000000000000000000000000000000000008000000050F36A
:5C17B80000000000000000000000000000000000000000000000000000000000000000000000000000000000000000000000000000000000000000000000000000000000000000000000000000000000000000000000000000000000000010FFC6
:5C181400000000000000000000000000000000000000000000000000000000000000000000A600000000000000000000000000000000000000000000000000000000000000000000000000000000000000000000000000000000C014000080F18D
:5C1870000200000000000000000000000000000000000000000000000000000000000000001A0000000000000000000000000000000000000000000000000000000000000000000000000000000000000000000000000000000040030000A1F12B
:5C18CC000000000000000000000000000000000000000000000000000000000000000000009C000000000000000000000000000000000000000000000000000000000000000000000000000000000000000000000000000000008013000060F839
:5C1928000000000000000000000000000000000000000000000000000000000000000000001A000000000000000000000000000000000000000000000000000000000000000000000000000000000000000000000000000000004003000090F284
:5C1984000000000000000000000000000000000000000000000000000000000000000000001A000000000000000000000000000000000000000000000000000000000000000000000000000000000000000000000000000000004003000090F228
:5C19E00002000000000000000000000000000000000000000000000000000000000000000000000000000000000000000000000000000000000000000000000000000000000000000000000000000000000000000000000000000000000021FC8C
:5C1A3C0000000000000000000000000000000000000000000000000000000000000000000004000000000000000000000000000000000000000000000000000000000000000000000000000000000000000000000000000000008000000050F387
:5C1A98000000000000000000000000000000000000000000000000000000000000000000001000000000000000000000000000000000000000000000000000000000000000000000000000000000000000000000000000000000000B0000B0F433
:5C1AF4000000000000000000000000000000000000000000000000000000000000000000001610000000000000000000000000000000000000000000000000000000000000000000000000000000000000000000000000000000C000000070F44C
:5C1B50000000000000000000000000000000000000000000000000000000000000000000005200000000000000000000000000000000000000000000000000000000000000000000000000000000000000000000000000000000400B0000D0F2DA
:5C1BAC0002000000000000000000000000000000000000000000000000000000000000000024000000000000000000000000000000000000000000000000000000000000000000000000000000000000000000000000000000008007000031F708
:5C1C08000000000000000000000000000000000000000000000000000000000000000000000A0000000000000000000000000000000000000000000000000000000000000000000000000000000000000000000000000000000040000000B0F195
:5C1C64000000000000000000000000000000000000000000000000000000000000000000004A000000000000000000000000000000000000000000000000000000000000000000000000000000000000000000000000000000004008000070F929
:5C1CC000000000000000000000000000000000000000000000000000000000000000000000480000000000000000000000000000000000000000000000000000000000000000000000000000000000000000000000000000000000000000D0F7B9
:5C1D1C0002000000000000000000000000000000000000000000000000000000000000000000000000000000000000000000000000000000000000000000000000000000000000000000000000000000000000000000000000000000000021FC4C
:5C1D780000000000000000000000000000000000000000000000000000008001000000000000000000000000000000000000000000000000000000000000000000000000000000000000000000000000000000000000000000000000000000F698
:5C1DD4000000000000000000000000000000000000000000000000000000E00500000000000E10000000000000000000000000000000000000000000000000000000000000000000000000000000000000000000000000000000C008000030FFB9
:5C1E30000000000000000000000000000000000000000000000000000000A0010000000000420000000000000000000000000000000000000000000000000000000000000000000000000000000000000000000000000000000040080000E0FA51
:5C1E8C000000000000000000000000000000000000000000000000000000402200000000000C0000000000000000000000000000000000000000000000000000000000000000000000000000000000000000000000000000000080030000E0FE2B
:5C1EE80002000000000000000000000000000000000000000000000000002080000000000002000000000000000000000000000000000000000000000000000000000000000000000000000000000000000000000000000000004008000001F0C1
:5C1F44000000000000000000000000000000000000000000000000000000200200000000004A0000000000000000000000000000000000000000000000000000000000000000000000000000000000000000000000000000000040070000A0F6F8
:5C1FA00000000000000000000000000000000000000000000000000000000000000000000050000000000000000000000000000000000000000000000000000000000000000000000000000000000000000000000000000000000003000070FC26
:5C1FFC00000000000000000000000000000000000000000000000000000000000000000000280000000000000000000000000000000000000000000000000000000000000000000000000000000000000000000000000000000000000000B0F7BA
:5C205800020000000000000000000000000000000000000000000000000000000000000000100000000000000000000000000000000000000000000000000000000000000000000000000000000000000000000000000000000000080000B1F46D
:5C20B4000000000000000000000000000000000000000000000000000000600400000000000610000000000000000000000000000000000000000000000000000000000000000000000000000000000000000000000000000000C000000020F680
:5C2110000000000000000000000000000000000000000000000000000000A00500000000005200000000000000000000000000000000000000000000000000000000000000000000000000000000000000000000000000000000400B000080FDB4
:5C216C000000000000000000000000000000000000000000000000000000C002000000000004000000000000000000000000000000000000000000000000000000000000000000000000000000000000000000000000000000008007000000FAD0
:5C21C8000000000000000000000000000000000000000000000000000000A081000000000012000000000000000000000000000000000000000000000000000000000000000000000000000000000000000000000000000000004003000080F1D4
:5C2224000200000000000000000000000000000000000000000000000000A002000000000042000000000000000000000000000000000000000000000000000000000000000000000000000000000000000000000000000000004003000051F1F3
:5C228000000000000000000000000000000000000000000000000000000000000000000000480000000000000000000000000000000000000000000000000000000000000000000000000000000000000000000000000000000000000000D0F7F3
:5C22DC00000000000000000000000000000000000000000000000000000000220000000000280000000000000000000000000000000000000000000000000000000000000000000000000000000000000000000000000000000000000000B0F5B7
:5C23380000000000000000000000000000000000000000000000000000000000000000000010000000000000000000000000000000000000000000000000000000000000000000000000000000000000000000000000000000000002000020FD1A
:5C2394000200000000000000000000000000000000000000000000000000600400000000006600000000000000000000000000000000000000000000000000000000000000000000000000000000000000000000000000000000C00C0000A1F8BC
:5C23F00000000000000000000000000000000000000000000000000000000004000000000002000000000000000000000000000000000000000000000000000000000000000000000000000000000000000000000000000000004000000070FDDE
:5C244C00000000000000000000000000000000000000000000000000000040020000000000840000000000000000000000000000000000000000000000000000000000000000000000000000000000000000000000000000000080100000E0F509
:5C24A8000000000000000000000000000000000000000000000000000000000000000000000A0000000000000000000000000000000000000000000000000000000000000000000000000000000000000000000000000000000040010000A0F0FD
:5C250400000000000000000000000000000000000000000000000000000000000000000000BA000000000000000000000000000000000000000000000000000000000000000000000000000000000000000000000000000000004017000060F614
:5C25600002000000000000000000000000000000000000000000000000008001000000000098000000000000000000000000000000000000000000000000000000000000000000000000000000000000000000000000000000000013000001FEF2
:5C25BC000000000000000000000000000000000000000000000000000000800100000000001C0000000000000000000000000000000000000000000000000000000000000000000000000000000000000000000000000000000080030000E0F1D2
:5C26180000000000000000000000000000000000000000000000000000008000000000000008000000000000000000000000000000000000000000000000000000000000000000000000000000000000000000000000000000000000000090FF4F
:5C26740000000000000000000000000000000000000000000000000000000000000000000000000000000000000000000000000000000000000000000000000000000000000000000000000000000000000000000000000000000020000030FFBB
:5C26D00080001000024000080001200004800010000240000800012000040000100002400000000120000480001000000000000001200004800010000240000800012000048000100002400008000120000480001000024000080000200030FC60
:5C272C00800010000240000800012000048000100002400008000120000480001000024000080001200004800010000000000000012000048000100002400008000120000480001000024000080001200004800010000240000800012000A0FD09
:5C278800000000000000000000000000000000000000000000000000000020000000000000A40000000000000000000000000000000000000000000000000000000000000000000000000000000000000000000000000000000000000000F0F948
:5C27E40000000000000000000000000000000000000000000000000000000000000000000000000000000000000000000000000000000000000000000000000000000000000000000000000000000000000000000000000000000000000010FF8A
:5C28400000000000000000000000000000000000000000000000000000000000000000000000000000000000000000000000000000000000000000000000000000000000000000000000000000000000000000000000000000000000000010FF2D
:5C289C0000000000000000000000000000000000000000000000000000000000000000000000000000000000000000000000000000000000000000000000000000000000000000000000000000000000000000000000000000000001000000FEE1
:5C28F800000000000000000000000000000000000000000000000000000020000000000000A40000000000000000000000000000000000000000000000000000000000000000000000000000000000000000000000000000000000000000F0F9D7
:5C29540000000000000000000000000000000000000000000000000000000000000000000000000000000000000000000000000000000000000000000000000000000000000000000000000000000000000000000000000000000000000010FF18
:5C29B00000000000000000000000000000000000000000000000000000000000000000000000000000000000000000000000000000000000000000000000000000000000000000000000000000000000000000000000000000000000000010FFBC
:5C2A0C0000000000000000000000000000000000000000000000000000000000000000000000000000000000000000000000000000000000000000000000000000000000000000000000000000000000000000000000000000000000000010FF5F
:5C2A680000000000000000000000000000000000000000000000000000000000000000000000000000000000000000000000000000000000000000000000000000000000000000000000000000000000000000000000000000000000000010FF03
:5C2AC40000000000000000000000000000000000000000000000000000000000000000000000080000000000000000000000000000000000000000000000000000000000000000000000000000000000000000000000000000000000000010F7A7
:5C2B200000000000000000000000000000000000000000000000000000000000000000000000000000000000000000000000000000000000000000000000000000000000000000000000000000000000000000000000000000000000000010FF4A
:5C2B7C0000000000000000000000000000000000000000000000000000000000000000000000000000000000000000000000000000000000000000000000000000000000000000000000000000000000000000000000000000000001000000FEFE
:5C2BD80000000000000000000000000000000000000000000000000000000000000000000000000000000000000000000000000000000000000000000000000000000000000000000000000000000000000000000000000000000000000010FF92
:5C2C340000000000000000000000000000000000000000000000000000000000000000000000000000000000000000000000000000000000000000000000000000000000000000000000000000000000000000000000000000000000000010FF35
:5C2C900000000000000000000000000000000000000000000000000000000000000000000000000000000000000000000000000000000000000000000000000000000000000000000000000000000000000000000000000000000000000010FFD9
:5C2CEC0000000000000000000000000000000000000000000000000000000000000000000000000000000000000000000000000000000000000000000000000000000000000000000000000000000000000000000000000000000000000010FF7D
:5C2D480000000000000000000000000000000000000000000000000000000020000000000000000000000000000000000000000000000000000000000000000000000000000000000000000000000000000000000000000000000000000030FFE0
:5C2DA40000000000000000000000000000000000000000000000000000000000000000000000000000000000000000000000000000000000000000000000000000000000000000000000000000000000000000000000000000000000000010FFC4
:5C2E000000000000000000000000000000000000000000000000000000000000000000000000000000000000000000000000000000000000000000000000000000000000000000000000000000000000000000000000000000000000000010FF67
:5C2E5C0000000000000000000000000000000000000000000000000000000000000000000000000000000000000000000000000000000000000000000000000000000000000000000000000000000000000000000000000000000000000010FF0B
:5C2EB80000000000000000000000000000000000000000000000000000000000000000000000000000000000000000000000000000000000000000000000000000000000000000000000000000000000000000000000000000000000000010FFAF
:5C2F140000000000000000000000000000000000000000000000000000000002000000000000000000000000000000000000000000000000000000000000000000000000000000000000000000000000000000000000000000000000000030FD32
:5C2F700000000000000000000000000000000000000000000000000000000000000000000000000000000000000000000000000000000000000000000000000000000000000000000000000000000000000000000000000000000000000010FFF6
:5C2FCC0000000000000000000000000000000000000000000000000000000000000000000000000000000000000000000000000000000000000000000000000000000000000000000000000000000000000000000000000000000000000010FF9A
:5C30280000000000000000000000000000000000000000000000000000000000000000000000000000000000000000000000000000000000000000000000000000000000000000000000000000000000000000000000000000000000000010FF3D
:5C30840000000000000000000000000000000000000000000000000000000000000000000000000000000000000000000000000000000000000000000000000000000000000000000000000000000000000000000000000000000000000010FFE1
:5C30E00000000000000000000000000000000000000000000000000000000000000000000000000000000000000000000000000000000000000000000000000000000000000000000000000000000000000000000000000000000000000010FF85
:5C313C0000000000000000000000000000000000000000000000000000000000000000000000000000000000000000000000000000000000000000000000000000000000000000000000000000000000000000000000000000000000000010FF28
:5C31980000000000000000000000000000000000000000000000000000000000000000000000000000000000000000000000000000000000000000000000000000000000000000000000000000000000000000000000000000000000000010FFCC
:5C31F40000000000000000000000000000000000000000000000000000000000000000000000000000000000000000000000000000000000000000000000000000000000000000000000000000000000000000000000000000000000000010FF70
:5C32500000000000000000000000000000000000000000000000000000000000000000000000000000000000000000000000000000000000000000000000000000000000000000000000000000000000000000000000000000000000000010FF13
:5C32AC0000000000000000000000000000000000000000000000000000000000000000000000000000000000000000000000000000000000000000000000000000000000000000000000000000000000000000000000000000000000000010FFB7
:5C33080000000000000000000000000000000000000000000000000000000000000000000000000000000000000000000000000000000000000000000000000000000000000000000000000000000000000000000000000000000000000010FF5A
:5C33640000000000000000000000000000000000000000000000000000000000000000000000000000000000000000000000000000000000000000000000000000000000000000000000000000000000000000000000000000000000000010FFFE
:5C33C00000000000000000000000000000000000000000000000000000000000000000000000000000000000000000000000000000000000000000000000000000000000000000000000000000000000000000000000000000000000000010FFA2
:5C341C0000000000000000000000000000000000000000000000000000000000000000000000000000000000000000000000000000000000000000000000000000000000000000000000000000000000000000000000000000000000000010FF45
:5C34780000000000000000000000000000000000000000000000000000000000000000000000000000000000000000000000000000000000000000000000000000000000000000000000000000000000000000000000000000000000000010FFE9
:5C34D40000000000000000000000000000000000000000000000000000000000000000000000000000000000000000000000000000000000000000000000000000000000000000000000000000000000000000000000000000000000000010FF8D
:5C35300000000000000000000000000000000000000000000000000000000000000000000000000000000000000000000000000000000000000000000000000000000000000000000000000000000000000000000000000000000000000010FF30
:5C358C0000000000000000000000000000000000000000000000000000000000000000000000000000000000000000000000000000000000000000000000000000000000000000000000000000000000000000000000000000000000000010FFD4
:5C35E80000000000000000000000000000000000000000000000000000000000000000000000000000000000000000000000000000000000000000000000000000000000000000000000000000000000000000000000000000000000000010FF78
:5C36440000000000000000000000000000000000000000000000000000000000000000000000000000000000000000000000000000000000000000000000000000000000000000000000000000000000000000000000000000000000000010FF1B
:5C36A00000000000000000000000000000000000000000000000000000000000000000000000000000000000000000000000000000000000000000000000000000000000000000000000000000000000000000000000000000000000000010FFBF
:5C36FC0000000000000000000000000000000000000000000000000000000000000000000000000000000000000000000000000000000000000000000000000000000000000000000000000000000000000000000000000000000000000010FF63
:5C37580000000000000000000000000000000000000000000000000000000000000000000000000000000000000000000000000000000000000000000000000000000000000000000000000000000000000000000000000000000000000010FF06
:5C37B40000000000000000000000000000000000000000000000000000000000000000000000000000000000000000000000000000000000000000000000000000000000000000000000000000000000000000000000000000000000000010FFAA
:5C38100000000000000000000000000000000000000000000000000000000000000000000000000000000000000000000000000000000000000000000000000000000000000000000000000000000000000000000000000000000000000010FF4D
:5C386C0000000000000000000000000000000000000000000000000000000000000000000000000000000000000000000000000000000000000000000000000000000000000000000000000000000000000000000000000000000000000010FFF1
:5C38C80000000000000000000000000000000000000000000000000000000000000000000000000000000000000000000000000000000000000000000000000000000000000000000000000000000000000000000000000000000000000010FF95
:5C39240000000000000000000000000000000000000000000000000000000000000000000000000000000000000000000000000000000000000000000000000000000000000000000000000000000000000000000000000000000000000010FF38
:5C39800000000000000000000000000000000000000000000000000000000000000000000000000000000000000000000000000000000000000000000000000000000000000000000000000000000000000000000000000000000000000010FFDC
:5C39DC0000000000000000000000000000000000000000000000000000000000000000000000000000000000000000000000000000000000000000000000000000000000000000000000000000000000000000000000000000000000000010FF80
:5C3A380000000000000000000000000000000000000000000000000000000000000000000000000000000000000000000000000000000000000000000000000000000000000000000000000000000000000000000000000000000000000010FF23
:5C3A940000000000000000000000000000000000000000000000000000000000000000000000000000000000000000000000000000000000000000000000000000000000000000000000000000000000000000000000000000000000000010FFC7
:5C3AF00000000000000000000000000000000000000000000000000000000000000000000000000000000000000000000000000000000000000000000000000000000000000000000000000000000000000000000000000000000000000010FF6B
:5C3B4C0000000000000000000000000000000000000000000000000000000000000000000000000000000000000000000000000000000000000000000000000000000000000000000000000000000000000000000000000000000000000010FF0E
:5C3BA80000000000000000000000000000000000000000000000000000000000000000000000000000000000000000000000000000000000000000000000000000000000000000000000000000000000000000000000000000000000000010FFB2
:5C3C040000000000000000000000000000000000000000000000000000000000000000000000000000000000000000000000000000000000000000000000000000000000000000000000000000000000000000000000000000000000000010FF55
:5C3C600000000000000000000000000000000000000000000000000000000000000000000000000000000000000000000000000000000000000000000000000000000000000000000000000000000000000000000000000000000000000010FFF9
:5C3CBC0000000000000000000000000000000000000000000000000000000000000000000000000000000000000000000000000000000000000000000000000000000000000000000000000000000000000000000000000000000000000010FF9D
:5C3D180000000000000000000000000000000000000000000000000000000000000000000000000000000000000000000000000000000000000000000000000000000000000000000000000000000000000000000000000000000000000010FF40
:5C3D740000000000000000000000000000000000000000000000000000000000000000000000000000000000000000000000000000000000000000000000000000000000000000000000000000000000000000000000000000000000000010FFE4
:5C3DD00002000000000000000000000000000000000000000000000000000000000000000000000000000000000000000000000000000000000000000000000000000000000000000000000000000000000000000000000000000000000021FC78
:5C3E2C0000000000000000000000000000000000000000000000000000000000000000000000000000000000000000000000000000000000000000000000000000000000000000000000000000000000000000000000000000000000000010FF2B
:5C3E8800800010000240000800012000048000100002400008000120000480001000024000080001200004800010000000000000012000048000100002400008000120000480001000024000080001200004800010000240000800012000A0FD96
:5C3EE400800010000240000800012000048000100002400008000120000480001000024000080001200004800010000000000000012000048000100002400008000120000480001000024000080001200004800010000240000800012000A0FD3A
:5C3F400000000000000000000000000000000000000000000000000000000000000000000000000000000000000000000000000000000000000000000000000000000000000000000000000000000000000000000000000000000000000010FF16
:5C3F9C0002000000000000000000000000000000000000000000000000000000000000000000000000000000000000000000000000000000000000000000000000000000000000000000000000000000000000000000000000000000000021FCAA
:5C3FF80000000000000000000000000000000000000000000000000000000000000000000000000000000000000000000000000000000000000000000000000000000000000000000000000000000000000000000000000000000000000010FF5E
:5C40540002000000000000000000000000000000000000000000000000000000000000000000000000000000000000000000000000000000000000000000000000000000000000000000000000000000000000000000000000000000000021FCF1
:5C40B00000000000000000000000000000000000000000000000000000000000000000000000000000000000000000000000000000000000000000000000000000000000000000000000000000000000000000000000000000000000000010FFA5
:5C410C0000000000000000000000000000000000000000000000000000000000000000000000000000000000000000000000000000000000000000000000000000000000000000000000000000000000000000000000000000000000000010FF48
:5C41680000000000000000000000000000000000000000000000000000000000000000000000000000000000000000000000000000000000000000000000000000000000000000000000000000000000000000000000000000000000000010FFEC
:5C41C40000000000000000000000000000000000000000000000000000000000000000000000000000000000000000000000000000000000000000000000000000000000000000000000000000000000000000000000000000000000000010FF90
:5C42200002000000000000000000000000000000000000000000000000000000000000000000000000000000000000000000000000000000000000000000000000000000000000000000000000000000000000000000000000000000000021FC23
:5C427C0000000000000000000000000000000000000000000000000000000000000000000000000000000000000000000000000000000000000000000000000000000000000000000000000000000000000000000000000000000000000010FFD7
:5C42D80000000000000000000000000000000000000000000000000000000000000000000000000000000000000000000000000000000000000000000000000000000000000000000000000000000000000000000000000000000000000010FF7B
:5C43340000000000000000000000000000000000000000000000000000000000000000000000000000000000000000000000000000000000000000000000000000000000000000000000000000000000000000000000000000000000000010FF1E
:5C43900002000000000000000000000000000000000000000000000000000000000000000000000000000000000000000000000000000000000000000000000000000000000000000000000000000000000000000000000000000000000021FCB2
:5C43EC0000000000000000000000000000000000000000000000000000000000000000000000000000000000000000000000000000000000000000000000000000000000000000000000000000000000000000000000000000000000000010FF66
:5C44480000000000000000000000000000000000000000000000000000000000000000000000000000000000000000000000000000000000000000000000000000000000000000000000000000000000000000000000000000000000000010FF09
:5C44A40000000000000000000000000000000000000000000000000000000000000000000000000000000000000000000000000000000000000000000000000000000000000000000000000000000000000000000000000000000000000010FFAD
:5C45000000000000000000000000000000000000000000000000000000000000000000000000000000000000000000000000000000000000000000000000000000000000000000000000000000000000000000000000000000000000000010FF50
:5C455C0002000000000000000000000000000000000000000000000000000000000000000000000000000000000000000000000000000000000000000000000000000000000000000000000000000000000000000000000000000000000021FCE4
:5C45B80000000000000000000000000000000000000000000000000000000000000000000000000000000000000000000000000000000000000000000000000000000000000000000000000000000000000000000000000000000000000010FF98
:5C46140000000000000000000000000000000000000000000000000000000000000000000000000000000000000000000000000000000000000000000000000000000000000000000000000000000000000000000000000000000000000010FF3B
:5C46700000000000000000000000000000000000000000000000000000000000000000000000000000000000000000000000000000000000000000000000000000000000000000000000000000000000000000000000000000000000000010FFDF
:5C46CC0002000000000000000000000000000000000000000000000000000000000000000000000000000000000000000000000000000000000000000000000000000000000000000000000000000000000000000000000000000000000021FC73
:5C47280000000000000000000000000000000000000000000000000000000000000000000000000000000000000000000000000000000000000000000000000000000000000000000000000000000000000000000000000000000000000010FF26
:5C47840000000000000000000000000000000000000000000000000000000000000000000000000000000000000000000000000000000000000000000000000000000000000000000000000000000000000000000000000000000000000010FFCA
:5C47E00000000000000000000000000000000000000000000000000000000000000000000000000000000000000000000000000000000000000000000000000000000000000000000000000000000000000000000000000000000000000010FF6E
:5C483C0000000000000000000000000000000000000000000000000000000000000000000000000000000000000000000000000000000000000000000000000000000000000000000000000000000000000000000000000000000000000010FF11
:5C48980002000000000000000000000000000000000000000000000000000000000000000000000000000000000000000000000000000000000000000000000000000000000000000000000000000000000000000000000000000000000021FCA5
:5C48F40000000000000000000000000000000000000000000000000000000000000000000000000000000000000000000000000000000000000000000000000000000000000000000000000000000000000000000000000000000000000010FF59
:5C49500000000000000000000000000000000000000000000000000000000000000000000000000000000000000000000000000000000000000000000000000000000000000000000000000000000000000000000000000000000000000010FFFC
:5C49AC0000000000000000000000000000000000000000000000000000000000000000000000000000000000000000000000000000000000000000000000000000000000000000000000000000000000000000000000000000000000000010FFA0
:5C4A080002000000000000000000000000000000000000000000000000000000000000000000000000000000000000000000000000000000000000000000000000000000000000000000000000000000000000000000000000000000000021FC33
:5C4A640000000000000000000000000000000000000000000000000000000000000000000000000000000000000000000000000000000000000000000000000000000000000000000000000000000000000000000000000000000000000010FFE7
:5C4AC00000000000000000000000000000000000000000000000000000000000000000000000000000000000000000000000000000000000000000000000000000000000000000000000000000000000000000000000000000000000000010FF8B
:5C4B1C0000000000000000000000000000000000000000000000000000000000000000000000000000000000000000000000000000000000000000000000000000000000000000000000000000000000000000000000000000000000000010FF2E
:5C4B780000000000000000000000000000000000000000000000000000000000000000000000000000000000000000000000000000000000000000000000000000000000000000000000000000000000000000000000000000000000000010FFD2
:5C4BD40002000000000000000000000000000000000000000000000000000000000000000000000000000000000000000000000000000000000000000000000000000000000000000000000000000000000000000000000000000000000021FC66
:5C4C300000000000000000000000000000000000000000000000000000000000000000000000000000000000000000000000000000000000000000000000000000000000000000000000000000000000000000000000000000000000000010FF19
:5C4C8C0000000000000000000000000000000000000000000000000000000000000000000000000000000000000000000000000000000000000000000000000000000000000000000000000000000000000000000000000000000000000010FFBD
:5C4CE80000000000000000000000000000000000000000000000000000000000000000000000000000000000000000000000000000000000000000000000000000000000000000000000000000000000000000000000000000000000000010FF61
:5C4D440002000000000000000000000000000000000000000000000000000000000000000000000000000000000000000000000000000000000000000000000000000000000000000000000000000000000000000000000000000000000021FCF4
:5C4DA00000000000000000000000000000000000000000000000000000000000000000000000000000000000000000000000000000000000000000000000000000000000000000000000000000000000000000000000000000000000000010FFA8
:5C4DFC0000000000000000000000000000000000000000000000000000000000000000000000000000000000000000000000000000000000000000000000000000000000000000000000000000000000000000000000000000000000000010FF4C
:5C4E580000000000000000000000000000000000000000000000000000000000000000000000000000000000000000000000000000000000000000000000000000000000000000000000000000000000000000000000000000000000000010FFEF
:5C4EB40000000000000000000000000000000000000000000000000000000000000000000000000000000000000000000000000000000000000000000000000000000000000000000000000000000000000000000000000000000000000010FF93
:5C4F100002000000000000000000000000000000000000000000000000000000000000000000000000000000000000000000000000000000000000000000000000000000000000000000000000000000000000000000000000000000000021FC26
:5C4F6C0000000000000000000000000000000000000000000000000000000000000000000000000000000000000000000000000000000000000000000000000000000000000000000000000000000000000000000000000000000000000010FFDA
:5C4FC80000000000000000000000000000000000000000000000000000000000000000000000000000000000000000000000000000000000000000000000000000000000000000000000000000000000000000000000000000000000000010FF7E
:5C50240000000000000000000000000000000000000000000000000000000000000000000000000000000000000000000000000000000000000000000000000000000000000000000000000000000000000000000000000000000000000010FF21
:5C50800002000000000000000000000000000000000000000000000000000000000000000000000000000000000000000000000000000000000000000000000000000000000000000000000000000000000000000000000000000000000021FCB5
:5C50DC0000000000000000000000000000000000000000000000000000000000000000000000000000000000000000000000000000000000000000000000000000000000000000000000000000000000000000000000000000000000000010FF69
:5C51380000000000000000000000000000000000000000000000000000000000000000000000000000000000000000000000000000000000000000000000000000000000000000000000000000000000000000000000000000000000000010FF0C
:5C51940000000000000000000000000000000000000000000000000000000000000000000000000000000000000000000000000000000000000000000000000000000000000000000000000000000000000000000000000000000000000010FFB0
:5C51F00000000000000000000000000000000000000000000000000000000000000000000000000000000000000000000000000000000000000000000000000000000000000000000000000000000000000000000000000000000000000010FF54
:5C524C0002000000000000000000000000000000000000000000000000000000000000000000000000000000000000000000000000000000000000000000000000000000000000000000000000000000000000000000000000000000000021FCE7
:5C52A80000000000000000000000000000000000000000000000000000000000000000000000000000000000000000000000000000000000000000000000000000000000000000000000000000000000000000000000000000000000000010FF9B
:5C53040000000000000000000000000000000000000000000000000000000000000000000000000000000000000000000000000000000000000000000000000000000000000000000000000000000000000000000000000000000000000010FF3E
:5C53600000000000000000000000000000000000000000000000000000000000000000000000000000000000000000000000000000000000000000000000000000000000000000000000000000000000000000000000000000000000000010FFE2
:5C53BC0002000000000000000000000000000000000000000000000000000000000000000000000000000000000000000000000000000000000000000000000000000000000000000000000000000000000000000000000000000000000021FC76
:5C54180000000000000000000000000000000000000000000000000000000000000000000000000000000000000000000000000000000000000000000000000000000000000000000000000000000000000000000000000000000000000010FF29
:5C54740000000000000000000000000000000000000000000000000000000000000000000000000000000000000000000000000000000000000000000000000000000000000000000000000000000000000000000000000000000000000010FFCD
:5C54D00000000000000000000000000000000000000000000000000000000000000000000000000000000000000000000000000000000000000000000000000000000000000000000000000000000000000000000000000000000000000010FF71
:5C552C0000000000000000000000000000000000000000000000000000000000000000000000000000000000000000000000000000000000000000000000000000000000000000000000000000000000000000000000000000000000000010FF14
:5C55880002000000000000000000000000000000000000000000000000000000000000000000000000000000000000000000000000000000000000000000000000000000000000000000000000000000000000000000000000000000000021FCA8
:5C55E40000000000000000000000000000000000000000000000000000000000000000000000000000000000000000000000000000000000000000000000000000000000000000000000000000000000000000000000000000000000000010FF5C
:5C56400000000000000000000000000000000000000000000000000000000000000000000000000000000000000000000000000000000000000000000000000000000000000000000000000000000000000000000000000000000000000010FFFF
:5C569C0000000000000000000000000000000000000000000000000000000000000000000000000000000000000000000000000000000000000000000000000000000000000000000000000000000000000000000000000000000000000010FFA3
:5C56F800800010000240000800012000048000100002400008000120000480001000024000080001200004800010000000000000012000048000100002400008000120000480001000024000080001200004800010000240000800012000A0FD0E
:5C575400800010000240000800012000048000100002400008000120000480001000024000080001200004800010000000000000012000048000100002400008000120000480001000024000080001200004800010000240000800012000A0FDB1
:5C57B00000000000000000000000000000000000000000000000000000000000000000000000000000000000000000000000000000000000000000000000000000000000000000000000000000000000000000000000000000000000000010FF8E
:5C580C0000000000000000000000000000000000000000000000000000000000000000000000000000000000000000000000000000000000000000000000000000000000000000000000000000000000000000000000000000000000000010FF31
:5C58680000000000000000000000000000000000000000000000000000000000000000000000000000000000000000000000000000000000000000000000000000000000000000000000000000000000000000000000000000000000000010FFD5
:5C58C40000000000000000000000000000000000000000000000000000000000000000000000000000000000000000000000000000000000000000000000000000000000000000000000000000000000000000000000000000000000000010FF79
:5C59200000000000000000000000000000000000000000000000000000000000000000000000000000000000000000000000000000000000000000000000000000000000000000000000000000000000000000000000000000000000000010FF1C
:5C597C0000000000000000000000000000000000000000000000000000000000000000000000000000000000000000000000000000000000000000000000000000000000000000000000000000000000000000000000000000000000000010FFC0
:5C59D80000000000000000000000000000000000000000000000000000000000000000000000000000000000000000000000000000000000000000000000000000000000000000000000000000000000000000000000000000000000000010FF64
:5C5A340000000000000000000000000000000000000000000000000000000000000000000000000000000000000000000000000000000000000000000000000000000000000000000000000000000000000000000000000000000000000010FF07
:5C5A900000000000000000000000000000000000000000000000000000000000000000000000000000000000000000000000000000000000000000000000000000000000000000000000000000000000000000000000000000000000000010FFAB
:5C5AEC0000000000000000000000000000000000000000000000000000000000000000000000000000000000000000000000000000000000000000000000000000000000000000000000000000000000000000000000000000000000000010FF4F
:5C5B480000000000000000000000000000000000000000000000000000000000000000000000000000000000000000000000000000000000000000000000000000000000000000000000000000000000000000000000000000000000000010FFF2
:5C5BA40000000000000000000000000000000000000000000000000000000000000000000000000000000000000000000000000000000000000000000000000000000000000000000000000000000000000000000000000000000000000010FF96
:5C5C000000000000000000000000000000000000000000000000000000000000000000000000000000000000000000000000000000000000000000000000000000000000000000000000000000000000000000000000000000000000000010FF39
:5C5C5C0000000000000000000000000000000000000000000000000000000000000000000000000000000000000000000000000000000000000000000000000000000000000000000000000000000000000000000000000000000000000010FFDD
:5C5CB80000000000000000000000000000000000000000000000000000000000000000000000000000000000000000000000000000000000000000000000000000000000000000000000000000000000000000000000000000000000000010FF81
:5C5D140000000000000000000000000000000000000000000000000000000000000000000000000000000000000000000000000000000000000000000000000000000000000000000000000000000000000000000000000000000000000010FF24
:5C5D700000000000000000000000000000000000000000000000000000000000000000000000000000000000000000000000000000000000000000000000000000000000000000000000000000000000000000000000000000000000000010FFC8
:5C5DCC0000000000000000000000000000000000000000000000000000000000000000000000000000000000000000000000000000000000000000000000000000000000000000000000000000000000000000000000000000000000000010FF6C
:5C5E280000000000000000000000000000000000000000000000000000000000000000000000000000000000000000000000000000000000000000000000000000000000000000000000000000000000000000000000000000000000000010FF0F
:5C5E840000000000000000000000000000000000000000000000000000000000000000000000000000000000000000000000000000000000000000000000000000000000000000000000000000000000000000000000000000000000000010FFB3
:5C5EE00000000000000000000000000000000000000000000000000000000000000000000000000000000000000000000000000000000000000000000000000000000000000000000000000000000000000000000000000000000000000010FF57
:5C5F3C0000000000000000000000000000000000000000000000000000000000000000000000000000000000000000000000000000000000000000000000000000000000000000000000000000000000000000000000000000000000000010FFFA
:5C5F980000000000000000000000000000000000000000000000000000000000000000000000000000000000000000000000000000000000000000000000000000000000000000000000000000000000000000000000000000000000000010FF9E
:5C5FF40000000000000000000000000000000000000000000000000000000000000000000000000000000000000000000000000000000000000000000000000000000000000000000000000000000000000000000000000000000000000010FF42
:5C60500000000000000000000000000000000000000000000000000000000000000000000000000000000000000000000000000000000000000000000000000000000000000000000000000000000000000000000000000000000000000010FFE5
:5C60AC0000000000000000000000000000000000000000000000000000000000000000000000000000000000000000000000000000000000000000000000000000000000000000000000000000000000000000000000000000000000000010FF89
:5C61080000000000000000000000000000000000000000000000000000000000000000000000000000000000000000000000000000000000000000000000000000000000000000000000000000000000000000000000000000000000000010FF2C
:5C61640000000000000000000000000000000000000000000000000000000000000000000000000000000000000000000000000000000000000000000000000000000000000000000000000000000000000000000000000000000000000010FFD0
:5C61C00000000000000000000000000000000000000000000000000000000000000000000000000000000000000000000000000000000000000000000000000000000000000000000000000000000000000000000000000000000000000010FF74
:5C621C0000000000000000000000000000000000000000000000000000000000000000000000000000000000000000000000000000000000000000000000000000000000000000000000000000000000000000000000000000000000000010FF17
:5C62780000000000000000000000000000000000000000000000000000000000000000000000000000000000000000000000000000000000000000000000000000000000000000000000000000000000000000000000000000000000000010FFBB
:5C62D40000000000000000000000000000000000000000000000000000000000000000000000000000000000000000000000000000000000000000000000000000000000000000000000000000000000000000000000000000000000000010FF5F
:5C63300000000000000000000000000000000000000000000000000000000000000000000000000000000000000000000000010000000000000000000000000000000000000000000000000000000000000000000000000000000000000010FE02
:5C638C0000000000000000000000000000000000000000000000000000000000000000000000000000000000000000100000000000000000000000000000000000000000000000000000000000000000000000000000000000000000000000FEA7
:5C63E80000000000000000000000000000000000000000000000000000000000000000000000000000000000000000000100000000000000000000000000000000000000000000000000000400000000000000000000000000000000200060FDD7
:5C64440000000000000000000000000000000000000000000000000000000000000000000000000000000000000000000000000000000000000000000000000000000000000000000000100000000000000000000000000000000000000000FEEE
:5C64A00000000000000000000000000000000000000000000000000000000000000000000000000000000000000000000000000000000000000000000000000000000000000000000000000000000000000000000000000000000000000010FF91
:5C64FC0000000000000000000000000000000000000000000000000000000000000000000000000000000000000000010000000000000000000000000000000000000000000000000000000400000000000000080000000000000000000050F6F1
:5C65580000000000000000000000000000000000000000000000000000000000000000000000000000000000000000000000000000000000000000000000000010000000000000000000000000000000000000000000000000000000000000FFD8
:5C65B40000000000000000000000000000000000000000000000000000000000000000000000000000000000000000000000000000000000000000000000000000000000000000000000000000000000000000000000000000000000000010FF7C
:5C661000000000000000000000000000000000000000000000000000000000000000000000000000000000000000000000002000000040000000004000080001200000000000000000000000002000000000100000000000000000000040F0F312
:5C666C0000000000000000000000000000000000000000000000000000000000000000000000000000000000000000000000000000000000000000000100000000000000000000000000000000000000000000000000000000000000000000FFD2
:5C66C80000000000000000000000000000000000000000000000000000000000000000000000000000000000000000000000000000000000000000000000000000000000000000000000000000000000000000000000000000000000000010FF67
:5C67240000000000000000000000000000000000000000000000000000000000000000000000000000000000000000000000000000000000000000000000000000000000000000000000000000000000000000000000000000000000000010FF0A
:5C67800000000000000000000000000000000000000000000000000000000000000000000000000000000000000000000000000000000000000000000000000000000000000000000000000000000000000000000000000000000000000010FFAE
:5C67DC00000000000000000000000000000000000000000000000000000000000000000000000000000000000000000000000000000008000000000000000000000000000000000000000000000000000004000001000000000000000000C0FF95
:5C68380000000000000000000000000000000000000000000000000000000000000000000000000000000000000000400000400000000000000000000000000000000000000000000000000000000000000000000000000000000000000890FFED
:5C68940000000000000000000000000000000000000000000000000000000000000000000000000000000000000000000000000000000000000000000000000000000000000000000000000000000000000000000000000000000000000010FF99
:5C68F000000000000000000000000000000000000000000000000000000000000000000000000000000000000000000000000000001000000000080001200004000000000000000000002000040000000002400000000000000000001000E0F1C8
:5C694C0000000000000000000000000000000000000000000000000000000000000000000000000000000000000000000000000000000000000000000000000000000000000000000000000000000000000000000000000000000000000010FFE0
:5C69A80000000000000000000000000000000000000000000000000000000000000000000000000000000000000000000000000000000000000000000000000000000000000000000000000000000000000000000000000000000000000010FF84
:5C6A040000000000000000000000000000000000000000000000000000000000000000000000000000000000000000000000000000000000000000000000000000000000000000000000000080000000000000000000000000000000000090FF27
:5C6A600000000000000000000000000000000000000000000000000000000000000000000000000000000000000000020000000000000000000000000000000000000000000000000000000000000000000000000000000000000000000010FDCB
:5C6ABC0000000000000000000000000000000000000000000000000000000000000000000000000000000000000000000010000000000000000000000000000000000000000000000000000000000000000000800000000000000000000080F777
:5C6B180000000000000000000000000000000000000000000000000000000000000000000000000000000000000000000040000000000000000000000000000000000000000000000000000000000000000000000000000000000000000050FF92
:5C6B740000000000000000000000000000000000000000000000000000000000000000000000000000000000000000000000000000000000000000000000000000000000000000000000000000000000000000000000000000000000000010FFB6
:5C6BD00000000000000000000000000000000000000000000000000000000000000000000000000000000000000000000000000000000000000000000000000000000000000000000000000000000000000000000000000000000000000010FF5A
:5C6C2C0000000000000000400000000000000000000000000000000000000000000001000000000000002000040080A40134250000002000000000100000000000000000000000000018000000100000000100000000000000004000882200FDE9
:5C6C8800000000000000004000800000000000000000000000000000000000000000010000000000000020000400000000000000000000000000100000000000000000000000000000000000000000000000000000000000000000000000D0FCEF
:5C6CE40000000000000000000000000000000000000000000000000000000000000000000000000000000000000000400008120000000000000000000000000000000000000000000018000000000000000000000000000000000000000050F89A
:5C6D400000000000000000000080000000000000000000000000000000000000000000000000000000000000000000000000000000000000000000000000000000000000000000000000000000100000000000000000000000000000080080F6E9
:5C6D9C00000000000000000000000000000000000000000000000000000000000000000000000000000000000000000000008008000020000000001000000000000000000000000000000000000000000001000000000000000040018022A0FB64
:5C6DF80002000000000000000000000000000000000000000000000000000000000000000000000000000000000000000000000000000000000000000000000000000000000000000000000000000000000000000000000000000000000021FC20
:5C6E540000000000000000000000000000000000000000000000000000000000000000000000000000000000000000000000001000000000000000000000000000000000000000000000000000000000000000000000000000000000000010FEC4
:5C6EB000800010000240000800012000048000100002400008000120000480001000024000080001200004800010000000000000012000048000100002400008000120000480001000024000080001200004800010000240000800012000A0FD3E
:5C6F0C00800010000240000800012000048000100002400008000120000480001000024000080001200004800010000000000000012000048000100002400008000120000480001000024000080001200004800010000240000800012000A0FDE1
:5C6F6800000000000000000000000000000000000000000000000000000000000000000000000000000000000000000000000008004000000000000000000000000000000000000000000000000000000000000000000000000000000020D0F99C
:5C6FC40002000000000000000000000000000000000000000000000000000000000000000000000000000000000000000000000000D8080000000C04292005A4000000000000000000002005A40000000052400A00000000000000001000A1F483
:5C70200000000000000000000000000000000000000000000000000000000000000000000000000000000000000000000000000000C000000000408000180003000000000000000000001000022000000001300002000000000000000800A0FA72
:5C707C0002000000000000000000000000000000000000000000000000000000000000000000000000000000000000000000000000500000000038000120000408000000000000000000204004000000000240000000000000000000100021FA30
:5C70D80000000000000000000000000000000000000000000000000000000000000000000000000000000000000000000000002000400000000000800010000200000000000000000000100002000000000120000000000000000000680080FC53
:5C71340000000000000000000000000000000000000000000000000000000000000000000000000000000000000000000000000000C00200000030810010000200000000000000000000100002000000000120000000000000000000680010F7D8
:5C719000000000000000000000000000000000000000000000000000000000000000000000000000000000000000000000000010000000000000300046C0081801000000000000000000C00818010000008C801100000000000000006004B0F931
:5C71EC0000000000000000000000000000000000000000000000000000000000000000000000000000000000000000000000800000601000000030000EC0013800000000000000000000C00138000000001C80030000000000000000E000A0FA0E
:5C724800020000000000000000000000000000000000000000000000000000000000000000000000000000000000000000000000000002000000000120000480000000000000000000000004800000000040000800000000000000000000C1FFB5
:5C72A4000000000000000000000000000000000000000000000000000000000000000000000000000000000000000000000000030010000000000C8009300026000000000000000000003001060000000003600000000000000000009008B0F4BA
:5C730000000000000000000000000000000000000000000000000000000000000000000000000000000000000000000000008002000800000000200022800488000000000000000000004004900000000048000900000000000000000800A0F09C
:5C735C00000000000000000000000000000000000000000000000000000000000000000000000000000000000000000000008000001020000000380101E001040000000000000000000020003C000000001EC0030000000000000000100060F168
:5C73B80002000000000000000000000000000000000000000000000000000000000000000000000000000000000000000000000000080000000010100440401000000000000000000000804008080000000480800000000000000000680041FA44
:5C74140000000000000000000000000000000000000000000000000000000000000000000000000000000000000000000000000000080000000000000601001804000000000000000000C00000000000000002000000000000000000680020F3B4
:5C747000000000000000000000000000000000000000000000000000000000000000000000000000000000000000000000000000006004000000302006C4801810000000000000000000C08018100000000C88010100000000000000600460F4E4
:5C74CC0000000000000000000000000000000000000000000000000000000000000000000000000000000000000000000000000000E00000000070000EC0013800000000000000000000C00138000000001C80030000000000000000E000E0FBBA
