:020000040000FA
:2B000000FFFF62FF2900FFFFFFFFFFFFFFFFFFFFFFFFFFFFFFFFFFFFFFFFFFFFFFFFFFFFFFFFFFFFFFFFFFFFFFFFFF72
:2B002B00601886611886611886611886611886611886010000000018866118866118866118866118866118866180E74F
:2B005600401004411004411004411004411004411004010000000010044110044110044110044110044110044180E71C
:2B008100000000000000000000000000000000000000000000000000000000000000000000000000000000000080E7ED
:2B00AC00000000000000000000000000000000000000000000000000000000000000000000000000000000000080E7C2
:2B00D700000000000000000000000000000000000000000000000000000000000000000000000000000000000080E797
:2B010200000000000000000000000000000000000000000000000000000000000000000000000000000000000080E76B
:2B012D00000000000000000000000000000000000000000000000000000000000000000000000000000000000080E740
:2B015800000000000000000000000000000000000000000000000000000000000000000000000000000000000080E715
:2B018300000000000000000000000000000000000000000000000000000000000000000000000000000000000080E7EA
:2B01AE00000000000000000000000000000000000000000000000000000000000000000000000000000000000080E7BF
:2B01D900000000000000000000000000000000000000000000000000000000000000000000000000000000000080E794
:2B020400000000000000000000000000000000000000000000000000000000000000000000000000000000000080E768
:2B022F00000000000000000000000000000000000000000000000000000000000000000000000000000000000080E73D
:2B025A00000000000000000000000000000000000000000000000000000000000000000000000000000000000080E712
:2B028500000000000000000000000000000000000000000000000000000000000000000000000000000000000080E7E7
:2B02B000000000000000000000000000000000000000000000000000000000000000000000000000000000000080E7BC
:2B02DB00000000000000000000000000000000000000000000000000000000000000000000000000000000000080E791
:2B030600000000000000000000000000000000000000000000000000000000000000000000000000000000000080E765
:2B033100000000000000000000000000000000000000000000000000000000000000000000000000000000000080E73A
:2B035C00000000000000000000000000000000000000000000000000000000000000000000000000000000000080E70F
:2B038700000000000000000000000000000000000000000000000000000000000000000000000000000000000080E7E4
:2B03B200020000000000000000000000000000000000000000000000000000000000000000000000000000000008ED29
:2B03DD00000000000000000000000000000000000000000000000000000000000000000000000000000000000080E78E
:2B040800000000000000000000000000000000000000000000000000000000000000000000000000000000000080E762
:2B043300000000000000000000000000000000000000000000000000000000000000000000000000000000000080E737
:2B045E00000000000000000000000000000000000000000000000000000000000000000000000000000000000080E70C
:2B048900020000000000000000000000020000000000000000000000000000000000000000000000000000000008EF4D
:2B04B400800008800008800008800000800008800008000000000020000220000220000220000220000220000200EF3A
:2B04DF00800008800008800008800008800008800008000000000020000220000220000220000220000220000280E78F
:2B050A00000000000000000000000098000000000000000000000000000000000000000000000000000000000080FEB0
:2B053500020000000000000000000026000000000000000000000000000000000000000000000000000000000008AFBC
:2B05600000000000000000000000009A000000000000000000000000000000000000000000000000000000000080DE78
:2B058B0000000000000000000000001C000000000000000000000000000000000000000000000000000000000000BE6B
:2B05B600000000000000000000000002000000000000000000000000000000000000000000000000000000000080C7D1
:2B05E1000000000000000000000000A2000000000000000000000000000000000000000000000000000000000000E568
:2B060C00020000000000000000000000000000000000000000000000000000000000000000000000000000000008EDCC
:2B063700000000000000000000000004000000000000000000000000000000000000000000000000000000000080A76D
:2B066200000000000000000000000000000000000000000000000000000000000000000000000000000000000080E706
:2B068D000000000000000000000000A6000000000000000000000000000000000000000000000000000000000000A5F7
:2B06B800020000000000000000000082000000000000000000000000000000000000000000000000000000000088CD3E
:2B06E30000000000000000000000003C0000000000000000000000000000000000000000000000000000000000009C14
:2B070E00000000000000000000000082000000000000000000000000000000000000000000000000000000000000C777
:2B07390000000000000000000000001A000000000000000000000000000000000000000000000000000000000000DE9D
:2B076400000000000000000000000018000000000000000000000000000000000000000000000000000000000000FE54
:2B078F00020000000000000000000004000000000000000000000000000000000000000000000000000000000008AD84
:2B07BA00000000000000000000000080000000000000000000000000000000000000000000000000000000000000E7AD
:2B07E500000000000000000000000026000000000000000000000000000000000000000000000000000000000080A59E
:2B08100000000000000000000000009A000000000000000000000000000000000000000000000000000000000080DEC5
:2B083B0002000000000000000000001C000000000000000000000000000000000000000000000000000000000088B438
:2B08660000000000000000000000001A000000000000000000000000000000000000000000000000000000000000DE6F
:2B08910000000000000000000000001A000000000000000000000000000000000000000000000000000000000000DE44
:2B08BC00000000000000000000000000000000000000000000000000000000000000000000000000000000000080E7AA
:2B08E700000000000000000000000004000000000000000000000000000000000000000000000000000000000080A7BB
:2B091200020000000000000000000018000000000000000000000000000000000000000000000000000000000088F424
:2B093D000000000000000000000000860000000000000000000000000000000000000000000000000000000000008782
:2B09680000000000000000000000001A000000000000000000000000000000000000000000000000000000000000DE6C
:2B09930000000000000000000000005C000000000000000000000000000000000000000000000000000000000000FAE3
:2B09BE000200000000000000000000420000000000000000000000000000000000000000000000000000000000088939
:2B09E900000000000000000000000002000000000000000000000000000000000000000000000000000000000080C79A
:2B0A1400000000000000000000000000000000000000000000000000000000000000000000000000000000000080E750
:2B0A3F00000000000000000000000000000000000000000000000000000000000000000000000000000000000080E725
:2B0A6A00000000000000000000000040000000000000000000000000000000000000000000000000000000000080A3FE
:2B0A95000200000000000000000000060000000000000000000000000000000000000000000000000000000000088D99
:2B0AC000000000000000000000000002000000000000000000000000000000000000000000000000000000000080C7C2
:2B0AEB0000000000000000000000009C000000000000000000000000000000000000000000000000000000000080BE06
:2B0B1600000000000000000000000002000000000000000000000000000000000000000000000000000000000080C76B
:2B0B410002000000000000000000005A0000000000000000000000000000000000000000000000000000000000889015
:2B0B6C00020000000000000000000018000000000000000000000000000000000000000000000000000000000000FC48
:2B0B9700040000000000000000000000000000000000000000000000000000000000000000000000000000000080E3CC
:2B0BC200020000000000000000080000000000000000000000000000000000000000000000000000000000000080ED91
:2B0BED00020000000000000026000086000000000000000000000000000000000000000000000000000000000000C768
:2B0C180002000000000000000200001A000000000000000000000000000000000000000000000000000000000088F417
:2B0C430000000000000000000400005C000000000000000000000000000000000000000000000000000000000000BA6C
:2B0C6E0000000000000000001A00001A000000000000000000000000000000000000000000000000000000000080E7C0
:2B0C990000000000000000001A00001A000000000000000000000000000000000000000000000000000000000080E795
:2B0CC400020000000000000018000000000000000000000000000000000000000000000000000000000000000088F46F
:2B0CEF00000000000000000018000000000000000000000000000000000000000000000000000000000000000000FEC4
:2B0D1A00000000000000000000000050000000000000000000000000000000000000000000000000000000000080B22C
:2B0D4500000000000000000000000026000000000000000000000000000000000000000000000000000000000080A538
:2B0D7000000000000000000000000082000000000000000000000000000000000000000000000000000000000000C70F
:2B0D9B00020000000000000000000004000000000000000000000000000000000000000000000000000000000008AD72
:2B0DC60000000000000000000000008A000000000000000000000000000000000000000000000000000000000080CF29
:2B0DF10000000000000000000000003A000000000000000000000000000000000000000000000000000000000000FCA1
:2B0E1C00000000000000000000000018000000000000000000000000000000000000000000000000000000000000FE95
:2B0E47000200000000000000000000BC0000000000000000000000000000000000000000000000000000000000089624
:2B0E7200000000000000000000000010000000000000000000000000000000000000000000000000000000000080F6CF
:2B0E9D00000000000000000000000066000000000000000000000000000000000000000000000000000000000080E163
:2B0EC800000000000000000000000002000000000000000000000000000000000000000000000000000000000080C7B6
:2B0EF300000000000000000000000044000000000000000000000000000000000000000000000000000000000080E32D
:2B0F1E0002000000000000000000000A000000000000000000000000000000000000000000000000000000000088C54F
:2B0F490000000000000000000000009A000000000000000000000000000000000000000000000000000000000080DE85
:2B0F7400000000000000000000000058000000000000000000000000000000000000000000000000000000000000BA40
:2B0F9F00000000000000000000000018000000000000000000000000000000000000000000000000000000000000FE11
:2B0FCA00000000000000000008000040000000000000000000000000000000000000000000000000000000000000AB09
:2B0FF500000000000000000000000020000000000000000000000000000000000000000000000000000000000080C56C
:2B102000800008800008800000800000800008800008000000000020000220000220000220000220000220000280E752
:2B104B00800008800008800008800008800008800008000000000020000220000220000220000220000220000280E717
:2B107600000000000000002800000020000000000000000000000000000000000000000000000000000000000000C740
:2B10A100000000000000000000000000000000000000000000000000000000000000000000000000000000000080E7BD
:2B10CC00000000000000000000000000000000000000000000000000000000000000000000000000000000000080E792
:2B10F700000000000000000000000000000000000000000000000000000000010000000000000000000000000080E667
:2B112200000000000000000800000028000000000000000000000000000000010000000000000000000000000080CC25
:2B114D00000000000000000000000000000000000000000000000000000000000000000000000000000000000080E710
:2B117800000000000000000000000000000000000000000000000000000000000000000000000000000000000080E7E5
:2B11A300000000000000000000000020000000000000000000000000000000000000000000000000000000000080C5BC
:2B11CE00000000000000000000000000000000000000000000000000000000000000000000000000000000000080E78F
:2B11F900000000000000000000000000000000000000000000000000000000000000000000000000000000000080E764
:2B122400000000000000000000000000000000000000000000000000000000000000000000000000000000000080E738
:2B124F00000000000000000000000000000000000000000000000000000000000000000000000000000000000080E70D
:2B127A00000000000000000000000000000000000000000000000000000000000000000000000000000000000080E7E2
:2B12A500080000000000000000000000000000000000000000000000000000000000000000000000000000000080EFA7
:2B12D000000000000000000000000000000000000000000000000000000000000000000000000000000000000080E78C
:2B12FB00000000000000000000000000000000000000000000000000000000000000000000000000000000000080E761
:2B132600000000000000000000040000000000000000000000000000000000000000000000000000000000000080E335
:2B135100000000000000000000000000000000000000000000000000000000000000000000000000000000000080E70A
:2B137C00000000000000000000000000000000000000000000000000000000000000000000000000000000000080E7DF
:2B13A700000000000000000000000000000000000000000000000000000000000000000000000000000000000080E7B4
:2B13D200000000000000000000000000000000000000000000000000000000000000000000000000000000000080E789
:2B13FD00000000000000000000000000000000000000000000000000000000000000000000000000000000000080E75E
:2B142800000000000000000000000000000000000000000000000000000000000000000000000000000000000080E732
:2B145300000000000000000000000000000000000000000000000000000000000000000000000000000000000080E707
:2B147E00000000000000000000000000000000000000000000000000000000000000000000000000000000000080E7DC
:2B14A900000000000000000000000000000000000000000000000000000000000000000000000000000000000080E7B1
:2B14D400000000000000000000000000000000000000000000000000000000000000000000000000000000000080E786
:2B14FF00000000000000000000000000000000000000000000000000000000000000000000000000000000000080E75B
:2B152A00000000000000000000000000000000000000000000000000000000000000000000000000000000000080E72F
:2B155500000000000000000000000000000000000000000000000000000000000000000000000000000000000080E704
:2B158000000000000000000000000000000000000000000000000000000000000000000000000000000000000080E7D9
:2B15AB00000000000000000000000000000000000000000000000000000000000000000000000000000000000080E7AE
:2B15D600000000000000000000000000000000000000000000000000000000000000000000000000000000000080E783
:2B160100000000000000000000000000000000000000000000000000000000000000000000000000000000000080E757
:2B162C00020000000000000000000000000000000000000000000000000000000000000000000000000000000008ED9C
:2B165700000000000000000000000000000000000000000000000000000000000000000000000000000000000080E701
:2B168200000000000000000000000000000000000000000000000000000000000000000000000000000000000080E7D6
:2B16AD00000000000000000000000000000000000000000000000000000000000000000000000000000000000080E7AB
:2B16D800000000000000000000000000000000000000000000000000000000000000000000000000000000000080E780
:2B170300020000000000000000000000000000000000000000000000000000000000000000000000000000000008EDC4
:2B172E00800008800008800008800008800008800008000000000020000220000220000220000220000220000280E72D
:2B175900800008800008800008800008800008800008000000000020000220000220000220000220000220000280E702
:2B178400000000000000000000000000000000000000000000000000000000000000000000000000000000000080E7D3
:2B17AF00020000000000000000000000000000000000000000000000000000000000000000000000000000000008ED18
:2B17DA00000000000000000000000000000000000000000000000000000000000000000000000000000000000080E77D
:2B180500000000000000000000000000000000000000000000000000000000000000000000000000000000000080E751
:2B183000000000000000000000000000000000000000000000000000000000000000000000000000000000000080E726
:2B185B00000000000000000000000000000000000000000000000000000000000000000000000000000000000080E7FB
:2B188600020000000000000000000000000000000000000000000000000000000000000000000000000000000008ED40
:2B18B100000000000000000000000000000000000000000000000000000000000000000000000000000000000080E7A5
:2B18DC00000000000000000000000000000000000000000000000000000000000000000000000000000000000080E77A
:2B190700000000000000000000000000000000000000000000000000000000000000000000000000000000000080E74E
:2B193200020000000000000000000000000000000000000000000000000000000000000000000000000000000008ED93
:2B195D00000000000000000000000000000000000000000000000000000000000000000000000000000000000080E7F8
:2B198800000000000000000000000000000000000000000000000000000000000000000000000000000000000080E7CD
:2B19B300000000000000000000000000000000000000000000000000000000000000000000000000000000000080E7A2
:2B19DE00000000000000000000000000000000000000000000000000000000000000000000000000000000000080E777
:2B1A0900020000000000000000000000000000000000000000000000000000000000000000000000000000000008EDBB
:2B1A3400000000000000000000000000000000000000000000000000000000000000000000000000000000000080E720
:2B1A5F00000000000000000000000000000000000000000000000000000000000000000000000000000000000080E7F5
:2B1A8A00000000000000000000000000000000000000000000000000000000000000000000000000000000000080E7CA
:2B1AB500020000000000000000000000000000000000000000000000000000000000000000000000000000000008ED0F
:2B1AE000000000000000000000000000000000000000000000000000000000000000000000000000000000000080E774
:2B1B0B00000000000000000000000000000000000000000000000000000000000000000000000000000000000080E748
:2B1B3600000000000000000000000000000000000000000000000000000000000000000000000000000000000080E71D
:2B1B6100000000000000000000000000000000000000000000000000000000000000000000000000000000000080E7F2
:2B1B8C00020000000000000000000000000000000000000000000000000000000000000000000000000000000008ED37
:2B1BB700000000000000000000000000000000000000000000000000000000000000000000000000000000000080E79C
:2B1BE200000000000000000000000000000000000000000000000000000000000000000000000000000000000080E771
:2B1C0D00000000000000000000000000000000000000000000000000000000000000000000000000000000000080E745
:2B1C3800020000000000000000000000000000000000000000000000000000000000000000000000000000000008ED8A
:2B1C6300000000000000000000000000000000000000000000000000000000000000000000000000000000000080E7EF
:2B1C8E00000000000000000000000000000000000000000000000000000000000000000000000000000000000080E7C4
:2B1CB900000000000000000000000000000000000000000000000000000000000000000000000000000000000080E799
:2B1CE400000000000000000000000000000000000000000000000000000000000000000000000000000000000080E76E
:2B1D0F00020000000000000000000000000000000000000000000000000000000000000000000000000000000008EDB2
:2B1D3A00000000000000000000000000000000000000000000000000000000000000000000000000000000000080E717
:2B1D6500000000000000000000000000000000000000000000000000000000000000000000000000000000000080E7EC
:2B1D9000000000000000000000000000000000000000000000000000000000000000000000000000000000000080E7C1
:2B1DBB00020000000000000000000000000000000000000000000000000000000000000000000000000000000008ED06
:2B1DE600000000000000000000000000000000000000000000000000000000000000000000000000000000000008EFDB
:2B1E1100000000000000000000000000000000000000000000000000000000000000000000000000000000000090F620
:2B1E3C00000000000000000000000000000000000000000000000000000000000000000000000000000000000008EF84
:2B1E6700000000000000000000000000000000000000000000000000000000000000000000000000000000000008EF59
:2B1E9200020000000000000000000000000000000000000000000000000000000000000000000000000000000008ED2E
:2B1EBD00000000000000000000000000000000000000000000000000000000000000000000000000000000000080E793
:2B1EE800000000000000000000000000000000000000000000000000000000000000000000000000000000000080E768
:2B1F1300000000000000000000000000000000000000000000000000000000000000000000000000000000000080E73C
:2B1F3E00020000000000000000000000000000000000000000000000000000000000000000000000000000000008ED81
:2B1F6900000000000000000000000000000000000000000000000000000000000000000000000000000000000080E7E6
:2B1F9400000000000000000000000000000000000000000000000000000000000000040000000000000000000080E3BB
:2B1FBF00000000000000000000000000000000000000000000000000000000000098000000000000000000000080FEE1
:2B1FEA00000000000000000000000000000000000000000000000000000000000008000000000000000000000000EFD5
:2B201500020000000000000000000000000000000000000000000000000000000010000000000000000000000008FC8A
:2B2040000000000000000000000000000000000000000000000000000000000000680000000000000000000000008984
:2B206B000000000000000000000000000000000000000000000000000000000000680000000000000000000000008959
:2B20960000000000000000000000000000000000000000000000000000000000006000000000000000000000008081BE
:2B20C1000200000000000000000000000000000000000000000000000000000000600000000000000000000000088BFF
:2B20EC00000000000000000000000000000000000000000000000000000000000000000000000000000000000080E762
:2B211700000000000000000000000000000000000000000000000000000000000000000000000000000000000080E736
:2B214200000000000000000000000000000000000000000000000000000000000000000000000000000000000080E70B
:2B216D00000000000000000000000000000000000000000000000000000000000000000000000000000000000080E7E0
:2B219800020000000000000000000000000000000000000000000000000000000000000000000000000000000008ED25
:2B21C300000000000000000000000000000000000000000000000000000000000000000000000000000000000080E78A
:2B21EE00000000000000000000000000000000000000000000000000000000000000000000000000000000000080E75F
:2B221900000000000000000000000000000000000000000000000000000000000000000000000000000000000080E733
:2B224400000000000000000000000000000000000000000000000000000000000020000000000000000000000080C50A
:2B226F00000000000000000000000000000000000000000000000000000000000000000000000000000000000080E7DD
:2B229A00800008800008800008800008800008800008000000000020000220000200000220000220000220000280C5F8
:2B22C500800008800008800008800008800008800008000000000020000220000220000220000220000220000280E78B
:2B22F00000000000000000000000000000000000000000000000000000000000000000A000000000000000000080EDB6
:2B231B00000000000000000000000000000000000000000000000000000000000000000000000000000000000080E730
:2B234600000000000000000000000000000000000000000000000000000000000000000000000000000000000080E705
:2B237100000000000000000000000000000000000000000000000000000080000000000000000000000000000000E7DA
:2B239C00000000000000000000000000000000000000000000000000000080000000002000000000000000000000E591
:2B23C700000000000000000000000000000000000000000000000000000000000000000000000000000000000080E784
:2B23F200000000000000000000000000000000000000000000000000000000000000000000000000000000000080E759
:2B241D00000000000000000000000000000000000000000000000000000000000000000000000000000000000080E72D
:2B244800000000000000000000000000000000000000000000000000000000000000000000000000000000000080E702
:2B2473000000000000000000000000000000000000000000000000000000000000000000000000000000000000A0C5D9
:2B249E00000000000000000000000000000000000000000000000000000000000020000000000000000000000080C5AE
:2B24C900000000000000000000000000000000000000000000000000000000000000000000000000000000000080E781
:2B24F400000000000000000000000000000000000000000000000000000000000000000000000000000000000080E756
:2B251F00000000000000000000000000000000000000000000000000000000000000000000000000000000000080E72A
:2B254A000000000000000000000000000000000000000000000000000000000000000000000000000000000000A0C501
:2B257500000000000000000000000000000000000000000000000000000000000000000000000000000000000080E7D4
:2B25A000000000000000000000000000000000000000000000000000000000000000000000000000000000000080E7A9
:2B25CB00000000000000000000000000000000000000000000000000000000000000000000000000000000000080E77E
:2B25F600000000000000000000000000000000000000000000000000000000000000000000000000000000000080E753
:2B262100000000000000000000000000000000000000000000000000000000000000000000000000000000000080E727
:2B264C00000000000000000000000000000000000000000000000000000000000000000000000000000000000080E7FC
:2B267700000000000000000000000000000000000000000000000000000000000000000000000000000000000080E7D1
:2B26A200040000000000000000000000000000000000000000000000000000000000000000000000000000000080E3A6
:2B26CD00000000000000000000000000000000000000000000000000000000000000000000000000000000000080E77B
:2B26F800000000000000000000000000000000000000000000000000000000000000000000000000000000000080E750
:2B272300000000000000000000000000000000000000000000000000000000000000000000000000000000000080E724
:2B274E00000000000000000000000000000000000000000000000000000000000000000000000000000000000080E7F9
:2B277900000000000000000000000000000000000000000000000000000000000000000000000000000000000080E7CE
:2B27A400000000000000000000000000000000000000000000000000000000000000000000000000000000000080E7A3
:2B27CF00000000000000000000000000000000000000000000000000000000000000000000000000000000000080E778
:2B27FA00000000000000000000000000000000000000000000000000000000000000000000000000000000000080E74D
:2B282500000000000000000000000000000000000000000000000000000000000000000000000000000000000080E721
:2B285000000000000000000000000000000000000000000000000000000000000000000000000000000000000080E7F6
:2B287B00000200000000000000000000000000000000000000000000000000000000000000000000000000000080C5EB
:2B28A600020000000000000000000000000000000000000000000000000000000000000000000000000000000008ED10
:2B28D100000000000000000000000000000000000000000000000000000000000000000000000000000000000080E775
:2B28FC00000000000000000000000000000000000000000000000000000000000000000000000000000000000080E74A
:2B292700000200000000000000000000000000000000000000000000000000000000000000000000000000000080C53E
:2B295200800000000000000000000000000000000000000000000000000000000000000000000000000000000000EFEB
:2B297D00020000000000000000000000000000000020100000000000000000000000000000000000000000000008DF16
:2B29A800000008800008800008800008800008800000000000000020000220000220000220000220000220000280E729
:2B29D300800008800008800008800008800008800008000000000020000220000220000220000220000220000280E776
:2B29FE00000000000000000000000000000000000098000000000000000000000000000000000000000000000080FE98
:2B2A2900020000000000000000000000000000000026000000000000000000000000000000000000000000000008AFA3
:2B2A540000000000000000000000000000000000009A000000000000000000000000000000000000000000000080DE5F
:2B2A7F0000000000000000000000000000000000001C000000000000000000000000000000000000000000000000BE52
:2B2AAA00000000000000000000000000000000000002000000000000000000000000000000000000000000000080C7B8
:2B2AD5000000000000000000000000000000000000A2000000000000000000000000000000000000000000000000E54F
:2B2B0000020000000000000000000000000000000000000000000000000000000000000000000000000000000008EDB3
:2B2B2B00000000000000000000000000000000000004000000000000000000000000000000000000000000000080A754
:2B2B5600000000000000000000000000000000000000000000000000000000000000000000000000000000000080E7ED
:2B2B81000000000000000000000000000000000000A6000000000000000000000000000000000000000000000000A5DE
:2B2BAC00020000000000000000000000000000000082000000000000000000000000000000000000000000000088CD25
:2B2BD70002000000000000000000000000000000003C0000000000000000000000000000000000000000000000009EF7
:2B2C0200040000000000000000000000000000000082000000000000000000000000000000000000000000000000C35E
:2B2C2D0002000000000000000000000000000000001A000000000000000000000000000000000000000000000000DC84
:2B2C5800020000000000000000000000000000000018000000000000000000000000000000000000000000000000FC3B
:2B2C8300020000000000000000000000000000000004000000000000000000000000000000000000000000000008AD6B
:2B2CAE00000000000000000000000000000000000080000000000000000000000000000000000000000000000000E794
:2B2CD900600800000000000000000000000000000026000000000000000000000000000000000000000000000000C57D
:2B2D040020000000000000000000000000000000009A000000000000000000000000000000000000000000000080FE6C
:2B2D2F0042000000000000000000000000000000001C000000000000000000000000000000000000000000000088F49F
:2B2D5A00A0010000000000000000000000000000001A000000000000000000000000000000000000000000000080E72C
:2B2D8500A0010000000000000000000000000000001A000000000000000000000000000000000000000000000080E701
:2B2DB000800100000000000000000000000000000000000000000000000000000000000000000000000000000000FE79
:2B2DDB00C00100000000000000000000000000000004000000000000000000000000000000000000000000000000FE0A
:2B2E0600020500000000000000000000000000000018000000000000000000000000000000000000000000000088A159
:2B2E3100E00200000000000000000000000000000086000000000000000000000000000000000000000000000080CDC1
:2B2E5C0020050000000000000000000000000000001A000000000000000000000000000000000000000000000000AB61
:2B2E870040010000000000000000000000000000005C000000000000000000000000000000000000000000000000ABD8
:2B2EB200220100000000000000000000000000000042000000000000000000000000000000000000000000000008B8D0
:2B2EDD00200500000000000000000000000000000002000000000000000000000000000000000000000000000080B271
:2B2F0800000100000000000000000000000000000000000000000000000000000000000000000000000000000080F627
:2B2F3300000900000000000000000000000000000000000000000000000000000000000000000000000000000000F674
:2B2F5E00800500000000000000000000000000000040000000000000000000000000000000000000000000000000FE85
:2B2F8900620000000000000000000000000000000006000000000000000000000000000000000000000000000008EDC0
:2B2FB400A00500000000000000000000000000000002000000000000000000000000000000000000000000000000BA91
:2B2FDF00C0030000000000000000000000000000009C000000000000000000000000000000000000000000000000C5A3
:2B300A00200000000000000000000000000000000002000000000000000000000000000000000000000000000080E712
:2B30350022040000000000000000000000000000005A000000000000000000000000000000000000000000000088F474
:2B306000020000000000000000000000000000000018000000000000000000000000000000000000000000000000FC2F
:2B308B00040000000000000000000000000000000000000000000000000000000000000000000000000000000080E3B3
:2B30B600020000000000000000000000000000000000000000000000000000000000000000000000000000000080E588
:2B30E100620400000000000000000000000000000086000000000000000000000000000000000000000000000000A137
:2B310C0022040000000000000000000000000000001A000000000000000000000000000000000000000000000088B020
:2B313700C0010000000000000000000000000000005C000000000000000000000000000000000000000000000080A32D
:2B31620020040000000000000000000000000000001A000000000000000000000000000000000000000000000000BA4A
:2B318D00A0030000000000000000000000000000001A000000000000000000000000000000000000000000000080C515
:2B31B800820100000000000000000000000000000000000000000000000000000000000000000000000000000088F4ED
:2B31E300000000000000000000000000000000000000000000000000000000000000000000000000000000000080E75A
:2B320E00000400000000000000000000000000000050000000000000000000000000000000000000000000000080F6CB
:2B323900600000000000604200000000000000000026000000000000000000000000000000000000000000000080833F
:2B326400A005000000002000000000000000000000020000000000000000000000000000000000000000000000009ADE
:2B328F00C20300000000400000000000000000000044000000000000000000000000000000000000000000000088D271
:2B32BA00A00100000000A0010000000000000000000A000000000000000000000000000000000000000000000000CFCE
:2B32E500A00100000000A0010000000000000000009A000000000000000000000000000000000000000000000080DE84
:2B331000000000000000800100000000000000000058000000000000000000000000000000000000000000000080A396
:2B333B00020000000000800100000000000000000018000000000000000000000000000000000000000000000008EDD7
:2B336600000000000000000000000000000000000010000000000000000000000000000000000000000000000008FE26
:2B339100601000000000000000000000000000000066000000000000000000000000000000000000000000000090911A
:2B33BC00200000000000000000000000000000000082000000000000000000000000000000000000000000000088EFCD
:2B33E700400000000000000000000000000000000004000000000000000000000000000000000000000000000008EF80
:2B341200A2010000000000000000000000000000008A000000000000000000000000000000000000000000000088FCDE
:2B343D00A0010000000000000000000000000000003A000000000000000000000000000000000000000000000080C544
:2B346800800100000000000000000000000000000018000000000000000000000000000000000000000000000080E739
:2B349300C001000000000000000000000000000000BC000000000000000000000000000000000000000000000000C5CC
:2B34BE00000000000000800000000000000000000000000000000000000000000000000000000000000000000000EF74
:2B34E9000010000000000000000000000000000000600000000000000000000000000000000000000000000000808048
:2B351400000008800008000008800008800008800000000000000020000220000220000220000220000220000200EFA9
:2B353F00800008800008800008800008800008800008000000000020000220000220000220000220000220000280E7FE
:2B356A00400000000000000080020000000000000302000000000000000000000000000000000000000000000000B6B9
:2B359500000000000000000000000000000000000000000000000000000000000000000000000000000000000080E7A4
:2B35C000000000000000000000000000000000000000000000000000000000000000000000000000000000000080E779
:2B35EB00000000000000000000000002000000000000000000000000000000000000000000000000000000000080C76C
:2B361600400000000000000080000002000000000202000000000000000000000000000000000000000000000000853E
:2B364100000000000000000800000000000000000000000000000000000000000000000000000000000000000000E76F
:2B366C00000000000000000000000000000000000000000000000000000000000000000000000000000000000080E7CC
:2B369700000000000000000000000000000000000000000000000000000000000000000000000000000000000080E7A1
:2B36C200000000000000000000000000000000000000000000000000000000000000000000000000000000000080E776
:2B36ED00080100000000000000000000000000000000080000000000000000000000000000000000000000000008FE9B
:2B371800000000000000000000000000000000000000000000000000000000000000000000000000000000000080E71F
:2B374300000000000000000000000000000000000000000000000000000000000000000000000000000000000080E7F4
:2B376E00000000000000000000000000000000000000000000000000000000000000000000000000000000000080E7C9
:2B379900000000000000000000000000000000000000000000000000000000000000000000000000000000000080E79E
:2B37C400080000000000000000000000000000000000000000000000000000000000000000000000000000000080EF63
:2B37EF00000000000000000000000000000000000000000000000000000000000000000000000000000000000080E748
:2B381A00000000000000000000000000000000000000000000000000000000000000000000000000000000000080E71C
:2B384500000000000000000000000000000000000000000000000000000000000000000000000000000000000080E7F1
:2B387000000000000000000000000000000000000000000000000000000000000000000000000000000000000008EF36
:2B389B00000000000000000000000000000000000000000000000000000000000000000000000000000000000080E79B
:2B38C600000000000000000000000000000000000000000000000000000000000000000000000000000000000080E770
:2B38F100000000000000000000000000000000000000000000000000000000000000000000000000000000000080E745
:2B391C00000000000000000000000000000000000000000000000000000000000000000000000000000000000080E719
:2B394700000000000000000000000000000000000000000000000000000000000000000000000000000000000080E7EE
:2B397200000000000000000000000000000000000000000000000000000000000000000000000000000000000080E7C3
:2B399D00000000000000000000000000000000000000000000000000000000000000000000000000000000000090F679
:2B39C800000000000000000000000000000000000000000000000000000000000000000000000000000000000080E76D
:2B39F300000000000000000000000000000000000000000000000000000000000000000000000000000000000080E742
:2B3A1E00000000000000000000000000000000000000000000000000000000000000000000000000000000000080E716
:2B3A4900000000000000000000000000000000000000000000000000000000000000000000000000000000000080E7EB
:2B3A7400000000000000000000000000000000000000000000000000000000000000000000000000000000000080E7C0
:2B3A9F00000000000000000000000000000000000000000000000000000000000000000000000000000000000080E795
:2B3ACA00000000000000000000000000000000000000000000000000000000000000000000000000000000000080E76A
:2B3AF500000000000000000000000000000000000000000000000000000080000000000000000000000000000000E73F
:2B3B2000020000000000000000000000000000000000000000000000000000000000000000000000000000000008ED83
:2B3B4B00000000000000000000000000000000000000000000000000000000000000000000000000000000000080E7E8
:2B3B7600000000000000000000000000000000000000000000000000000000000000000000000000000000000080E7BD
:2B3BA1000000000000000000000000000000000000000000000000000000C0000000000000000000000000000000A396
:2B3BCC00000000000000000000000000000000000000000000000000000000000200000000000000000000000080C587
:2B3BF700020000000000000000000000000000000000000000000000000000000000000000000000000000000008EDAC
:2B3C2200800008800008800008800008800008800008000000000020000220000020000220000220000220000280C538
:2B3C4D00800008800008800008800008800008800008000000000020000220000220000220000220000220000280E7E9
:2B3C7800000000000000000000000000000000000000000000000000000000000000000000000000000000000080E7BA
:2B3CA300020000000000000000000000000000000000000000000000000000000000000000000000000000000008EDFF
:2B3CCE00000000000000000000000000000000000000000000000000000000000000000000000000000000000080E764
:2B3CF900000000000000000000000000000000000000000000000000000000000000000000000000000000000080E739
:2B3D2400000000000000000000000000000000000000000000000000000000000000000000000000000000000080E70D
:2B3D4F00000000000000000000000000000000000000000000000000000000000000000000000000000000000080E7E2
:2B3D7A00020000000000000000000000000000000000000000000000000000000000000000000000000000000008ED27
:2B3DA500000000000000000000000000000000000000000000000000000000000000000000000000000000000080E78C
:2B3DD000000000000000000000000000000000000000000000000000000000000000000000000000000000010080E661
:2B3DFB00000000000000000000000000000000000000000000000000000000000000000000000000000038000000DC89
:2B3E2600020000000000000000000000000000000000000000000000000000000000000000000000000008000088E5FA
:2B3E5100000000000000000000000000000000000000000000000000000000000000000000000000000030020008DE2E
:2B3E7C00000000000000000000000000000000000000000000000000000000000000000000000000000008000010FE05
:2B3EA7000000000000000000000000000000000000000000000000000000000000000000000000000000A8020008C777
:2B3ED200000000000000000000000000000000000000000000000000000000000000000000000000000040020008A9D2
:2B3EFD00020000000000000000000000000000000000000000000000000000000000000000000000000020000008CFA1
:2B3F2800000000000000000000000000000000000000000000000000000000000001000000000000000040010080B2FA
:2B3F5300000000000000000000000000000000000000000000000000000000800900000000000000000018000000E7BB
:2B3F7E00000000000000000000000000000000000000000000000000000000800000000000000000000048000080A32D
:2B3FA900020000000000000000000000000000000000000000000000000000000100000000000000000010020008EFE1
:2B3FD400000000000000000000000000000000000000000000000000000000800600000000000000000048000080C5AF
:2B3FFF000000000000000000000000000000000000000000000000000000008006000000000000000000880200008304
:2B402A00000000000000000000000000000000000000000000000000000000000600000000000000000020020080A122
:2B405500000000000000000000000000000000000000000000000000000000000700000000000000000020000080B2E7
:2B408000020000000000000000000000000000000000000000000000000000000000000000000000000040010008A822
:2B40AB00000000000000000000000000000000000000000000000000000000000000000000000000000058000000BAD8
:2B40D600000000000000000000000000000000000000000000000000000000000000000000000000000048020000A9CC
:2B410100000000000000000000000000000000000000000000000000000000000000000000000000000010000080F60D
:2B412C00020000000000000000000000000000000000000000000000000000000000000000000000000028000088C7EF
:2B4157000000000000000000000000000000000000000000000000000000000000000000000000000000A8020080CF44
:2B418200000000000000000000000000000000000000000000000000000000000000000000000000000020000080C5AD
:2B41AD00000000000000000000000000000000000000000000000000000000000000000000000000000000020080E580
:2B41D80000000000000000000000000000000000000000000000000000000000160000000000000000000000008080A6
:2B420300020000000000000000000000000000000000000000000000000000800100000000000000000018010008EC00
:2B422E000000000000000000000000000000000000000000000000000000008006000000000000000000000100008856
:2B425900000000000000000000000000000000000000000000000000000000001F00000000000000000090000080808B
:2B428400000000000000000000000000000000000000000000000000000000800000000000000000000000000000EFA0
:2B42AF00020000000000000000000000000000000000000000000000000000801000000000000000000000000088E4E6
:2B42DA000000000000000000000000000000000000000000000000000000000000000000000000000000600000808158
:2B430500000000000000000000000000000000000000000000000000000000000000000000000000000060000080812C
:2B4330000000000000000000000000000000000000000000000000000000000000000000000000000000600000808101
:2B435B00000000000000000000000000000000000000000000000000000000801100000000000000000078010080812C
:2B4386000200000000000000000000000000000000000000000000000000008010000000000000000000680000088A80
:2B43B10000000000000000000000000000000000000000000000000000000000070000000000000000009002000083C5
:2B43DC00000000000000000000000000000000000000000000000000000000800000000000000000000008020080E5C7
:2B440700000000000000000000000000000000000000000000000000000000801E000000000000000000080000008064
:2B4432000200000000000000000000000000000000000000000000000000000006000000000000000000000000088BC4
:2B445D00000000000000000000000000000000000000000000000000000000000000000000000000000000000080E7CD
:2B448800000000000000000000000000000000000000000000000000000000001400000000000000000000000080A2D3
:2B44B300000000000000000000000000000000000000000000000000000000800900000000000000000018010000E656
:2B44DE0000000000000000000000000000000000000000000000000000000080000000000000000000006801008080CA
:2B4509000200000000000000000000000000000000000000000000000000000019000000000000000000B0000008CEE6
:2B453400000000000000000000000000000000000000000000000000000000801200000000000000000068020080A040
:2B455F00000000000000000000000000000000000000000000000000000000800600000000000000000028000080A360
:2B458A0000000000000000000000000000000000000000000000000000000000060000000000000000000000008081FF
:2B45B5000200000000000000000000000000000000000000000000000000000016000000000000000000800200888831
:2B45E000000000000000000000000000000000000000000000000000000000001000000000000000000000020080E43A
:2B460B00000000000000000000000000000000000000000000000000000000800100000000000000000078000080818A
:2B46360000000000000000000000000000000000000000000000000000000080060000000000000000000800008081CA
:2B466100000000000000000000000000000000000000000000000000000000001F00000000000000000070020000E4B9
:2B468C000200000000000000000000000000000000000000000000000000008006000000000000000000080000088BE0
:2B46B7000000000000000000000000000000000000000000000000000000008006000000000000000000E8020000E583
:2B46E200000000000000000000000000000000000000000000000000000000000000000000000000000060000080814C
:2B470D000000000000000000000000000000000000000000000000000000000000000000000000000000600000808120
:2B473800000000000000000000000000000000000000000000000000000000000001000000000000000020000080D5E0
:2B476300000000000000000000000000000000000000000000000000000000000800000000000000000000000000E73C
:2B478E00800008800008800008800008800008800008000000000020000220000020000220000220000200000280E7BF
:2B47B900800008800008800008800008800008800008000000000020000220000220000220000220000220000280E772
:2B47E400000000000000000000000000000000000000000000000000000040000000000000000000000008000000ABB7
:2B480F00000000000000000000000000000000000000000000000000000000000000000000000000000000000080E717
:2B483A00000000000000000000000000000000000000000000000000000040000000000000000000000000000080A3F0
:2B486500000000000000000000000000000000000000000000000000000000000000000000000000000000000080E7C1
:2B489000000000000000000000000000000000000000000000000000000000000000000000000000000008000000EF06
:2B48BB00000000000000000000000000000000000000000000000000000000000000000000000000000000000080E76B
:2B48E600000000000000000000000000000000000000000000000000000000002000000000000000000000000080E522
:2B491100000000000000000000000000000000000000000000000000000000000000000000000000000000000080E714
:2B493C00000000000000000000000000000000000000000000000000000000000000000000000000000000000080E7E9
:2B496700000000000000000000000000000000000000000000000000000000000000000000000000000000000080E7BE
:2B499200000000000000000000000000000000000000000000000000000000000000000000000000000000000080E793
:2B49BD00000000000000000000000000000000000000000000000000000000000000000000000000000000000080E768
:2B49E800000000000000000000000000000000000000000000000000000000000000000000000000000000000080E73D
:2B4A1300000000000000000000000000000000000000000000000000000000000000000000000000000000000080E711
:2B4A3E00000000000000000000000000000000000000000000000000000000000000000000000000000000000080E7E6
:2B4A6900000000000000000000000000000000000000000000000000000000000000000000000000000000000080E7BB
:2B4A9400000000000000000000000000000000000000000000000000000000000000000000000000000000000080E790
:2B4ABF00000000000000000000000000000000000000000000000000000000000000000000000000000000000080E765
:2B4AEA00000000000000000000000000000000000000000000000000000000000000000000000000000000000080E73A
:2B4B1500000000000000000000000000000000000000000000000000000000000000000000000000000000000080E70E
:2B4B4000000000000000000000000000000000000000000000000000000000000000000000000000000000000080E7E3
:2B4B6B00000000000000000000000000000000000000000000000000000000000000000000000000000000000080E7B8
:2B4B9600000000000000000000000000000000000000000000000000000000000000000000000000000000000080E78D
:2B4BC100000000000000000000000000000000000000000000000000000000000000000000000000000000000080E762
:2B4BEC00000000000000000000000000000000000000000000000000000000000000000000000000000000000080E737
:2B4C1700040000000000000000000000000000000000000000000000000000000000000000000000000000000080E30B
:2B4C4200000000000000000000000000000000000000000000000000000000000000000000000000000000000080E7E0
:2B4C6D00000000000000000000000000000000000000000000000000000000000000000000000000000000000080E7B5
:2B4C9800000000000000000000000000000000000000000000000000000000000000000000000000000000000080E78A
:2B4CC300000000000000000000000000000000000000000000000000000000000000000000000000000000000080E75F
:2B4CEE00000000000000000000000000000000000000000000000000000000000000000000000000000000000080E734
:2B4D1900000000000000000000000000000000000000000000000000000000000000000000000000000000000080E708
:2B4D4400000000000000000000000000000000000000000000000000000000000000000000000000000000000080E7DD
:2B4D6F00000000000200000000000000000000000000000000000000000000000000000000000000000000000080C5D2
:2B4D9A00020000000000000000000000000000000000000000000000000000000000000000000000000000000008EDF7
:2B4DC500000000000000000000000000000000000000000000000000000000000000000000000000000000000080E75C
:2B4DF000000000000000000000000000000000000000000000000000000000000000000000000000000000000080E731
:2B4E1B00000000000300000000000000000000000000000000000000000000000000000000000000000000000080D415
:2B4E4600000000000000000000000000000000000000000000000000000000000000000000000000000000000080E7DA
:2B4E7100020000000000000000000000000000000000000000000000000000000000000000000000000000000008ED1F
:2B4E9C00800008800008800008800008800008800008000000000020000220000220000220000220000220000280E788
:2B4EC700800008800008800008800008800008800008000000000020000220000220000220000220000220000280E75D
:2B4EF200000000000000000000000000000000000000000000000000000000000000000000000000000000000080E72E
:2B4F1D00020000000000000000000000000000000000000000000000000000000000000000000000000000000008ED72
:2B4F4800000000000000000000000000000000000000000000000000000000000000000000000000000000000080E7D7
:2B4F7300000000000000000000000000000000000000000000000000000000000000000000000000000000000080E7AC
:2B4F9E00000000000000000000000000000000000000000000000000000000000000000000000000000000000080E781
:2B4FC900000000000000000000000000000000000000000000000000000000000000000000000000000000000080E756
:2B4FF400020000000000000000000000000000000000000000000000000000000000000000000000000000000008ED9B
:2B501F00000000000000000000000000000000000000000000000000000000000000000000000000000000000080E7FF
:2B504A00000000000000000000000000000000000000000000000000000000000000000000000000000000000080E7D4
:2B507500000000000000000000000000000000000000000000000000000000000000000000000000000000000080E7A9
:2B50A000020000000000000000000000000000000000000000000000000000000000000000000000000000000008EDEE
:2B50CB00020000000000000000000000000000000000000000000000000000000000000000000000000000000080E553
:2B50F600040000000000000000000000000000000000000000000000000000000000000000000000000000000080E328
:2B512100020000000000000000000000000000000000000000000000000000000000000000000000000000000080E5FC
:2B514C00020000000000000000000000000000000000000000000000000000000000000000000000000000000080E5D1
:2B517700020000000000000000000000000000000000000000000000000000000000000000000000000000000008ED16
:2B51A200000000000000000000000000000000000000000000000000000000000000000000000000000000000080E77B
:2B51CD00000000000026100000000000000000000000000000000000000000000000000000000000000000000080B54C
:2B51F800000000000002000000000000000000000000000000000000000000000000000000000000000000000080C743
:2B522300020000000004000000000000000000000000000000000000000000000000000000000000000000000008ADA5
:2B524E0000000000001A000000000000000000000000000000000000000000000000000000000000000000000000DE3D
:2B52790000000000001A000000000000000000000000000000000000000000000000000000000000000000000000DE12
:2B52A400000000000018000000000000000000000000000000000000000000000000000000000000000000000000FEC9
:2B52CF00000000000018000000000000000000000000000000000000000000000000000000000000000000000000FE9E
:2B52FA00020000000000000000000000000000000000000000000000000000000000000000000000000000000008ED92
:2B532500000000000000000000000000000000000000000000000000000000000000000000000000000000000080E7F6
:2B535000000000000000000000000000000000000000000000000000000000000000000000000000000000000080E7CB
:2B537B00000000000000000000000000000000000000000000000000000000000000000000000000000000000080E7A0
:2B53A600020000000000000000000000000000000000000000000000000000000000000000000000000000000008EDE5
:2B53D100000000000000000000000000000000000000000000000000000000000000000000000000000000000080E74A
:2B53FC00000000000000000000000000000000000000000000000000000000000000000000000000000000000080E71F
:2B542700000000000000000000000000000000000000000000000000000000000000000000000000000000000080E7F3
:2B545200000000000000000000000000000000000000000000000000000000000000000000000000000000000080E7C8
:2B547D00020000000000000000000000000000000000000000000000000000000000000000000000000000000008ED0D
:2B54A800000000000000000000000000000000000000000000000000000000000000000000000000000000000080E772
:2B54D300000000000000000000000000000000000000000000000000000000000000000000000000000000000080E747
:2B54FE00000000000000000000000000000000000000000000000000000000000000000000000000000000000080E71C
:2B552900020000000000000000000000000000000000000000000000000000000000000000000000000000000008ED60
:2B555400000000000000000000000000000000000000000000000000000000000000000000000000000000000080E7C5
:2B557F00000000000000000000000000000000000000000000000000000000000000000000000000000000000080E79A
:2B55AA00000000000000000000000000000000000000000000000000000000000000000000000000000000000080E76F
:2B55D500000000000000000000000000000000000000000000000000000000000000000000000000000000000080E744
:2B560000020000000000000000000000000000000000000000000000000000000000000000000000000000000008ED88
:2B562B00000000000000000000000000000000000000000000000000000000000000000000000000000000000080E7ED
:2B565600000000000000000000000000000000000000000000000000000000000000000000000000000000000080E7C2
:2B568100000000000000000000000000000000000000000000000000000000000000000000000000000000000080E797
:2B56AC00020000000000000000000000000000000000000000000000000000000000000000000000000000000008EDDC
:2B56D700000000000000000000000000000000000000000000000000000000000000000000000000000000000080E741
:2B570200000000000000000000000000000000000000000000000000000000000000000000000000000000000080E715
:2B572D00000000000000000000000000000000000000000000000000000000000000000000000000000000000080E7EA
:2B575800000000000000000000000000000000000000000000000000000000000000000000000000000000000080E7BF
:2B578300020000000000000000000000000000000000000000000000000000000000000000000000000000000008ED04
:2B57AE00000000000000000000000000000000000000000000000000000000000000000000000000000000000080E769
:2B57D900000000000000000000000000000000000000000000000000000000000000000000000000000000000080E73E
:2B580400000000000000000000000000000000000000000000000000000000000000000000000000000000000080E712
:2B582F00020000000000000000000000000000000000000000000000000000000000000000000000000000000008ED57
:2B585A00000000000000000000000000000000000000000000000000000000000000000000000000000000000080E7BC
:2B588500000000000000000000000000000000000000000000000000000000000000000000000000000000000080E791
:2B58B000000000000000000000000000000000000000000000000000000000000000000000000000000000000080E766
:2B58DB00000000000000000000000000000000000000000000000000000000000000000000000000000000000080E73B
:2B590600020000000000000000000000000000000000000000000000000000000000000000000000000000000008ED7F
:2B593100000000000000000000000000000000000000000000000000000000000000000000000000000000000080E7E4
:2B595C00000000000000000000000000000000000000000000000000000000000000000000000000000000000080E7B9
:2B598700000000000000000000000000000000000000000000000000000000000000000000000000000000000080E78E
:2B59B200000000000008000000000000000000000000000000000000000000000000000000000000000000000000EFD3
:2B59DD00000000000000000000000000000000000000000000000000000000000000000000000000000000000080E738
:2B5A0800800008800000800008800008800008800008000000000020000220000220000220000220000220000200EF90
:2B5A3300800008800008800008800008800008800008000000000020000220000220000220000220000220000280E7E5
:2B5A5E00000000000000000000000000000000000000000000000000000000000000000000000000000000000080E7B6
:2B5A8900000000000000000000000000000000000000000000000000000000000000000000000000000000000080E78B
:2B5AB400000000000000000000000000000000000000000000000000000000000000000000000000000000000080E760
:2B5ADF00000000000000000000000002000000000000000000000000000000000000000000000000000000000080C753
:2B5B0A00000000000000000000000002000000000000000000000000000000000000000000000000000000000080C727
:2B5B3500000000000000000000000000000000000000000000000000000000000000000000000000000000000080E7DE
:2B5B6000000000000000000000000000000000000000000000000000000000000000000000000000000000000080E7B3
:2B5B8B00000000000000000000000000000000000000000000000000000000000000000000000000000000000080E788
:2B5BB600000000000000000000000000000000000000000000000000000000000000000000000000000000000080E75D
:2B5BE100000000000000080000000000000000000000000000000000000000000000000000000000000000000080EF22
:2B5C0C00000000000000000000000000000000000000000000000000000000000000000000000000000000000080E706
:2B5C3700000000000000000000000000000000000000000000000000000000000000000000000000000000000080E7DB
:2B5C6200000000000000000000000000000000000000000000000000000000000000000000000000000000000080E7B0
:2B5C8D00000000000000000000000000000000000000000000000000000000000000000000000000000000000080E785
:2B5CB800000000000000000000000000000000000000000000000000000000000000000000000000000000000080E75A
:2B5CE300000000000000000000000000000000000000000000000000000000000000000000000000000000000080E72F
:2B5D0E00000000000000000000000000000000000000000000000000000000000000000000000000000000000080E703
:2B5D3900000000000000000000000000000000000000000000000000000000000000000000000000000000000080E7D8
:2B5D6400000000000000000000000000000000000000000000000000000000000000000000000000000000000080E7AD
:2B5D8F00000000000000000000000000000000000000000000000000000000000000000000000000000000000080E782
:2B5DBA00000000000000000000000000000000000000000000000000000000000000000000000000000000000080E757
:2B5DE500000000000000000000000000000000000000000000000000000000000000000000000000000000000080E72C
:2B5E1000000000000000000000000000000000000000000000000000000000000000000000000000000000000080E700
:2B5E3B00000000000000000000000000000000000000000000000000000000000000000000000000000000000080E7D5
:2B5E6600000000000000000000000000000000000000000000000000000000000000000000000000000000000080E7AA
:2B5E9100000000000000000000000000000000000000000000000000000000000000000000000000000000000080E77F
:2B5EBC00000000000000000000000000000000000000000000000000000000000000000000000000000000000080E754
:2B5EE700000000000000000000000000000000000000000000000000000000000000000000000000000000000080E729
:2B5F1200000000000000000000000000000000000000000000000000000000000000000000000000000000000080E7FD
:2B5F3D00000000000000000000000000000000000000000000000000000000000000000000000000000000000080E7D2
:2B5F6800000000000000000000000000000000000000000000000000000000000000000000000000000000000080E7A7
:2B5F9300000000000000000000000000000000000000000000000000000000000000000000000000000000000080E77C
:2B5FBE00000000000000000000000000000000000000000000000000000000000000000000000000000000000080E751
:2B5FE900000000000000000000000000000000000000000000000000000000000000000000000000000000000080E726
:2B601400020000000000000000000000000000000000000000000000000000000000000000000000000000000008ED6A
:2B603F00000000000000000000000000000000000000000000000000000000000000000000000000000000000080E7CF
:2B606A00000000000000000000000000000000000000000000000000000000000000000000000000000000000080E7A4
:2B609500000000000000000000000000000000000000000000000000000000000000000000000000000000000080E779
:2B60C000000000000000000000000000000000000000000000000000000000000000000000000000000000000080E74E
:2B60EB00020000000000000000000000000000000000000000000000000000000000000000000000000000000008ED93
:2B611600800008800008800008800008800008800008000000000020000220000220000220000220000220000280E7FB
:2B614100800008800008800008800008800008800008000000000020000220000220000220000220000220000280E7D0
:2B616C00000000000000000000000000000000000000000000000000000000000000000000000000000000000080E7A1
:2B619700020000000000000000000000000000000000000000000000000000000000000000000000000000000008EDE6
:2B61C200000000000000000000000000000000000000000000000000000000000000000000000000000000000080E74B
:2B61ED00000000000000000000000000000000000000000000000000000000000000000000000000000000000080E720
:2B621800000000000000000000000000000000000000000000000000000000000000000000000000000000000080E7F4
:2B624300000000000000000000000000000000000000000000000000000000000000000000000000000000000080E7C9
:2B626E00020000000000000000000000000000000000000000000000000000000000000000000000000000000008ED0E
:2B629900000000000000000000000000000000000000000000000000000000000000000000000000000000000080E773
:2B62C400000000000000000000000000000000000000000000000000000000000000000000000000000000000080E748
:2B62EF00000000000000000000000000000000000000000000000000000000000000000000000000000000000080E71D
:2B631A00020000000000000000000000000000000000000000000000000000000000000000000000000000000008ED61
:2B634500000000000000000000000000000000000000000000000000000000000000000000000000000000000080E7C6
:2B637000000000000000000000000000000000000000000000000000000000000000000000000000000000000080E79B
:2B639B00000000000000000000000000000000000000000000000000000000000000000000000000000000000080E770
:2B63C600000000000000000000000000000000000000000000000000000000000000000000000000000000000080E745
:2B63F100020000000000000000000000000000000000000000000000000000000000000000000000000000000008ED8A
:2B641C00000000000000000000000000000000000000000000000000000000000000000000000000000000000080E7EE
:2B644700000000000000000000000000000000000000000000000000000000000000000000000000000000000080E7C3
:2B647200000000000000000000000000000000000000000000000000000000000000000000000000000000000080E798
:2B649D00020000000000000000000000000000000000000000000000000000000000000000000000000000000008EDDD
:2B64C800000000000000000000000000000000000000000000000000000000000000000000000000000000000080E742
:2B64F300000000000000000000000000000000000000000000000000000000000000000000000000000000000080E717
:2B651E00000000000000000000000000000000000000000000000000000000000000000000000000000000000080E7EB
:2B654900000000000000000000000000000000000000000000000000000000000000000000000000000000000080E7C0
:2B657400020000000000000000000000000000000000000000000000000000000000000000000000000000000008ED05
:2B659F00000000000000000000000000000000000000000000000000000000000000000000000000000000000080E76A
:2B65CA00000000000000000000000000000000000000000000000000000000000000000000000000000000000080E73F
:2B65F500000000000000000000000000000000000000000000000000000000000000000000000000000000000080E714
:2B662000020000000000000000000000000000000000000000000000000000000000000000000000000000000008ED58
:2B664B00000000000000000000000000000000000000000000000000000000000000000000000000000000000080E7BD
:2B667600000000000000000000000000000000000000000000000000000000000000000000000000000000000080E792
:2B66A100000000000000000000000000000000000000000000000000000000000000000000000000000000000080E767
:2B66CC00000000000000000000000000000000000000000000000000000000000000000000000000000000000080E73C
:2B66F700020000000000000000000000000000000000000000000000000000000000000000000000000000000008ED81
:2B672200000000000000000000000000000000000000000000000000000000000000000000000000000000000080E7E5
:2B674D00000000000000000000000000000000000000000000000000000000000000000000000000000000000080E7BA
:2B677800000000000000000000000000000000000000000000000000000000000000000000000000000000000080E78F
:2B67A300020000000000000000000000000000000000000000000000000000000000000000000000000000000008EDD4
:2B67CE00000000000000000000000000000000000000000000000000000000000000000000000000000000000080E739
:2B67F900000000000000000000000000000000000000000000000000000000000000000000000000000000000080E70E
:2B682400000000000000000000000000000000000000000000000000000000000000000000000000000000000080E7E2
:2B684F00000000000000000000000000000000000000000000000000000000000000000000000000000000000080E7B7
:2B687A00020000000000000000000000000000000000000000000000000000000000000000000000000000000008EDFC
:2B68A500000000000000000000000000000000000000000000000000000000000000000000000000000000000080E761
:2B68D000000000000000000000000000000000000000000000000000000000000000000000000000000000000080E736
:2B68FB00000000000000000000000000000000000000000000000000000000000000000000000000000000000080E70B
:2B692600020000000000000000000000000000000000000000000000000000000000000000000000000000000008ED4F
:2B695100000000000000000000000000000000000000000000000000000000000000000000000000000000000080E7B4
:2B697C00000000000000000000000000000000000000000000000000000000000000000000000000000000000080E789
:2B69A700000000000000000000000000000000000000000000000000000000000000000000000000000000000080E75E
:2B69D200000000000000000000000000000000000000000000000000000000000000000000000000000000000080E733
:2B69FD00020000000000000000000000000000000000000000000000000000000000000000000000000000000008ED78
:2B6A2800000000000000000000000000000000000000000000000000000000000000000000000000000000000080E7DC
:2B6A5300000000000000000000000000000000000000000000000000000000000000000000000000000000000080E7B1
:2B6A7E00000000000000000000000000000000000000000000000000000000000000000000000000000000000080E786
:2B6AA900020000000000000000000000000000000000000000000000000000000000000000000000000000000008EDCB
:2B6AD400000000000000000000000000000000000000000000000000000000000000000000000000000000000080E730
:2B6AFF00000000000000000000000000000000000000000000000000000000000000000000000000000000000080E705
:2B6B2A00000000000000000000000000000000000000000000000000000000000000000000000000000000000080E7D9
:2B6B5500000000000000000000000000000000000000000000000000000000000000000000000000000000000080E7AE
:2B6B8000020000000000000000000000000000000000000000000000000000000000000000000000000000000008EDF3
:2B6BAB00000000000000000000000000000000000000000000000000000000000000000000000000000000000080E758
:2B6BD600000000000000000000000000000000000000000000000000000000000000000000000000000000000080E72D
:2B6C0100000000000000000000000000000000000000000000000000000000000000000000000000000000000080E701
:2B6C2C00000000000000000000000000000000000000000000000000000000000000000000000000000000000080E7D6
:2B6C5700000000000000000000000000000000000000000000000000000000000000000000000000000000000080E7AB
:2B6C8200800008800008800008800008800008800008000000000020000220000220000220000220000220000280E784
:2B6CAD00800008800008800008800008800008800008000000000020000220000220000220000220000220000280E759
:2B6CD800000000000000000000000000000000000000000000000000000000000000000000000000000000000080E72A
:2B6D0300000000000000000000000000000000000000000000000000000000000000000000000000000000000080E7FE
:2B6D2E00000000000000000000000000000000000000000000000000000000000000000000000000000000000080E7D3
:2B6D5900000000000000000000000000000000000000000000000000000000000000000000000000000000000080E7A8
