:020000040000FA
:5C000000FFFF62FF2E00FFFFFFFFFFFFFFFFFFFFFFFFFFFFFFFFFFFFFFFFFFFFFFFFFFFFFFFFFFFFFFFFFFFFFFFFFFFFFFFFFFFFFFFFFFFFFFFFFFFFFFFFFFFFFFFFFFFFFFFFFFFFFFFFFFFFFFFFFFFFFFFFFFFFFFFFFFFFFFFFFFFFFFFFFFFF6D
:5C005C0060180C8361300C86C1301806C360180C8361300C86C1301806C360180C8361300C86C1301806C360180C0300000000C0301806C360180C8361300C86C1301806C360180C8361300C86C1301806C360180C8361300C86C1301806D0F00B
:5C00B80040100802412008048120100482401008024120080481201004824010080241200804812010048240100802000000008020100482401008024120080481201004824010080241200804812010048240100802412008048120100490F565
:5C01140000000000000000000000000000000000000000000000000000000000000000000000000000000000000000000000000000000000000000000000000000000000000000000000000000000000000000000000000000000000000010FF80
:5C01700000000000000000000000000000000000000000000000000000000000000000000000000000000000000000000000000000000000000000000000000000000000000000000000000000000000000000000000000000000000000010FF24
:5C01CC0000000000000000000000000000000000000000000000000000000000000000000000000000000000000000000000000000000000000000000000000000000000000000000000000000000000000000000000000000000000000010FFC8
:5C02280000000000000000000000000000000000000000000000000000000000000000000000000000000000000000000000000000000000000000000000000000000000000000000000000000000000000000000000000000000000000010FF6B
:5C02840000000000000000000000000000000000000000000000000000000000000000000000000000000000000000000000000000000000000000000000000000000000000000000000000000000000000000000000000000000000000010FF0F
:5C02E00000000000000000000000000000000000000000000000000000000000000000000000000000000000000000000000000000000400000000000000000000000000000000000000000000000000000000000000000000000000000050FF6F
:5C033C0000000000000000000100000000000000000000000000000000000000000000000000000000000000000000000000000000000000000000000000000000000000000000000000000000000000000000000000000000000000000000FF65
:5C03980000000000000000000000000000000000000000000000000000000000000000000000000000000000000000000000000000000000000000000000000000000000000000000000000000000000000000000000020000000000000010FDFA
:5C03F40000000000000000000000000000000000000000000000000000000000000000000000000000000000000000000000000000000000000000000000000000000000000000000000000000000000000000000000000000000000000010FF9E
:5C04500000000000000000000000000000000000000000000000000000000000000000000000000000000000000000000000000000000000000000000000000000000000000000000000000000000000000000000000000000000000000010FF41
:5C04AC0000000000000000000000000000000000000000000000000000000000000000000000000000000000000000000000000000000000000000000000000000000000000000000000000000000000000000000000000000000000000010FFE5
:5C05080000000000000000000000000000000000000000000000000000000000000000000000000000000000000000000000000000000000000000000000000000000000000000000000000000000000000000000000000000000000000010FF88
:5C05640000000000000000000000000000000000000000000000001000000000000000000000000000000000000000000000000000000000000000000000000000000000000000000000200000000000000000000000010000000000000030FDDD
:5C05C00000000000000000000000000000000000000000000000000000000000000000000000000000000000000000000000000000000000000000000000000000000000000000000000000000000000000000000000000000000000000010FFD0
:5C061C0000080000000004000010000200000800000000040000100000400000000100000080000000004000000000000000000000000000000000000000000000000000000000000000000000000000000000000000000000000000000020F631
:5C067800000000000008000000000000000000000000000000000000800000000000000000010000008000000000400000000000000000000000000000000000000000000000000000000000000000000000000000000000000000000000C0F627
:5C06D40000000000000000000000000000000000000000000000000000000000000000000000000000000000000000000000000000000000000000000000000000000000000000000000000000000000000000000000000000000000000010FFBB
:5C07300000000000000000000000000000000000000000000000000000000000000000000000000000000000000000000000000000000000000000000000000000000000000000000000000000000000000000000000000000000000000010FF5E
:5C078C0000000000000000000000000000000000000000000000000000000000000000000000000000100000000000000000000000000000020000000000000000800000000040000000002800040000100000000000000020000400000030F3BC
:5C07E800000000000000000000000000000000000000000000000000000000000000000000080000000000000000000000000040000000000000000000000000000000000000000000000000000000000000200000000000000000000800B0FB9A
:5C08440000000000000000000000000000000000000000000000000000000000000000000000000000000000000000000000000000000000000000000000000000000000000000000000000000000000000000000000000000000000000010FF49
:5C08A00000000000000000000000000000000000000000000000000000000000000000000000000000000000000000000000000000000000000000000000000000000000000000000000000000000000000000000000000000000000000010FFED
:5C08FC0000000000000000000000000000000000000000000000000000000000000000000000000000000000000000000000000000000000000000000000000000000000000000000000000000000000000000000000000000000000000010FF91
:5C09580000004000000000200000000010000040000000002000000000000002000008000000000400000000020000000000000000000000000000000000000000000000000000000000000000000000000000000000000000000000000080F3F0
:5C09B40000200000000000000000000000000000000000000000200000000000000000000000000000000000000000000000000000000800002000000000100000000008000000000000000000000000000000000000800000000000000080FC6B
:5C0A100000000000010000000000000000000000000000000000000000000040000100000000000000000000000000000000000000000000000000000000000000000000000000000000000000000000000000000000000000000000000040FE0A
:5C0A6C0000000000000000000000000000000000000000000000000000000000000000000000000000000000000000000000000000000000000000000000000000000000000000000000000000000000000000000000000000000000000010FF1F
:5C0AC80000000000000000000000000000000000000000000000000000000000000000000000000000000000000000000000000000000000000000000000000000000000000000000000000000000000000000000000000000000000000010FFC3
:5C0B240000000000000000000000000000000000000000000000000000000000000000000000000000000000000000000000000000000000000000000000000000000000000000000000000000000000000000000000000000000000000010FF66
:5C0B800000000000000000000000000000000000000000000000000000000000000000000000000000000000000000000000000000000000000000000000000000000000000000000000000000000000000000000000000000000000000010FF0A
:5C0BDC0000000080000000000000002000048000000000000008000020000080000000000000400000000000000000000000000000012000000000000000C002180000000000000000000000000000000000000000000004000000000000C0FAF8
:5C0C380000000000000000000000000000000000000000000000000000000000000000000000000000000000000000000000000000000000000000000000000000000000000000000000000000000000000000000000000000000000000010FF51
:5C0C940000000000000000000000000000000000000000000000000000000200000000000000000000000000000000000000000000000000000000000000C000000000000000000000000000000000000000000000000001000000000000E0F36E
:5C0CF00000000000000000000000000000000000000000000000000000000000000000000000000000000000000000000000000000000000000000000000000018000000000000000000000000000000000000000000000000000000000080F719
:5C0D4C0000000080000000000000002000048000000000000008000020000280000000000000400100000000000000000000000080012000000000000000000A000000000000000000000000000000000000000000000004000000000000A0FEEF
:5C0DA80002000000000000000000000000000000000000000000000000000000000000000000000000000000000000000000000000000000000000000000000000000000000000000000000000000000000000000000000000000000000021FCD0
:5C0E040000000000000000000000000000000000000000000000000000000000000000000000000000000000000000000000000000000000000000000000000000000000000000000000000000000000000000000000000000000000000010FF83
:5C0E6000800010000240000800012000048000100002400008000120000480001000024000080001200004800010000000000000012000048000100002400008000120000480001000024000080001200004800010000240000800012000A0FDEE
:5C0EBC00800010000240000800012000048000100002400008000120000480001000024000080001200004800010000000000000012000048000100002400008000120000480001000024000080001200004800010000240000800012000A0FD92
:5C0F180000000000000000000000600020800100000000001800010000000000202000000018020020000000000000000000000002C10000000000000000020000000000000000000000000000000000000000000000060200000000000010F01C
:5C0F740002000080290000000000F80103E00700000000007EC00F180100E0073C000000001E0000F8010000004C0100000000C007980000000000000030000000000000000000000000000000000000000000000080010000000000000031FA6B
:5C0FD0000000000000010000000068000DA00100000000001A000040010020082401000000000400000000000034010000000040124000000000000000D00000000000000000000000000000000000000000000000000000000000000000F0FA81
:5C102C000200000001000000000070002EC00100000000001C8000710000C0037800000000040000101000000038000000000080077010000000000000E00200000000000000000000000000000000000000000000008700000000000000F1FC05
:5C1088000000000044000000000008000D2000000000000002008000020020400401000000380000000000000034000000000040106020000000000000D0000000000000000000000000000000000000000000000000060000000000000020F97F
:5C10E400000000000C000000000008000D2000000000000002000400000020020400000000180000804000000034000000000040000000000000000000D0000000000000000000000000000000000000000000000000280000000000000000F50A
:5C11400000000000040000000000000000000000000000000000006404008001300000000000000000000000000000000000000003600000000000000000000000000000000000000000000000000000000000000000060000000000000060F07D
:5C119C00000000000208000000000000000000000000000000000460000080017001000000180000800800000000000000000000176001000000000000000000000000000000000000000000000000000000000000000000000000000000E0F0AF
:5C11F80002000000200000000000000000000000000000000000000040000000100100000008000000000000003000000000000011000000000000000000000000000000000000000000C00000000000000000000000440000000000000261F97F
:5C125400000000800100000000000000000000000000000000C00C98000000007C000000007E00009801000000BC0000000000C007000000000000000000000000000000000000000000F003000000000000000000800700000000001800C0F6FB
:5C12B00000000000400000000000000000000000000000000000020008000000000000000000020040000000003400000000000000000000000000000000000000000000000000000000000000000000000000000080040000000000680030FA0C
:5C130C00000000000100000000000000000000000000000000800391000000000810000000040000701000000038000000000080040100000000000000000000000000000000000000002080000000000000000000002F0000000000700230F6B0
:5C13680002000000040200000000000000000000000000000000024001000000000000000000040040000000000400000000000000000000000000000000000000000000000000000000C04000000000000000000080000000000000680031FD80
:5C13C400000000000C000000000000000000000000000000000013C000000000400800000000000060020000000400000000000000020000000000000000000000000000000000000000C000000000000000000000802000000000006800E0F99D
:5C142000000000000400000000000000000000000000000000001240000000000008000000000000400200000000000000000000000200000000000000000000000000000000000000000000000000000000000000002600000000000000E0F8D0
:5C147C000000000002010000000000000000000000000000000003A040000000000000000000020060000000000000000000000004000000000000000000000000000000000000000000C000000000000000000000000600000000000000A0F86A
:5C14D80000000000800000000000000000000000000000000000000000000000000100000000000000000000003000000000000010000000000000000000000000000000000000000000C00000000000000000000000020000000000600030FCA9
:5C153400020000800900000000000000000000000000000000C00C18020060084C000000006600009801000000FC0000000000C004180200000000000000000000000000000000000000F002000000000000000000802F00000000007801B1F0A2
:5C1590000000000004000000000000000000000000000000000000682000A0012100000000100200000000000034000000000000026801000000000000000000000000000000000000000000000000000000000000000000000000006800E0F6C2
:5C15EC00000000008D000000000000000000000000000000008000F10000C00338100000001C000010100000003800000000008007710000000000000000000000000000000000000000200900000000000000000000810000000000700010FB09
:5C1648000000000000010000000000000000000000000000000082680000A001A0000000005000004000000000040000000000000A680000000000000000000000000000000000000000C080000000000000000000000000000000000800E0FAF2
:5C16A4000200000008000000000000000000000000000000000004680000A001300000000018000080400000000400000000000003680000000000000000000000000000000000000000C00100000000000000000000480000000000080051F703
:5C17000000000000040200000000000000000000000000000000000400000000200000000010000000000000000000000000000002000000000000000000000000000000000000000000000000000000000000000000000000000000000060FBF6
:5C175C0000000000020000000000000000000000000000000000040000000000300100000098000080080000000000000000000013000000000000000000000000000000000000000000C00000000000000000000000000400000000000000F50E
:5C17B8000000000026C0000000030000000000300000000000000060000C800500010600000000030000008001600000000000001060010C000000000000000000006000000000000000C0005800000000000000000000C000000000600160F07A
:5C181400000000800FF00200C00B0000000000BC0000000000C003F9012FE0034C8017000066C00B781000E0052C0000000000C004F8002F000000000000000000007801000000000000F0033E00000000000000008029F002000000F80020FEAE
:5C1870000200008006D0000040030000000000000000000000000068000DA0010080060000004203000000A001200000000000000068000D000000000000000000006800000000000000C0001A00000000000000000004D000000000680091FF5C
:5C18CC00000000004FE0000080030000000000480800000000800C70000EC0010810070000048003900100C001580200000000800471000E000000000000000000007000000000000000E0801C00000000000000000087E000000000700050F398
:5C192800000000801210000040000000000000300800000000000A0800012000208000000010440040010020003000000000000002080001000000000000000000000800000000000000C04002000000000000000000041000000000080070FCF4
:5C198400000000800210000040000000000000700000000000000208000120004088000000004000400000200030080000000000000A00010000000000000000000008000000000000000000020000000000000000001610000000000800A0FD1A
:5C19E000020000000A0000000000000000000000000000000000000000000000000800000000000000000000003000000000000000020000000000000000000000000000000000000000C00000000000000000000000140000000000000071FE22
:5C1A3C00000000000C00000000000000000000300000000000000B0000000000000000000000020060010000007008000000000004000000000000000000000000000000000000000000C00000000000000000000000060000000000000040FA28
:5C1A98000000300080C00200000300002C0000700000000000000040000C0081000016001000020B0000008205100000000000000060002C0000000000C0020000006001000000000000C0000000000000000000000000C002000000000050F2D7
:5C1AF4000000FC8007F00106C80F00001F00003C0000300900C00CD8203F60013C900F30011EC007980103E0035C2000000000C007F9011F0000000000F001000000F800000000000000F0028600000000000000008029F0010000009802E0FA12
:5C1B50000000348010D0005A400300000D0000000000100000008240080D00410081061000004003400001A001100000000000001068000D0000000000D0000000006800000000000000C0001A00000000000000000000D000000000600030FC14
:5C1BAC000200380007E0003C800300000E00000840002000008004B0000EC0004800072000648003904002C001680200000000800470000E0000000000E0000000007000000000000000E0095C00000000000000000081E000000000F01091F0B9
:5C1C0800000004800010001A40000000010000300800D0000000006101018009208000D00010400000080D20003000000000000002080001000000000010000000000800000000000000C0801A000000000000000000041000000000600040F156
:5C1C6400000004800811001A40000000010000300000D000000007E000018003A08000D000504000E0000D2000300800000000000A08000100000000001000000000080000000000000000011A000000000000000000481000000000600040F9C5
:5C1CC000000000000600000000000000000000A00000C0000000026400008001000000C00040000040000C00003000000000000008000000000000000000000000000000000000000000C00000000000000000000000000000000000600000F9DE
:5C1D1C00020000000600000000000000000000700000C000000007E040008003F10000C000380000E0080C00007008000000000007000000000000000000000000000000000000000000C00000000000000000000000000400000000600051F8C0
:5C1D78008001000026C00000000300000C0000000800000000000320200C800002010600000000036000008001300000000000001000020C0000000000C00000000B600000000000000000001800006001008005000000C0000000006000E0F569
:5C1DD400E00700800FF00200C00B00003F00003C0000000000C00C38002FE0024C8017000066C00B980100E005BC0000000000C00418002F0000000000F00300C0077801000000000000F0407E0000F80000E003008087F002000000780160F514
:5C1E3000A001008006C00000000300000D0000040000000000008120080C804020000600001004032000008001300000000000000260000C0000000000D000004003600000000000000010001A0000680000A001000000C000000000600080FE26
:5C1E8C00C00100004FE00000800300000E0000B800000000008004D0000E40014808070000048003904000C0013800000000008000F2080E0000000000E0000080037000000000000000E0021C0000700000C001000029E000000000700030FB49
:5C1EE80022000080120000000000000001000004000000000000036101008009000800000020000060080000000000000000000000610000000000000010000040000000000000000000100402000008000020000000140000000000000061FE05
:5C1F44002000008002000000000000000100000401000000000007E0000080037000000000180000E00000000000000000000000036000000000000000100000400000000000000000001000020000080000200000000C0000000000000040F698
:5C1FA000000000000A0000000000000000000030000000000000016400008001200800000010000020000000000000000000000002620000000000000000000000000000000000000000C00000000000000000000000000000000000000060F3F6
:5C1FFC00000000000C000000000000000000003000000000000007E0400080033100000000180200E0080000000000000000000007600000000000000000000000000000000000000000C000000000000000000000001E00000000000000D0F368
:5C2058000200000026C00218000000002C000030000000000000030002008005300016000018000B6000008005800000000000001360012C8001000000C00200000B600100800100000000005800006001008005000000C002180000600181F4B8
:5C20B400608200800FF0017EC01000001F0000BC0000000000C003F90043E0030CC00F000066C007781000E0030C0000000000C004F8001FE007000000F00100C007F80000E007000000B0403E0000F80000E003008029F0017E0000F800F0F48E
:5C211000A001008006C0001A400B00000C0000300000000000008008012D800100000600000804030000008001200000000000000160000CA001000000C000000003600000A00100000000401800006000008001000004C0001A00006000C0FDF8
:5C216C00C00500004FE0001C800300000E00007808000000008004F0000EC0013810070000048003904000C001380100000000800072000EC001000000E000008003700000C001000000E0011C0000700000C001000049E0001C0000700080F566
:5C21C800A00100801200000240030000000000300800000000000309000D00003001000000380000600800000000010000000000030100002000000000000000000000000020000000008002000000000000000000000004000200000000A0F4C0
:5C222400A20100800200000240030000000000400000000000000788040D00004000000000180000E00000000040000000000000030000002000000000000000000000000020000000008000000000000000000000000E0000020000000011F3C5
:5C228000000000000A0000000000000000000030000000000000006000000000300000000008000000000000003002000000000001020000000000000000000000000000000000000000C00000000000000000000000040000000000000060F2E5
:5C22DC00000000000C0000000000000000000030000000000000036000000000000000000018020060000000007000000000000007000000000000000000000000000000000000000000C00400000000000000000000060400000000000060F6F2
:5C2338008001300020000018000360000C8001400000000018000260000C00003001000000100100400800000030000000000000036000008001000000C0000000800000008001000000004018000000080000000000060000180000400040F459
:5C239400E207FC800930047EC00FF8013FE0070C000000007EC003FA013F60044C802100001EC0107800006008FC0000000000C000FC0143E007000000F00300C004180200E007000000F0017E0000180000600400802930047E00009840A1F1EE
:5C23F0008001300000D00218000360000C8001300000000018400260000C0005108016000012400B480000A005300000000000000060002D8001000000C00000400368010080010000001000180000680000A001000002D002180000402070FD06
:5C244C00C001380001E2001C800370000EC00138400000001C800F70000EC00148080700007C8003F00100C001380000000000800771000EC001000000E00000800B700000C001000000E0031C0000700100C043000049E0001C0000700020FC31
:5C24A8000000000014D0000000000000000000200800000000400000000000083088060000824003080000A001000000000000001300000D0000000000000000400368000000000000001000000000680000A001000006D400000000600800FB37
:5C2504000000000004D0000000000000000000300000000000401400000000007080060000024003880200A001000000000000000400000D0000000000000000400368000000000000001005000000680000A00100000ED000000000800040F84D
:5C256000020000000C00000000000000000000B0000000000000130000008001100800000018000060020000000000000000000003000000000000000000000000000000000000000000C00000000000000000000000020000000000600171FBA9
:5C25BC00000000000A00000000000000000000700000000000000700000080413000000000B80000E0000000000000000000000000000000000000000000000000000000000000000000C00000000000000000000000060400000000600030FC63
:5C261800000000040008000002000000000100000400000000020000800000200000800000010040008000002000400000000000040000000000000000000000000000000000000000000000000000000000000200000000000000008000C0FDCD
:5C267400004040000800202000800010100040400000002020008080000002020008080001000404800000020240000000000000048020100882000000004100000482200000020100000081201000804000000200000802812010008000B0F388
:5C26D000000000000000000000000000000000000002000000000000000000000000000000000000000000000000000000000000000000000000100002000008000000000400001000020000000001000004000010000000000000010000F0F87E
:5C272C00800010000240000800012000048000100002400008000120000480001000024000080001200004800010000000000000012000048000100002400008000120000480001000024000080001200004800010000240000800012000A0FD09
:5C2788000000002551120030080000000000000411000040004004800010200000000080410A000680301820004000000000000000C000010002000000000000400140010000020000001006001000080000200000000020002040010000D0F518
:5C27E40000000000000000000000000000000000000000000000000000000400608000040020481001000000000400000000000000400000000000000000000000000000000000000000000000000000000000000000000000000000080040F5B7
:5C28400000000000000000000000000000200000080000000000000000000000000000000000000000000000000000000000000000000000000000000000000000000000000000000000000000000000000000000000000000000000000030F5EF
:5C289C0000000000000000000000000000000000000000000000000820000000000000100000000000000000000000000000000000000000000000000000000000000000000000000000000000000000000000000000000000020800002020FE60
:5C28F80000000021511200200800000000200014110000400040048820102400608000144122481481201020004400000000000000C00001000200000000000040000001000002000000100600100008000020000000002000224800082030F83D
:5C29540000000000000000000000000000000000000000000000000000000000000000000000000000000000000000000000000000000000000000000000000000000000000000000000000000000000000000000000000000000000000010FF18
:5C29B00000000000000000000000000000000000000000000000000000000000000000000000000000000000000000000000000000000000000000000000000000000000000000000000000000000000000000000000000000000000000010FFBC
:5C2A0C0000000000000000000000000000000000000000000000000000000000000000000000000000000000000000000000000000000000000000000000000000000000000000000000000000000000000000000000000000000000000010FF5F
:5C2A680000000000000000000000000000000000000000000000000000000000000000000000000000000000000000000000000000000000000000000000000000000000000000000000000000000000000000000000000000000000000010FF03
:5C2AC40000000000680400000000000000000080000000000000000108000040800000000000000000000000000400000000000040810200000000000000000000000000000000000000004000000000000000000000000000000000000150FCAD
:5C2B200000000000080000000000000000000000000000000000488010000010000000000100000000000000000000000000000040000000000000000000000000000000000000000000003000000000000000000000000100000000000450F0B3
:5C2B7C0000000000000000000000000000000000200000000000000000000000002000000002000000000000000000000000000000020000000000000000000000000000000000000000000000000000000000000000000000000000000010FFAA
:5C2BD80000000000000000000000000000000000000000000000000000000000000000000000000000000000000000000000000000000000000000000000000000000000000000000000000000000000000000000000400000000000000050FB16
:5C2C340000000000000000000000000000000000000000000000000000000000000000000000000000000000000000000000000000000000000000000000000000000000000000000000000000000000000000000000000000000000000010FF35
:5C2C900000000000000000000000000000000000000000000000000000000000000000000000000000000000000000000000000000000000000000000000000000000000000000000000000000000000000000000000000000000000000010FFD9
:5C2CEC0000000000000000000000000000000000000000000000000010000000000000000000000000000000000000000000000000000000000000000000000000000000000000000000000000000000000000000000000000000000000000FF7D
:5C2D480000000000F600000000000000000000000000000000000000000000080000000000000000C00040000008000000000000000000000000000000000000000800000000000000000000000000400000000000000000000000008000E0FA87
:5C2DA40000000000000000000000000000000000000000000000000000000000000000000000000000000000000000000000000000000000000000000000000000000000000000000000000000000000000000000000000000000000000010FFC4
:5C2E000000000000000000000000000000000000000000000000000000000000000000000000000000000000000000000000000080000000000000000000000000000000000000000000000000000000000000000000000000000000000090FF67
:5C2E5C00000000000100000000000000000000000000200000000000000000000000000000000000000000000008000000000000000000000000000000000000000000000000000000000000000000000000000000000000000000000000B0FE43
:5C2EB80000000000000000000000000000000000000000000000000008000000000000000000000000000000000000000000000000000000000000000000000000000000000000000000000000000000000000000000000000000000000090F72F
:5C2F1400000000000000000000000000000000000000000000000000000000000002000000100000000200000080090000000000000000000000000000000000000000000000000000000000000000000000000400000000000000000010B0F907
:5C2F700000000080000000000000000000000000000000000000000004000004020000000090000000000000000000000000000000000000000000000000000000000000000000000000000000000000000000000000000000000000000000FDEE
:5C2FCC0000000000000000000000000000000000000000000000000000000000000000000000000000000000000000000000000000000000000000000000000000000000000000000000000000000000000000000000000000000000000010FF9A
:5C30280000000000000000000000000000000000000000000000000000000000000000000000000000000000000000000000000000000000000000000000000000000000000000000000000000000000000000000000000000000000000010FF3D
:5C30840000000000000000000000000000000004000000000000000000000000000000000000000000000000000000000000000000000000000000000000000000000000000000000000000000000000000000000000000000000000000050FBA1
:5C30E000000000000000000000000000000000000000000000000000000000000000000000000000000000000000000000000000200000000000000000000000000000000000000000000008000000000000000000000000000000000000B0FFBD
:5C313C0000000000100000000000000000000000000000000000000000000000000000000000000080000000000000000000000000000000000000000000000000000000000000000000000000000000000000000000040000000000000080FA29
:5C31980000000000000000000000000000000080010000000000002400000000801000000000000000000000000000000000000000080000000000000000000000000000000000000000000000000000000000000000000000000000000050FD51
:5C31F400000000000000000000000000000000000000000000000000000000080000000000000000000000000000000000000000000000000000000000000000000000000000000000000000000000000000000000000002000000000000B0F7CE
:5C32500000000000000000000000000000000000000000000000000000000000000000000000000000000000000000000000000000000000000000000000000000000000000000000000000000000000000000000000000000000000000010FF13
:5C32AC0000000000000000000000000000000000000000000000000000000000000000000000000000000000000000000000000000000000000000000000000000000000000000000000000000000000000000000000000000000000000010FFB7
:5C33080000000000000000000000000000000000000000000000000000000000000000000000000000000000000000000000000000000000000000000000000000000000000000000000000000000000000000000000000000000000000010FF5A
:5C33640000000000000000000000000000000000000000000000000000000000000000000000000000000000000000000000000000000000000000000000000000000000000000000000000000000000000000000000000000000000000010FFFE
:5C33C00000000000000000000000000000000000000000000000000000000000000000000000000000000000000000000000000000000000000000000000000000000000000000000000000000000000000000000000000000000000000010FFA2
:5C341C0000000000000000000000000000000000000000000000000000000000000000000000000000000000000000000000000000000000000000000000000000000000000000000000000000000000000000000000000000000000000010FF45
:5C34780000000000000000000000000000000000000000000000000000000000000000000000000000000000000000000000000000000000000000000000000000000000000000000000000000000000000800000000000000000000000090FF61
:5C34D40000000000000000000000000000000000000000000000000000000000000000000000000000000000000000000000000000000000000000000000000000000000000000000000000000000020000000000000000000000000000030FF4D
:5C35300000000000000000000000000000000000000000000000000000000000000000000000000000000000000000000000000000000000000000000000000000000000000000000000000000000000000000000000000000000000000010FF30
:5C358C0000000000000000000000000000000000000000000000000000000000000000000000000000000000000000000000000000000080000000000000000000000000000000000000000000000000000000000000080000000000000090F7D4
:5C35E80000000000000000000000000000000000000000000000000000000000000000000000000000000000000000000000000000000000000000000000000000000000000000000000000000000000000000000000000000000000000010FF78
:5C364400000000000000040000000000000000000000000000000000000000080000000004000000000000000000000000000000000000000000000000000000000000004000000000000000000000000000000000000040000000002000F0F199
:5C36A00000000000000000000000000000000000000000000000000400000000000000000000000000000000000000000000000000000000000000000000000000000000000000000000000000000000000000000000000000000000000050FF7B
:5C36FC0000000000000000000000000000000000000000000000000000000000000000000000000000000000000000000000000000000000000000000000000000000000000000000000000000000000000000000000000000000000000010FF63
:5C37580000000000000000000000000000000000000000000000000000000000000000000000000000000000000000000000000000000000000000000000000000000000000000000000000000000000000000000000000000000000000010FF06
:5C37B40000000000000000000000000000000000000000000000000000000000000000000000000000000000000000000000000080000000026000200000000004000010000000000800010000008000400002000008000000000080000000FA56
:5C381000000000000000000000000000000000000000000000000000000000000000000000000000000000000000000000000000000000000000040000000000000000000000000000000000008000000000000000000000000000000800D0FB05
:5C386C0000000000000000000000000000000000000000000000000000000000000000000000000000000000000000000000000000000000000000000000000000000000000000000000000000000000000000000000000000000000000010FFF1
:5C38C80000000000000000000000000000000000000000000000002000000000000000000000000000000000000000000000000000000000000000000000000000000000000000000000000000000000000000000000000000000000000010FD77
:5C39240000000000000000000000000000000000000000000000000000000000000000000000000000000000000000000000000000000000000000000000000000000000000000000000000000000000000000000000000000000000000010FF38
:5C39800000004000000000000000800000000000000000000000008000000000000000000000000000000000004000000000000000000000000000000800000000000000000000000000000000000000000000000000000000000000000010FF54
:5C39DC00000000000000000000000000000000000000000000000000000000000000000000000000000000000000000000000000000008000010000A0000100000400000000020000000001000020000180000200000800010000000000040F1F2
:5C3A380000000000000000000000000000000000000000000000000000000000000000000000000000000000000000000000000000000000000000000000000000000000000000000000000000000000000000000000000000020000000010FD23
:5C3A940000000000000000000000000000000000000000000000000000000000000000000000000000000000000000000000000000000000000000000000000000000000000000000000000000000000000000000000000000000000000010FFC7
:5C3AF00000000000000000000000000000000000000000000000000040000000000000000000000000000000000000000000000000000000000000000000000000000000000000000000000000000000000000000000000000000000000050FFEB
:5C3B4C0000000000000000000000000000000000000000000000000000000000000000000000000000000000000000000000000000000000000000000000000000000000000000000000000000000000000000000000000000000000000010FF0E
:5C3BA80000000000000000000000000000000000000000000000000000000000000000000000000000000000000000000000000000000000000000000000000000000000000000000000000000000000000000000000000000000000000010FFB2
:5C3C040000000000000000000000000000000000000000000000001000000000000000000000000000000000000000000000000000000000208000100000C00418000000000000000000000000000001000000000000148000000080030E50FE54
:5C3C600000000000000000000000000000000000000000000000000000000000000000000000000000000000000000000000000000000000000000000000000000000000000000000000000000000000000000000000000000000000000010FFF9
:5C3CBC0000000000000000000000000000000000000000000000000000000000000000000000000000000000000000000000000000000000000000000000C000000000000000000000000000000000000000000000000000000000000000D0F329
:5C3D180000000000000000000000000000000000000000000000001000000000000000000000000000000000000000000000000000000000000000000000000018000000000000000000000000000000000000000000048000000080000000FA29
:5C3D740000000000000000000000000000000000000000000000000000000000000000000000000000000000000000000000000000000000208000100000000C00000000000000000000000000000001000000000000100000000080030600F7A6
:5C3DD00002000000000000000000000000000000000000000000000000000000000000000000000000000000000000000000000000000000000000000000000000000000000000000000000000000000000000000000000000000000000021FC78
:5C3E2C0000000000000000000000000000000000000000000000000000000000000000000000000000000000000000000000000000000000000000000000000000000000000000000000000000000000000000000000000000000000000010FF2B
:5C3E8800800010000240000800012000048000100002400008000120000480001000024000080001200004800010000000000000012000048000100002400008000120000480001000024000080001200004800010000240000800012000A0FD96
:5C3EE400800010000240000800012000048000100002400008000120000480001000024000080001200004800010000000000000012000048000100002400008000120000480001000024000080001200004800010000240000800012000A0FD3A
:5C3F4000000000000000000000000000000000000000000000000900000000000000000000000000000000000000000000000000000000188009000000002000000000000000000000004000000022000000000000000480000000006020B0FA4B
:5C3F9C00020000000000000000000000000000000000000000C003000000000000000000000000000000000000000000000000000000001FE0018C000030010000000000000000000000F00300C0070000000000008007F2080000007800A1FFF4
:5C3FF80000000000000000000000000000000000000000000000000200000000000000000000000000000000000000000000000000000049A001A00000D00200000000000000000000000000004012000000000000802490040000000000A0F0F5
:5C4054000200000000000000000000000000000000000000008000000000000000000000000000000000000000000000000000000000001EC013380000E00100000000000000000000002020008007000000000000000FE0010000009010A1F696
:5C40B00000000000000000000000000000000000000000000000000000000000000000000000000000000000000000000000000000000041A000000000D0000000000000000000000000000000401000000000000080001000000000600090F63D
:5C410C0000000000000000000000000000000000000000000000440000000000000000000000000000000000000000000000000000000001A004400100D0000000000000000000000000000800400000000000000080201004000000600430F0DD
:5C4168000000000000000000000000000000000000000000000080000000000000000000000000000000000000000000000000000000000C80003000000000000000000000000000000000000000030000000000000006C000000000400090FD29
:5C41C4000000000000000000000000000000000000000000000004000000000000000000000000000000000000000000000000000000005C0081302000000000000000000000000000000009000017000000000000002EC005000000E001E0F7A3
:5C422000020000000000000000000000000000000000000000000800000000000000000000000000000000000000000000000000000000448001000100000000000000000000000000000000000011001040000000002240041800000020C1F6BC
:5C427C00000000000000000000000000000000000000000000C000980400000000000000000000000000000000000000000000000000001FE0050C000000000000000000000000000000300300C007180003000000800FF0015E0000180040FB34
:5C42D80000000000000000000000000000000000000000000000026A02000000000000000000000000000000000000000000000000000000000034000000000000000000000000000000800000000068020D000000000800100008006000A0F1E0
:5C43340000000000000000000000000000000000000000000080037000000000000000000000000000000000000000000000000000000002500039010000000000000000000000000000E02000800471004E00000000092001240000F01020F706
:5C43900002000000000000000000000000000000000000000000026800000000000000000000000000000000000000000000000000000000848134000000000000000000000000000000800000000068000D00000000000180180000400031F538
:5C43EC0000000000000000000000000000000000000000000000136800000000000000000000000000000000000000000000000000000010800134000000000000000000000000000000C0040000006A000D00000000000001380800600460FDF8
:5C444800000000000000000000000000000000000000000000001200000000000000000000000000000000000000000000000000000000000000000000000000000000000000000000008004000000000000000000000000000000006000A0F290
:5C44A40000000000000000000000000000000000000000000000030000000000000000000000000000000000000000000000000000000000840100000000000000000000000000000000C00000000C00000000000000880020180000E001C0FB0C
:5C450000000000000000000000000000000000000000000000000860000000000000000000000000000000000000000000000000000000400004B0000000000000000000000000000000000000001060000C0000000006C000580000000050F722
:5C455C00020000000000000000000000000000000000000000C000780100000000000000000000000000000000000000000000000000001360027C000000000000000000000000000000300300C004F8012F000000800931213E0000000031F17D
:5C45B80000000000000000000000000000000000000000000000006A00000000000000000000000000000000000000000000000000000008000034000000000000000000000000000000000000000268000D00000000080010000400000000F579
:5C4614000000000000000000000000000000000000000000008000700000000000000000000000000000000000000000000000000000000E50023A000000000000000000000000000000202000800771000E000000000FE0010400000000D0F4C2
:5C46700000000000000000000000000000000000000000000000020800000000000000000000000000000000000000000000000000000028000105000000000000000000000000000000800000000A0800010000000026C0041800000000B0F57C
:5C46CC000200000000000000000000000000000000000000000044080000000000000000000000000000000000000000000000000000000C000104000000000000000000000000000000000800000308000100000000080001380100000061FE7E
:5C4728000000000000000000000000000000000000000000000080000000000000000000000000000000000000000000000000000000000800030000000000000000000000000000000000000000020000000000000006C000000000000000F5ED
:5C4784000000000000000000000000000000000000000000000004000000000000000000000000000000000000000000000000000000004C8000000000000000000000000000000000000009000013000000000000000000001800000000A0F73E
:5C47E00000000000000000000000000000000000000000000000004280000000000000C0000000000000000000300000000000000B6000408009300000000018000360010C8005000000000018001040002C00003000200004180003000050F116
:5C483C00000000000000000000000000000000000000000000C0035800000000000000F0020000000000000000BC0000000000C007780113E001FC000000005EC00BF8002FE003000000F0205EC00458801F0000BC800930015EC00B0000D0FB61
:5C48980002000000000000000000000000000000000000000000084010000000000000D00000000000000000003400000000004003680000A00134000000001A400368000DA00100000000001A000040400D000034000C80101848030000D1FCCC
:5C48F40000000000000000000000000000000000000000000080003000000000000000E00000000000000000003800000000008003700002D01338000000001C800370000EC00100000020031C8004B1000E000038000FE0013C8003000040FD0C
:5C49500000000000000000000000000000000000000000000000026001000000000000100000000000000000000400000000004000080008A40004000000000240000800012000000000800202000260010100000400048000184000000050FC1D
:5C49AC00000000000000000000000000000000000000000000000AE000000000000000100000000000000000000400000000004000080010A0040400000000024000080001200000000080000200006200010000040016C002204800000030FCF1
:5C4A08000200000000000000000000000000000000000000000008E0000000000000000000000000000000000000000000000000000000008000000000000000000000000000000000000000000000600800000000001480021800000000E1FCF5
:5C4A640000000000000000000000000000000000000000000000076000000000000000000000000000000000000000000000000000000000048100000000000000000000000000000000C00200000CE000000000000006C0001800000000D0FDB1
:5C4AC00000000000000000000000000000000000000000000000022004000000000000C0020000000000000000B0000000000000006001008009200000000058000B00002C000000000000005800000001000000B00020000458000B000000F0E9
:5C4B1C00000000000000000000000000000000000000000000C0073C00000000000000F00100000000000000007C0000000000C010F8000FF0012C400000003EC00718021F600800000030033EC007F9005300007C800930013EC007780460FF59
:5C4B7800000000000000000000000000000000000000000000400A2010000000000000D00000000000000000003400000000004003680040A00120000000001A400368000DA00100000080001A001008010C00003400080010184403080170FF62
:5C4BD40002000000000000000000000000000000000000000080035000000000000000E0000000000000000000380000000000800B700012C01358020000001C800370010EC00500000020081C800470001E010038000920011C80037000E1FBD7
:5C4C300000000000000000000000000000000000000000000040006001000000000000100000000000000000000400000000004003080008A0003000000000024000680001A001000000001002000208080C00000400048180184000080150F228
:5C4C8C000000000000000000000000000000000000000000004014E000000000000000100000000000000000000400000000004003080028A0047010000000024000680001A001000000C00002000A08000C00000400000001204100880010F4CF
:5C4CE8000000000000000000000000000000000000000000000013E000000000000000000000000000000000000000000000000000000020800030000000000000000000000000000000800000000860000C00000000000000180000600040FC05
:5C4D44000200000000000000000000000000000000000000000007600000000000000000000000000000000000000000000000000000001C008130100000000000000000000000000000C00900000760000C00000000880020180000600091FBE5
:5C4DA0000000000000C002000000000000000000000000000000086000000000000000C000000000000000000030000000000000036000400000100016000018000360000C8001000000C00018001020000C00003000080010000003000090F8E5
:5C4DFC000000000000F0010000000000000000000000000000C0007801000000000000F0020000000000000000BC0000000000C00F780113E0835CA00F00005EC00BF8012FE00700000030035EC004B8402F0000BC800FF0013ED00B000060F65B
:5C4E58000000000000D000000000000000000000000000000000026000000000000000C000000000000000000030000000000040036000082400108006000018000368000CA001000000400018000220400C000030002000040200030000C0F177
:5C4EB4000000000000E000000000000000000000000000000080447000000000000000E00000000000000000003800000000008003700012C00568020700001C800370000EC00100000020081C8000D2000E000038000920015C8003000080FAFE
:5C4F100002000000001000000000000000000000000000000000000000000000000000000000000000000000000000000000004000000000200030800000000000000800002000000000C010000000610100000000001480020200000000B1F18F
:5C4F6C000000000000100000000000000000000000000000000083000000000000000000000000000000000000000000000000400000001C240A70900000000000000800002000000000C000000003600000000000000C8001A20000000080F1E1
:5C4FC800000000000000000000000000000000000000000000008200000000000000000000000000000000000000000000000000000000088001300000000000000000000000000000004000000002600800000000000000001800000000A0F000
:5C5024000000000000000000000000000000000000000000000007000000000000000000000000000000000000000000000000000000000C840130100000000000000000000000000000C00900000FE00000000000001EC003180000000010FC9B
:5C5080000200B00000C0020000000000000000000000000000000B0000008005000000C0020000000000000000B00000000000000B60014C0000B00016C00058000B60012C8005B00006C00058001300002C8001B00020000400000B600111F9D3
:5C50DC0000007C0000F0010000000000000000000000000000C000F80100E003000000F00100000000000000007C0000000000C007F8001360007E800FF0033EC007F8001FE0037C801FF0203EC00418011FE0077C800930011EC8077800A0F258
:5C5138000000300000C000000000000000000000000000000000010801008001000000C000000000000000000030000000000000036000040400310006D00018000360000C8001308006000018000140000CA0013000048180420003004050F977
:5C5194000000380000E00000000000000000000000000000008044F00000C001000000E000000000000000000038000000000080037000124002380007E0001C800370000EC00138000720081C800072020EC00138000120013C8003900080FE69
:5C51F0000000000000000000000000000000000000000000000003080000000000000000000000000000000000000000000000000000000C000100000010000000000000000000008000C01000000301000020000000000000820000600070F87D
:5C524C000200000000000000000000000000000000000000000083884000000000000000000000000000000000000000000000000000001C044100000010000000000000000000008000C000000003800200200000004EC081020000E040D1FAE7
:5C52A800000000000000000000000000000000000000000000008160000000000000000000000000000000000000000000000000000000040021000000000000000000000000000000000000000001600000000000000480001800000000A0F314
:5C5304000000000000000000000000000000000000000000000007600000000000000000000000000000000000000000000000000000000C840200000000000000000000000000000000C00000000F600400000000008EC0201800006000F0F358
:5C5360000000B00000000000000000100000000000000000000003020100800500000000000000000000000000000000000000000300000C0008300000C0000000006000008001B0000680200000006000188001000026C0040000006001C0F76D
:5C53BC0002007C000030800000001800000000000000000000C003180000E003000000300400000000000000000C0100000000C00F1802136200FC8009F40386C010F80143E0077C801FF00186C024F80113E0070C8109300116C8107800A1F1D5
:5C5418000000340000D00000000008000000000000000000000000400000A001000000D0020000000000000000B4000000000000036801000000328006C0005A400B60002D800134000690005A40006000088001B40002418000400B604040FE41
:5C5474000000380000E00200000010000000000000000000008044700200C001000000E0000000000000000000380000000000800370000E5000380017E0001C800370000EC001380007E0031C800070000EC20138000120013C9003F00060F2DB
:5C54D0000000040000D000000000680000000000000000000000030000002000000000D0000000000000000000340000000000000068004C000100800600001A400300000D000004000010001A400300000C0100340006C000504003600010F10C
:5C552C000000040000D000000000680000000000000000000000838002002000000000D00000000000000000003400000000000000680010000500800600001A400300000D000004000010051A4003000000000034004EC081104003804090FD78
:5C5588000200000000000000000060000000000000000000000000600000000000000000000000000000000000000000000000000000000C000100000000000000000000000000000000C00400000300002C00000000024000180000600091F7C3
:5C55E4000000000000000000000060000000000000000000000003E010000000000000000000000000000000000000000000000000000000808000000000000000000000000000000000C00100000300000C000000008EC020980000600090F55D
:5C564000000000040000000000000008000000000000000000000004080000000000000000000000000000000000040000000000000000000000400080000000000000000000000000000000000000000000000000000000002000008000B0F5ED
:5C569C00000040000000200000008000000000000000000000000480000000400000000020000000000000000040000000000000048220100802410008004120100481400002824020080441200804822010088240200802412000048200D0F1C4
:5C56F800800000000200000800010000048000100002400008000000000400001000020000080001200004800000000000000000000000000000000000000000000000000000000000000000000000000000000000000000000000000000F0F743
:5C575400800010000240000800012000048000100002400008000120000480001000024000080001200004800010000000000000012000048000100002400008000120000480001000024000080001200004800010000240000800012000A0FDB1
:5C57B00000000400001000000000080000000000000000000054000800802100000000100000000000000000000400000000000000090000208800800000000440000020010000050008500130008081000100020800000000A20080C10010F558
:5C580C0000000000000000000000000000000000000000000000000000000000000001040000002003000200000000000000000000000000000000000000000000000000000000000000000000000000000000000000180000000000080000FAFC
:5C58680000000000000000000000000000000000000000000000000000000000000000000000000000000000000020000000000000000001000000000000000000000000000000000000000000000000000000000000000000000000000020FEA5
:5C58C40000000000000000000000000000000000000000000000000000000000000000000000000000000000000000000000000000000000000000000000000000000000000000000000000000000000000000000000000000000000002010FD5B
:5C59200000000400001000000000080000000000000000000050000800802000000001140000002003000200000420000000000000090005208800800000000440000020010000050008100120000081000100020800180000A200008920B0FB46
:5C597C0000000000000000000000000000000000000000000000000000000000000000000000000000000000000000000000000000000000000000000000000000000000000000000000000000000000000000000000000000000000000010FFC0
:5C59D80000000000000000000000000000000000000000000000000000000000000000000000000000000000000000000000000000000000000000000000000000000000000000000000000000000000000000000000000000000000000010FF64
:5C5A340000000000000000000000000000000000000000000000000000000000000000000000000000000000000000000000000000000000000000000000000000000000000000000000200000000000000000000000000000000000000030FDC9
:5C5A900000000000000000000000000000000000000000000000000000000000000000000000000000000000000000000000000000000000000000000000000000000000000000000000000000000000000000000000000000000000000010FFAB
:5C5AEC0000000000000040000000000000000000000000000000141411000000000000000000000000000000000000000000000000000020010000100001000000000000000000000000000000000000005000000000500002000300000170F9A4
:5C5B4800000000000000000000000000000000000000000000000800000000000000000000000000000000000000000000000000000000000100000000000000000000000000000000000000000000000000000000002000208002000014F0FD35
:5C5BA40000000000000000000000000000000000000000000000000000000000000000000000000000000000000000000000000000000000000000000000000000000000000000000000400000000000000000000000010000040000000050FE12
:5C5C000000000000000000000000000000000000000000000000000000000000000000000000000000000000000000000000000000000000000001000000000000000000000000000000000000000000000000000000000000000000000000FE49
:5C5C5C0000000000000000000000000000000000000000000000000000000000000000000000000000000000000000000000000000000000000002000000000000000000000000000000000000000000000000000000000000000000000030FDBD
:5C5CB80000000000000000000000000000000000000000000000000100000000000000000000000000000000000000000000000000000001008000000000000000000000000000000000000000000000000000000000000000000000000010F608
:5C5D140000000000000000000000000000000000000000000000000000000000000000000000000000000000000000000000000000000000000000040000000000000000000000000000000000004000000000000000000004000400000010FBDC
:5C5D700000000000000000000000000200000000000000000000000002000000000000000000000000000000000000000000000000000000000200000000000000000000000000000000800200000080000000000000000000000000000010F5CA
:5C5DCC0000000000000000000000000000000000000000000000000000000000000000000000000000000000000000000000000000000000008000000000000000000000000000000000000000000001000000000000000000000000000000F604
:5C5E280000000000000000000000000000000000000000000000000000000000000000000000000000000000000000000000000000000000000000000000000000000000000000000000000000000000000000000000000000000000000010FF0F
:5C5E840000000000000000000000000000000000000000000000000000000000000000000000000000000000000000000000000000000000400008000000000000000000000000000000000000800000000000000000000000000000000050FBAF
:5C5EE00000000000000000000000000000000000000000000000000000000000000000000000000000000000000000000000000000000000000000000000000000000000000000000000000000000000000000000000000000000000000010FF57
:5C5F3C00000000000000000000000000000000000000000000000000000000000000000000000000000000000000000000000000000000000808000000000000000000000000000000000004000000000000000000000000200000000010F0F6DF
:5C5F9800000000000000000000000000000000000000000000000000000000000000000000000000000000000000000000000000000000000010000000000200000000000000000000000000000020400200000000800000000000000000D0FCED
:5C5FF400000000000000000000000000000000000000000000000008000000000000000000000000000000000000000000000000000000002000000000000000000000000000000000000000000000000000000000000000000000000000B0FD7C
:5C60500000000000000000000000000000000000000000000000000000000000000000000000000000000000000000000000000000000000004000000000000000000000000000000000000000000000100000000000000000000000000000FAAA
:5C60AC0000000000000000000000000000000000000000000000000000000000000000000000000000000000000000000000000000000000000000000000000000000000000000000000000000000000000000000000000000000000000010FF89
:5C61080000000000000000000000000000000000000000000000000000000000000000000000000000000000000000000000000000000000000000000000000000000000000000000000000000000000000000000000000000000000000010FF2C
:5C61640000000000000000000000000000000000000000000000000000000000000000000000000000000000000000000000000000000000000000000000000000000000000000000000000000000000000000000000000000000000000010FFD0
:5C61C00000000000000000000000000000000000000000000000000000000000000000000000000000000000000000000000000000000000000000000000000000000000000000000000000000000000000100000000000001000000000010FE73
:5C621C0000000000000000000000000000000000000000000000000000000000000000000000000000000000000000000000000000000000000001000000000000000000000000000000000000000000000000000000000000000000000000FE27
:5C62780000000000000000000000000000000000000000000000000000000000000000000000000000000000000000000000000000000000000000000000000000000000000000000000000000000000000000000000000000000000000010FFBB
:5C62D40000000000000000000000000000000000000000000000000000000000000000000000000000000000000000000000000000000000000000000000000000000000000000000000000000000000000000000000000000000000000010FF5F
:5C63300000000000000000000000000000000000000000000000000000000000000000000000000000000000000000000000000000000000000000000000000000000000000000000000000000000000000000000000000000000000000010FF02
:5C638C0000000000000000000000000000000000000000000000000000000000000000000000000000000000000000000000000000000000000000000000000000000000000000000000000000000000000000000000000000000000000010FFA6
:5C63E80000000000000000000000000000000000000000000000000000000000000000000000000000000000000000000000000000000000000000000000000000000000000000000000000000000000000000000000000000000000000010FF4A
:5C64440000000000000000000000000000000000000000000000000000000000000000000000000000000000000000000000000000000000000000000000000000000000000000000000000000000000000000000000000000000000000010FFED
:5C64A00000000000000000000000000000000000000000000000000000000000000000000000000000000000000000000000000000000000000000000000000000000000000000000000000000000000000000000000000000000000000010FF91
:5C64FC0000000000000000000000000000000000000000000000000000000000000000000000000000000000000000000000000000000000000000000000000000000000000000000000000000000000000000000000000000000000000010FF35
:5C65580000000000000000000000000000000000000000000000000000000000000000000000000000000000000000000000000000000000000000000000000000000000000000000000000000000000000000000000000000000000000010FFD8
:5C65B40000000000000000000000000000000000000000000000000000000000000000000000100000000000000000000000000000000000000000000000000000000000000000000000000000000000000000000000000000000000000000FE7D
:5C66100000000000000000000000000000000000000000000000000000000000000000000000000000000000000000000000000000000000000000000000000000000000000000000000000000000000000000000000000000000000000010FF1F
:5C666C0000000001000000000000000000000800000000000000100000400000000020000080000000020000000001000000000000000000000000000000000000000000000000000000000000000000000000000000000000000000000060F87E
:5C66C80000000000000000000000048000000000000000000000000000000000000000000000000000000000000000000000000000000000000000000000000000000000000000000000000000000000000000000000000000000000000010F3EF
:5C67240000000000000000000000000000000000000000000000000000000000000000000000000000000000000000000000000000000000000000000000000000000000000000000000000000000000000000000000000000000000000010FF0A
:5C67800000000000000000000000000000000000000000000000000000000000000000000000000000000000000000000000000000000000000000000000000000000000000000000000000000000000000000000000000000000000000010FFAE
:5C67DC0000000000000000000000000000000000000000000000000000000100000000000000000000000000000000000000000000000000000000000000000000000000000000000000000000000000000000000000000000000000001000FE52
:5C68380000000000000000000000000000000000000000000000000000000000000000000000000000000000000000000000000000000000000000000000000000000000000000000000000000000000000000000000000000000000000010FFF5
:5C68940000000000000000000000000000000000000000000000000000000000000000000000000000000000000000000000000000000000000000000000000000000000000000000000000000000000000000000000000000000000000010FF99
:5C68F00000000000000000000000000000000000000000000000000000000000000000000000000000000000000000000000000000000000000000000000000000000000000000000000000000000000000000000000000000000000000010FF3D
:5C694C0000000000000000000000000000000000000000000000000000000000000000000000000000000000000000000000000000000000000000000000000000000000000000000000000000000000000000000000000000000000000010FFE0
:5C69A80000000000000001200000000000000000000000010000008000000002000000000100000400001000000000000000000000000000000000000000000000000000000000000000000000000000000000000000000000000000000050F694
:5C6A040000000000000000000000000000000000000000000000000000000000000000000000000000000000000000000000000000000000010000000000000000000000000000000000000000000000000000000000000000000000000010FE27
:5C6A600000000000000000000000000000000000000000000000000000000000000000000000000000000000000000000000000000000000000000000000000000000000000000000000000000000000000000000000000000000000000010FFCB
:5C6ABC0000000000000000000000000000000000000000000000000000000000000000000000000000000000000000000000000000000000000000000000000000000000000000000000000000000000000000000000000000000000000010FF6F
:5C6B180000000000000000000000000000000000000000000000000000000000000000000000000000000000000000000000000000000000000000000000000000000000000000000000000000000000000000000000000000000000000010FF12
:5C6B740000000000000000000000000000000000000000000000000000000000000000000000000000000000000000000000000000000000000000000000000000000000000000000000000000000000000000000000000000000000000010FFB6
:5C6BD00000000000000000000000000000000000000000000000000000000000000000000000000000000000000000000000000000000000000000000000000000000000000000000000000000000000000000000000000000000000000010FF5A
:5C6C2C0000000000000000000800C00000000000000000000000000000000000000000000000000000000000000000000000000000000000000000000000C0001C000000000000000000000000000000000000000000000000000000000040F335
:5C6C880000000000000000000000000000000000000000000000000000000000000000000000000000000000000000000000000000000000000000000000000000000000000000000000000000000000000000000000000000000000000010FFA1
:5C6CE40000000000000000000000000000000000000000000000000000000000000000000000000000000000000000000000000000000000000000000000200000000000000000000000000000000000000000000000000000000000000030FD07
:5C6D400000000000000000000000400000000000000000000000000000000000000000000000000000000000000000000000000000000000000000000000000004000000000000000000000000000000000000000000000000000000000010FFA4
:5C6D9C0000000000000000000800800000000000000000000000000000000000000000000000000000000000000000000000000000000000000000000000E00018000000000000000000000000000000000000000000000000000000000060F1CA
:5C6DF800020000000000000000000000000000000000000000000000000000000000000000000000000000000000000000000000000000000000800000000000000000000000000000000000000000000000000000000000000000000000A1FC20
:5C6E540000000000000000000000000000000000000000000000000000000000000000000000000000000000000000000000000000000000000040000000000000000000000000000000000000000000000000000000000000000000000050FF53
:5C6EB000800010000240000800012000048000100002400008000120000480001000024000080001200004800010000000000000012000048000000002400008000120000480001000024000080001200004800010000240000800012000B0FD3E
:5C6F0C00800010000240000800012000048000100002400008000120000480001000024000080001200004800010000000000000012000048000100002400008000120000480001000024000080001200004800010000240000800012000A0FDE1
:5C6F680000000000000000180001200200000000000000000000000000000000000000000000000000000000000000000000000000000000000000000000009800000000000000000000000000000000000000000000000000000000000090FC6E
:5C6FC400020000000000007EC00F7800000000000000000000000000000000000080290000A6000000000000000000000000000000000000000000000000003E00000000000000000000000000000000000000000000000000000000000041FDDF
:5C702000000000000000001A000000080000000000000000000000000000000000802600009A000000000000000000000000000000000000000000000000001A00000000000000000000000000000000000000000000000000000000000050F157
:5C707C00020000000000001C808410000000000000000000000000000000000000000700001C000000000000000000000000000000000000000000000000001C00000000000000000000000000000000000000000000000000000000000081F6D0
:5C70D8000000000000000002000001000000000000000000000000000000000000800600001A0000000000000000000000000000000000000000000000000002000000000000000000000000000000000000000000000000000000000000E0F8DF
:5C7134000000000000000002000400400000000000000000000000000000000000800600001A0000000000000000000000000000000000000000000000000002000000000000000000000000000000000000000000000000000000000000A0F97E
:5C71900000000000000000000000000000000000000000000000000000000000000000000000000000000000000000000000000000000000000000000000000000000000000000000000000000000000000000000000000000000000000010FF94
:5C71EC00000000000000000000208020000000000000000000000000000000000000000000000000000000000000000000000000000000000000000000000000000000000000000000000000000000000000000000000000000000000000B0F5E2
:5C724800020000000000000000000002000000000000000000000000004000000000160000580000000000000000000000000000000000000000000000000000000000000000000000000000000000000000000000000000000000000000E1F661
:5C72A4000000000000000000C00C18000000000000000000000000000003000000800F00003E0000000000000000000000000000000000000000000000000000000000000000000000000000000000000000000000000000000000000000E0FCFE
:5C730000000000000000000000024008000000000000000000000000000D000000800600001A000000000000000000000000000000000000000000000000000000000000000000000000000000000000000000000000000000000000000020F02A
:5C735C00000000000000000080877000000000000000000000000000001E020000000700001C000000000000000000000000000000000000000000000000000000000000000000000000000000000000000000000000000000000000000000F328
:5C73B800020000000000000000024001000000000000000000000000000D0000008000000002000000000000000000000000000000000000000000000000000000000000000000000000000000000000000000000000000000000000000071FD37
:5C741400000000000000000000136000000000000000000000000000000D0000008000000002000000000000000000000000000000000000000000000000000000000000000000000000000000000000000000000000000000000000000070FDAD
:5C74700000000000000000000012400000000000000000000000000000000000000000000000000000000000000000000000000000000000000000000000000000000000000000000000000000000000000000000000000000000000000060F915
:5C74CC0000000000000000000003600200000000000000000000000000000000000000000000000000000000000000000000000000000000000000000000000000000000000000000000000000000000000000000000000000000000000060FAA5
