:020000040000FA
:2B000000FFFF62FF2500FFFFFFFFFFFFFFFFFFFFFFFFFFFFFFFFFFFFFFFFFFFFFFFFFFFFFFFFFFFFFFFFFFFFFFFFFF76
:2B002B006018866118DC6118866118067718067718860100000000188661188661188661188661188661188661009A9A
:2B00560040100441100A4110044110844210844210040100000000100441100441100441100441100441100441008FEC
:2B008100000000000000000000000000000000000000000000000000000000000000000000000000000000000080E7ED
:2B00AC00000000000000000000000000000000000000000000000000000000000000000000000000000000000080E7C2
:2B00D700000000000000000000000000000000000000000000000000000000000000000000000000000000000080E797
:2B010200000000000000000000000000000000000000000000000000000000000000000000000000000000000080E76B
:2B012D00020000000000000000000000000000000000000000000000000000000000000000000000000000000080E540
:2B015800000008000000000000000000000000000000000000000000000000000000000000000000000000000000EF85
:2B018300000000080000000000000000000000000000000000000000000000000000000000000000000000000080EFDA
:2B01AE00000000020000000000000000000000000000000000000000000000000000000000000000000000000080E5BF
:2B01D900000000000000000000000000000000000000000000000000000000000000000000000000000000000080E794
:2B020400000000000000000000000000000000000000000000000000000000000000000000000000000000000080E768
:2B022F00000000000000000000000000000000000000000000000000000000000000000000000000000000000080E73D
:2B025A00000000000000000000000000000000000000000000000000000000000000000000000000000000000080E712
:2B028500000000020000000000000000000000000000000000000000000000000000000000000000000000000080E5E7
:2B02B000000000000000000000000000000000000000000000000000000000000000000000000000000000000080E7BC
:2B02DB00000000000000000000000000000000000000000000000000000000000000000000000000000000000080E791
:2B030600000000000000000000000000000000000000000000000000000000000000000000000000000000000008EFD5
:2B033100000040000000000000000000000000000000000000000000000000000000000000000000000000000080A33E
:2B035C00000010100000000000000000000000000000000000000000000000000000000000000000000000000080E6F0
:2B038700000002020002000000000080000080000000000000000000000000000000000000000000000000000080E5E0
:2B03B200020000000002000000000000000000000000000000000000000000000000000000000000000000000008CD47
:2B03DD00000100040000000000000000000000000000000000000000000000000000000000000000000000000080F27E
:2B040800000000000000000000000080000080000000000000000000000000000000000000000000000000000080E762
:2B043300000102000000000000000000000000000000000000000000000000000000000000000000000000000080D645
:2B045E00000000000000000000000000000000000000000000000000000000000000000000000000000000000080E70C
:2B048900020000000000000000000000000000000000000000000000000000000000000000000000000000000008ED51
:2B04B400800008800008800008800008800008800008000000000020000220000220000220000220000220000280E7BA
:2B04DF00800008800008800008800008800008800008000000000020000220000220000220000220000220000280E78F
:2B050A00000000010000000000000000000000000000000000000000000000000000000000000000000000000080E65F
:2B053500000006000000000000000000000000000000000000000000000000000000000000000000000000000080878E
:2B056000020018040000000000000000000000000000000000000000000000000000000000000000000000000088F0DA
:2B058B0002003C00000000000000000000000000000000000000000000000000000000000000000000000000008896E9
:2B05B600020000000000000000000000000000000000000000000000000000000000000000000000000000000008ED23
:2B05E100020018010000000000000000000000000000000000000000000000000000000000000000000000000088F557
:2B060C00000000000000000000000000000000000000000000000000000000000000000000000000000000000080E75C
:2B063700000018000000000000000000000000000000000000000000000000000000000000000000000000000000FE82
:2B066200000000010000000000000000000000000000000000000000000000000000000000000000000000000080E606
:2B068D000000060000000000000000000000000000000000000000000000000000000000000000000000000000808735
:2B06B800020038000000000000000000000000000000000000000000000000000000000000000000000000000088D67F
:2B06E30000001C000000000000000000000000000000000000000000000000000000000000000000000000000000BE12
:2B070E00000000100000000000000000000000000000000000000000000000000000000000000000000000000080F739
:2B073900000038000000000000000000000000000000000000000000000000000000000000000000000000000000DC81
:2B076400000000000000000000000000000000000000000000000000000000000000000000000000000000000080E703
:2B078F00020018000000000000000000000000000000000000000000000000000000000000000000000000000088F4A9
:2B07BA00000000010000000000000000000000000000000000000000000000000000000000000000000000000080E6AD
:2B07E50000000600000000000000000000000000000000000000000000000000000000000000000000000000008087DC
:2B081000000018040000000000000000000000000000000000000000000000000000000000000000000000000000FAA7
:2B083B0002001C000000000000000000000000000000000000000000000000000000000000000000000000000000BCB8
:2B086600020000000000000000000000000000000000000000000000000000000000000000000000000000000008ED70
:2B089100040038100000000000000000000000000000000000000000000000000000000000000000000000000088C0A8
:2B08BC00020000000000000000000000000000000000000000000000000000000000000000000000000000000008ED1A
:2B08E700020018000000000000000000000000000000000000000000000000000000000000000000000000000088F450
:2B091200020000010000000000000000000000000000000000000000000000000000000000000000000000000080E453
:2B093D000000060000000000000000000000000000000000000000000000000000000000000000000000000000808782
:2B096800000018000000000000000000000000000000000000000000000000000000000000000000000000000000FE4E
:2B09930000001C040000000000000000000000000000000000000000000000000000000000000000000000000000BA5F
:2B09BE00020000080000000000000000000000000000000000000000000000000000000000000000000000000008E517
:2B09E900020038000000000000000000000000000000000000000000000000000000000000000000000000000000DECB
:2B0A1400040000000000000000000000000000000000000000000000000000000000000000000000000000000080E350
:2B0A3F00020018000000000000000000000000000000000000000000000000000000000000000000000000000000FC76
:2B0A6A00020000010000000000000000000000000000000000000000000000000000000000000000000000000080E4FA
:2B0A95000200060000000000000000000000000000000000000000000000000000000000000000000000000000088D99
:2B0AC000000018100000000000000000000000000000000000000000000000000000000000000000000000000000EEF5
:2B0AEB0000001C000000000000000000000000000000000000000000000000000000000000000000000000000000BE06
:2B0B1600000000010000000000000000000000000000000000000000000000000000000000000000000000000080E64D
:2B0B4100020038000000000000000000000000000000000000000000000000000000000000000000000000000000DE71
:2B0B6C00020000000000000000000000000000000000000000000000000000000000000000000000000000000008ED67
:2B0B9700040018000000000000000000000000000000000000000000000000000000000000000000000000000088F29D
:2B0BC200020000010000000000000000000000000000000000000000000000000000000000000000000000000008EC11
:2B0BED000200060000000000000000000000000000000000000000000000000000000000000000000000000000088D40
:2B0C1800020018000000000000000000000000000000000000000000000000000000000000000000000000000000FC9B
:2B0C430000001C100000000000000000000000000000000000000000000000000000000000000000000000000000AEAC
:2B0C6E00000000000000000000000000000000000000000000000000000000000000000000000000000000000080E7F4
:2B0C9900000038020000000000000000000000000000000000000000000000000000000000000000000000000000DE18
:2B0CC400020000000000000000000000000000000000000000000000000000000000000000000000000000000008ED0E
:2B0CEF00000018000000000000000000000000000000000000000000000000000000000000000000000000000000FEC4
:2B0D1A00000000010000000000000000000000000000000000000000000000000000000000000000000000000080E647
:2B0D45000000060000000000000000000000000000000000000000000000000000000000000000000000000000808776
:2B0D7000000018000000000000000000000000000000000000000000000000000000000000000000000000000000FE42
:2B0D9B0002001C020000000000000000000000000000000000000000000000000000000000000000000000000088B6CF
:2B0DC600000000020000000000000000000000000000000000000000000000000000000000000000000000000080E59B
:2B0DF100000018000000000000000000000000000000000000000000000000000000000000000000000000000000FEC1
:2B0E1C00000000000000000000000000000000000000000000000000000000000000000000000000000000000080E744
:2B0E4700000018000000000000000000000000000000000000000000000000000000000000000000000000000000FE6A
:2B0E7200020000010000000000000000000000000000000000000000000000000000000000000000000000000008EC5E
:2B0E9D000200060000000000000000000000000000000000000000000000000000000000000000000000000000088D8D
:2B0EC800020018080000000000000000000000000000000000000000000000000000000000000000000000000088FC59
:2B0EF30002001C000000000000000000000000000000000000000000000000000000000000000000000000000088B47A
:2B0F1E00000000000000000000000000000000000000000000000000000000000000000000000000000000000080E741
:2B0F4900000018080000000000000000000000000000000000000000000000000000000000000000000000000000F667
:2B0F7400000000000000000000000000000000000000000000000000000000000000000000000000000000000080E7EB
:2B0F9F000800180000000000000000000000000000000000000000000000000000000000000000000000000000A8DC83
:2B0FCA000200000000000000000000000000000000000000000000000000000000000000000000000000000000A0C793
:2B0FF500000000000000000000000000000000000000000000000000000000000000000000000000000000000080E76A
:2B102000800008800008800008800008800008800008000000000020000220000220000220000220000220000280E742
:2B104B00800008800008800008800008800008800008000000000020000220000220000220000220000220000280E717
:2B107600800080080000000000000000000000000000000000000000000000000000000000000000000000000080E7E0
:2B10A100000000000000000000000000000000000000000000000000000000000000000000000000000000000080E7BD
:2B10CC00000010200000000000000000000000000000000000000000000000000000000000000000000000000080D673
:2B10F700800000000000000000000000000000000080000000000000000000000000000000000000000000000080EF5F
:2B112200000080280000000000000000000000000080000000000000000000000000000000000000000000000080CF2B
:2B114D00000024100000000000000000000000000000000000000000000000000000000000000000000000000080952E
:2B117800000020080000000000000000000000000000000000000000000000000000000000000000000000000080CDD7
:2B11A300000000010000000000000000000000000000000000000000000000000000000000000000000000000080E6BA
:2B11CE00000000010000000000000000000000000000000000000000000000000000000000000000000000000080E68F
:2B11F900080000000000000000000000000000000000000000000000000000000000000000000000000000000080EF54
:2B122400000000040000000000000000000000000000000000000000000000000000000000000000000000000080E338
:2B124F00000000000000000000000000000000000000000000000000000000000000000000000000000000000080E70D
:2B127A00000000000000000000000000000000000000000000000000000000000000000000000000000000000080E7E2
:2B12A500000000000000000000000000000000000000000000000000000000000000000000000000000000000080E7B7
:2B12D000000000000000000000000000000000000000000000000000000000000000000000000000000000000080E78C
:2B12FB00000010000000000000000000000000000000000000000000000000000000000000000000000000000080F642
:2B132600100000000000000000000000000000000000000000000000000000000000000000000000000000000080F715
:2B135100080000000000000000000000000000000000000000000000000000000000000000000000000000000080EFFA
:2B137C00000080000000000000000000000000000000000000000000000000000000000000000000000000000000E7DF
:2B13A700000000000000000000000000000000000000000000000000000000000000000000000000000000000080E7B4
:2B13D200000000000000000000000000000000000000000000000000000000000000000000000000000000000080E789
:2B13FD00000000000000000000000000000000000000000000000000000000000000000000000000000000000080E75E
:2B1428000800000000000000000000000000000000000000000000000000000000000000000000000000000000C0AB26
:2B145300000000000000000000000000000000000000000000000000000000000000000000000000000000000080E707
:2B147E00000000000000000000000000000000000000000000000000000000000000000000000000000000000080E7DC
:2B14A900000000000000000000000000000000000000000000000000000000000000000000000000000000000080E7B1
:2B14D400000000000000000000000000000000000000000000000000000000000000000000000000000000000080E786
:2B14FF00000000000000000000000000000000000000000000000000000000000000000000000000000000000080E75B
:2B152A000000000000000000000000000000000000000000000000000000000000000000000000000000000000C0A333
:2B155500000000000000000000000000000000000000000000000000000000000000000000000000000000000080E704
:2B158000000000000000000000000000000000000000000000000000000000000000000000000000000000000080E7D9
:2B15AB00000000000000000000000000000000000000000000000000000000000000000000000000000000000080E7AE
:2B15D600000000000000000000000000000000000000000000000000000000000000000000000000000000000080E783
:2B160100000080100000000000000000000000000000000000000000000000000000000000000000000000000000F737
:2B162C00020080100000000000000000000000000000000000000000000000000000000000000000000000000088FD7C
:2B165700000000000000000000000000000000000000000000000000000000000000000000000000000000000008EF71
:2B168200000000000000000000000000000000000000000000000000000000000000000000000000000000000090F6B7
:2B16AD00000000000000000000000000000000000000000000000000000000000000000000000000000000000008EF1B
:2B16D800000000000000000000000000000000000000000000000000000000000000000000000000000000000008EFF0
:2B170300020000000000000000000000000000000000000000000000000000000000000000000000000000000008EDC4
:2B172E00800008800008800008800008800008800008000000000020000220000220000220000220000220000280E72D
:2B175900800008800008800008800008800008800008000000000020000220000220000220000220000220000280E702
:2B178400000000000000000000000000000000000000000000000000000000000000000000000000000000000080E7D3
:2B17AF00020000000000000000000000000000000000000000000000000000000000000000000000000000000008ED18
:2B17DA00020000000000000000000000000000000000000000000000000000000000000000000000000000000080E57D
:2B180500040000000000000000000000000000000000000000000000000000000000000000000000000000000080E351
:2B183000020000000000000000000000000000000000000000000000000000000000000000000000000000000080E526
:2B185B00020000000000000000000000000000000000000000000000000000000000000000000000000000000080E5FB
:2B188600020000000000000000000000000000000000000000000000000000000000000000000000000000000008ED40
:2B18B100000000000000000000000000000000000000000000000000000000000000000000000000000000000080E7A5
:2B18DC00000000000000000000000000000000000000000000000000000000000000000000000000000000000080E77A
:2B190700000000000000000000000000000000000000000000000000000000000000000000000000000000000080E74E
:2B193200020000000000000000000000000000000000000000000000000000000000000000000000000000000008ED93
:2B195D00000000000000000000000000000000000000000000000000000000000000000000000000000000000080E7F8
:2B198800000000000000000000000000000000000000000000000000000000000000000000000000000000000080E7CD
:2B19B300000000000000000000000000000000000000000000000000000000000000000000000000000000000080E7A2
:2B19DE00000000000000000000000000000000000000000000000000000000000000000000000000000000000080E777
:2B1A0900020000000000000000000000000000000000000000000000000000000000000000000000000000000008EDBB
:2B1A3400000000000000000000000000000000000000000000000000000000000000000000000000000000000080E720
:2B1A5F00000000000000000000000000000000000000000000000000000000000000000000000000000000000080E7F5
:2B1A8A00000000000000000000000000000000000000000000000000000000000000000000000000000000000080E7CA
:2B1AB500020000000000000000000000000000000000000000000000000000000000000000000000000000000008ED0F
:2B1AE000000000000000000000000000000000000000000000000000000000000000000000000000000000000080E774
:2B1B0B00000000000000000000000000000000000000000000000000000000000000000000000000000000000080E748
:2B1B3600000000000000000000000000000000000000000000000000000000000000000000000000000000000080E71D
:2B1B6100000000000000000000000000000000000000000000000000000000000000000000000000000000000080E7F2
:2B1B8C00020000000000000000000000000000000000000000000000000000000000000000000000000000000008ED37
:2B1BB700000000000000000000000000000000000000000000000000000000000000000000000000000000000080E79C
:2B1BE200000000000000000000000000000000000000000000000000000000000000000000000000000000000080E771
:2B1C0D00000000000000000000000000000000000000000000000000000000000000000000000000000000000080E745
:2B1C3800020000000000000000000000000000000000000000000000000000000000000000000000000000000008ED8A
:2B1C6300000000000000000000000000000000000000000000000000000000000000000000000000000000000080E7EF
:2B1C8E00000000000000000000000000000000000000000000000000000000000000000000000000000000000080E7C4
:2B1CB900000000000000000000000000000000000000000000000000000000000000000000000000000000000080E799
:2B1CE400000000000000000000000000000000000000000000000000000000000000000000000000000000000080E76E
:2B1D0F00020000000000000000000000000000000000000000000000000000000000000000000000000000000008EDB2
:2B1D3A00000000000000000000000000000000000000000000000000000000000000000000000000000000000080E717
:2B1D6500000000000000000000000000000000000000000000000000000000000000000000000000000000000080E7EC
:2B1D9000000000000000000000000000000000000000000000000000000000000000000000000000000000000080E7C1
:2B1DBB00020000000000000000000000000000000000000000000000000000000000000000000000000000000008ED06
:2B1DE600000000000000000000000000000000000000000000000000000000000000000000000000000000000080E76B
:2B1E1100000000000000000000000000000000000000000000000000000000000000000000000000000000000080E73F
:2B1E3C00000000000000000000000000000000000000000000000000000000000000000000000000000000000080E714
:2B1E6700000000000000000000000000000000000000000000000000000000000000000000000000000000000080E7E9
:2B1E9200020000000000000000000000000000000000000000000000000000000000000000000000000000000008ED2E
:2B1EBD00000000000000000000000000000000000000000000000000000000000000000000000000000000000080E793
:2B1EE800000000000000000000000000000000000000000000000000000000000000000000000000000000000080E768
:2B1F1300000000000000000000000000000000000000000000000000000000000000000000000000000000000080E73C
:2B1F3E00020000000000000000000000000000000000000000000000000000000000000000000000000000000008ED81
:2B1F6900000000000000000000000000000000000000000000000000000000000000000000000000000000000080E7E6
:2B1F9400000000000000000000000000000000000000000000000000000000000000000000000000000000000080E7BB
:2B1FBF00000000000000000000000000000000000000000000000000000000000000000000000000000000000080E790
:2B1FEA00000000000000000000000000000000000000000000000000000000000000000000000000000000000080E765
:2B201500020000000000000000000000000000000000000000000000000000000000000000000000000000000008EDA9
:2B204000000000000000000000000000000000000000000000000000000000000000000000000000000000000080E70E
:2B206B00000000000000000000000000000000000000000000000000000000000000000000000000000000000080E7E3
:2B209600000000000000000000000000000000000000000000000000000000000000000000000000000000000080E7B8
:2B20C100020000000000000000000000000000000000000000000000000000000000000000000000000000000008EDFD
:2B20EC00000000000000000000000000000000000000000000000000000000000000000000000000000000000080E762
:2B211700000000000000000000000000000000000000000000000000000000000000000000000000000000000080E736
:2B214200000000000000000000000000000000000000000000000000000000000000000000000000000000000080E70B
:2B216D00000000000000000000000000000000000000000000000000000000000000000000000000000000000080E7E0
:2B219800020000000000000000000000000000000000000000000000000000000000000000000000000000000008ED25
:2B21C300000000000000000000000000000000000000000000000000000000000000000000000000000000000080E78A
:2B21EE00000000000000000000000000000000000000000000000000000000000000000000000000000000000080E75F
:2B221900000000000000000000000000000000000000000000000000000000000000000000000000000000000080E733
:2B224400000000000000000000000000000000000000000000000000000000000000000000000000000000000080E708
:2B226F00000000000000000000000000000000000000000000000000000000000000000000000000000000000080E7DD
:2B229A00800008800008800008800008800008800008000000000020000220000220000220000220000220000280E7B6
:2B22C500800008800008800008800008800008800008000000000020000220000220000220000220000220000280E78B
:2B22F000000000000000000000000000000000000000000000000000000000000000000000000000000000000080E75C
:2B231B00000000000000000000000000000000000000000000000000000000000000000000000000000000000080E730
:2B234600000000000000000000000000000000000000000000000000000000000000000000000000000000000080E705
:2B237100000000000000000000000000000000000000000000000000000000000000000000000000000000000080E7DA
:2B239C00000000000000000000000000000000000000000000000000000000000000000000000000000000000080E7AF
:2B23C700000000000000000000000000000000000000000000000000000000000000000000000000000000000080E784
:2B23F200000000000000000000000000000000000000000000000000000000000000000000000000000000000080E759
:2B241D00000000000000000000000000000000000000000000000000000000000000000000000000000000000080E72D
:2B244800000000000000000000000000000000000000000000000000000000000000000000000000000000000080E702
:2B247300000000000000000000000000000000000000000000000000000000000000000000000000000000000080E7D7
:2B249E00000000000000000000000000000000000000000000000000000000000000000000000000000000000080E7AC
:2B24C900000000000000000000000000000000000000000000000000000000000000000000000000000000000080E781
:2B24F400000000000000000000000000000000000000000000000000000000000000000000000000000000000080E756
:2B251F00000000000000000000000000000000000000000000000000000000000000000000000000000000000080E72A
:2B254A00000000000000000000000000000000000000000000000000000000000000000000000000000000000080E7FF
:2B257500000000000000000000000000000000000000000000000000000000000000000000000000000000000080E7D4
:2B25A000000000000000000000000000000000000000000000000000000000000000000000000000000000000080E7A9
:2B25CB00000000000000000000000000000000000000000000000000000000000000000000000000000000000080E77E
:2B25F600000000000000000000000000000000000000000000000000000000000000000000000000000000000080E753
:2B262100000000000000000000000000000000000000000000000000000000000000000000000000000000000080E727
:2B264C00000000000000000000000000000000000000000000000000000000000000000000000000000000000080E7FC
:2B267700000000000000000000000000000000000000000000000000000000000000000000000000000000000080E7D1
:2B26A200000000000000000000000000000000000000000000000000000000000000000000000000000000000080E7A6
:2B26CD00000000000000000000000000000000000000000000000000000000000000000000000000000000000080E77B
:2B26F800000000000000000000000000000000000000000000000000000000000000000000000000000000000080E750
:2B272300000000000000000000000000000000000000000000000000000000000000000000000000000000000080E724
:2B274E00000000000000000000000000000000000000000000000000000000000000000000000000000000000080E7F9
:2B277900000000000000000000000000000000000000000000000000000000000000000000000000000000000080E7CE
:2B27A400000000000000000000000000000000000000000000000000000000000000000000000000000000000080E7A3
:2B27CF00000000000000000000000000000000000000000000000000000000000000000000000000000000000080E778
:2B27FA00000000000000000000000000000000000000000000000000000000000000000000000000000000000080E74D
:2B282500000000000000000000000000000000000000000000000000000000000000000000000000000000000080E721
:2B285000000000000000000000000000000000000000000000000000000000000000000000000000000000000080E7F6
:2B287B00000000000000000000000000000000000000000000000000000000000000000000000000000000000080E7CB
:2B28A600020000000000000000000000000000000000000000000000000000000000000000000000000000000008ED10
:2B28D100000000000000000000000000000000000000000000000000000000000000000000000000000000000080E775
:2B28FC00000000000000000000000000000000000000000000000000000000000000000000000000000000000080E74A
:2B292700000000000000000000000000000000000000000000000000000000000000000000000000000000000080E71E
:2B295200000000000000000000000000000000000000000000000000000000000000000000000000000000000080E7F3
:2B297D00020000000000000000000000000000000000000000000000000000000000000000000000000000000008ED38
:2B29A800800008800008800008800008800008800008000000000020000220000220000220000220000220000280E7A1
:2B29D300800008800008800008800008800008800008000000000020000220000220000220000220000220000280E776
:2B29FE00000000000000000000000000000000000000000000000000000000000000000000000000000000000080E747
:2B2A2900020000000000000000000000000000000000000000000000000000000000000000000000000000000008ED8B
:2B2A5400000000000000000000000000000000000000000000000000000000000000000000000000000000000080E7F0
:2B2A7F00000000000000000000000000000000000000000000000000000000000000000000000000000000000080E7C5
:2B2AAA00000000000000000000000000000000000000000000000000000000000000000000000000000000000080E79A
:2B2AD500000000000000000000000000000000000000000000000000000000000000000000000000000000000080E76F
:2B2B0000020000000000000000000000000000000000000000000000000000000000000000000000000000000008EDB3
:2B2B2B00000000000000000000000000000000000000000000000000000000000000000000000000000000000080E718
:2B2B5600000000000000000000000000000000000000000000000000000000000000000000000000000000000080E7ED
:2B2B8100000000000000000000000000000000000000000000000000000000000000000000000000000000000080E7C2
:2B2BAC00020000000000000000000000000000000000000000000000000000000000000000000000000000000008ED07
:2B2BD700000000000000000000000000000000000000000000000000000000000000000000000000000000000080E76C
:2B2C0200000000000000000000000000000000000000000000000000000000000000000000000000000000000080E740
:2B2C2D00000000000000000000000000000000000000000000000000000000000000000000000000000000000080E715
:2B2C5800000000000000000000000000000000000000000000000000000000000000000000000000000000000080E7EA
:2B2C8300020000000000000000000000000000000000000000000000000000000000000000000000000000000008ED2F
:2B2CAE00000000000000000000000000000000000000000000000000000000000000000000000000000000000080E794
:2B2CD900000000000000000000000000000000000000000000000000000000000000000000000000000000000080E769
:2B2D0400000000000000000000000000000000000000000000000000000000000000000000000000000000000080E73D
:2B2D2F00020000000000000000000000000000000000000000000000000000000000000000000000000000000008ED82
:2B2D5A00000000000000000000000000000000000000000000000000000000000000000000000000000000000080E7E7
:2B2D8500000000000000000000000000000000000000000000000000000000000000000000000000000000000080E7BC
:2B2DB000000000000000000000000000000000000000000000000000000000000000000000000000000000000080E791
:2B2DDB00000000000000000000000000000000000000000000000000000000000000000000000000000000000080E766
:2B2E0600020000000000000000000000000000000000000000000000000000000000000000000000000000000008EDAA
:2B2E3100000000000000000000000000000000000000000000000000000000000000000000000000000000000080E70F
:2B2E5C00000000000000000000000000000000000000000000000000000000000000000000000000000000000080E7E4
:2B2E8700000000000000000000000000000000000000000000000000000000000000000000000000000000000080E7B9
:2B2EB200020000000000000000000000000000000000000000000000000000000000000000000000000000000008EDFE
:2B2EDD00000000000000000000000000000000000000000000000000000000000000000000000000000000000080E763
:2B2F0800000000000000000000000000000000000000000000000000000000000000000000000000000000000080E737
:2B2F3300000000000000000000000000000000000000000000000000000000000000000000000000000000000080E70C
:2B2F5E00000000000000000000000000000000000000000000000000000000000000000000000000000000000080E7E1
:2B2F8900020000000000000000000000000000000000000000000000000000000000000000000000000000000008ED26
:2B2FB400000000000000000000000000000000000000000000000000000000000000000000000000000000000080E78B
:2B2FDF00000000000000000000000000000000000000000000000000000000000000000000000000000000000080E760
:2B300A00000000000000000000000000000000000000000000000000000000000000000000000000000000000080E734
:2B303500020000000000000000000000000000000000000000000000000000000000000000000000000000000008ED79
:2B306000000000000000000000000000000000000000000000000000000000000000000000000000000000000080E7DE
:2B308B00000000000000000000000000000000000000000000000000000000000000000000000000000000000080E7B3
:2B30B600000000000000000000000000000000000000000000000000000000000000000000000000000000000080E788
:2B30E100000000000000000000000000000000000000000000000000000000000000000000000000000000000080E75D
:2B310C00020000000000000000000000000000000000000000000000000000000000000000000000000000000008EDA1
:2B313700000000000000000000000000000000000000000000000000000000000000000000000000000000000080E706
:2B316200000000000000000000000000000000000000000000000000000000000000000000000000000000000080E7DB
:2B318D00000000000000000000000000000000000000000000000000000000000000000000000000000000000080E7B0
:2B31B800020000000000000000000000000000000000000000000000000000000000000000000000000000000008EDF5
:2B31E300000000000000000000000000000000000000000000000000000000000000000000000000000000000080E75A
:2B320E00000000000000000000000000000000000000000000000000000000000000000000000000000000000080E72E
:2B323900000000000000000000000000000000000000000000000000000000000000000000000000000000000080E703
:2B326400000000000000000000000000000000000000000000000000000000000000000000000000000000000080E7D8
:2B328F00020000000000000000000000000000000000000000000000000000000000000000000000000000000008ED1D
:2B32BA00000000000000000000000000000000000000000000000000000000000000000000000000000000000080E782
:2B32E500000000000000000000000000000000000000000000000000000000000000000000000000000000000080E757
:2B331000000000000000000000000000000000000000000000000000000000000000000000000000000000000080E72B
:2B333B00020000000000000000000000000000000000000000000000000000000000000000000000000000000008ED70
:2B336600000000000000000000000000000000000000000000000000000000000000000000000000000000000080E7D5
:2B339100000000000000000000000000000000000000000000000000000000000000000000000000000000000080E7AA
:2B33BC00000000000000000000000000000000000000000000000000000000000000000000000000000000000080E77F
:2B33E700000000000000000000000000000000000000000000000000000000000000000000000000000000000080E754
:2B341200020000000000000000000000000000000000000000000000000000000000000000000000000000000008ED98
:2B343D00000000000000000000000000000000000000000000000000000000000000000000000000000000000080E7FD
:2B346800000000000000000000000000000000000000000000000000000000000000000000000000000000000080E7D2
:2B349300000000000000000000000000000000000000000000000000000000000000000000000000000000000080E7A7
:2B34BE00000000000000000000000000000000000000000000000000000000000000000000000000000000000080E77C
:2B34E900000000000000000000000000000000000000000000000000000000000000000000000000000000000080E751
:2B351400800008800008800008800008800008800008000000000020000220000220000220000220000220000280E729
:2B353F00800008800008800008800008800008800008000000000020000220000220000220000220000220000280E7FE
:2B356A00000000000000000000000000000000000000000000000000000000000000000000000000000000000080E7CF
:2B359500000000000000000000000000000000000000000000000000000000000000000000000000000000000080E7A4
:2B35C000000000000000000000000000000000000000000000000000000000000000000000000000000000000080E779
:2B35EB00000000000000000000000000000000000000000000000000000000000000000000000000000000000080E74E
:2B361600000000000000000000000000000000000000000000000000000000000000000000000000000000000080E722
:2B364100000000000000000000000000000000000000000000000000000000000000000000000000000000000080E7F7
:2B366C00000000000000000000000000000000000000000000000000000000000000000000000000000000000080E7CC
:2B369700000000000000000000000000000000000000000000000000000000000000000000000000000000000080E7A1
:2B36C200000000000000000000000000000000000000000000000000000000000000000000000000000000000080E776
:2B36ED00000000000000000000000000000000000000000000000000000000000000000000000000000000000080E74B
:2B371800000000000000000000000000000000000000000000000000000000000000000000000000000000000080E71F
:2B374300000000000000000000000000000000000000000000000000000000000000000000000000000000000080E7F4
:2B376E00000000000000000000000000000000000000000000000000000000000000000000000000000000000080E7C9
:2B379900000000000000000000000000000000000000000000000000000000000000000000000000000000000080E79E
:2B37C400000000000000000000000000000000000000000000000000000000000000000000000000000000000080E773
:2B37EF00000000000000000000000000000000000000000000000000000000000000000000000000000000000080E748
:2B381A00000000000000000000000000000000000000000000000000000000000000000000000000000000000080E71C
:2B384500000000000000000000000000000000000000000000000000000000000000000000000000000000000080E7F1
:2B387000000000000000000000000000000000000000000000000000000000000000000000000000000000000080E7C6
:2B389B00A00842000000000000000000000000000000000000000000000000000000000000000000000000000080ABED
:2B38C600802408000000000000000000000000000000000000000000000000000000000000000000000000000080A10A
:2B38F100000000000000000000000000000000000000000000000000000000000000000000000000000000000080E745
:2B391C00000000000000000000000000000000000000000000000000000000000000000000000000000000000080E719
:2B394700E0380EA110044110044110044110044110840200000000100441100441100441100441100441100441008E18
:2B397200605996C11D8661188661188661188661180617000000001886611886611886611886611886611886618088E2
:02399D00FFFF2A
:00000001FF
