:020000040000FA
:5C000000FFFF62FF2E00FFFFFFFFFFFFFFFFFFFFFFFFFFFFFFFFFFFFFFFFFFFFFFFFFFFFFFFFFFFFFFFFFFFFFFFFFFFFFFFFFFFFFFFFFFFFFFFFFFFFFFFFFFFFFFFFFFFFFFFFFFFFFFFFFFFFFFFFFFFFFFFFFFFFFFFFFFFFFFFFFFFFFFFFFFFF6D
:5C005C0060180C8361300C86C1301806C360180C8361300C86C1301806C360180C8361300C86C1301806C360180C0300000000C0301806C360180C8361300C86C1301806C360180C8361300C86C1301806C360180C8361300C86C1301806D0F00B
:5C00B80040100802412008048120100482401008024120080481201004824010080241200804812010048240100802000000008020100482401008024120080481201004824010080241200804812010048240100802412008048120100490F565
:5C01140000000000000000000000000000000000000000000000000000000000000000000000000000000000000000000000000000000000000000000000000000000000000000000000000000000000000000000000000000000000000010FF80
:5C01700000000000000000000000000000000000000000000000000000000000000000000000000000000000000000000000000000000000000000000000000000000000000000000000000000000000000000000000000000000000000010FF24
:5C01CC0000000000000000000000000000000000000000000000000000000000000000000000000000000000000000000000000000000000000000000000000000000000000000000000000000000000000000000000000000000000000010FFC8
:5C02280000000000000000000000000000000000000000000000000000000000000000000000000000000000000000000000000000000000000000000000000000000000000000000000000000000000000000000000000000000000000010FF6B
:5C02840000000000000000000000000000000000000000000000000000000000000000000000000000000000000000000000000000000000000000000000000000000000000000000000000000000000000000000000000000000000000010FF0F
:5C02E00000000000000000000000000000000000000000000000000000000000000000000000000000000000000000000000000000000000000000000000000000000000000000000000000000000000000000000000000000000000000010FFB3
:5C033C00000000000000000000000000000000000000000000000000000000000000000000000000000000000000000000004000100000000020000100000000000000000000080025000000000100004000000001000004040000000000C0F3CA
:5C03980000000000000000000000000000000000000000000000000000000000000000000000000000000000000000400000040000000000000000080000000000000000000000000000000000000000000000000000000000000000000050F776
:5C03F40000000000000000000000000000000000000000000000000000000000000000000000000000000000000000000000000000000000000000000000000000000000000000000000000000000000000000000000000000000000000010FF9E
:5C04500000000000000000000000000000000000000000000000000000000000000000000000000000000000000000000000000000000000000000000000000000000000020000000000000000800000000000000000000000000000000090F549
:5C04AC0000000000000000000000000000000000000000000000000000000000000000000000000000000000000000000000000000000000000000000000000000000000000000000000000000000000000000000000000000000000000010FFE5
:5C05080000000000010100000000000000000020000000000000000000000000000004000000000000000000002000000000000000000000000000000000200000000000000000000004000010000200000000000000000000000000000030FEED
:5C05640000000000000000000000000000000000000000000000000000000000000000000000000000000000000000000000000000000000000000000000004000000000000004C000000002000000000100000000000000000000000001A0F2A1
:5C05C00000000000000000000000000000000000000000000000000000000000000000000000000000000000000000000000000000000000000080000000020000000000000000000000000000000000100000000100000002000000000038F61C
:5C061C0000000000000000000000000000000000000000000000000000000000000000000000000000000000000000000000000000000000000004000000000100000000020000000001000000000000000000000000000000000000000050F832
:5C06780000000000040000000000000000000000040000000000000000000000000080000000000000000000000004000000000000000000000000000080000000000000000000000000000000024000080000000000008000000000400010F907
:5C06D40000000000000000000000000000000000000000000000000000000000000000000000000000000000000040000000000000000000000000000000000000000000000000000000000001000000000000000000000000000000000040FE4B
:5C07300000000000000000000000000000000000000000000000000000000000000000000000000000000000000000000000000000000000000000000000000000000000000000000000000000000000000000000000000000000000000010FF5E
:5C078C0000000000000000000000000000000000000000000000000000000000000000000000000000000000000000000008000000000000800000000000000000000000000000000000000000000000000000000000000081000000004080FA4E
:5C07E80000000000000000000000000000000000000000000000000000000000000000000000000000000000000000040000000000000000000000000000004000000000000004880000000200000000810000000200000000000000000140F22D
:5C084400000000000000000000000000000000000000000000000000000000000000000000000000000000000000000000000000800000000000000000000000000000000000000000000000000000000002000000000000000000000000B0FF27
:5C08A00000000000000000000000000000000000000000000000000000000000000000000000000000000000000000000000000000000000000000000000000000000000000000000000000000000000000000000000000000000000000010FFED
:5C08FC0000000000000000000000000000000000000000000000000000000000000000000000000000000000000000000000000000000000000000000000000000000000000000000000000000000000000000000000000000000000000010FF91
:5C09580000000000000000000000000000000000000000000000000000000000000000000000000000000000000000000000000000000000000000000000000000000000000000000000000000000000000000000000000000000000000010FF34
:5C09B40000000000000000000000000000000000000000000000000000000000000000000000000000000000000000000000200000000000000010000000000000000000000000000000000000000000000000000000004000000000000020F95E
:5C0A100008000000000000000000000000000000000000000000000000000000000000000000000000000000000000000008000010020000000000200000000000100200000000000000010000000000000000000000000000000000000010FF26
:5C0A6C00040000000001000000000000000000000800000000000000000000000000000100000000000000000000080000000000000000000000000000202000000000000000000000000000000480000000000000000000000000000000C0F4A0
:5C0AC80000000000200000000000000000000008000000000000000000000000000001000000000000000000000800000000000000000000000000000020000000000000000000002001000004001000000000000000000000000000000050F20A
:5C0B24000C000000000000000000000000000000000000000000000000000000000000000000000000000000000000000000000000000000000000000000000000000000000000000000000000000000000000000000000000000000000058FB16
:5C0B800000000000000000000000000000000000000000000000000000000000000000000000000000000000000000000000000000000040000000000000000000000000000000000000000000000000000000000000000000000000000050FF8A
:5C0BDC000000000000000000000000000000000000000000000000000000000000000000000000000000000000000020010C2BC0088100202402001000000002000000000020005811000000024100000091400000002900402040040046C0FF55
:5C0C380000000000000000000000000000000000000000000000000000000000000000000000000000000000000000000000000000000000000000000000000000000000000000000100000000000000000080000000000000204004004680F9BC
:5C0C94000000000000000000000000000000000000000000000000000000000000000000000000000000000000000000000812C0008000200000000000000000008000000000000000000000000000000000000000000100000000000000A0F970
:5C0CF00000000000000000000000000000000000000000000000000000000000000000000000000000000000000000150000000000000000000000000000000000000000000000000000000000010000000000000000000000000000000000FA98
:5C0D4C00000000000000000000000000000000000000000000000000000000000000000000000000000000000000000100008008080100002403001000000002000000000020004810000000024000000091400000002800400000000000A0F2FB
:5C0DA80002000000000000000000000000000000000000000000000000000000000000000000000000000000000000470000000000000000000000000000000000000000000000000000000000000000000000000000000000000000000061FF46
:5C0E040000000000000000000000000000000000000000000000000000000000000000000000000000000000000000480000001000000000000000000000000000000000000000000000000000000000000000000000000000000000000041F306
:5C0E600080001000024000080001200004800010000240000800012000048000100002400008000120000480001000000000000801200004800010000240000800012000048000100002400008000120000480001000024000080001200002FF82
:5C0EBC00800010000240000800012000048000100002400008000120000480001000024000080001200004800010000200000000012000048000100002400008000120000480001000024000080001200004800010000240000800012000B1FE7E
:5C0F180000000000000000000000000000000000080000000000000000000000000000000000000000000000000000400000000808000000000120000000000000000000000000000000000000008000400004000000440000000000000031F2D9
:5C0F74000200008041000000000000000000000C000000000000000000000000008009080000000000000000004C01080000008000000022600B7C2000F002B6801400000000006C8129B00506C804D8001F000000800D2003000000980241F96F
:5C0FD000000000001000000000000000000000000000000000000000000000000000000000000000000000000080000000000040000000010001000000000031400000000000002008048240000000C00000000000000410000000000000F0FDD3
:5C102C00020000000D000000000000000000006820000000000000000000000000000D04000000000000000000180042000000802400000240803810002000148000000000000068000FA0003490065200920000000019E005000000508041FC34
:5C108800020000000400000000000000000000A000000000000000000000000000001400000000000000000000101001000000400000000D000110000000001850030000000000300002C00010000260000000000000041040000000400050FA26
:5C10E4000400000008040000000000000000002000000000000000000000000000000400000000000000000000400001000000400000000D0083F00000C0053040030000000000600800848090001240405C0000000004D100000000C00130F1A2
:5C1140000200000004080000000000000000000040000000000000000000000000000008000000000000000000104000000000020302002C0001000000C0001000030200000000200046800000200044040C00000000040080000000008050F9FD
:5C119C000200000004000000000000000000002000000000000000000000000000000400000000000000000000100041000080000700001C8009300800C000300107000000000020080E800011000240000C0000000016C0010000004000E0F420
:5C11F800020000002000000000000000000000000100000000000000000000000000200000000000000000000000010000000000000400000008000100800840000204000000080002208000800010400040000000001000040000000002C1F5F6
:5C1254000000008001000000000000000000000C000000000000000000000000008001000000000000000000000C0000000000C303000000E0012C0000300016C00200000060016C8007F00107C00098011200000000093000000000580030FCD5
:5C12B0000000000010000000000000000000008000000000000000000000000000001000000000000000000000000000000080020000000000002010000080000002000000000320100C000000000000200102000080000000000000401080F468
:5C130C00000000000B000000000000000000001800000000000000000000000000000300000000000000000000781000000080800402000040422800002000148840000000400128000BE0408C80119000020000000001A000010000D000D0F7AF
:5C136800020000008200000000000000000000101000000000000000000000000000020200000000000000000030000000000000000000000000300000801018000200000080013100044204080801410001000000800680040000006000B1F21B
:5C13C4000200000000000000000000000000004000000000000000000000000000000800000000000000000000000200000000000F0000008009202000C000381082000000000320200AC00020000400800100000080068001000000C01030F472
:5C142000040000000208000000000000000000104000000000000000000000000000020800000000000000000030000000000000030000008001200000C0048000120000000001210080000008200164800C08000000060000010000400050FF85
:5C147C00020000000200000000000000000000100000000000000000000000000000020000000000000000000030000000000000030000008001200200C0001000070000000001200806C00009000100001C00000000068200000000C001E0F221
:5C14D800020000000000000000000000000000000000000000000000000000000000000000000000000000000000000000000000000000000004A00000000008088200000000010004000000400008000020000000000000000000000000C0FC57
:5C1534000200008021000000000000000000000C010000000000000000000000008021000000000000000000000C0100000000801000000060003C0000F01116C002000000E0070C8009720406C0009801120000000021B004000000580231F93C
:5C15900000000000400000000000000000000000000000000000000000000000000080000000000000000000008000000000004000000000808100000080003000020000000000A00000000100002040000100000080008000000000C00060FAB0
:5C15EC00000000000F000000000000000000007804000000000000000000000000000F0000000000000000000038000000000080240000004003381000A080348040000000C08128004FA0011CA0071002020000000001A011000000500050F715
:5C16480000000000060400000000000000000030200000000000000000000000000006040000000000000000007000000000004000000000000010000080001010020000008000000000040018100302800D0000008006C0200000006000A0FAE2
:5C16A4000200000000000000000000000000000000000000000000000000000000000000000000000000000000000000000000410000000080023201008004100082000000800560040E8081000000C0000D00000080068001000000404041F659
:5C170000000000000600000000000000000000300000000000000000000000000000060000000000000000000030000000000008030200008001000000800010000A0000000000210006000018000340000C08000000068004000000400000F5A4
:5C175C0000000000060000000000000000000030000000000000000000000000000006000000000000000000003000480000000007000000801130020080033001070000008001204006800019000340801C00000000068201000000C001C0F897
:5C17B800000000001000000000000000000000000000000000000000000000000000000000000000000000000000004800000000800000000000000000800810020200000000800010008010000000000000000002000C0002000000402020FBB6
:5C1814000000008001000000000000000000008C000000000000000000000000008011000000000000000000008C0000000000C803000032E0055C100030003EC046000000E001048011F000A48014B801222002008005B0000000007800D0F480
:5C1870000200000010000000000000000000008000000000000000000000000000001000000000000000000000A000000000000000000001000042000000080000020000008001050000C480824010001001200000000480010000000000D1F971
:5C18CC00000000000F0000000000000000000038000000000000000000000000000007000000000000000000003800000000808804020002C00168000020011C8840000000C00108400FE0013C80079000024000020019A000000000702000F330
:5C192800000000000E000000000000000000007000000000000000000000000000000608000000000000000000100000000080001000000D00000040008080080002000000800104000EC04002480041010D2000000004C000000000200140FA75
:5C1984000000000000000000000000000000000000000000000000000000000000000800000000000000000000002000000000000300000D8021600000C0017800820000008013040000C0011A400360000D20000000048180000000600030F844
:5C19E0000200000006000000000000000000003000000000000000000000000000000600000000000000000000300200000000000300002C8001000000C0020000020000008001300006C00100100062000C880100002480040000000000B1FAF5
:5C1A3C000000000006000000000000000000003000000000000000000000000000000600000000000000000000700000000000040300001C0000200200C00018100B0000008001300006C000380007E0101C80010000068001000000E00191F638
:5C1A9800000000000000000000000000000000000000000000000000000000000000000000000000000000000000010000000000000000000000010000000810020000000000002000000002000000400000000002000000020000008000D2FE20
:5C1AF4000000008011000000000000000000004801000000000000000000000000002900000000000000000000480000000000D08300000060024C2000300036C007010000600B2C9021300146C00898010F4800008000B401000000980031F097
:5C1B500000000000140000000000000000000004010000000000000000000000008020000000000000000000008400000000000400000000808100000000001000830000000041000000C008000000800000208000800000000000002080F1FB2F
:5C1BAC00020000000F000000000000000000007800000000000000000000000000000F000000000000000000007800000000808004020000C003080800E0031490030000004003C8004FE0009C8013100092C001000001A840000000D00081F173
:5C1C0800000000000200000000000000000000040000000000000000000000000080000000000000000000000004100000000000100000000000000000C0001010030400008001800006C4003800074000002004008000C000010000002090FF91
:5C1C640000000000000400000000000000000034080000000000000000000000008006010000000000000000003400000000002007000000800900000000091000030000000043700000C00000000060403C2002008000C001000000800070F1CA
:5C1CC000000000000601000000000000000000002000000000000000000000000000000400000000000000000000200000000000030000000000300000C0001000030000000001010006C00018000360000C800101000600000000004000A0FFC1
:5C1D1C000200000006000000000000000000007000000000000000000000000000000E0000000000000000000070000000008001030000008001300000C0002801030000000001400406C00018000360010C80030000068002000000C00121F5DF
:5C1D7800020000000002000000000000000000800000000000000000000000000000000000000000000000000000000000000001080000080020000000000280000000000000800010100004000000400008040000002040100000000001F0F691
:5C1DD400040000800F000000000000000000004C000000000000000000000000008019000000000000000000007C4000000080800400009B60004C20003001368010000000E0003C8009300166C00CF8011B0000000009B001000000980070F946
:5C1E3000020000004400000000000000000000A00000000000000000000000000000140000000000000000000020001000000040000000080010000000804010440000000000023000048400100002C00008000000800080010000000000E0F655
:5C1E8C00020000000B00000000000000000000380000000000000000000000000000070000000000000000000058105000000082000000024102080800E001348000000000400338200FE0009D8013D000020100000001A001000000B00140FF6B
:5C1EE8000200000014000000000000000000001000000000000000000000000000000200000000000000000000A000010000004803000008004000000040001840030000000000300802402008000140000800000080068000000000200811FA83
:5C1F4400000000000A00000000000000000000002000000000000000000000000000000400000000000000000010001000008040030000080202000200008130440300000000037100000401001000C24008020000800680080000000000F0FB9C
:5C1FA000000000000004000000000000000000300200000000000000000000000000460000000000000000000000044100000002030200480000004000C0201000030000000000310046C000180183400808000000000684040000002080A0F6BB
:5C1FFC00000000000E000000000000000000007000000000000000000000000000000E00000000000000000000300004000000000700001C8001200000C001300103010000000130000EC02138000360004C000000000E8001000000200050F019
:5C2058000200000000000000000000000000000008000000000000000000000000000800000000000000000000002040000000000200000C0204000000000000021000000000816000000000200000000208000500000482000000800000A1FBE2
:5C20B4000000000029000000000000000000007C000000000000000000000000008001000000000000000000000C0005000080C28200000F60006C01003021268000000000E0016C800F320426C020D8000B680000800DB08100C000984071F3E5
:5C2110000000008020000000000000000000002000000000000000000000000000008000000000000000000000800041000000000200000C808160000000010040000000008001210404C000000020001008000000000480000000000008C2F0E2
:5C216C00000000000F000000000000000000005804000000000000000000000000000F00000000000000000000280045000080A04000000E4002280000E000049000000000C00168004BE0001DA007F000024108000019A020008000F00001FC4B
:5C21C800000000800002000000000000000000A00000000000000000000000000000100000000000000000000020001100008000020000000000300800C0000050030000008001200004C40000000020040800010000048000000003604041F29B
:5C2224000200008006000000000000000000001000000000000000000000000000000600000000000000000000402001000000000604000080026200000001014003000000801340100AC00098001360000802000200048108000003000041F7A0
:5C228000000000000000000000000000000000000400000000000000000000000000060000000000000000000020404100000000020000008001200000C0000000030200008001200080C000180003000048800100000480040000036000C0F48B
:5C22DC000000000006020000000000000000003000000000000000000000000000000600000000000000000000200001000000000B0000008010200200C0003001070000008041700406C000180003E0100C000600002E4001000003600090FE1A
:5C23380000000000000200000000000000000000080000000000000000000000000008000000000000000000000000410000000000000008080840000000040001020000880020000020000020000000022000040000100000000000000010F871
:5C2394000200008009000000000000000000004C000000000000000000000000008007000000000000000000004C4044000000801400000B60024C000020012EC00701001F6002BC800930013FC02310000260000080013041000000100121F7B5
:5C23F000020000004000000000000000000000000000000000000000000000000000840000000000000000000000000000000040000000080081104000102020008300000C0000304000020010002208000102000000000004000000080210FB0B
:5C244C00040000000F000000000000000000007804000000000000000000000000000B000000000000000000007810000000008024000002C103680000200034800300009E400039000F20000DA005F0020240000000016001000000F00010F7E4
:5C24A800020000001000000000000000000000800000000000000000000000000000140000000000000000000080000000000040000000088080002000100000000304000C000030000E000010000208200180010000064010000000080040FD92
:5C250400020000000E00000000000000000000300000000000000000000000000000020000000000000000000030000000000040000000080200400000100030100300000C1000700800000088001168000180010000060000000000681010FF88
:5C256000020000000600000000000000000000300000000000000000000000000000800000000000000000000030000000000000030200088001200000C00000000301001C8001300006C00000024000000C88010000064000010000004011FEC5
:5C25BC000000000006000000000000000000003000000000000000000000000000000600000000000000000000300000000000000700004C8001210800C04110100700001C8001300006C00018000360201C80010000064000000000E00050FEF3
:5C26180000000000020000000000000000000010000000000000000000000000000002000000000000000000001000000000000001000004000000000040000000010000000000100000000008000120000480000000024000000000200070F776
:5C26740000000000000000000000000000000000000000000000000000000000000000000000000000000000000000000000000000000000000000000000000000000000000000000000000000000000000000000000000000000000000010FFFB
:5C26D00080001000004000080001200004800000000240000800012000048000100000400008000120000480000000000000000000200000800010000200000800002000048000080002400000000000000040001000010000080001000080FCC7
:5C272C00800010000240000800012000048000100002400008000120000480001000024000080001200004800010000000000000012000048000100002400008000120000480001000024000080001200004800010000240000800012000A0FD09
:5C278800000000001080010000000000000000042000000000000000000000000000100400000000000000A00000200000000080100000182030400100100020410001002800000180008249B00200000B00008000002102000040090000C0F4F0
:5C27E400000000000001000000800000000040000000000000000200000000000000000000000000000000000000000000000040001000000000048000000000000000000000000000000000008000000000000000000000000000000000D0F8BA
:5C28400000000000000000000000000000000000080000000000000000000000000000010000000000000000000088120490040000000500040000004800000200020000000082400000000000000080000000084000002000000002000060F1AF
:5C289C0000000000000100000080000000004000000000000000020000000000000000000000000000000000000000000000000000002080002000000140000000000000100400000000000002500000000000000000000000A20800080270FF93
:5C28F8000000000010000100000000000000000420000000000000000000000000001004000000000000002000002009024802C0101025902410448149100022414101003404825180000249A2D000A0030400884000232200A248080802E0F151
:5C29540000000000000000000000000000000000000000000000000000000000000000000000000000000000000000000000000000000000000000000000000000000000000000000000000000000000000000000000000000000000000010FF18
:5C29B00000000000000000000000000000000000000000000000000000000000000000000000000000000000000000000000000000000000000000000000000000000000000000000000000000000000000000000000000000000000000010FFBC
:5C2A0C0000000000000000000000000000000000000000000000000000000000000000000000000000000000000000000000000002000008008000100000010000020000000000001000004000000000200800000000000240000000002060FA9D
:5C2A68000A0000000000000000000000000000000000000000000000000000000000000000000000000000000000000000000000000000000001000000000000040000000000400000000000000000000000000000000000000000000000A0F132
:5C2AC400000000000000000000000000000000000000000000000000000000000080000000000000000000000000004200001580000000000000000000000202000000000020000000000000000000080000000000000010000000000810E0FD2E
:5C2B2000000000008000000000000000000000000000000000000000000000000000000000000000000000000000000800000000000000000050000200000400004000000000000002800008000000400040010000000000000000000000A0FD93
:5C2B7C0000000000000000000000000000000000000000000000000000000000000000000000000000000000000000000000000000000000000000000010000000000000000000000000100000000000000000000080000000000000000090FECF
:5C2BD80000000000000000000000000000000000000000000000000000000000000000000000000000000000000000000000000000000000400000000000000000000000000000000000000000000000000000000000000000000000000050FB16
:5C2C3400000000000002000000000000000000001000000000000000000000000000000200000000000000000000100000000000000000000000000000005000000000000008000000000200001800010000000000000000000000000000E0F3DA
:5C2C9000000000000000000000000000000000000000000000000000000000000000000000000000000000000000000000000000800000000000000000000000008000000100000080000000000000000000020000000001000000008000A0F450
:5C2CEC0000000000000000000000000000000000000000000000000000000000000000000000000000000000000000080000000000000000000002080000000000000000000000000080000000000000000000000000000020000000000090FD4D
:5C2D4800000000000000000000000000000000800000000000000000000000000000000000000000000000000000000000000000000000000004010000000024000000000000020000008030000000000000000000008000000000100000B0FD97
:5C2DA40000000000420000000000000000000000000000000000000000000000000000000000000000000000000000000000000000000000000000000000000000200000000000000000000000000000040000000000400000000000000030FB02
:5C2E000000000000000000000000000000000000090000000000000000000000000000010000000000000000000008000000000000000000000000000000000000000000000000000000000000048000000000400000000020000000001078FEFA
:5C2E5C0000000000000000000000000000000000000000000000000000000000000000000000000000000000000000000000000000000002000000000000000400000000004000000000000000000000000000000000000000000000000070F96B
:5C2EB80000000000000000000000000000000000000000000000000000000000000000000000000000000000000010000000000000000000002000000000100000000000000000000000000000000000000000000000000000000000000010FC72
:5C2F14000A0000000000000000000000000000000000000000000000000000000000000000000000000000000000000000000000000400400015000200000000051000000000500002000028000001001040000000002000180000000004E0FB05
:5C2F700000000000000000000000000000000000000000000000000000000000000000000000000000000000000000000080000000000000000004400040000201000000002010440000100000000008400000000000001000010000088060F148
:5C2FCC0000000000000000000000000000000000000000000000000000000000000000080000000000000000000004000000000000000000000000000000000000000000000000000000000000000000000000000000000000000000000050F35A
:5C30280000000000000400000000000000000000200000000000000000000000000000040000000000000000000020000000000000000000040000000000800008000000000080000000000000100002000000000000000080000000004042F8EC
:5C30840000000000000000000000000000000040010000000000000000000000000020000000000000000000000000000000000000000000000000000000000000000000000000000000000000000000000000000000000000000000000250FE3F
:5C30E00000000000400000000000000000000000000000000000000000000000000008000000000000000000000002000000000000000000000000000000000000000000000000000000000002012000040000100000000008000000000040FDCE
:5C313C0000000000000000000000000000000000000000000000000000000000000000000000000000000000000000040004000000000000000000000000000000040000000000000000000000000000000000000000000000000000000050FBE0
:5C31980000000000000000000000000000000000000000000000000000000000000000000000000000000000000000000000000000000000000000000000000000000000000000200000000000000800000000000000000000000000000C70FD3A
:5C31F400000000800000000000000000000000040000000000000000000000000000000000000000000000000014000000000000000000000000000400000000084000000000800080000080024000000000040000000000000000000000F0F0F5
:5C325000000000000002000000000000000000001000000000000000000000000000000A0000000000000000000000000000000000000000000000000000400000000000000000000000420000080021000000000000010001000000002000FD3C
:5C32AC0000000000000000000000000000000000000000000000000000000000000000000000000000000000000000000000000000000000000000000000000000000000000000000000000000000000000000000000000000000000000010FFB7
:5C33080000000000000000000000000000000000000000000000000000000000000000000000000000000000000000000000000000000000000000000000000000000000000000000000000000000000000000000000000000000000000010FF5A
:5C33640000000000000000000000000000000000000000000000000000000000000000000000000000000000000000000000000000000000000000000000000000000000000000000000000000000000000000000000000000000000000010FFFE
:5C33C00000000000000000000000000000000000000000000000000000000000000000000000000000000000000000400400000000000000000000000000000000000000000000000000000000000000000000000000000000000000000010FB62
:5C341C0000000000000000000000000000000000000000000000000000000000000000000000000000000000000000000000000000000000000000000000000000000000000000000000000000000000000000000000000000000000000010FF45
:5C34780000000000000000000000000000000000000000000000000000000000000000000000000000000000000000000000000000000000000000000000000000000000000000000000000000000000000000000000000000000000000010FFE9
:5C34D40000000000000000000000000000000000000000000000000000000000000000000000000000000000000000000000000000000000000000000000000000000000000000000000000000000000000000000000000000000000000032FD6D
:5C35300000000000000000000000000000000000000000000000000000000000000000000000000000000000000000000000000000000000000000000000000000000000000000000000000000000000000000000000000000000000000010FF30
:5C358C0000000000000000000000000000000000000000000000000000000000000000000000000000000000000000000000000000000000000000000000000400000000000000000000000000000000000000000000000000000000000050FF90
:5C35E80000000000000000000000000000000000000000000000000000000000000000000000000000000000000000000000000000000000000000000000000000000000000000000000000000000000000000000000000000000000000010FF78
:5C36440000000000000000000000000000000000000000000000000000000000000000000000000000000000000000000000000000000000000000000000000000000000000000000000000000000000000000000000000000000000000010FF1B
:5C36A00000000000000000000000000000000000000000000000000000000000000000000000000000000000000000000000000000000000000000000000000000000000000000000000000000000000000000000000000000000000000010FFBF
:5C36FC0000000000000000000000000000000000000000000000000000000000000000000000000000000000000000000000000000000000000000000000000000000000000000000000000000000000000000000000000000000000000098F7E3
:5C37580000000000000000000000000000000000000000000000000000000000000000000000000000000000000000000000000000000000000000000000000000000000000000000000000000000000000000000000000000000000000010FF06
:5C37B40000000000000000000000000000000000000000000000000000000000000000000000000000000000000000000000000000000000000000000000000000000000000000000000000000000000000000000000000000000000000010FFAA
:5C38100000000000000000000000000000000000000000000000000000000000000000000000000000000000000000000000000000000000000000000000000000000000000000000000000000000000000000000000000000000000000010FF4D
:5C386C0000000000000000000000000000000000000000000000000000000000000000000000000000000000000000000000000000000000000000000000000000000000000000000000000000000000000000000000000000000000000010FFF1
:5C38C80000000000000000000000000000000000000000000000000000000000000000000000000000000000000000000000000000000000000000000000000000000000000000000000000000000000000000000000000000000000000010FF95
:5C39240000000000000000000000000000000000000000000000000000000000000000000000000000000000000000000000000000000000000000000000000000000000000000000000000000000000000000000000000000000000000010FF38
:5C39800000000000000000000000000000000000000000000000000000000000000000000000000000000000000000000000000000000000000000000000000000000000000000000000000000000000000000000000000000000000000010FFDC
:5C39DC0000000000000000000000000000000000000000000000000000000000000000000000000000000000000000000000000000000000000000000000000000000000000000000000000000000000000000000000000000000000000010FF80
:5C3A380000000000000000000000000000000000000000000000000000000000000000000000000000000000000000200000080000000000000000000000000000000000000000000000000000000000000000000000000000000000000030F5E5
:5C3A940000000000000000000000000000000000000000000000000000000000000000000000000000000000000000000000000000000000000000000000000000000000000000000000000000000000000000000000000000000000000010FFC7
:5C3AF00000000000000000000000000000000000000000000000000000000000000000000000000000000000000000000000000000000000000000000000000000000000000000000000000000000000000000000000000000000000000010FF6B
:5C3B4C0000000000000000000000000000000000000000000000000000000000000000000000000000000000000000000000000000000000000000000000000000000000000000000000000000000000000000000000000000000000000098F78E
:5C3BA80000000000000000000000000000000000000000000000000000000000000000000000000000000000000000000000000000000040000000000000000000000000000000000000000000000000000000000000000000000000000050FF32
:5C3C040000000000000000000000000000000000000000000000000000000000000000000000000000000000000080A00020040000000001000000000000002008000100000000001100000000000000000000000080000000000000000000FB6A
:5C3C600000000000008000000000000000000020000000000000000000000000000000000000000000000000000000000000000000000000000000000000000000000100000000000100000000000000000000000000000000000000000030F73F
:5C3CBC00000000000000000000000000000000000000000000000000000000000000000000000000000000000000004000000200000000000000000000000000000000000000000000000000000000000000000000800000000000000000D0F921
:5C3D180000000000008000000000000000000020000000000000000000000000000000000000000000000000000000000000000000000000000000000000000000000000000000000000000000000000000000000000000000000000000030F788
:5C3D740000000000000000000000000000000000000000000000000000000000000000000000000000000000000080040000800800000001000000000000002008000000000000001000000000000000000000000000000000000000000000F9B5
:5C3DD00002000000000000000000000000000000000000000000000000000000000000000000000000000000000080200000000000000000000000000000000000000000000000000000000000000000000000000000000000000000000081FE76
:5C3E2C0000000000000000000000000000000000000000000000000000000000000000000000000000000000000000000000001000000000000000000000000000000000000000000000000000000000000000000000000000000000000001FF2A
:5C3E880080001000024000080001200004800010000240000800012000048000100002400008000120000480001000090000000801200004800010000240000800012000048000100002400008000120000480001000024000080001200002F62A
:5C3EE400800010000240000800012000048000100002400008000120000480001000024000080001200004800010000000000000012000048000100002400008000120000480001000024000080001200004800010000240000800012000B1FC2A
:5C3F400000000000000000000000000000000000000000000000000000000000000000000000000000000000000000000000000800000000000000000000004000000000000000800000000000000000000000000000000000000000000001F26A
:5C3F9C0002000000000000000000000000000000000000000000000000000000000000000000000000000000000000000000000000000000000000000000000400000000000000480000000000000000000000000000000000000000000021F06A
:5C3FF800000000000000000000000000000000000000000000000000000000000000000000000000000000000000000D0000000000000000000000000000000204000000000000040000000000000000000000000000000000000000000070F2F4
:5C405400020000000000000000000000000000000000000000000000000000000000000000000000000000000000800400000000000000000000000000000004000000000000000800000000000000000000000000000000000000000000E1F0AD
:5C40B00000000000000000000000000000000000000000000000000000000000000000000000000000000000000000000000000000000000000000000000000200000000000000340000000000000000000000000000000000000000000000F886
:5C410C0000000000000000000000000000000000000000000000000000000000000000000000000000000000000080030000000000000000000000000000000200000000000000340000000000000000000000000000000000000000000080FB23
:5C416800000000000000000000000000000000000000000000000000000000000000000000000000000000000000004000000002000000000000000000000018000000000000003000000000000000000000000000000000000000000000C0F9B8
:5C41C400000000000000000000000000000000000000000000000000000000000000000000000000000000000000000000008000000000000000000000000038080000000000007010000000000000000000000000000000000000000000E0FA85
:5C422000020000000000000000000000000000000000000000000000000000000000000000000000000000000000800000000000000000080000000000000000080000000000000000000000000000000000000000000000000000000000A1FC13
:5C427C000000000000000000000000000000000000000000000000000000000000000000000000000000000000000001000000030000008B000000000000003E000000000000000000000000000000000000000000000000000000000000F0F633
:5C42D80000000000000000000000000000000000000000000000000000000000000000000000000000000000000000000000800200000008010000000000000000000000000000000000000000000000000000000000000000000000000030FED1
:5C433400000000000000000000000000000000000000000000000000000000000000000000000000000000000000000000008000000000020000000000000024010000000000000000000000000000000000000000000000000000000000E0F6B0
:5C439000020000000000000000000000000000000000000000000000000000000000000000000000000000000000000000000000000000080000000000000040000000000000000000000000000000000000000000000000000000000000A1F0F6
:5C43EC0000000000000000000000000000000000000000000000000000000000000000000000000000000000000000000000000000000008020000000000003800000000000000000000000000000000000000000000000000000000000001F73B
:5C44480000000000000000000000000000000000000000000000000000000000000000000000000000000000000000000000000000000008000000000000001800000000000000000000000000000000000000000000000000000000000032F4D2
:5C44A4000000000000000000000000000000000000000000000000000000000000000000000000000000000000000000000000000000003C000000000000001800000000000000000000000000000000000000000000000000000000000071F304
:5C45000000000000000000000000000000000000000000000000000000000000000000000000000000000000000000000000000000000008000000000000000000000000000000000000000000000000000000000000000000000000000081F6E0
:5C455C000200000000000000000000000000000000000000000000000000000000000000000000000000000000000000000000000000000B0100000000000084000000000000000000000000000000000000000000000000000000000000D1FEA2
:5C45B800000000000000000000000000000000000000000000000000000000000000000000000000000000000000000000000000000000080100000000000002040000000000000000000000000000000000000000000000000000000000F0F2B6
:5C46140000000000000000000000000000000000000000000000000000000000000000000000000000000000000000000000000000000002000000000000000400000000000000000000000000000000000000000000000000000000000070FDD7
:5C467000000000000000000000000000000000000000000000000000000000000000000000000000000000000000000000000000000000080000000000000002000000000000000000000000000000000000000000000000000000000000B0F73D
:5C46CC0002000000000000000000000000000000000000000000000000000000000000000000000000000000000000000000000100000008020000000000000200000000000000000000000000000000000000000000000000000000000091F6FC
:5C472800000000000000000000000000000000000000000000000000000000000000000000000000000000000000000000000008000000280000000000000018000000000000000000000000000000000000000000000000000000000000B0F647
:5C478400000000000000000000000000000000000000000000000000000000000000000000000000000000000000800C000000000000001C000000000000003808000000000000000000000000000000000000000000000000000000000040F4BD
:5C47E000000000000000000000000000000000000000000000000000000000000000000000000000000000000000800C00000000000000200000000000000000100000000000000000000000000000000000000000000000000000000000A0F32E
:5C483C0000000000000000000000000000000000000000000000000000000000000000000000000000000000000000040000000800000002000000000000003E00000000000000000000000000000000000000000000000000000000000050FA8A
:5C48980002000000000000000000000000000000000000000000000000000000000000000000000000000000000000000000000000000001000000000000000000000000000000000000000000000000000000000000000000000000000031FD93
:5C48F40000000000000000000000000000000000000000000000000000000000000000000000000000000000000000000000800800000002000000000000002401000000000000000000000000000000000000000000000000000000000060F663
:5C4950000000000000000000000000000000000000000000000000000000000000000000000000000000000000000000000080000000000D000000000000008000000000000000000000000000000000000000000000000000000000000040F2CC
:5C49AC000000000000000000000000000000000000000000000000000000000000000000000000000000000000000000000000000000000D000000000000001800000000000000000000000000000000000000000000000000000000000040F357
:5C4A08000200000000000000000000000000000000000000000000000000000000000000000000000000000000000000000000000000000C000000000000001800000000000000000000000000000000000000000000000000000000000061F1DA
:5C4A64000000000000000000000000000000000000000000000000000000000000000000000000000000000000000000000000040000002C000000000000001800000000000000000000000000000000000000000000000000000000000030F28C
:5C4AC000000000000000000000000000000000000000000000000000000000000000000000000000000000000000000000000000000000080000000000000000000000000000000000000000400000000000000000000000000000000000D0F78B
:5C4B1C000000000000000000000000000000000000000000000000000000000000000000000000000000000000000000000000100000001B020000000000003E02000000000000000000000026000000000000000000000000000000000030F08A
:5C4B7800000000000000000000000000000000000000000000000000000000000000000000000000000000000000000000000004000000080100000000000000000000000000000000000000000000000000000000000000000000000000D0F60E
:5C4BD40002000000000000000000000000000000000000000000000000000000000000000000000000000000000000000000800000000002000000000000002401000000000000000000000004000000000000000000000000000000000091F156
:5C4C300000000000000000000000000000000000000000000000000000000000000000000000000000000000000000000000001000000008000000000000008000000000000000000000000018000000000000000000000000000000000000F682
:5C4C8C0000000000000000000000000000000000000000000000000000000000000000000000000000000000000000000000800000000008020000000000003800000000000000000000000018000000000000000000000000000000000000F6FC
:5C4CE80000000000000000000000000000000000000000000000000000000000000000000000000000000000000000000000000000000008000000000000001800000000000000000000000018000000000000000000000000000000000080FEBA
:5C4D44000200000000000000000000000000000000000000000000000000000000000000000000000000000000000000000080040000004C000000000000001800000000000000000000000018000000000000000000000000000000000071F1AF
:5C4DA0000200000000000000000000000000000000000000000000000000000000000000000000000000000000000000000000200000000C0200000000000000000000000000002020000000000000000000000000000000000000000000D0F186
:5C4DFC000400000000000000000000000000000000000000000000000000000000000000000000000000000000000000000000000000000F0000000000000064000000000000006C0000000000000000000000000000000000000000000080F800
:5C4E5800020000000000000000000000000000000000000000000000000000000000000000000000000000000000001B000000000000000C0000000000000002040000000000002000000000000000000000000000000000000000000000A0FD12
:5C4EB4000200000000000000000000000000000000000000000000000000000000000000000000000000000000000000000080010000000E000000000000000400000000000000080400000000000000000000000000000000000000000040F3CE
:5C4F1000020000000000000000000000000000000000000000000000000000000000000000000000000000000000800100000000000000000000000000000002000000000000002000000000000000000000000000000000000000000000A1FF00
:5C4F6C0000000000000000000000000000000000000000000000000000000000000000000000000000000000000000080000002000000000000000000000000200000000000000200800000000000000000000000000000000000000000090F710
:5C4FC80000000000000000000000000000000000000000000000000000000000000000000000000000000000000080010000000000000000000000000000001800000000000000200000000000000000000000000000000000000000000030FDA7
:5C50240000000000000000000000000000000000000000000000000000000000000000000000000000000000000080010000800200000000000000000000003808000000000000F000000000000000000000000000000000000000000000C0F24B
:5C50800002000000000000000000000000000000000000000000000000000000000000000000000000000000000000000000000400000040000000000000000000000000000000201000000018000000000000000000000000000000000091F7BE
:5C50DC000000000000000000000000000000000000000000000000000000000000000000000000000000000000008004000000000000000200000000000000A4000000000000002C000000001A000000000000000000000000000000000071F6A1
:5C5138000000000000000000000000000000000000000000000000000000000000000000000000000000000000008002000000000000000100000000000000020400000000000020040000001A000000000000000000000000000000000012F250
:5C5194000000000000000000000000000000000000000000000000000000000000000000000000000000000000000000000080100000000200000000000000040000000000000008000000001C000000000000000000000000000000000031F1E3
:5C51F0000000000000000000000000000000000000000000000000000000000000000000000000000000000000000019000080000000000D00000000000000020000000000000020000000001A0000000000000000000000000000000000F1FB95
:5C524C000200000000000000000000000000000000000000000000000000000000000000000000000000000000008002000000000000000D00000000000000020000000000000020080000001A000000000000000000000000000000000041FBF5
:5C52A8000000000000000000000000000000000000000000000000000000000000000000000000000000000000008002000000000000000C000000000000001800000000000000200100000018000000000000000000000000000000000070FA61
:5C5304000000000000000000000000000000000000000000000000000000000000000000000000000000000000008000000000000000002C000000000000003808000000000000700000000018000000000000000000000000000000000090F752
:5C536000000000000000000000000000000000000000000000000000000000000000000000000000000000000000800100000000000000000000000000000000000000000000000000000000400000000000000000000000000000000000D0FE62
:5C53BC0002000000000000000000000000000000000000000000000000000000000000000000000000000000000000000000000000000052000000000000001E02000000000000880000000026000000000000000000000000000000000051FB27
:5C54180000000000000000000000000000000000000000000000000000000000000000000000000000000000000000000000000000000001000000000000000000000000000000040000000000000000000000000000000000000000000000FA39
:5C54740000000000000000000000000000000000000000000000000000000000000000000000000000000000000000000000000000000002000000000000002401000000000000080000000004000000000000000000000000000000000020F297
:5C54D0000000000000000000000000000000000000000000000000000000000000000000000000000000000000000000000000000000000D000000000000000000000000000000340000000018000000000000000000000000000000000060FDCA
:5C552C000000000000000000000000000000000000000000000000000000000000000000000000000000000000000000000000000000000D0000000000000058000000000000003400000000180000000000000000000000000000000000E0F89A
:5C5588000200000000000000000000000000000000000000000000000000000000000000000000000000000000000000000000000000000C0000000000000018000000000000003000000000180000000000000000000000000000000000C1FA9E
:5C55E4000000000000000000000000000000000000000000000000000000000000000000000000000000000000000000000000000000002C000000000000001800000000000000701000000018000000000000000000000000000000000090FC03
:5C56400000000000000000000000000000000000000000000000000000000000000000000000000000000000000000000000000000000004000000000000000800000000000000100000000008000000000000000000000000000000000040F2B8
:5C569C0000000000000000000000000000000000000000000000000000000000000000000000000000000000000000000000000000000000000000000000000000000000000000000000000000000000000000000000000000000000000010FFA3
:5C56F800800010000240000800012000048000100002400008000120000480001000024000080001200004800010000000000000012000008000100002400000000120000480000000024000040001200004800010000240000800012000B0F427
:5C575400800010000240000800012000048000100002400008000120000480001000024000080001200004800010000000000000012000048000100002400008000120000480001000024000080001200004800010000240000800012000A0FDB1
:5C57B00000000000000000000000000000000000000000000000000000000000000000000000000000000000000000000000000000000050000300000000002001000000000000040000000002000000000000000000000000000000000040FAE9
:5C580C0000000000000000000000000000000000000000000000000000000000000000000000000000000000000000000000004000000000000004000000000000000000000000000000000000040000000000000000000000000000000050FBAD
:5C58680000000000000000000000000000000000000000000000000000000000000000000000000000000000000000040104090000000000040800000010000200000800000080400000000000000000000000084800000000000000000030FA72
:5C58C40000000000000000000000000000000000000000000000000000000000000000000000000000000000000000000000000000000000000008000000000000140000000400000000000000400008000000000000010000000004080040F3E0
:5C59200000000000000000000000000000000000000000000000000000000000000000000000000000000000000000000000004000000050050A0C00001000220114080000048044000000000A4400080000000848000100000000040800B0F70F
:5C597C0000000000000000000000000000000000000000000000000000000000000000000000000000000000000000000000000000000000000000000000000000000000000000000000000000000000000000000000000000000000000010FFC0
:5C59D80000000000000000000000000000000000000000000000000000000000000000000000000000000000000000000000000000000000000000000000000000000000000000000000000000000000000000000000000000000000000010FF64
:5C5A340000000000000000000000000000000000000000000000000000000000000000000000000000000000000000000000000000000000000000000000000000000000000000200000000000000000000000000000000000000000000030FDC9
:5C5A9000080000000000000000000000000000000000000000000000000000000000000000000000000000000000000000000000000000000000000000000000000000000000000000000000000000000000000000000000000000000000B2F50B
:5C5AEC00000000000000000000000000000000000000000000000000000000000000000000000000000000000000004200001D0000000020000000000000000000000000000000000000000000000000000000000000000000000000000060F58A
:5C5B480000000000000000000000000000000000000000000000000000000000000000000000000000000000000000080000000000000000000000000000008000000000000000000200000000000000000000000000000000000000000030FF48
:5C5BA4000000000000000000000000000000000000000000000000000000000000000000000000000000000000000000000000000000000C0000000000000010000000000000000000000000000000000000000000000000000000000000D0F2C7
:5C5C000000000000000000000000000000000000000000000000000000000000000000000000000000000000000000000000000000000000000000000000000000000000000000000000000000000000000000000000000000000000000010FF39
:5C5C5C0000000000000000000000000000000000000000000000000000000000000000000000000000000000000000000000000000000000000000000000000000000000000000000000000000000000000000000000000000000000000010FFDD
:5C5CB80000000000000000000000000000000000000000000000000000000000000000000000000000000000000000000000000000000000000000000000000000000000000000000000000000000000000000000000000000000000000010FF81
:5C5D140000000000000000000000000000000000000000000000000000000000000000000000000000000000000000010000000000000000000000000000000002000000000000000000000000000000000000000000000000000000000030FC04
:5C5D7000000000000000000000000000000000000000000000000000000000000000000000000000000000000000000000000000000000000000000000000000060000000000000008000000000000000000000000000000000000000000F0F9E0
:5C5DCC0000000000000000000000000000000000000000000000000000000000000000000000000000000000000000000000000000000000000000000000000000000000000000000000000000000000000000000000000000000000000032FD4C
:5C5E280000000000000000000000000000000000000000000000000000000000000000000000000000000000000000000000000000000000000000000000000000000000000000000000000000000000000000000000000000000000000010FF0F
:5C5E840000000000000000000000000000000000000000000000000000000000000000000000000000000000000000000000000000000000000000000000000000000000000000000000000000000000000000000000000000000000000010FFB3
:5C5EE00000000000000000000000000000000000000000000000000000000000000000000000000000000000000000000000000000000000000000000000000000000000000000000000000000000000000000000000000000000000000010FF57
:5C5F3C0000000000000000000000000000000000000000000000000000000000000000000000000000000000000000000040000000000040000000000000000000000000000000000100000000000000000000000000000000000000000000FF89
:5C5F980000000000000000000000000000000000000000000000000000000000000000000000000000000000000000000080000000000000000000000000000000000000000000000000000000000000000000000000000000000000000090FF9E
:5C5FF40000000000000000000000000000000000000000000000000000000000000000000000000000000000000000000000000000000000000000000000000000000000000000000000000000000000000000000000000000000000000010FF42
:5C60500008000000000000000000000000000000000000000000000000000000000000000000000000000000000000000000000000000000000000000000000000000000000000000000000000000000000000000000000000000000000090F765
:5C60AC0000000000000000000000000000000000000000000000000000000000000000000000000000000000000000000000000000000000000000000000000000000000000000000000000000000000000000000000000000000000000010FF89
:5C61080000000000000000000000000000000000000000000000000000000000000000000000000000000000000000000000000000000000000000000000000000000000000000000000000000000000000000000000000000000000000010FF2C
:5C616400000000000000000000000000000000000000000000000000000000000000000000000000000000000000000000842000000000000000000000000020000000000000000004000000000000000000000000000000000000000000B0FB6C
:5C61C000000000000000000000000000000000000000000000000000000000000000000000000000000000000000000000000000000000080000000000000000000000000000002000000000000000000000000000000000000000000000B0F5B6
:5C621C0000000000000000000000000000000000000000000000000000000000000000000000000000000000000000000000000000000000000000000000000000000000000000000000000000000000000000000000000000000000000010FF17
:5C62780000000000000000000000000000000000000000000000000000000000000000000000000000000000000000000000000000000000000000000000000000000000000000000000000000000000000000000000000000000000000010FFBB
:5C62D40000000000000000000000000000000000000000000000000000000000000000000000000000000000000000000000000000000000000000000000000000000000000000000000000000000000000000000000000000000000000010FF5F
:5C63300000000000000000000000000000000000000000000000000000000000000000000000000000000000000000000000000000000000000000000000000000000000000000000000000000000000000000000000000000000000000010FF02
:5C638C0000000000000000000000000000000000000000000000000000000000000000000000000000000000000000000000000000000000000000000000000000000000000000000000000000000000000000000000000000000000000010FFA6
:5C63E80000000000000000000000000000000000000000000000000000000000000000000000000000000000000000000000000000000000000000000000000000000000000000000000000000000000000000000000000000000000000010FF4A
:5C64440000000000000000000000000000000000000000000000000000000000000000000000000000000000000000000000000000000000000000000000000000000000000000000000000000000000000000000000000000000000000010FFED
:5C64A00000000000000000000000000000000000000000000000000000000000000000000000000000000000000000000000000000000000000000000000000000000000000000000000000000000000000000000000000000000000000010FF91
:5C64FC0000000000000000000000000000000000000000000000000000000000000000000000000000000000000000000000000000000000000000000000000000000000000000000000000000000000000000000000000000000000000010FF35
:5C65580000000000000000000000000000000000000000000000000000000000000000000000000000000000000000000000000000000000000000000000000000000000000000000000000000000000000000000000000000000000000010FFD8
:5C65B40000000000000000000000000000000000000000000000000000000000000000000000000000000000000000000000000000000000000000000000000000000000000000000000000000000000000000000000000000000000000010FF7C
:5C66100000000000000000000000000000000000000000000000000000000000000000000000000000000000000000000000000000000000000000000000000000000000000000000000000000000000000000000000000000000000000010FF1F
:5C666C0000000000000000000000000000000000000000000000000000000000000000000000000000000000000000000000000000000000000000000000000000000000000000000000000000000000000000000000000000000000000010FFC3
:5C66C80000000000000000000000000000000000000000000000000000000000000000000000000000000000000000000000000000000000000000000000000000000000000000000000000000000000000000000000000000000000000010FF67
:5C67240000000000000000000000000000000000000000000000000000000000000000000000000000000000000000000000000000000000000000000000000000000000000000000000000000000000000000000000000000000000000010FF0A
:5C67800000000000000000000000000000000000000000000000000000000000000000000000000000000000000000000000000000000000000000000000000000000000000000000000000000000000000000000000000000000000000010FFAE
:5C67DC0000000000000000000000000000000000000000000000000000000000000000000000000000000000000000000000000000000000000000000000000000000000000000000000000000000000000000000000000000000000000010FF52
:5C68380000000000000000000000000000000000000000000000000000000000000000000000000000000000000000000000000000000000000000000000000000000000000000000000000000000000000000000000000000000000000010FFF5
:5C68940000000000000000000000000000000000000000000000000000000000000000000000000000000000000000000000000000000000000000000000000000000000000000000000000000000000000000000000000000000000000010FF99
:5C68F00000000000000000000000000000000000000000000000000000000000000000000000000000000000000000000000000000000000000000000000000000000000000000000000000000000000000000000000000000000000000010FF3D
:5C694C0000000000000000000000000000000000000000000000000000000000000000000000000000000000000000000000000000000000000000000000000000000000000000000000000000000000000000000000000000000000000010FFE0
:5C69A80000000000000000000000000000000000000000000000000000000000000000000000000000000000000000000000000000000000000000000000000000000000000000000000000000000000000000000000000000000000000010FF84
:5C6A040000000000000000000000000000000000000000000000000000000000000000000000000000000000000000000000000000000000000000000000000000000000000000000000000000000000000000000000000000000000000010FF27
:5C6A600000000000000000000000000000000000000000000000000000000000000000000000000000000000000000000000000000000000000000000000000000000000000000000000000000000000000000000000000000000000000010FFCB
:5C6ABC0000000000000000000000000000000000000000000000000000000000000000000000000000000000000000000000000000000000000000000000000000000000000000000000000000000000000000000000000000000000000010FF6F
:5C6B180000000000000000000000000000000000000000000000000000000000000000000000000000000000000000000000000000000000000000000000000000000000000000000000000000000000000000000000000000000000000010FF12
:5C6B740000000000000000000000000000000000000000000000000000000000000000000000000000000000000000000000000000000000000000000000000000000000000000000000000000000000000000000000000000000000000010FFB6
:5C6BD00000000000000000000000000000000000000000000000000000000000000000000000000000000000000000000000000000000000000000000000000000000000000000000000000000000000000000000000000000000000000010FF5A
:5C6C2C0000000000000000000000000000000000000000000000000000000000000000000000000000000000000000000000000000000000000000000000000000000000000000000000000000000000000000000000000000000000000010FFFD
:5C6C880000000000000000000000000000000000000000000000000000000000000000000000000000000000000000000000000000000000000000000000000000000000000000000000000000000000000000000000000000000000000010FFA1
:5C6CE40000000000000000000000000000000000000000000000000000000000000000000000000000000000000000000000000000000000000000000000000000000000000000000000000000000000000000000000000000000000000010FF45
:5C6D400000000000000000000000000000000000000000000000000000000000000000000000000000000000000000000000000000000000000000000000000000000000000000000000000000000000000000000000000000000000000010FFE8
:5C6D9C0000000000000000000000000000000000000000000000000000000000000000000000000000000000000000000000000000000000000000000000000000000000000000000000000000000000000000000000000000000000000010FF8C
:5C6DF80002000000000000000000000000000000000000000000000000000000000000000000000000000000000000000000000000000000000000000000000000000000000000000000000000000000000000000000000000000000000021FC20
:5C6E540000000000000000000000000000000000000000000000000000000000000000000000000000000000000000000000000000000000000000000000000000000000000000000000000000000000000000000000000000000000000010FFD3
:5C6EB000800010000240000800012000048000100002400008000120000480001000024000080001200004800010000000000000012000048000100002400008000120000480001000024000080001200004800010000240000800012000A0FD3E
:5C6F0C00800010000240000800012000048000100002400008000120000480001000024000080001200004800010000000000000012000048000100002400008000120000480001000024000080001200004800010000240000800012000A0FDE1
:5C6F680000000000000000000000000000000000000000000000000000000000000000000000000000000000000000000000000000000000000000000000000000000000000000000000000000000000000000000000000000000000000010FFBE
:5C6FC40002000000000000000000000000000000000000000000000000000000000000000000000000000000000000000000000000000000000000000000000000000000000000000000000000000000000000000000000000000000000021FC52
:5C70200000000000000000000000000000000000000000000000000000000000000000000000000000000000000000000000000000000000000000000000000000000000000000000000000000000000000000000000000000000000000010FF05
:5C707C0002000000000000000000000000000000000000000000000000000000000000000000000000000000000000000000000000000000000000000000000000000000000000000000000000000000000000000000000000000000000021FC99
:5C70D80000000000000000000000000000000000000000000000000000000000000000000000000000000000000000000000000000000000000000000000000000000000000000000000000000000000000000000000000000000000000010FF4D
:5C71340000000000000000000000000000000000000000000000000000000000000000000000000000000000000000000000000000000000000000000000000000000000000000000000000000000000000000000000000000000000000010FFF0
:5C71900000000000000000000000000000000000000000000000000000000000000000000000000000000000000000000000000000000000000000000000000000000000000000000000000000000000000000000000000000000000000010FF94
:5C71EC0000000000000000000000000000000000000000000000000000000000000000000000000000000000000000000000000000000000000000000000000000000000000000000000000000000000000000000000000000000000000010FF38
:5C72480002000000000000000000000000000000000000000000000000000000000000000000000000000000000000000000000000000000000000000000000000000000000000000000000000000000000000000000000000000000000021FCCB
:5C72A40000000000000000000000000000000000000000000000000000000000000000000000000000000000000000000000000000000000000000000000000000000000000000000000000000000000000000000000000000000000000010FF7F
:5C73000000000000000000000000000000000000000000000000000000000000000000000000000000000000000000000000000000000000000000000000000000000000000000000000000000000000000000000000000000000000000010FF22
:5C735C0000000000000000000000000000000000000000000000000000000000000000000000000000000000000000000000000000000000000000000000000000000000000000000000000000000000000000000000000000000000000010FFC6
:5C73B80002000000000000000000000000000000000000000000000000000000000000000000000000000000000000000000000000000000000000000000000000000000000000000000000000000000000000000000000000000000000021FC5A
:5C74140000000000000000000000000000000000000000000000000000000000000000000000000000000000000000000000000000000000000000000000000000000000000000000000000000000000000000000000000000000000000010FF0D
:5C74700000000000000000000000000000000000000000000000000000000000000000000000000000000000000000000000000000000000000000000000000000000000000000000000000000000000000000000000000000000000000010FFB1
:5C74CC0000000000000000000000000000000000000000000000000000000000000000000000000000000000000000000000000000000000000000000000000000000000000000000000000000000000000000000000000000000000000010FF55
