:020000040000FA
:5C000000FFFF62FF2E00FFFFFFFFFFFFFFFFFFFFFFFFFFFFFFFFFFFFFFFFFFFFFFFFFFFFFFFFFFFFFFFFFFFFFFFFFFFFFFFFFFFFFFFFFFFFFFFFFFFFFFFFFFFFFFFFFFFFFFFFFFFFFFFFFFFFFFFFFFFFFFFFFFFFFFFFFFFFFFFFFFFFFFFFFFFF6D
:5C005C0060180C8361300C86C1301806C360580C8361300C86C1301806C360180C8361300C86C1301806C360180C0300000000C0301806C360700D8361300C86C1301806C360180C8361300C86C1301806C360180C8361300CDCC130180610FCD0
:5C00B800401008024120080481201004824038080241200804812010048240100802412008048120100482401008020000000080201004824028080241200804812010048240100802412008048120100482401008024120080A8120100490FA1A
:5C01140000000000000000000000000000000000000000000000000000000000000000000000000000000000000000000000000000000000000000000000000000000000000000000000000000000000000000000000000000000000000010FF80
:5C01700000000000000000000000000000000000000000000000000000000000000000000000000000000000000000000000000000000000000000000000000000000000000000000000000000000000000000000000000000000000000010FF24
:5C01CC0000000000000000000000000000002000000000000000000000000000000000000000000000000000000000000000000000000000000000000000000000000000000000000000000000000000000000000000000000000000000010FDAA
:5C02280000000000000000000000000000004000000000000000000000000000000000000000000000000000000000000000000000000000000000000000000000000000000000000000000000000000000000000000000000000000000010FB2F
:5C02840000000000000000000000000000000000000000000000000000000000000000000000000000000000000000000000000000000000000000000000000000000000000000000000000000000000000000000000000000000000000010FF0F
:5C02E00000000000000000000000000000000000000000000000000000000000000000000000000000000000000000000000000000000000000000000000000000000000000000000000000000000000000000000000000000000000000010FFB3
:5C033C0000000000000000000000000000000000000000000000000000000000000000000000000000000000000000000000000000000000000000000000000000000000000000000000000000000000000000000000000000000000000010FF56
:5C03980000000000000000000000000000000000000000000000000000000000000000000000000000000000000000000000000000000000000000000000000000000000000000000000000000000000000000000000000000000000000010FFFA
:5C03F40000000000000000000000000000000000000000000000000000000000000000000000000000000000000000000000000000000000000000000000000000000000000000000000000000000000000000000000000000000000000010FF9E
:5C04500000000000000000000000000000000000000000000000000000000000000000000000000000000000000000000000000000000000000000000000000000000000000000000000000000000000000000000000000000000000000010FF41
:5C04AC0000000000000000000000000000000000000000000000000000000000000000000000000000000000000000000000000000000000000000000000000000000000000000000000000000000000000000000000000000000000000010FFE5
:5C05080000000000000000000000000000000000000000000000000000000000000000000000000000000000000000000000000000000000000000000000000000000000000000000000000000000000000000000000000000000000000010FF88
:5C05640000000000000000000000000000000000000000000000000000000000000000000000000000000000000000000000000000000000000000000000000000000000000000000000000000000000000000000000000000000000000010FF2C
:5C05C00000000000000000000000000000000000000000000000000000000000000000000000000000000000000000000000000000000000000000000000000000000000000000000000000000000000000000000000000000000000000010FFD0
:5C061C0000000000000000000000000000000000000000000000000000000000000000000000000000000000000000000000000000000000000000000000000000000000000000000000000000000000000000000000000000000000000010FF73
:5C06780000000000000000000000000000000000000000000000000000000000000000000000000000000000000000000000000000000000000000000000000000000000000000000000000000000000000000000000000000000000000010FF17
:5C06D40000000000000000000000000000000000000000000000000000000000000000000000000000000000000000000000000000000000000000000000000000000000000000000000000000000000000000000000000000000000000010FFBB
:5C07300000000000000000000000000000000000000000000000000000000000000000000000000000000000000000000000000000000000000000000000000000000000000000000000000000000000000000000000000000000000000010FF5E
:5C078C0000000000000000000000000000000000000000000000000000000000000000000000000000000000000000000000000000000000000000000000000000000000000000000000000000000000000000000000000000000000000010FF02
:5C07E80000000000000000000000000000000000000000000000000000000000000000000000000000000000000000000000000000000000000000000000000000000000000000000000000000000000000000000000000000000000000010FFA6
:5C08440000000000000000000000000000000000000000000000000000000000000000000000000000000000000000000000000000000000000000000000000000000000000000000000000000000000000000000000000000000000000010FF49
:5C08A00000000000000000000000000000000000000000000000000000000000000000000000000000000000000000000000000000000000000000000000000000000000000000000000000000000000000000000000000000000000000010FFED
:5C08FC0000000000000000000000000000000000000000000000000000000000000000000000000000000000000000000000000000000000000000000000000000000000000000000000000000000000000000000000000000000000000010FF91
:5C09580000000000000000000000000000000000000000000000000000000000000000000000000000000000000000000000000000000000000000000000000000000000000000000000000000000000000000000000000000000000000010FF34
:5C09B40000000000000000000000000000000000000000000000000000000000000000000000000000000000000000000000000000000000000000000000000000000000000000000000000000000000000000000000000000000000000010FFD8
:5C0A100000000000000000000000000000000000000000000000000000000000000000000000000000000000000000000000000000000000000000000000000000000000000000000000000000000000000000000000000000000000000010FF7B
:5C0A6C0000000000000000000000000000000000000000000000000000000000000000000000000000000000000000000000000000000000000000000000000000000000000000000000000000000000000000000000000000000000000010FF1F
:5C0AC80000000000000000000000000000000000000000000000000000000000000000000000000000000000000000000000000000000000000000000000000000000000000000000000000000000000000000000000000000000000000010FFC3
:5C0B240000000000000000000000000000000000000000000000000000000000000000000000000000000000000000000000000000000000000000000000000000000000000000000000000000000000000000000000000000000000000010FF66
:5C0B800000000000000000000000000000000000000000000000000000000000000000000000000000000000000000000000000000000000000000000000000000000000000000000000000000000000000000000000000000000000000010FF0A
:5C0BDC0000000000000000000000000000000000000000000000000000000000000000000000000000000000000000000000000000000000000000000000000000000000000000000000000000000000000000000000000000000000000010FFAE
:5C0C380000000000000000000000000000000000000000000000000000000000000000000000000000000000000000000000000000000000000000000000000000000000000000000000000000000000000000000000000000000000000010FF51
:5C0C940000000000000000000000000000000000000000000000000000000000000000000000000000000000000000000000000000000000000000000000000000000000000000000000000000000000000000000000000000000000000010FFF5
:5C0CF00000000000000000000000000000000000000000000000000000000000000000000000000000000000000000000000000000000000000000000000000000000000000000000000000000000000000000000000000000000000000010FF99
:5C0D4C0000000000000000000000000000000000000000000000000000000000000000000000000000000000000000000000000000000000000000000000000000000000000000000000000000000000000000000000000000000000000010FF3C
:5C0DA80002000000000000000000000000000000000000000000000000000000000000000000000000000000000000000000000000000000000000000000000000000000000000000000000000000000000000000000000000000000000021FCD0
:5C0E040000000000000000000000000000000000000000000000000000000000000000000000000000000000000000000000000000000000000000000000000000000000000000000000000000000000000000000000000000000000000010FF83
:5C0E6000800010000240000800012000048000100002400008000120000480001000024000080001200004800010000000000000012000048000100002400008000120000480001000024000080001200004800010000240000800012000A0FDEE
:5C0EBC00800010000240000800012000048000100002400008000120000480001000024000080001200004800010000000000000012000048000100002400008000120000480001000024000080001200004800010000240000800012000A0FD92
:5C0F180000000000000000000000000000000000000000000000000000000000000000000000000000000000000000000000000000000000000000000000000000000000000000000000000000000000000000000000000000000000000010FF6E
:5C0F740002000000000000000000000000000000000000000000000000000000000000000000000000000000000000000000000000000000000000000000000000000000000000000000000000000000000000000000000000000000000021FC02
:5C0FD00000000000000000000000000000000000000000000000000000000000000000000000000000000000000000000000000000000000000000000000000000000000000000000000000000000000000000000000000000000000000010FFB6
:5C102C0002000000000000000000000000000000000000000000000000000000000000000000000000000000000000000000000000000000000000000000000000000000000000000000000000000000000000000000000000000000000021FC49
:5C10880000000000000000000000000000000000000000000000000000000000000000000000000000000000000000000000000000000000000000000000000000000000000000000000000000000000000000000000000000000000000010FFFD
:5C10E40000000000000000000000000000000000000000000000000000000000000000000000000000000000000000000000000000000000000000000000000000000000000000000000000000000000000000000000000000000000000010FFA1
:5C11400000000000000000000000000000000000000000000000000000000000000000000000000000000000000000000000000000000000000000000000000000000000000000000000000000000000000000000000000000000000000010FF44
:5C119C0000000000000000000000000000000000000000000000000000000000000000000000000000000000000000000000000000000000000000000000000000000000000000000000000000000000000000000000000000000000000010FFE8
:5C11F80002000000000000000000000000000000000000000000000000000000000000000000000000000000000000000000000000000000000000000000000000000000000000000000000000000000000000000000000000000000000021FC7C
:5C12540000000000000000000000000000000000000000000000000000000000000000000000000000000000000000000000000000000000000000000000000000000000000000000000000000000000000000000000000000000000000010FF2F
:5C12B00000000000000000000000000000000000000000000000000000000000000000000000000000000000000000000000000000000000000000000000000000000000000000000000000000000000000000000000000000000000000010FFD3
:5C130C0000000000000000000000000000000000000000000000000000000000000000000000000000000000000000000000000000000000000000000000000000000000000000000000000000000000000000000000000000000000000010FF76
:5C13680002000000000000000000000000000000000000000000000000000000000000000000000000000000000000000000000000000000000000000000000000000000000000000000000000000000000000000000000000000000000021FC0A
:5C13C40000000000000000000000000000000000000000000000000000000000000000000000000000000000000000000000000000000000000000000000000000000000000000000000000000000000000000000000000000000000000010FFBE
:5C14200000000000000000000000000000000000000000000000000000000000000000000000000000000000000000000000000000000000000000000000000000000000000000000000000000000000000000000000000000000000000010FF61
:5C147C0000000000000000000000000000000000000000000000000000000000000000000000000000000000000000000000000000000000000000000000000000000000000000000000000000000000000000000000000000000000000010FF05
:5C14D80000000000000000000000000000000000000000000000000000000000000000000000000000000000000000000000000000000000000000000000000000000000000000000000000000000000000000000000000000000000000010FFA9
:5C15340002000000000000000000000000000000000000000000000000000000000000000000000000000000000000000000000000000000000000000000000000000000000000000000000000000000000000000000000000000000000021FC3C
:5C15900000000000000000000000000000000000000000000000000000000000000000000000000000000000000000000000000000000000000000000000000000000000000000000000000000000000000000000000000000000000000010FFF0
:5C15EC0000000000000000000000000000000000000000000000000000000000000000000000000000000000000000000000000000000000000000000000000000000000000000000000000000000000000000000000000000000000000010FF94
:5C16480000000000000000000000000000000000000000000000000000000000000000000000000000000000000000000000000000000000000000000000000000000000000000000000000000000000000000000000000000000000000010FF37
:5C16A40002000000000000000000000000000000000000000000000000000000000000000000000000000000000000000000000000000000000000000000000000000000000000000000000000000000000000000000000000000000000021FCCB
:5C17000000000000000000000000000000000000000000000000000000000000000000000000000000000000000000000000000000000000000000000000000000000000000000000000000000000000000000000000000000000000000010FF7E
:5C175C0000000000000000000000000000000000000000000000000000000000000000000000000000000000000000000000000000000000000000000000000000000000000000000000000000000000000000000000000000000000000010FF22
:5C17B80000000000000000000000000000000000000000000000000000000000000000000000000000000000000000000000000000000000000000000000000000000000000000000000000000000000000000000000000000000000000010FFC6
:5C18140000000000000000000000000000000000000000000000000000000000000000000000000000000000000000000000000000000000000000000000000000000000000000000000000000000000000000000000000000000000000010FF69
:5C18700002000000000000000000000000000000000000000000000000000000000000000000000000000000000000000000000000000000000000000000000000000000000000000000000000000000000000000000000000000000000021FCFD
:5C18CC0000000000000000000000000000000000000000000000000000000000000000000000000000000000000000000000000000000000000000000000000000000000000000000000000000000000000000000000000000000000000010FFB1
:5C19280000000000000000000000000000000000000000000000000000000000000000000000000000000000000000000000000000000000000000000000000000000000000000000000000000000000000000000000000000000000000010FF54
:5C19840000000000000000000000000000000000000000000000000000000000000000000000000000000000000000000000000000000000000000000000000000000000000000000000000000000000000000000000000000000000000010FFF8
:5C19E00002000000000000000000000000000000000000000000000000000000000000000000000000000000000000000000000000000000000000000000000000000000000000000000000000000000000000000000000000000000000021FC8C
:5C1A3C0000000000000000000000000000000000000000000000000000000000000000000000000000000000000000000000000000000000000000000000000000000000000000000000000000000000000000000000000000000000000010FF3F
:5C1A980000000000000000000000000000000000000000000000000000000000000000000000000000000000000000000000000000000000000000000000000000000000000000000000000000000000000000000000000000000000000010FFE3
:5C1AF40000000000000000000000000000000000000000000000000000000000000000000000000000000000000000000000000000000000000000000000000000000000000000000000000000000000000000000000000000000000000010FF87
:5C1B500000000000000000000000000000000000000000000000000000000000000000000000000000000000000000000000000000000000000000000000000000000000000000000000000000000000000000000000000000000000000010FF2A
:5C1BAC0002000000000000000000000000000000000000000000000000000000000000000000000000000000000000000000000000000000000000000000000000000000000000000000000000000000000000000000000000000000000021FCBE
:5C1C080000000000000000000000000000000000000000000000000000000000000000000000000000000000000000000000000000000000000000000000000000000000000000000000000000000000000000000000000000000000000010FF71
:5C1C640000000000000000000000000000000000000000000000000000000000000000000000000000000000000000000000000000000000000000000000000000000000000000000000000000000000000000000000000000000000000010FF15
:5C1CC00000000000000000000000000000000000000000000000000000000000000000000000000000000000000000000000000000000000000000000000000000000000000000000000000000000000000000000000000000000000000010FFB9
:5C1D1C0002000000000000000000000000000000000000000000000000000000000000000000000000000000000000000000000000000000000000000000000000000000000000000000000000000000000000000000000000000000000021FC4C
:5C1D780000000000000000000000000000000000000000000000000000000000000000000000000000000000000000000000000000000000000000000000000000000000000000000000000000000000000000000000000000000000000010FF00
:5C1DD40000000000000000000000000000000000000000000000000000000000000000000000000000000000000000000000000000000000000000000000000000000000000000000000000000000000000000000000000000000000000010FFA4
:5C1E300000000000000000000000000000000000000000000000000000000000000000000000000000000000000000000000000000000000000000000000000000000000000000000000000000000000000000000000000000000000000010FF47
:5C1E8C0000000000000000000000000000000000000000000000000000000000000000000000000000000000000000000000000000000000000000000000000000000000000000000000000000000000000000000000000000000000000010FFEB
:5C1EE80002000000000000000000000000000000000000000000000000000000000000000000000000000000000000000000000000000000000000000000000000000000000000000000000000000000000000000000000000000000000021FC7F
:5C1F440000000000000000000000000000000000000000000000000000000000000000000000000000000000000000000000000000000000000000000000000000000000000000000000000000000000000000000000000000000000000010FF32
:5C1FA00000000000000000000000000000000000000000000000000000000000000000000000000000000000000000000000000000000000000000000000000000000000000000000000000000000000000000000000000000000000000010FFD6
:5C1FFC0000000000000000000000000000000000000000000000000000000000000000000000000000000000000000000000000000000000000000000000000000000000000000000000000000000000000000000000000000000000000010FF7A
:5C20580002000000000000000000000000000000000000000000000000000000000000000000000000000000000000000000000000000000000000000000000000000000000000000000000000000000000000000000000000000000000021FC0D
:5C20B40000000000000000000000000000000000000000000000000000000000000000000000000000000000000000000000000000000000000000000000000000000000000000000000000000000000000000000000000000000000000010FFC1
:5C21100000000000000000000000000000000000000000000000000000000000000000000000000000000000000000000000000000000000000000000000000000000000000000000000000000000000000000000000000000000000000010FF64
:5C216C0000000000000000000000000000000000000000000000000000000000000000000000000000000000000000000000000000000000000000000000000000000000000000000000000000000000000000000000000000000000000010FF08
:5C21C80000000000000000000000000000000000000000000000000000000000000000000000000000000000000000000000000000000000000000000000000000000000000000000000000000000000000000000000000000000000000010FFAC
:5C22240002000000000000000000000000000000000000000000000000000000000000000000000000000000000000000000000000000000000000000000000000000000000000000000000000000000000000000000000000000000000021FC3F
:5C22800000000000000000000000000000000000000000000000000000000000000000000000000000000000000000000000000000000000000000000000000000000000000000000000000000000000000000000000000000000000000010FFF3
:5C22DC0000000000000000000000000000000000000000000000000000000000000000000000000000000000000000000000000000000000000000000000000000000000000000000000000000000000000000000000000000000000000010FF97
:5C23380000000000000000000000000000000000000000000000000000000000000000000000000000000000000000000000000000000000000000000000000000000000000000000000000000000000000000000000000000000000000010FF3A
:5C23940002000000000000000000000000000000000000000000000000000000000000000000000000000000000000000000000000000000000000000000000000000000000000000000000000000000000000000000000000000000000021FCCE
:5C23F00000000000000000000000000000000000000000000000000000000000000000000000000000000000000000000000000000000000000000000000000000000000000000000000000000000000000000000000000000000000000010FF82
:5C244C0000000000000000000000000000000000000000000000000000000000000000000000000000000000000000000000000000000000000000000000000000000000000000000000000000000000000000000000000000000000000010FF25
:5C24A80000000000000000000000000000000000000000000000000000000000000000000000000000000000000000000000000000000000000000000000000000000000000000000000000000000000000000000000000000000000000010FFC9
:5C25040000000000000000000000000000000000000000000000000000000000000000000000000000000000000000000000000000000000000000000000000000000000000000000000000000000000000000000000000000000000000010FF6C
:5C25600002000000000000000000000000000000000000000000000000000000000000000000000000000000000000000000000000000000000000000000000000000000000000000000000000000000000000000000000000000000000021FC00
:5C25BC0000000000000000000000000000000000000000000000000000000000000000000000000000000000000000000000000000000000000000000000000000000000000000000000000000000000000000000000000000000000000010FFB4
:5C26180000000000000000000000000000000000000000000000000000000000000000000000000000000000000000000000000000000000000000000000000000000000000000000000000000000000000000000000000000000000000010FF57
:5C26740000000000000000000000000000000000000000000000000000000000000000000000000000000000000000000000000000000000000000000000000000000000000000000000000000000000000000000000000000000000000010FFFB
:5C26D000800010000240000800012000048000100002400008000120000480001000024000080001200004800010000000000000012000048000100002400008000120000480001000024000080001200004800010000240000800012000A0FD66
:5C272C00800010000240000800012000048000100002400008000120000480001000024000080001200004800010000000000000012000048000100002400008000120000480001000024000080001200004800010000240000800012000A0FD09
:5C27880000000000000000000000000000000000000000000000000000000000000000000000000000000000000000000000000000000000000000000000000000000000000000000000000000000000000000000000000000000000000010FFE6
:5C27E40000000000000000000000000000000000000000000000000000000000000000000000000000000000000000000000000000000000000000000000000000000000000000000000000000000000000000000000000000000000000010FF8A
:5C28400000000000000000000000000000000000000000000000000000000000000000000000000000000000000000000000000000000000000000000000000000000000000000000000000000000000000000000000000000000000000010FF2D
:5C289C0000000000000000000000000000000000000000000000000000000000000000000000000000000000000000000000000000000000000000000000000000000000000000000000000000000000000000000000000000000000000010FFD1
:5C28F80000000000000000000000000000000000000000000000000000000000000000000000000000000000000000000000000000000000000000000000000000000000000000000000000000000000000000000000000000000000000010FF75
:5C29540000000000000000000000000000000000000000000000000000000000000000000000000000000000000000000000000000000000000000000000000000000000000000000000000000000000000000000000000000000000000010FF18
:5C29B00000000000000000000000000000000000000000000000000000000000000000000000000000000000000000000000000000000000000000000000000000000000000000000000000000000000000000000000000000000000000010FFBC
:5C2A0C0000000000000000000000000000000000000000000000000000000000000000000000000000000000000000000000000000000000000000000000000000000000000000000000000000000000000000000000000000000000000010FF5F
:5C2A680000000000000000000000000000000000000000000000000000000000000000000000000000000000000000000000000000000000000000000000000000000000000000000000000000000000000000000000000000000000000010FF03
:5C2AC40000000000000000000000000000000000000000000000000000000000000000000000000000000000000000000000000000000000000000000000000000000000000000000000000000000000000000000000000000000000000010FFA7
:5C2B200000000000000000000000000000000000000000000000000000000000000000000000000000000000000000000000000000000000000000000000000000000000000000000000000000000000000000000000000000000000000010FF4A
:5C2B7C0000000000000000000000000000000000000000000000000000000000000000000000000000000000000000000000000000000000000000000000000000000000000000000000000000000000000000000000000000000000000010FFEE
:5C2BD80000000000000000000000000000000000000000000000000000000000000000000000000000000000000000000000000000000000000000000000000000000000000000000000000000000000000000000000000000000000000010FF92
:5C2C340000000000000000000000000000000000000000000000000000000000000000000000000000000000000000000000000000000000000000000000000000000000000000000000000000000000000000000000000000000000000010FF35
:5C2C900000000000000000000000000000000000000000000000000000000000000000000000000000000000000000000000000000000000000000000000000000000000000000000000000000000000000000000000000000000000000010FFD9
:5C2CEC0000000000000000000000000000000000000000000000000000000000000000000000000000000000000000000000000000000000000000000000000000000000000000000000000000000000000000000000000000000000000010FF7D
:5C2D480000000000000000000000000000000000000000000000000000000000000000000000000000000000000000000000000000000000000000000000000000000000000000000000000000000000000000000000000000000000000010FF20
:5C2DA40000000000000000000000000000000000000000000000000000000000000000000000000000000000000000000000000000000000000000000000000000000000000000000000000000000000000000000000000000000000000010FFC4
:5C2E000000000000000000000000000000000000000000000000000000000000000000000000000000000000000000000000000000000000000000000000000000000000000000000000000000000000000000000000000000000000000010FF67
:5C2E5C0000000000000000000000000000000000000000000000000000000000000000000000000000000000000000000000000000000000000000000000000000000000000000000000000000000000000000000000000000000000000010FF0B
:5C2EB80000000000000000000000000000000000000000000000000000000000000000000000000000000000000000000000000000000000000000000000000000000000000000000000000000000000000000000000000000000000000010FFAF
:5C2F140000000000000000000000000000000000000000000000000000000000000000000000000000000000000000000000000000000000000000000000000000000000000000000000000000000000000000000000000000000000000010FF52
:5C2F700000000000000000000000000000000000000000000000000000000000000000000000000000000000000000000000000000000000000000000000000000000000000000000000000000000000000000000000000000000000000010FFF6
:5C2FCC0000000000000000000000000000000000000000000000000000000000000000000000000000000000000000000000000000000000000000000000000000000000000000000000000000000000000000000000000000000000000010FF9A
:5C30280000000000000000000000000000000000000000000000000000000000000000000000000000000000000000000000000000000000000000000000000000000000000000000000000000000000000000000000000000000000000010FF3D
:5C30840000000000000000000000000000000000000000000000000000000000000000000000000000000000000000000000000000000000000000000000000000000000000000000000000000000000000000000000000000000000000010FFE1
:5C30E00000000000000000000000000000000000000000000000000000000000000000000000000000000000000000000000000000000000000000000000000000000000000000000000000000000000000000000000000000000000000010FF85
:5C313C0000000000000000000000000000000000000000000000000000000000000000000000000000000000000000000000000000000000000000000000000000000000000000000000000000000000000000000000000000000000000010FF28
:5C31980000000000000000000000000000000000000000000000000000000000000000000000000000000000000000000000000000000000000000000000000000000000000000000000000000000000000000000000000000000000000010FFCC
:5C31F40000000000000000000000000000000000000000000000000000000000000000000000000000000000000000000000000000000000000000000000000000000000000000000000000000000000000000000000000000000000000010FF70
:5C32500000000000000000000000000000000000000000000000000000000000000000000000000000000000000000000000000000000000000000000000000000000000000000000000000000000000000000000000000000000000000010FF13
:5C32AC0000000000000000000000000000000000000000000000000000000000000000000000000000000000000000000000000000000000000000000000000000000000000000000000000000000000000000000000000000000000000010FFB7
:5C33080000000000000000000000000000000000000000000000000000000000000000000000000000000000000000000000000000000000000000000000000000000000000000000000000000000000000000000000000000000000000010FF5A
:5C336400000000000000000000000000000000000000000000000000000000000000000000000000000000000000000000000000000000401800000000000400000002800000000000000000000000020000080001200000800010000200F0FB87
:5C33C00000000000000000000000000000000000000000000000000000000000000000000000000000000000000000000000000000000000000000000040000000000000000004000000000000000000000000000010000000000400000040FB1E
:5C341C0000000000000000000000000000000000000000000000000000000000000000000000000000000000000000000000000000000000000000000000000000100000000000000000000000001000000001080000000004800000000058F25D
:5C34780000000000000000000000000000000000000000000000000000000000000000000000000000000000000000000000000000000000000000000000000000000000000000000000000000000000000000000000000000000000000010FFE9
:5C34D40000000000000000000000000000000000000000000000000000000000000000000000000000000000000000000000000000000000000000000000000000000000000000000000000000000000000000000000000000000000000010FF8D
:5C35300000000000000000000000000000000000000000000000000000000000000000000000000000000000000000000000000000000000000000000000000000000000000000000000000000000000000000000000000000000000000010FF30
:5C358C0000000000000000000000000000000000000000000000000000000000000000000000000000000000000000000000000000000000000000000000000000000000000001000000000000000000000000002000000000000002000020FEA2
:5C35E800000000000000000000000000000000000000000000000000000000000000000000000000000000000000000000000000000000000000000000000000002000000000001000000000000000000004000000000000080001010000E0F574
:5C36440000000000000000000000000000000000000000000000000000000000000000000000000000000000000000000000000000000000000000000000000000000000000000000000000000000000000000000000000000000000000010FF1B
:5C36A00000000000000000000000000000000000000000000000000000000000000000000000000000000000000000000000000000000000000000000000000000000000000000000000000000000000000000000000000000000000000010FFBF
:5C36FC0000000000000000000000000000000000000000000000000000000000000000000000000000000000000000000000000000000000000000000000000000000000000000000000000000000000000000000000000000000000000010FF63
:5C37580000000000000000000000000000000000000000000000000000000000000000000000000000000000000000000000000000000000000000000000000000000000000000000000000000000000000000000000000000000000000010FF06
:5C37B40000000000000000000000000000000000000000000000000000000000000000000000000000000000000000000000000000000000000000000000000000000000000000000000000000004000000000000000000000000000000010FB6E
:5C38100000000000000000000000000000000000000000000000000000000000000000000000000000000000000000000000000000000240000000000000040000000100000000000000000000000001000004800000000040000800000070F6E2
:5C386C0000000000000000000000000000000000000000000000000000000000000000000000000000000000000000000000000000000000000000000040000000000000008000000000000000000000000000001000000000000000000050F6EA
:5C38C80000000000000000000000000000000000000000000000000000000000000000000000000000000000000000000000000000000000000000000000000000040000000000000000000000000400001000020000000001200000000060FB0E
:5C39240000000000000000000000000000000000000000000000000000000000000000000000000000000000000000000000000000000000000000000000000000000000000000000000000000000000000000000000000000000000000010FF38
:5C398000000000000000000000000000000000000000000000000000000000000000000000000000000000000000000000000000000000000000000000000000000800000000000000000000000008000020000400000080004000000000D0FD2A
:5C39DC0000000000000000000000000000000000000000000000000000000000000000000000000000000000000000000000000000000000000000000000000000000002000000000000000000000000000000000000000020000000000010FD60
:5C3A3800000000000000000000000000000000000000000000000000000000000000000000000000000000000000000000000000000000000000000000000000001000120000000000000000000090000040001800000000048000000010E0F5BF
:5C3A940000000000000000000000000000000000000000000000000000000000000000000000000000000000000000000000000000000000000000000000000000000000000000000000000000000000000000000000000000000000000010FFC7
:5C3AF00000000000000000000000000000000000000000000000000000000000000000000000000000000000000000000000000000000000000000000000000000000000000000000000000000000000000000000000000000000000000010FF6B
:5C3B4C0000000000000000000000000000000000000000000000000000000000000000000000000000000000000000000000000000000000000000000000000000000000000000000000000000000000000000000000000000000000000098F78E
:5C3BA80000000000000000000000000000000000000000000000000000000000000000000000000000000000000000000000000000000000000000002000000000000000000000000000000000000000000000000000000000000000000010FD94
:5C3C040000000000000000000000000000000000000000000000000000000000000000000000000000000000000000000000000000E83C5D0B0000000080022000060020000000040000000000000000000004000400000040020000092050F356
:5C3C600000000000000000000000000000000000000000000000000000000000000000000000000000000000000000000000000000000000000000000000002000000000000000000000000000000000000000000000000000020000002098F539
:5C3CBC0000000000000000000000000000000000000000000000000000000000000000000000000000000000000000000000000000000000000000000000000000000000000000000000000000000000000000000000000000000000000010FF9D
:5C3D180000000000000000000000000000000000000000000000000000000000000000000000000000000000000000000000000000401008020000000080000000020000000000000000000000000000000000000000000000000000000050F231
:5C3D740000000000000000000000000000000000000000000000000000000000000000000000000000000000000000000000000000882451080000000000020000040020000000040000000000000000000004000400000040000080090070FB88
:5C3DD00000000000000000000000000000000000000000000000000000000000000000000000000000000000000000000000000000000000000000000000000000000000000000000000000000000000000000000000000000000000000001FE98
:5C3E2C0002000000000000000000000000000000000000000000000000000000000000000000000000000000000000000000000000000000000000000000000000000000000000000000000000000000000000000000000000000000000021FC1B
:5C3E8800820010000240000800012000048000100002400008000120000480001000024000080001200004800010000000000000012000048000100002400008000120000480001000024000080001200004800010000240000800012000A2FD92
:5C3EE40082001000024000080001200004800010000240000800012000048000100002400008000120000480001000000000000001200004800010000240000800012000048000100002400008000120000480001000024000080001200091FE46
:5C3F4000020000000000000000000000000000000000000000000000000000000000000000000000000000000000000000000000000020000400000000C0000000000000000000000100000000000000000008000000000002000000000051F0F3
:5C3F9C000000000000000000000000000000000000000000000000000000000000000000000000000000000000000000000000000068001F0000000000B00300C014100200600A0C0000000000C014000013600A4C01002001A6C014980231FF30
:5C3FF800000000000000000000000000000000000000000000000000000000000000000000000000000000000000000000000000000810000200000000C0080000100800000001100000000000000000000000040000001000400000404040FC52
:5C405400020000000000000000000000000000000000000000000000000000000000000000000000000000000000000000000000001000020000000000E000008002908000C081480100000000800A0000324003380200E005348027F00011F016
:5C40B000000000000000000000000000000000000000000000000000000000000000000000000000000000000000000000000000000808000000000000C0000000000800008010001000000000000000001000003000001000000003200490FC39
:5C410C00000000000000000000000000000000000000000000000000000000000000000000000000000000000000000000000000000800000400000000C0800000010C0000000230000000000000010400108000020400D080082040800070F594
:5C416800000000000000000000000000000000000000000000000000000000000000000000000000000000000000000000000000000000000000000000C0000000406020008001100800000000004000008000203000000000010203600060FC10
:5C41C400000000000000000000000000000000000000000000000000000000000000000000000000000000000000000000000000000000000000000000C005000007600000804130000000000000070000088003300000C0013800036010B0F3B1
:5C422000020000000000000000000000000000000000000000000000000000000000000000000000000000000000000000000000000020000400000000000000000000400000002000000000000010000040000800010000048000100002A1F834
:5C427C00000000000000000000000000000000000000000000000000000000000000000000000000000000000000000000000000007800130000000000102100C01098000060081C0100000000C00000000360000C0000300006C0001800E0F729
:5C42D800000000000000000000000000000000000000000000000000000000000000000000000000000000000000000000000000000010000200000000100000001200040080084000000000000002000000000560000000045000022000A0FD10
:5C4334000000000000000000000000000000000000000000000000000000000000000000000000000000000000000000000000000010000E000000000020000080031000004000780000000000800B00003AC003780000A0013C8007924020F25C
:5C439000020000000000000000000000000000000000000000000000000000000000000000000000000000000000000000000000000000000000000000D00000000100100000800002000000000001000000800010020000000800210020D0F4CC
:5C43EC00000000000000000000000000000000000000000000000000000000000000000000000000000000000000000000000000008008000400000000D00000000404000080013000000000000004040004100242000040002120046000C1F961
:5C444800000000000000000000000000000000000000000000000000000000000000000000000000000000000000000000000000000000000000000000C0000000030200008040000400000000000302000081013100000010181003201061FC0F
:5C44A400000000000000000000000000000000000000000000000000000000000000000000000000000000000000000000000000000000000000000000C000000003C080008001700000000000000300001C8001300800C001180083600001F53E
:5C450000000000000000000000000000000000000000000000000000000000000000000000000000000000000000000000000000000000000400000000C0000000084040000000002000000000000000000000008000000000000008000111F465
:5C455C00020000000000000000000000000000000000000000000000000000000000000000000000000000000000000000000000001880110000000000F000018004980000E0813C0000000000C01000004360084C0000300486C0047800C0FB36
:5C45B800000000000000000000000000000000000000000000000000000000000000000000000000000000000000000000000000000000010200000000C0000040104000000000300200000000000200000800051000008004500001604040F45A
:5C4614000000000000000000000000000000000000000000000000000000000000000000000000000000000000000000000000000010000A0000000000E0100080075010004082080000000000800B00003EC003880000E0013C8010900050F8F6
:5C467000000000000000000000000000000000000000000000000000000000000000000000000000000000000000000000000000006000010000000000C0000040004004008021304000000000008100000480400010004000080400E10080F93D
:5C46CC00000000000000000000000000000000000000000000000000000000000000000000000000000000000000000000000000006000090400000000C008004003E200000002400000000000000000001010003000000001010003000001F7A9
:5C47280002000000000000000000000000000000000000000000000000000000000000000000000000000000000000000000000000600000000000000040020000404000008001000000000000000300000C8801100800C080180081000030F4E3
:5C478400020000000000000000000000000000000000000000000000000000000000000000000000000000000000000000000000006000000200000000C000000003C001008001300000000000008300000C8041300000C000180403600090F3FE
:5C47E000020000000000000000000000000000000000000000000000000000000000000000000000000000000000000000000000000000000400000000004000000840000000802040000000000000000020000000010000020000000100E0F714
:5C483C00020000000000000000000000000000000000000000000000000000000000000000000000000000000000000000000000001880130000000000B00000C000981000E0033C0000000000C00601000360054C0000300016D0071801A0FFEC
:5C48980000000000000000000000000000000000000000000000000000000000000000000000000000000000000000000000000000000000020000000000200000124000008001301000000000000300000880054000008004580003400041F56A
:5C48F400000000000000000000000000000000000000000000000000000000000000000000000000000000000000000000000000001000020000000000A0000080035010004080780000000000800A00003E4003580000E001348004F21070F439
:5C495000000000000000000000000000000000000000000000000000000000000000000000000000000000000000000000000000006000000000000000000000008140040080013208000000000083000004824110020040201804402004F0FB04
:5C49AC00000000000000000000000000000000000000000000000000000000000000000000000000000000000000000000000000006000000400000000C010000000E000000002700000000000000600000000030000000000300004800060FB11
:5C4A080002000000000000000000000000000000000000000000000000000000000000000000000000000000000000000000000000600000000000000080000000034002000000300000000000000800000C0004100000C000400003600090F5EB
:5C4A64000000000000000000000000000000000000000000000000000000000000000000000000000000000000000000000000000060000C00000000008008000083C000008001301000000000000200001C0401104000C020100003601001FC2B
:5C4AC00000000000000000000000000000000000000000000000000000000000000000000000000000000000000000000000000000000000000000000000400000004010000000004000000000000000000008040000000000400000000811F273
:5C4B1C00000000000000000000000000000000000000000000000000000000000000000000000000000000000000000000000000008802230000000000300000C046B8000060003E0000000000C00800001B6002CC0000300926C00C980001F33C
:5C4B780000000000000000000000000000000000000000000000000000000000000000000000000000000000000000000000000000080000000000000000200000130000000000321000000000000000000C000040000000100000000000D1F245
:5C4BD4000200000000000000000000000000000000000000000000000000000000000000000000000000000000000000000000000010025200000000002000008002F010004002780000000000800000003A4000780000E000048007F210F0FFF5
:5C4C3000000000000000000000000000000000000000000000000000000000000000000000000000000000000000000000000000000800000000000000C0000000830040000000300800000000000300000C8201000000C000180000800060F12A
:5C4C8C000000000000000000000000000000000000000000000000000000000000000000000000000000000000000000000000000008000C1000000000C000000006E00000001070000000000000030000188001300200C002180027E000F0FAE9
:5C4CE80000000000000000000000000000000000000000000000000000000000000000000000000000000000000000000000000000600000000000000000000000000008008001300000000000000300000080013000000000180003600020F513
:5C4D4400000000000000000000000000000000000000000000000000000000000000000000000000000000000000000000000000006000000000000000000000000AE00000000030000000000000030000288001300000C000180003600021FF62
:5C4DA00002000000000000000000000000000000000000000000000000000000000000000000000000000000000000000000000000002004040000000000000000100000000000000000000000000000000000000120000004000010000011FB3C
:5C4DFC00020000000000000000000000000000000000000000000000000000000000000000000000000000000000000000000000000800130000000000304000C00010080060003E0100000000800001003360023C0000300166C004980192F28D
:5C4E5800020000000000000000000000000000000000000000000000000000000000000000000000000000000000000000000000000810040200000000000200000068000000007200000000004010000000000070000000004000002001A1F64A
:5C4EB4000200000000000000000000000000000000000000000000000000000000000000000000000000000000000000000000000070000600000000002000008000F0020040027800000000008007000002408048000020002C8005920091F762
:5C4F100000000000000000000000000000000000000000000000000000000000000000000000000000000000000000000000000000080804000000000000000000030800008001300200000000400000000C0000000400C000080101002081FCBC
:5C4F6C0000000000000000000000000000000000000000000000000000000000000000000000000000000000000000000000000000080004040000000000000000036801000010300000000000400702000C0000400000C000000020600070F8F0
:5C4FC800000000000000000000000000000000000000000000000000000000000000000000000000000000000000000000000000000000840000000000C0000000036020000000300000000000004000000C8001300000C000080001201070FD33
:5C502400000000000000000000000000000000000000000000000000000000000000000000000000000000000000000000000000000000140000000000C0000000036000000000300000000000000300000C8001300000C0000820016400B0FA12
:5C508000020000000000000000000000000000000000000000000000000000000000000000000000000000000000000000000000000020000100100000000000000000100000002000000000000002000000008000000000000000000010A1F44A
:5C50DC000000000000000000000000000000000000000000000000000000000000000000000000000000000000000000000000000008001200004C0200F00001C00CF8000060003E0100000000C0060100034200FC0000300344C00FF80061F61F
:5C5138000000000000000000000000000000000000000000000000000000000000000000000000000000000000000000000000000008100D0000000000C00000001060000000007200000000000002000000200870000000048200036000D2FF00
:5C5194000000000000000000000000000000000000000000000000000000000000000000000000000000000000000000000000000010003E0000481000E020008001F010004002780000000000800A000036C00348000060013C80049210E1FF70
:5C51F000000000000000000000000000000000000000000000000000000000000000000000000000000000000000000000000000000800210000400000000400002160400000003002000000000002000004200030000040080200030000F1FB74
:5C524C000200000000000000000000000000000000000000000000000000000000000000000000000000000000000000000000000088081D0000400000C001000000E0000000113000000000000086000080A00301020000003A10240004B1F175
:5C52A8000000000000000000000000000000000000000000000000000000000000000000000000000000000000000000000000000000000C040040000080000000016000000040300000000000000202000400200000004000000200600040F10E
:5C5304000000000000000000000000000000000000000000000000000000000000000000000000000000000000000000000000000040020C0000000000C00400000164000000027020000000000005000004900130000040001900036000A0F826
:5C53600000000000000000000000000000000000000000000000000000000000000000000000000000000000000000000000000000002000000000000601020000000002000008000100000000000000002000000110000000001000020850F52D
:5C53BC00020000000000000000000000000000000000000000000000000000000000000000000000000000000000000000000000000800130200008007100000C00412000060024C0000000000C00401001260024C0000308126C000F80031F323
:5C541800000000000000000000000000000000000000000000000000000000000000000000000000000000000000000000000000000810200000000006101000000008000000002202000000000000000001000000000000012000206000A1F378
:5C5474000000000000000000000000000000000000000000000000000000000000000000000000000000000000000000000000000050000200000000072000008007918000C003380000000000800800005E4080381000E0003C8003901022F48D
:5C54D0000000000000000000000000000000000000000000000000000000000000000000000000000000000000000000000000000008000000000000001000000003090000800110020000000000000000010004004000C040180800E000C1F2D1
:5C552C0000000000000000000000000000000000000000000000000000000000000000000000000000000000000000000000000000880840000000000010000000000800000020400000000000000000001D08027000000000000007810011F8B3
:5C558800020000000000000000000000000000000000000000000000000000000000000000000000000000000000000000000000000000000000000000C000000003602000800130000000000000030000000100300000C0001800030000E1F7EA
:5C55E400120000000000000000000000000000000000000000000000000000000000000000000000000000000000000000000000000002181000000000C0000000036000008001300800000000000300000C8001300000C0001800036000F2FB6B
:5C56400008000000000000000000000000000000000000000000000000000000000000000000000000000000000000000000000000200004000000000040000000012000000000000000000000000100000480000000004000080000000060FE56
:5C569C0000000000000000000000000000000000000000000000000000000000000000000000000000000000000000000000000000000000000000000000000000000000000000000000000000000000000000000000000000000000000010FFA3
:5C56F80080001000024000080001200004800010000240000800012000048000100002400008000120000480001000000000000001100002800010000220000800000000048000100002400008000020000000001000020000000001200040F794
:5C575400800010000240000800012000048000100002400008000120000480001000024000080001200004800010000000000000012000048000100002400008000120000480001000024000080001200004800010000240000800012000A0FDB1
:5C57B00000000000000000000000000000000000000000000000000000000000000000000000000000000000000000000000000000882220A0008000010008000000082200208A4411000000004014000029200000100000002000100100C0F0F3
:5C580C00000000000000000000000000000000000000000000000000000000000000000000000000000000000000000000000000004010000000000000800000000040000000000000000000000000000000000000000000000000000000D0FE62
:5C58680000000000000000000000000000000000000000000000000000000000000000000000000000000000000000000000000000000000000000000800000000000000000000000000000000000000000804040000000000000000000050FF7D
:5C58C40000000000000000000000000000000000000000000000000000000000000000000000000000000000000000000000000000000000000000001000002040000100010000000000000000000010001000000080000004000000000090F8EA
:5C59200000000000000000000000000000000000000000000000000000000000000000000000000000000000000000000000000000E83A20A10080001BC018204000492201208A441100000000405410003524040090000004200010010050F004
:5C597C0000000000000000000000000000000000000000000000000000000000000000000000000000000000000000000000000000000000000000040000000000400000000000000000000000000000000000000000000000000040000010FF3C
:5C59D80000000000000000000000000000000000000000000000000000000000000000000000000000000000000000000000000000000400010000000000080000000000000000004000000000000000000000000000000000000000000050F2E4
:5C5A340000000000000000000000000000000000000000000000000000000000000000000000000000000000000000000000000000000000000000000000000000000000000000000000000000000000000000000000000000000000000010FF07
:5C5A900000000000000000000000000000000000000000000000000000000000000000000000000000000000000000000000000000000000000000000000000000020000004000080000000000000200000800010800000000118000100074FD4B
:5C5AEC0000000000000000000000000000000000000000000000000000000000000000000000000000000000000000000000000000000000000000000000000000844000000010000200000000000000004000100002000000000800000010F02E
:5C5B4800000000000000000000000000000000000000000000000000000000000000000000000000000000000000000000000000000000100000000000000000000020000000280001000000000000000000024000050000000000100002B0F6A9
:5C5BA4000000000000000000000000000000000000000000000000000000000000000000000000000000000000000000000000000000000000000C000080000000000000000000000000000000000000000000000000001000008000080050F23F
:5C5C000000000000000000000000000000000000000000000000000000000000000000000000000000000000000000000000000000000000000004000000000000000000000000020000000000000000000000000040000000020000080010F3F5
:5C5C5C0000000000000000000000000000000000000000000000000000000000000000000000000000000000000000000000000000004000000000000000000000000000000000000000000000000000000000000000000000000000000010FBA1
:5C5CB80000000000000000000000000000000000000000000000000000000000000000000000000000000000000000000000000000000000000000000000000000000000000000000000000000000000000000000000000000000000000010FF81
:5C5D1400000000000000000000000000000000000000000000000000000000000000000000000000000000000000000000000000000000800000000000004A0000000100000000000000000000008000000002400000000040000400200080FDC5
:5C5D700000000000000000000000000000000000000000000000000000000000000000000000000000000000000000000000000000400000000000000080000000009000000012400200000000000000000000004002000000000024000480F653
:5C5DCC0000000000000000000000000000000000000000000000000000000000000000000000000000000000000000000000000000000000000000000000800000000000000000010000000000000000000000000000000000000000000090F674
:5C5E280000000000000000000000000000000000000000000000000000000000000000000000000000000000000000000000000000000000000000000000000000000000000000000000000000000000000000000000000000000000000010FF0F
:5C5E840000000000000000000000000000000000000000000000000000000000000000000000000000000000000000000000000000000000000000000000000000000000000000000000000000000000000000000000000000000000000010FFB3
:5C5EE00000000000000000000000000000000000000000000000000000000000000000000000000000000000000000000000000000000000000000000000000000000000000000000000000000000000000000000000000000000000000054FB17
:5C5F3C0000000000000000000000000000000000000000000000000000000000000000000000000000000000000000000000000000000020000000000000000000000001000020000000000000000800000000000000002000000000001190FD02
:5C5F980000000000000000000000000000000000000000000000000000000000000000000000000000000000000000000000000000000000000000000000000000000001000000002000000000000000000000000000000000000040000141FD0D
:5C5FF40000000000000000000000000000000000000000000000000000000000000000000000000000000000000000000000000000000000000000000000000000000000000000000000000000000000000000000000000000000000000010FF42
:5C60500000000000000000000000000000000000000000000000000000000000000000000000000000000000000000000000000000000000000000000000000000000000000000000000000000000000000000000000000000000000000010FFE5
:5C60AC0000000000000000000000000000000000000000000000000000000000000000000000000000000000000000000000000000000000000000000000000000000400000000000000000000000004000010000200000000012000000020F845
:5C61080000000000000000000000000000000000000000000000000000000000000000000000000000000000000000000000000000000002000000000000000000000000000000040000000000000000000100000400000000000000000060F9D7
:5C61640000000000000000000000000000000000000000000000000000000000000000000000000000000000000000000000000000800000000000000000000000000000000008000900000000002000000400000001000000000091000270FD29
:5C61C00000000000000000000000000000000000000000000000000000000000000000000000000000000000000000000000000000000000000000000000000000010000000000801400000000000000000000001000004000080000810050F3D2
:5C621C0000000000000000000000000000000000000000000000000000000000000000000000000000000000000000000000000000000000000000000000000000000000000000000000000000000000000000000000000000000000000032FDF7
:5C627800000000000000000000000000000000000000000000000000000000000000000000000000000000000000000000000000000000800000000000000000000000040000000000000000000000000000000000000000000000000000D0FB7B
:5C62D40000000000000000000000000000000000000000000000000000000000000000000000000000000000000000000000000000000000000000000000000000000000000000000000000000000000000000000000000000000000000098F7DF
:5C63300000000000000000000000000000000000000000000000000000000000000000000000000000000000000000000000000000000000000000000000000000000000000000000000000000000000000000000000000000000000000010FF02
:5C638C0000000000000000000000000000000000000000000000000000000000000000000000000000000000000000000000000000000000000000000000000000000000000000000000080000000000000000000000000000000000000010F7A6
:5C63E80008000000000000000000000000000000000000000000000000000000000000000000000000000000000000000000000000000000000000000000000000000000000000000000000000000000000000000000000000000000000090F7CA
:5C64440000000000000000000000000000000000000000000000000000000000000000000000000000000000000000000000000000000000000000000000000000000000000000000000000000000000000000000000000000000000000010FFED
:5C64A00000000000000000000000000000000000000000000000000000000000000000000000000000000000000000000000000000000000000000000000000000000000000000000000000000000000000000000000000000000000000010FF91
:5C64FC0000000000000000000000000000000000000000000000000000000000000000000000000000000000000000000000000000000000000000000000000000000000000000000000000000000000000000000000000000000000000010FF35
:5C65580000000000000000000000000000000000000000000000000000000000000000000000000000000000000000000000000000000000000000000000000000000000000000000000000000000000000000000000000000000000000010FFD8
:5C65B40000000000000000000000000000000000000000000000000000000000000000000000000000000000000000000000000000000000000000000000000000000000000000000000000000000000000000000000000000000000000010FF7C
:5C66100000000000000000000000000000000000000000000000000000000000000000000000000000000000000000000000000000000000000000000000000000000000000000000000000000000000000000000000000000000000000010FF1F
:5C666C0000000000000000000000000000000000000000000000000000000000000000000000000000000000000000000000000000000000000000000000000000000000000000000000000000000000000000000000000000000000000010FFC3
:5C66C80000000000000000000000000000000000000000000000000000000000000000000000000000000000000000000000000000000000000000000000000000000000000000000000000000000000000000000000000000000000000010FF67
:5C67240000000000000000000000000000000000000000000000000000000000000000000000000000000000000000000000000000000000000000000000000000000000000000000000000000000000000000000000000000000000000010FF0A
:5C67800000000000000000000000000000000000000000000000000000000000000000000000000000000000000000000000000000000000000000000000000000000000000000000000000000000000000000000000000000000000000010FFAE
:5C67DC0000000000000000000000000000000000000000000000000000000000000000000000000000000000000000000000000000000000000000000000000000000000000000000000000000000000000000000000000000000000000010FF52
:5C68380000000000000000000000000000000000000000000000000000000000000000000000000000000000000000000000000000000000000000000000000000000000000000000000000000000000000000000000000000000000000010FFF5
:5C68940000000000000000000000000000000000000000000000000000000000000000000000000000000000000000000000000000000000000000000000000000000000000000000000000000000000000000000000000000000000000010FF99
:5C68F00000000000000000000000000000000000000000000000000000000000000000000000000000000000000000000000000000000000000000000000000000000000000000000000000000000000000000000000000000000000000010FF3D
:5C694C0000000000000000000000000000000000000000000000000000000000000000000000000000000000000000000000000000000000000000000000000000000000000000000000000000000000000000000000000000000000000010FFE0
:5C69A80000000000000000000000000000000000000000000000000000000000000000000000000000000000000000000000000000000000000000000000000000000000000000000000000000000000000000000000000000000000000032FD64
:5C6A040000000000000000000000000000000000000000000000000000000000000000000000000000000000000000000000000000000000000000000000000000000000000000000020000000000000000000000000000000000000000030FFE7
:5C6A600000000000000000000000000000000000000000000000000000000000000000000000000000000000000000000000000000000000000000000000000000000000000000000000000000000000000000000000000000000000000010FFCB
:5C6ABC0000000000000000000000000000000000000000000000000000000000000000000000000000000000000000000000000000000000000000000000000000000000000000000000000000000000000000000000000000000000000010FF6F
:5C6B180000000000000000000000000000000000000000000000000000000000000000000000000000000000000000000000000000000000000000000000000000000000000000000000000000000000000000000000000000000000000010FF12
:5C6B740008000000000000000000000000000000000000000000000000000000000000000000000000000000000000000000000000000000000000000000000000000000000000000000000000000000000000000000000000000000000090F736
:5C6BD00000000000000000000000000000000000000000000000000000000000000000000000000000000000000000000000000000000000000000000000000000000000000000000000000000000000004000000000000000000000000010FB1E
:5C6C2C00000000000000000000000000000000000000000000000000000000000000000000000000000000000000000000000000000000000000000000000020000000000000000000480200000000000000000000000000000000000020D0F5BD
:5C6C880000000000000000000000000000000000000000000000000000000000000000000000000000000000000000000000000000000000000000000000002000000000000000000000000000000000000000000000000000000000002010FF61
:5C6CE40000000000000000000000000000000000000000000000000000000000000000000000000000000000000000000000000000000000000000000000000000000000000000000000000000000000000000000000000000000000000010FF45
:5C6D400000000000000000000000000000000000000000000000000000000000000000000000000000000000000000000000000000000000000000000000000000000000000000000000000000000000000000000000000000000000000010FFE8
:5C6D9C00000000000000000000000000000000000000000000000000000000000000000000000000000000000000000000000000000000000000000000000000000000000000000000480200000000000000000000000000000000000000D0F58C
:5C6DF80002000000000000000000000000000000000000000000000000000000000000000000000000000000000000000000000000000000000000000000000000000000000000000000000000000000000000000000000000000000000021FC20
:5C6E540000000000000000000000000000000000000000000000000000000000000000000000000000000000000000000000000000000000000000000000000000000000000000000000000000000000000000000000000000000000000001FEE3
:5C6EB00080001000024000080001200004800010000240000800012000048000100002400008000120000480001000000000000001200004800010000240000800012000048000100002400008000120000480001000024000080001200082FF5A
:5C6F0C00800010000240000800012000048000100002400008000120000480001000024000080001200004800010000000000000012000048000100002400008000120000480001000024000080001200004800010000240000800012000B1FCD1
:5C6F680000000000000000000000000000000000000000000000000000000000000000000000000000000000000000000000000000000000000000000000000000000000000000000000000000000000000000000000000000000000000001FECE
:5C6FC40002000000000000000000000000000000000000000000000000000000000000000000000000000000000000000000000000000000000000000000000000000000000000000011000000000000000000000000000000000000000021FD40
:5C70200000000000000000000000000000000000000000000000000000000000000000000000000000000000000000000000000000000000000000000000000000000000000000008000000000000000000000000000000000000000000010F78D
:5C707C00020000000000000000000000000000000000000000000000000000000000000000000000000000000000000000000000000000000000000000000000000000000000000000090800000000000000000000000000000000000000B1FDF7
:5C70D80002000000000000000000000000000000000000000000000000000000000000000000000000000000000000000000000000000000000000000000000000000000000000008000000000000000000000000000000000000000000030F5B5
:5C71340004000000000000000000000000000000000000000000000000000000000000000000000000000000000000000000000000000000000000000000000000000000000000008000000000000000000000000000000000000000000050F338
:5C71900002000000000000000000000000000000000000000000000000000000000000000000000000000000000000000000000000000000000000000000000000000000000000000006010000000000000000000000000000000000000050FA50
:5C71EC0002000000000000000000000000000000000000000000000000000000000000000000000000000000000000000000000000000000000000000000000000000000000000000006000000000000000000000000000000000000000050FBF4
:5C72480002000000000000000000000000000000000000000000000000000000000000000000000000000000000000000000000000000000000000000000000000000000000000000010000000000000000000000000000000000000000031FCAB
:5C72A40000000000000000000000000000000000000000000000000000000000000000000000000000000000000000000000000000000000000000000000000000000000000000000009000000000000000000000000000000000000000080F60F
:5C73000000000000000000000000000000000000000000000000000000000000000000000000000000000000000000000000000000000000000000000000000000000000000000008000000000000000000000000000000000000000000010F7AA
:5C735C0000000000000000000000000000000000000000000000000000000000000000000000000000000000000000000000000000000000000000000000000000000000000000000009080000000000000000000000000000000000000080FE46
:5C73B80002000000000000000000000000000000000000000000000000000000000000000000000000000000000000000000000000000000000000000000000000000000000000008000000000000000000000000000000000000000000021F4E2
:5C74140000000000000000000000000000000000000000000000000000000000000000000000000000000000000000000000000000000000000000000000000000000000000000008000000000000000000000000000000000000000000001F6A5
:5C74700000000000000000000000000000000000000000000000000000000000000000000000000000000000000000000000000000000000000000000000000000000000000000000006010000000000000000000000000000000000000052FA6D
:5C74CC0000000000000000000000000000000000000000000000000000000000000000000000000000000000000000000000000000000000000000000000000000000000000000000006000000000000000000000000000000000000000061F805
