:020000040000FA
:5C000000FFFF62FF2E00FFFFFFFFFFFFFFFFFFFFFFFFFFFFFFFFFFFFFFFFFFFFFFFFFFFFFFFFFFFFFFFFFFFFFFFFFFFFFFFFFFFFFFFFFFFFFFFFFFFFFFFFFFFFFFFFFFFFFFFFFFFFFFFFFFFFFFFFFFFFFFFFFFFFFFFFFFFFFFFFFFFFFFFFFFFF6D
:5C005C0060180C8361300C86C1E01A06836B180CBE61300C86C1301806C360180C836130B806D7301806C360180C0300000000C0E01A06C360180C8361300C86C130705DC360180CAE6130B886C130185CC360700D83C1350CDCC130180600F936
:5C00B8004010080241200804815010044241100805412008048120100482401008024120148482201004824010080200000000805010048240100802412008048120280A8240100805412014048120100A8240280802A120080A8120100410F880
:5C01140000000000000000000000000000000000000000000000000000000000000000000000000000000000000000000000000000000000000000000000000000000000000000000000000000000000000000000000000000000000000010FF80
:5C01700000000000000000000000000000000000000000000000000000000000000000000000000000000000000000000000000000000000000000000000000000000000000000000000000000000000000000000000000000000000000010FF24
:5C01CC0000000000000000000000000000000000000000000000000000000000000000000000000000000000000000000000000000000000000000000000000000000000000000000000000000000000000000000000000000000000000010FFC8
:5C02280000000000000000000000000000000000000000000000000000000000000000000000000000000000000000000000000000000000000000000000000000000000000000000000000000000000000000000000000000000000000010FF6B
:5C02840000000000000000000000000000000000100000000000000000000000000000000000000000000000004000000000000000000000000000000000000000000000000000000000000000000000000000000000000000000000000000FAD4
:5C02E00000000000000000000000000000000000000000000000000000000000000400000000020000000000000000000000000000000000000000000000000000000002000000000000000000000000000000000000000000000000000070FF4B
:5C033C0000200000800004010400409800000000000000000200000800000040000080082000000000100003000000000000000000000000000000000000000000000000000000000000000000000000000000000000000000000000000030F5BA
:5C039800000020000001000010000000000040202000000010000000000000A00000808000000000000000000000000000000000000000000000000000000000000000040000000000000000000000000000000000000000000000000000E0F7CD
:5C03F40000000000000000000000000000000080000000000000000000004000000000000000000000000000000000000000000000000000000000000000000000000000000000000000000000000000000000000000000000000000000090FB62
:5C04500000000000000000000000000000000000000000000400000000000000400002000000000000000000000000000000000000000000000000000000000000000000000000000000000000000000000000000000000000000000000030F9E1
:5C04AC0000000000000000000000000000000000000000000000000000000000000000000000000000002000000000000000000000000000000000000000000000000000000000000000000000000000000000000000000000000000000010FDC7
:5C05080000000000000000000000000000000000000000000000000000000000000000000000000000000000000000000000000000000000000000000000000000000000000000000000000000000000000000000000000000000000000010FF88
:5C0564000000000040001800010000000000120000400102000000000480028000006000000001A0000400005000020000000000000000000000000000000000000000400000000000000000000000000000000000000000000000000000D0F12F
:5C05C00000000000000000000000200000000400000080000000020008000000200000001084000000000000101001000000000000000000000000000000000000000000000000000000000000000000000000000000000000000000000090F1DB
:5C061C0000000100000400000000004000000000000000000400000000000000002001200004000000000200000000000000000000000000000000000000000000000000000000000000000000000000000000000000000000000000000050FEA4
:5C067800000000000000000000000000000000400000000000000000000000000000080000000000000000000000000000000000000000000000000000000000000000000000000000000000000000000000000000000000000000000000D0F717
:5C06D40000000000000000000000000000000000000000000000000000000000000000000000000000000000000000000000000000000000000000000000000000000000000000000000000000000000000000000000000000000000000010FFBB
:5C07300000000000000000000000000000000000000000000000000000000000000000000000000000000100000000000000000000000000000000000000000000000000000000000000000000000000000000000000000000000000000000FF6D
:5C078C0000000000010800000000000000000008000000080000010000000001080200000000000004000000000000000000000000000000000000000000000000000004000000000000000000000000000000000000000000000000000020F6CE
:5C07E80000000000020000010000000000000000000000000000410000046000004000000000000000000001200000000000000000000000000000000000000000000000000000000000000000000000000000000000000000000000000060FC50
:5C084400000000000010000000000000000000000000000000400000000900000000000000002000000000000000000000000000000000000000000000000000000008000000000000000000000000000000000000000000000000000000F0F5F2
:5C08A00000000000000000000000000000000000000000000010000000000000000000000000000000000000000000000000000000000000000000000000000000000000000000000000000000000000000000000000000000000000000000FFED
:5C08FC0000000000000000000000000000000000000000001000000000000000000000000000000000000800000000000000000000000000000000000000000000000000000000000000000000000000000000000000000000000000000090FEFA
:5C09580000000000000000000000000000000000000000000000000000000000020000010000000000000040000000000000000000000000000000000000000000001000000000000000000000000000000000000000000000000000000050FDA3
:5C09B40040000000200000000000000000000400000000010000100000400000000100000000000000000000000000000000000000000000000000000000000000000000000000000000000000000000000000000000000000000000000070F9C8
:5C0A100000000000000028000000000000000000080001800000800000000212000000002000000002000000000000000000000000000000000000000000000000000000000000000000000000000000000000000000000000000000000090FC97
:5C0A6C0000000000000000000000000000000000000000000000000000000000000000000000000000000000000000000000000000000000000000000000000000000000000000000000000000000000000000000000000000000000000010FF1F
:5C0AC80000000000000000000000000000000000000000000000000000000008000000000000000000000000000000000000000000000000000000000000000000000000000000000000000000000000000000000000000000000000000090F743
:5C0B240000000000000000000000000000000000000000000000000000000000000000000000000000000000000000000000000000000000000000000000000000000000000000000000000000000000000000000000000000000000000010FF66
:5C0B800000000000000000000000000000000000000000000000000000000000000000000000001000000000000000000000000000000000000000000000000000000000000000000000000000000000000000000000000000000000000010FEFB
:5C0BDC0000020110081003020020000080400A0580000042020000002001800020110002458200040160B004020401000000000020000020000000001000800000001004000000000100004800000000040000104000400000040000000010F654
:5C0C38000000000000000000000000000000000000000000000000000000000000000000000000000000B004000000000000000000000000000000000000000000001000000000000000004000000000000000000000000000040000000050F117
:5C0C940000400000000000000000000000004000000000000000000000000000000000002000000000000000000000000000000000000000000000001000000000000000000000000000000000000000000000000000000000000000000050FC08
:5C0CF00000000000000000000020000080000000000000000000000000000000201000000480000000000000000000000000000020000020000000000000800000000004000000000100000800000000040000104000400000000000000050F5AE
:5C0D4C0000020110089003020000000000406A158000004202000000200100002005008241020004016000000304010000000000000000000000000000000000000000000000000000000000000000000000000000000000000000000000E0FEC2
:5C0DA80002000000000000000000000000000000000000000000000000000000000000000000000000000000000000000000000000000000000000000000000000000000000000000000000000000000000000000000000000000000000021FCD0
:5C0E040000000000000000000000000000000000000000000000000000000000000000000000000000000000000000000000000000000000000000000000000000000000000000000000000000000000000000000000000000000000000010FF83
:5C0E600080001200024000080001200004800010100240000800012000048000100002400008000120000480001000000000000001200004800010000240000800012000048000100002400008000120000480001000024000080001200090FCED
:5C0EBC0000021000480002080001200004800040000240000800012000048000400202400020100120000090001000000000000001200004800010000240000800018080048000100002400008000120000480001000024000080001200000F13E
:5C0F180000011010400008000000001000000080000040040000006002280000000004C00000008000048000000000000000000000000000000000000000000000000010000000000000000000000000000000000000000000000000000090F45A
:5C0F740022830C800D3000A40000980000E0234C0000300036010018000B0000008007340500C007180013400A3C0200000000000000000000000000000000000000D800000000000000000000000000000000000000000000000000000041F556
:5C0FD00020090000008000020000400000800900000000010000000001080000000086000000001360080820000000000000000000000000000000000000000000000000000000000000000000000000000000000000000000000000000060F7C7
:5C102C00420388000DA8011D0200D04000C00108000020011402001000020400000007200400800370001A4800C80000000000000000000000000000000000000000D0040000000000000000000000000000000000000000000000000000B1F0E3
:5C108800200040000000009A0000000000800530000000000000000001080100000006000200000B000020A0012000000000000000000000000000000000000000000000000000000000000000000000000000000000000000000000000010FE51
:5C10E400E00900002880413A00000008008001300000000220040080001C00000000160001000003000010A0016040000000000000000000000000000000000000008002000000000000000000000000000000000000000000000000000050FFED
:5C1140008001010804001018000000000080013000000010300000000008000000000600000000030000008081001000000000000000000000000000000000000000C0000000000000000000000000000000000000000000000000000000F0FAE0
:5C119C0080030000048401182000E002008001300000000110000000004C0000000026000000000300005C800300000000000000000000000000000000000000000040000000000000000000000000000000000000000000000000000000C0F0CB
:5C11F80002000000000008000100400000001020040000080000100000408000010000000400002000020800412000000000000000000000000000000000000000000004000000000000000000000000000000000000000000000000000041F27D
:5C1254006000028005B80126000018800060032400003001368100000002E001EC804B20003EC10410009360032410000000000000000000000000000000000000009800000000000000000000000000000000000000000000000000000060F88A
:5C12B000000300000A0000000000400000000025000080000042000000018001000800110000000208001800012400000000000000000000000000000000000000006000000000000000000000000000000000000000000000000000000020F15B
:5C130C004001000007A021241000F080004001680100A004348000000002C00129000B20001C841210000E40806801000000000000000000000000000000000000007040000000000000000000000000000000000000000000000000000050FCCA
:5C136800020000000002040000004008000000040100000000410300000D8005000100D0000004006A000801018400000000000000000000000000000000000000000000000000000000000000000000000000000000000000000000000011F030
:5C13C4000041000008000000080040000000043C0000801120400300000D8001000000D8001000066800080083740000000000000000000000000000000000000000E0400000000000000000000000000000000000000000000000000000A0F075
:5C142000000000008680010000004002000001300000000430000300008C8001200012C000080200600048000970000000000000000000000000000000000000000000000000000000000000000000000000000000000000000000000000E0F9BC
:5C147C00000700000680001800004000000009302000800110000304000C800162100AC04118000EE0040880037000000000000000000000000000000000000000006000000000000000000000000000000000000000000000000000000090F649
:5C14D80080010000000008000000000000000100010080020000220000288040000000800000000240040000002000000000000000000000000000000000000000000040000000000000000000000000000000000000000000000000000060F922
:5C153400E241000019B00044000018800020816C0000900036C10610020B60022CC043B00926410A58009F4008241000000000000000000000000000000000000000D800000000000000000000000000000000000000000000000000000011FACB
:5C159000800100800040000300006004002009000000101000004208000800001000008110504000000000200024010000000000000000000000000000000000000000000000000000000000000000000000000000000000000000000000B0FC9A
:5C15EC00C005000001E0010400007000004001281000E00014840010000241027A0803E00014800351200E410028000000000000000000000000000000000000000090200000000000000000000000000000000000000000000000000000B0FFFF
:5C164800800900800600401A00000008002004800000900400000668000800200000008010004412400000A2010401000000000000000000000000000000000000000000000000000000000000000000000000000000000000000000000060FFDA
:5C16A400820300800600001A0000A00000A003000000900020080268000C02024040088101104002401008A00174000000000000000000000000000000000000000040020000000000000000000000000000000000000000000000000000A1F6AE
:5C1700008001020046C0003800004008008001204000C0003000026000080000310012800000008360000481013000000000000000000000000000000000000000004000000000000000000000000000000000000000000000000000000030FB82
:5C175C008000000006C0101800006000008013200000C020100017E0045C000230040A0005100103C0020C8003711000000000000000000000000000000000000000C010000000000000000000000000000000000000000000000000000090F5E9
:5C17B800000000000480009800000010008008000200000019020840044000040000040000100800040180004120000000000000000000000000000000000000000000080000000000000000000000000000000000000000000000000000A0FCCE
:5C181400600002800C924026000098000060004C0019F0003E80005800126002EC8004220232C00310001B60032410000000000000000000000000000000000000009800000000000000000000000000000000000000000000000000000000FCDC
:5C187000828000802490008000004000000000208000002018400060000100000080041000120004080000040124000000000000000000000000000000000000000000000000000000000000000000000000000000000000000000000000A1FB36
:5C18CC00C00200000DA004040000D040004022A80001E0007C80005020024006684025200094800370080A408028010000000000000000000000000000000000000070800000000000000000000000000000000000000000000000000000A0FAA1
:5C192800001000800010004000000020000004008406000018600340000D0001808010D000820040680020002184000000000000000000000000000000000000000060000000000000000000000000000000000000000000000000000000F0F3FA
:5C1984008002008027D0052000008000000000608006002138400340100D8005408006D0001E000068020000033400000000000000000000000000000000000000000020000000000000000000000000000000000000000000000000000060F63A
:5C19E0000240000006C1000000000000000040000006C00018002300020C8001200046C00118000360000800093008000000000000000000000000000000000000006000000000000000000000000000000000000000000000000000000051F541
:5C1A3C00800200000EC011000000600100000060100EC40028040340001C880B200806C000382003608008880170000000000000000000000000000000000000000060000000000000000000000000000000000000000000000000000000D0F0E2
:5C1A980000100000400002000000400100000120000000080800020200808081200400C00010000200040000002000000000000000000000000000000000000000004000000000000000000000000000000000000000000000000000000020FB34
:5C1AF400600100800D20012604004800002081240100300126C40610011FE001248043F08112481618009B40042C020000000000000000000000000000000000000058200000000000000000000000000000000000000000000000000000D0F2F6
:5C1B500000000000001200000000080000200504040080000020420800008801A50000C040524000002004200000000000000000000000000000000000000000000040000000000000000000000000000000000000000000000000000000E0FCE8
:5C1BAC00420302000D2000040000F020004001380000A003248000100012C00328000BE80114800371003E4000C800000000000000000000000000000000000000001004000000000000000000000000000000000000000000000000000091F9A8
:5C1C08000010000000D0001800004800002000A4000000200001026800008021040000C20002400A000000A20100020000000000000000000000000000000000000040000000000000000000000000000000000000000000000000000000B0F7B2
:5C1C64000002000010D000180000480200A00B24000080012000826800008102340108C0005A4002804010A001300000000000000000000000000000000000000000C010000000000000000000000000000000000000000000000000000030F9D0
:5C1CC0000001000004C000180000604000800130000000040000026080008041300012000018200301080C81810004000000000000000000000000000000000000004000000000000000000000000000000000000000000000000000000010F615
:5C1D1C000207000004C100190000E0000080437008008001200813600000800370200A000038000340000C80034000000000000000000000000000000000000000006001000000000000000000000000000000000000000000000000000061F232
:5C1D78000001200000C000500000400000001000200080001002084004000001201004800000042060008000112000000000000000000000000000000000000000000001000000000000000000000000000000000000000000000000000050FA5B
:5C1DD4002083A48003F82016000058800060014C00009005128004580032E021648004B20936C00498020F600324100000000000000000000000000000000000000010000000000000000000000000000000000000000000000000000000D0F6CD
:5C1E3000200104040C0002180000000800804030080010101240004020018011248004001000200A00000000012400000000000000000000000000000000000000000800000000000000000000000000000000000000000000000000000050FF45
:5C1E8C0040053800072000140800700000C003380000E000548000900002C003680115A0001480061002024280A800000000000000000000000000000000000000001000000000000000000000000000000000000000000000000000000010F57B
:5C1EE8002200240000040010040040040000200000009000024003C0000D80810480208020000000000108000104000000000000000000000000000000000000000068000000000000000000000000000000000000000000000000000000D1F2BC
:5C1F4400A00BE4000E0000300000C0000000007001009002BA400340000D8003BC8006800160000684000801833440000000000000000000000000000000000000006800000000000000000000000000000000000000000000000000000020F8B7
:5C1FA000804130208000008000004001008001000000C00018000341010C8001300406C400100200000000020530000000000000000000000000000000000000000060400000000000000000000000000000000000000000000000000000C0FAC7
:5C1FFC0080017000060000100000C000008021300000C08118080760000C908370000E800430000E00000080017004000000000000000000000000000000000000006000000000000000000000000000000000000000000000000000000050FA2B
:5C205800020100000480800000000000000010300000000110020201000C00000202040000100000040008800900000000000000000000000000000000000000000040020000000000000000000000000000000000000000000000000000B1F132
:5C20B400208300800CB2016400007880006003FC0000F00112C00210085F60021C801F200326C103900119E4033C0200000000000000000000000000000000000000C800000000000000000000000000000000000000000000000000000000F145
:5C211000200500801480000200000000000002340000C00452004268000000402000861002500000080029000800000000000000000000000000000000000000000008100000000000000000000000000000000000000000000000000000B0F702
:5C216C00400300000D20400400007020004001380000E000348000F00122400078080FE0001C804310001A4000C800000000000000000000000000000000000000007000000000000000000000000000000000000000000000000000000060F330
:5C21C800200400801080011A00000020000000040000C0008200020801000003004006D0021002006C000100002000000000000000000000000000000000000000004801000000000000000000000000000000000000000000000000000000F008
:5C222400A20100800680001A00004000000006040000C0023A0007E900008001700016D00110000468004D0000200800000000000000000000000000000000000000D800000000000000000000000000000000000000000000000000000031FE95
:5C228000800101000680021808002008000001000000C0001810020000008001000006C00010000360001C00000008000000000000000000000000000000000000006020000000000000000000000000000000000000000000000000000040F631
:5C22DC00800100008EC0003800006000000009000000C00018000BE040008013300426C000B10003E0201C00000000000000000000000000000000000000000000006000000000000000000000000000000000000000000000000000000090FBCB
:5C23380080000002448000500000400000001030000404001102010004288001300204008000011140040880052000000000000000000000000000000000000000004000000000000000000000000000000000000000000000000000000090FCE5
:5C23940062124C800D9040160000C801006001FC800DF00012C01018000BE0033D800C32010EC000580039E001BC00000000000000000000000000000000000000008801000000000000000000000000000000000000000000000000000031F885
:5C23F00000002001049000100000080000800031000400401200000008088001008004000010008040000100803000000000000000000000000000000000000000004802000000000000000000000000000000000000000000000000000020F4C9
:5C244C004004680001A2031C0800F02000C003380001E200748014100002C14108041D20813C840410201E44007801000000000000000000000000000000000000007000000000000000000000000000000000000000000000000000000060F655
:5C24A800000400000410041020004802000000000084000082000060001800210080000010000008400849000030000000000000000000000000000000000000000048040000000000000000000000000000000000000000000000000000F0FD11
:5C2504000002401004F101100000C80000000001000C00801A000860000C800100802E0000980000C0001B00003001000000000000000000000000000000000000006800000000000000000000000000000000000000000000000000000000FE07
:5C2560000200001024C0015000006080008001000004C0001820000000088003000006000000020040010C00003001000000000000000000000000000000000000004020000000000000000000000000000000000000000000000000000061F5B4
:5C25BC000000710006C001200000E000008021000026C00018002000002C8003000006C100180000E4001C02003000000000000000000000000000000000000000006000000000000000000000000000000000000000000000000000000020F09C
:5C261800800010000240000800002000008000100002400008000120000400001000024000080001200004800010000000000000000000000000000000000000000020000000000000000000000000000000000000000000000000000000C0F18D
:5C26740000000000000000000000000000000000000000000000000000000000000000000000000000000000000000000000000000000000000000000000000000000000000000000000000000000000000000000000000000000000000010FFFB
:5C26D00000000000400000000001800004000000000000000008000000008000000000080000010000000004000000000000000001200004800010000240000800010040048000100002400008000120000480001000024000080001200030FAEC
:5C272C00000241200000000900018000040040400202004020000120000480000010084000200004220010800040020000000000012000048000100002400008000100000480001000024000080001200004800010000240000800012000E0FB8E
:5C27880000126081AA000000080000202800C318000C0004A0C80A00002004000811288041205000010653203C0400000000000000000000000000000000000000000001000000000000000000000000000000000000000000000000000060FFFB
:5C27E400000100000000020000000000000000000000000000000000000000000000000000000000000000000040000000000000000000000000000000000200000000000000000000000000000100080000000000000000000000000000B0F3A8
:5C28400000000400000000020000001000200000000000000000000800000000400000000002000000000000000020000000008000000000000000000000000000080000004000080000000000000000000200000000000000008000000090FCBE
:5C289C0000000000000000000000000000000000100000000000000000000000800000000480000000008000000010000000000000000000000000002000000000000000000400000000100800000000000000000000000000000000000080FD83
:5C28F8000013448128000202080000202020820810080004A0C8080800200400D811280045A250010106D3201C44300000000080000000000000000020000200000820090044000800001008000100080002000000000000000080000000B0F49D
:5C29540000000000000000000000000000000000000000040000000000000000000000000000000000000000000000000000000000000000000000000000000000000000000000000000000000000000000000000000000000000000000010FB18
:5C29B00000000000000000000000000000000000000000000000000000000000000000000000202000000000000000000000000000000000000000000000000000000000000000000000000000000000000000000000000000000000000030FF5C
:5C2A0C0000000200000000000000000000000000000000000000000000000000000000000000000000000000000000000000000000000000000000000000000000001000000000000000000000000000000000000000000000000000000030FE2E
:5C2A6800000008000120000400000805004000080000200000880000000200000000000000408000000002000400020000000000000000000000000000000000000000010000000000000000000000000000000000000000000000000000F0F934
:5C2AC400008000080000000010000000004080000000000000000000120000080000000280004000004240080000040000000000000000000000000000000000000000090000000000000000000000000000000000000000000000000000B0F14A
:5C2B20000000000A101000000200000000000000040800080002000040100000000000000020000004000000020000000000000000000000000000000000000000000000000000000000000000000000000000000000000000000000000010FC95
:5C2B7C0000000000000000000000000000000000000000000001000000000000000000000000000000000000000000000000000000000000000000000000000000000000000000000000000000000000000000000000000000000000000000FEFE
:5C2BD80000480000000000000000000000000000000000000000000000000000000000000000000000000000000400000000000000000000000000000000000000000000000000000000000000000000000000000000000000000000000010F352
:5C2C340000000000000000000000000000000000000000000000001000000000000000000000000010000000000800000000000000000000000000000000000000000000000000000000000000000000000000000000000000000000000080FE9E
:5C2C900000000000000000000000008000000000000000000000000000000000000000000000000000000000000000000000000000000000000000000000000000000020000000000000000000000000000000000000000000000000000030F721
:5C2CEC0020000004008002000000000400000100020000008002000000000020A000000400C80000000001000000410000000000000000000000000000000000000000000000000000000000000000000000000000000000000000000000A0FEF1
:5C2D4800000000040400010000004010000000000000100000002040000000000000200001100000C0040800008000000000000000000000000000000000000000000010000000000000000000000000000000000000000000000000000040F1A8
:5C2DA40000000000000000000000000000000000000000000000000000002000024000000000000000000000000000000000000000000000000000000000000000002000000000000000000000000000000000000000000000000000000010F948
:5C2E000000000000000000000000000000000000000000000000000000000000000000000000000000000000000000000000000000000000000000000000000000000000000000000000000000000000000000000000000000000000000010FF67
:5C2E5C00000004800000000000000000002000000000000000000000000000000000000000000002000000000000000000000000000000000000000000000000000000000000000000000000000000000000000000000000000000000000D0FDA7
:5C2EB80000800000000000000000000000000000000000000000000000000000000000000000000000000000000000000000000000000000000000000000000000002000000000000000000000000000000000000000000000000000000090F599
:5C2F140000000000000201100000000000000000040000204000404000000000000410000000000040000004200020000000000000000000000000000000000000000000000000000000000000000000000000000000000000000000000000FBD7
:5C2F700000000100800000000000800000000100000000032000000000000044000104000000100000002000004000000000000000000000000000000000000000000000000000000000000000000000000000000000000000000000000050F9DE
:5C2FCC0000000000000000000000000000000000000000000000000000000000000800000000000000000000000000000000000000000000000000000000000000000000000000000000000000000000000000000000000000000000000090FF12
:5C30280000000000000000000000000000000000000000000000000000000000000000000000000000000000000000000000000000000000000000000000000000000000000000000000000000000000000000000000000000000000000010FF3D
:5C30840000000000000000000000000000000000000000000000000000000000000000000000000000000000000000000000000000000000000000000000000000000020000000000000000000000000000000000000000000000000000030FFA1
:5C30E00000000000000000000000000000000000000000000000000000000000000000000000000000000000000000000000000000000000000000000000000000000000000000000000000000000000000000000000000000000000000010FF85
:5C313C00004000000800804000000000000008000000004000000002000008000000020010000400000800000010000000000000000000000000000000000000000000000000000000000000000000000000000000000000000000000000D0FDE2
:5C31980080240001004000400000000800808000010000040020002000000001100000000208008020008400000000000000000000000000000000000000000000008000000000000000000000000000000000000000000000000000000000FFAB
:5C31F400000800000000000200000000000000000000000000000000000000000100001000000000020000000000000000000000000000000000000000000000000000900000000000000000000000000000000000000000000000000000B0F72B
:5C32500040000200000000000000100000000800000000000000000000000000000010080000000A00004000000000000000000000000000000000000000000000000000000000000000000000000000000000000000000000000000000050F224
:5C32AC0000000000000000000000000000000000000000000000000000000000000000000000000000000000000000000000000000000000000000000000000000000000000000000000000000000000000000000000000000000000000010FFB7
:5C33080010001000000000000000000000000000000000000000000000000000000000000000000000000000000000000000000000000000000000000000000000000000000000000000000000000000000000000000000000000000000000FE4B
:5C336400000000040000000000000000400000000000000000000000000000000001800000000000000000000000040000000000000000000000000000000000000000000000000000000000000000000000000000000000000000000000C0FF85
:5C33C00000000000000000000000000000000000000000000000000000000000000400000000000000000000000000000000000000000000000000000000000000000000000000000000000000000000000000000000000000000000000050FF5E
:5C341C0000000000000000000000000000000000000000000000000000000000000000000000000000000000000000000000000000000000000000000000000000000000000000000000000000000000000000000000000000000000000010FF45
:5C34780000000000000000000000000000000000000000000000000000000000000000000000000000000000000000000000000000000000000000000000000000000000000000000000000000000000000000000000000000000000000010FFE9
:5C34D40000000000000000000000000000000000000000000000000000000000000000000000000000000000000000000000000000000000000000000000000000000000000000000000000000000000000000000000000000000000000010FF8D
:5C35300000000000000000000000000000000000000000000000000000000000000000000000000000000000000000000000000000000000000000000000000000000000000000000000000000000000000000000000000000000000000010FF30
:5C358C0000000000000000000000000000000000000000000000000000000000000000000000000000000000000000000000000000000000000000000000000000000000000000000000000000000000000000000000000000000000000010FFD4
:5C35E80000000000000000000000000000000000000000000000000000000000000000000000000000000000000000000000000000000000000000000000000000000000000000000000000000000000000000000000000000000000000010FF78
:5C36440000000000000000000000000000000000000000000000000000000000000000000000000000000000000000000000000000000000000000000000000000000000000000000000000000000000000000000000000000000000000010FF1B
:5C36A00000000000000000000000000000000000000000000000000000000000000000000000000000000000000000000000000000000000000000000000000000000000000000000000000000000000000000000000000000000000000010FFBF
:5C36FC0000000000000000000000000000000000000000000000000000000000000000000000000000000000000000000000000000000000000000000000000000000000000000000000000000000000000000000000000000000000000010FF63
:5C37580000000000000000000000000000000000000000000000000000000000000000000000000000000000000000000000000000000000000000000000000000000000000000000000000000000000000000000000000000000000000010FF06
:5C37B40008000000000000000000000000000000000000000000000000000000000000000000000000000000000000000000000000000000000000000000000000000000000000000000000000000000000000000000000000000000000090F72A
:5C38100002000000000000000000000000000000000000000000000000000000000000000000000000000000000000000000000000000000000000000000000000000000000000000000000000000000000000000000000000000000000030FD2D
:5C386C0000000000000000000000000000000000000000000000000000000000000000000000000000000000000000000000000000000000000000000000000000000000000000000000000000000000000000000000000000000000000010FFF1
:5C38C80000000000000000000000000000000000000000000000000000000000000000000000000000000000000000000000000000000000000000000000000000000000000000000000000000000000000000000000000000000000000010FF95
:5C39240000000000000000000000000000000000000000000000000000000000000000000000000000000000000000000000000000000000000000000000000000000000000000000000000000000000000000000000000000000000000010FF38
:5C39800000000000000000000000000000000000000000000000000000000000000000000000000000000000000000000000000000000000000000000000000000000000000000000000000000000000000000000000000000000000000010FFDC
:5C39DC0000000010000000000000000004000000000000000000000000000000000002000000000000000000000010000000000000000000000000000000000000000000000000000000000000000000000000000000000000000000000070F900
:5C3A380000000001000000000000000000000000000000000000000000000000000000000000000000004000000001000000000000000000000000000000000000000000000000000000000000000000000000000000000000000000000010FBE5
:5C3A940000000000000000000000000000000000000000000000000000000000000000000000000000000000000000000000000000000000000000000000000000000000000000000000000000000000000000000000000000000000000010FFC7
:5C3AF00000000000000000000000000000000000000000000000000000000000000000000000000000000000000000000000000000000000000000000000000000000000000000000000000000000000000000000000000000000000000010FF6B
:5C3B4C00120000020000000000000000800000000000000000000000000000000002400000000000000080000000020000000000000000000000000000000000000000000000000000000000000000000000000000000000000000000000C0F510
:5C3BA80000000000000000000000000000000000000000000000000000000000000000000000000000000000000000000000000000000000000000000000000000000000000000000000000000000000000000000000000000000000000010FFB2
:5C3C040000000410000000000000000000000000000000000000000000002000488008000000000000001803000001000000000000000000000000000000000000000000000000000000000000000000000000000000000000000000000020F232
:5C3C600000000000000000000000000000000000000000000000000000002000000000000000000000000000000000000000000000000000000000000000000000000000000000000000000000000000000000000000000000000000000010FDDB
:5C3CBC0000000000000000000000000000000000000000000000000000000000400000000000000000000000000000000000000000000000000000000000000000000000000000000000000000000000000000000000000000000000000050FB21
:5C3D1800000000000000000000000000000000000000000000000000000000000000000000000000000008020000000000000000000000000000000000000000000000000000000000000000000000000000000000000000000000000000B0FD98
:5C3D7400000004100000000000000000000000000000000000000000000000000880080000000000000010000000010000000000000000000000000000000000000000000000000000000000000000000000000000000000000000000000D0F777
:5C3DD00002000000000000000000000000000000000000000000000000000000000000000000000000000000000000000000000000000000000000000000000000000000000000000000000000000000000000000000000000000000000021FC78
:5C3E2C0002000000000000000000000000000000000000000000000000000000000000000000000000000000000000000000000000000000000000000000000000000000000000000000000000000000000000000000000000000000000030FD0B
:5C3E8800840010000240000800012000048000100002400008000120000480001000024000080001200004800010000000000000012000048000100002400008000120000480001000024000080001200004800010000240000800012000E0F956
:5C3EE40082001000024000080001200004800010000240000800012000048000100002400008000120000480001000000000000001200004800010000240000800012000048000100002400008000120000480001000024000080001200080FF56
:5C3F400002000000000000000000000000000000000000000000000000000000001004000000000000000C00002008000000000000000000000000000000000000000000000000000000000000000000000000000000000000000000000030F2B9
:5C3F9C0002003C2000000000000000008B0000000000000000000000000000006C8045000000000000001F02002C00000000000000000000000000000000000000000000000000000000000000000000000000000000000000000000000091F2DF
:5C3FF80000001400000000000000000000000000000000000000000000000000000004000000000000000001002000000000000000000000000000000000000000000000000000000000000000000000000000000000000000000000000000F93B
:5C4054000200780100000000000000005A00000000000000000000000000000068010F040000000000001200007810000000000000000000000000000000000000000000000000000000000000000000000000000000000000000000000071F3C1
:5C40B00002000401000000000000000020000000000000000000000000000000000004000000000000000C00002004000000000000000000000000000000000000000000000000000000000000000000000000000000000000000000000080FEDB
:5C410C000400640000000000000000001000000000000000000000000000000000080C020000000000000C00006000000000000000000000000000000000000000000000000000000000000000000000000000000000000000000000000080F5E8
:5C41680002001000000000000000000008000000000000000000000000000000000004080000000000000C00002040000000000000000000000000000000000000000000000000000000000000000000000000000000000000000000000070FAFF
:5C41C4000200301000000000000000000802000000000000000000000000000030010C000000000000000C00006000000000000000000000000000000000000000000000000000000000000000000000000000000000000000000000000080FD2D
:5C42200002000008000000000000000008000000000000000000000000000000000800000000000000000C00000000000000000000000000000000000000000000000000000000000000000000000000000000000000000000000000000061FCBF
:5C427C0000003C0000000000000000003B0000000000000000000000000000003C8043000000000000001F02003C20000000000000000000000000000000000000000000000000000000000000000000000000000000000000000000000020F3E0
:5C42D80000002000000000000000000008020000000000000000000000000000A00004000000000000000001001401000000000000000000000000000000000000000000000000000000000000000000000000000000000000000000000030F87E
:5C4334000000781000000000000000000A0000000000000000000000000000005800170000000000000012000078000000000000000000000000000000000000000000000000000000000000000000000000000000000000000000000000B0FEF4
:5C43900002000000000000000000000008040000000000000000000000000000000010000000000000000C00000400000000000000000000000000000000000000000000000000000000000000000000000000000000000000000000000031F082
:5C43EC000000702000000000000000000400000000000000000000000000000030010E000000000000000C00006401000000000000000000000000000000000000000000000000000000000000000000000000000000000000000000000020F61B
:5C44480000000002000000000000000028000000000000000000000000000000400000000000000000000C00001000000000000000000000000000000000000000000000000000000000000000000000000000000000000000000000000010F092
:5C44A4000000300000000000000000001800000000000000000000000000000030000E020000000000000C00003010000000000000000000000000000000000000000000000000000000000000000000000000000000000000000000000080F870
:5C4500000000A000000000000000000000000000000000000000000000000000800000000000000000000C000020080000000000000000000000000000000000000000000000000000000000000000000000000000000000000000000000D0F744
:5C455C0002002C000000000000000000430000000000000000000000000000000C8041000000000000001F02002C000000000000000000000000000000000000000000000000000000000000000000000000000000000000000000000000D1F9AE
:5C45B8000000A000000000000000000000000000000000000000000000000000000006000000000000000001002000000000000000000000000000000000000000000000000000000000000000000000000000000000000000000000000060F090
:5C4614000000780000000000000000000202000000000000000000000000000008080F020000000000001200007810000000000000000000000000000000000000000000000000000000000000000000000000000000000000000000000070FBA8
:5C46700000002000000000000000000000000000000000000000000000000000000000000000000000000C0000A0000000000000000000000000000000000000000000000000000000000000000000000000000000000000000000000000D0F75B
:5C46CC0002007010000000000000000000000000000000000000000000000000000000000000000000000C000060000000000000000000000000000000000000000000000000000000000000000000000000000000000000000000000000F1FDB6
:5C4728000200200000000000000000000C000000000000000000000000000000300000000000000000000C00002040000000000000000000000000000000000000000000000000000000000000000000000000000000000000000000000040F239
:5C4784000400702000000000000000000C000000000000000000000000000000300000000000000000000C00006000000000000000000000000000000000000000000000000000000000000000000000000000000000000000000000000040F568
:5C47E00002000000000000000000000000000000000000000000000000000000000120000000000000000002000000000000000000000000000000000000000000000000000000000000000000000000000000000000000000000000000020FF39
:5C483C0002004C1000000000000000008F0000000000000000000000000000006C8007000000000000000700008C00000000000000000000000000000000000000000000000000000000000000000000000000000000000000000000000030FB82
:5C4898000200000000000000000000000002000000000000000000000000000004800008000000000000080000B0000000000000000000000000000000000000000000000000000000000000000000000000000000000000000000000000A1F1EA
:5C48F4000000482000000000000000000E00000000000000000000000000000078200D000000000000000E01004800000000000000000000000000000000000000000000000000000000000000000000000000000000000000000000000080F086
:5C4950000000300000000000000000000800000000000000000000000000000014800200000000000000200000B0000000000000000000000000000000000000000000000000000000000000000000000000000000000000000000000000A0F2DB
:5C49AC0000003000000000000000000034000000000000000000000000000000348126000000000000001C000000000000000000000000000000000000000000000000000000000000000000000000000000000000000000000000000000C0F0A4
:5C4A080002000000000000000000000000040000000000000000000000000000100000000000000000004000003000000000000000000000000000000000000000000000000000000000000000000000000000000000000000000000000031FE9D
:5C4A64000000000000000000000000000C000000000000000000000000000000301004020000000000000C00003000000000000000000000000000000000000000000000000000000000000000000000000000000000000000000000000071F502
:5C4AC00000003008000000000000000000000000000000000000000000000000001002000000000000000C00000000000000000000000000000000000000000000000000000000000000000000000000000000000000000000000000000052F5FD
:5C4B1C0000003C000000000000000000330000000000000000000000000000007C8047000000000000001F02003C200000000000000000000000000000000000000000000000000000000000000000000000000000000000000000000000B1FA63
:5C4B7800000030000000000000000000000400000000000000000000000000000008020100000000000000010014010000000000000000000000000000000000000000000000000000000000000000000000000000000000000000000000E1FBB0
:5C4BD400020038080000000000000000020000000000000000000000000000003800070000000000000012000038000000000000000000000000000000000000000000000000000000000000000000000000000000000000000000000000E1FBDC
:5C4C300000000002000000000000000020000000000000000000000000000000A00006000000000000000000008400000000000000000000000000000000000000000000000000000000000000000000000000000000000000000000000090F953
:5C4C8C0000001000000000000000000010000000000000000000000000000000500012000000000000000000002400000000000000000000000000000000000000000000000000000000000000000000000000000000000000000000000020FB0B
:5C4CE80000001001000000000000000000010000000000000000000000000000400002000000000000000000001000000000000000000000000000000000000000000000000000000000000000000000000000000000000000000000000060F9B3
:5C4D44000200700000000000000000000800000000000000000000000000000030000E020000000000000000003010000000000000000000000000000000000000000000000000000000000000000000000000000000000000000000000061FFB9
:5C4DA00000008000000000000000000000000000000000000000000000000000001010000000000000000C000000100000000000000000000000000000000000000000000000000000000000000000000000000000000000000000000000C1F743
:5C4DFC0000001C000000000000000000330000000000000000000000000000007C8001000000000000001F02000C00000000000000000000000000000000000000000000000000000000000000000000000000000000000000000000000082FE62
:5C4E580000001400000000000000000000040000000000000000000000000000008804000000000000000001003000000000000000000000000000000000000000000000000000000000000000000000000000000000000000000000000091F5A3
:5C4EB40000009800000000000000000002000000000000000000000000000000380017000000000000001200004820000000000000000000000000000000000000000000000000000000000000000000000000000000000000000000000071FCD2
:5C4F100002008400000000000000000020000000000000000000000000000000208402080000000000000C00003040000000000000000000000000000000000000000000000000000000000000000000000000000000000000000000000081F7FD
:5C4F6C0000005400000000000000000010000000000000000000000000000000108008000000000000000C00000000000000000000000000000000000000000000000000000000000000000000000000000000000000000000000000000010FBD6
:5C4FC80000000000000000000000000000000000000000000000000000000000000006000000000000000C000030000000000000000000000000000000000000000000000000000000000000000000000000000000000000000000000000B0FAA1
:5C5024000000001000000000000000000C000000000000000000000000000000700406020000000000000C00003000000000000000000000000000000000000000000000000000000000000000000000000000000000000000000000000050F319
:5C50800002000001000000000000000040000000000000000000000000000000000100000000000000000000000000000000000000000000000000000000000000000000000000000000000000000000000000000000000000000000000061FD32
:5C50DC0000000C000000000000000000130000000000000000000000000000000C8029000000000000004300004C08000000000000000000000000000000000000000000000000000000000000000000000000000000000000000000000021F8F4
:5C51380000000400000000000000000029000000000000000000000000000000A4801400000000000000290000A4000000000000000000000000000000000000000000000000000000000000000000000000000000000000000000000000E2FE09
:5C5194000000081000000000000000001E00000000000000000000000000000078000D000000000000001A000078000000000000000000000000000000000000000000000000000000000000000000000000000000000000000000000000E1F49D
:5C51F00000003400000000000000000005000000000000000000000000000000148002080000000000002500001440000000000000000000000000000000000000000000000000000000000000000000000000000000000000000000000071FCA6
:5C524C000200340000000000000000001508000000000000000000000000000054A0080000000000000001000054000000000000000000000000000000000000000000000000000000000000000000000000000000000000000000000000A1F4CD
:5C52A8000000000000000000000000000C000000000000000000000000000000300006000000000000000C00003000000000000000000000000000000000000000000000000000000000000000000000000000000000000000000000000040F5F7
:5C5304000000000000000000000000000C040000000000000000000000000000301004020000000000000804003010000000000000000000000000000000000000000000000000000000000000000000000000000000000000000000000070F447
:5C53600000000000000000000000000040000000000000000000000000000000000020000000000000000000000000000000000000000000000000000000000000000000000000000000000000000000000000000000000000000000000070FF22
:5C53BC0002000C080000000000000000030000000000000000000000000000008C8007000000000000000301000C01000000000000000000000000000000000000000000000000000000000000000000000000000000000000000000000051FC0B
:5C541800000030020000000000000000090000000000000000000000000000000080220000000000000004040030040000000000000000000000000000000000000000000000000000000000000000000000000000000000000000000000F1FF2F
:5C5474000000080000000000000000003E00000000000000000000000000000008080F0000000000000002000048000000000000000000000000000000000000000000000000000000000000000000000000000000000000000000000000B2F08B
:5C54D00000003001000000000000000005000000000000000000000000000000008000000000000000002C00003000000000000000000000000000000000000000000000000000000000000000000000000000000000000000000000000081F0FD
:5C552C000000400000000000000000001508000000000000000000000000000000801C000000000000001000004001000000000000000000000000000000000000000000000000000000000000000000000000000000000000000000000081F761
:5C5588000200300000000000000000000C000000000000000000000000000000300002000000000000000C00003000000000000000000000000000000000000000000000000000000000000000000000000000000000000000000000000031F1F9
:5C55E4000000300000000000000000000C0400000000000000000000000000003000060200000000000004100030000000000000000000000000000000000000000000000000000000000000000000000000000000000000000000000000D0F0EF
:5C56400000001000000000000000000004000000000000000000000000000000100002000000000000000400001000000000000000000000000000000000000000000000000000000000000000000000000000000000000000000000000020F8BC
:5C569C0000000000000000000000000000000000000000000000000000000000000000000000000000000000000000000000000000000000000000000000000000000000000000000000000000000000000000000000000000000000000010FFA3
:5C56F80080000000024000080001200000800010000240000800012000048000000000400008000120000080000000000000000001200004800010000240000800012000048000100002400008000120000480001000024000080001200090FA5B
:5C575400800010000240000800012000048000100002400008000120000480001000024000080001200004800010000000000000012000048000100002400008000120000480001000024000080001200004800010000240000800012000A0FDB1
:5C57B000000044010000000000000000510400000000000000000000000000030400210018000000000021040044200000000000000000000000000000000000000000000000000000000000000000000000000000000000000000000000B0FA90
:5C580C0000002000000000000000000000000000000000000000000000000000000000000000000000000000000000000000000000000000000000000000000000000000000000000000000000000000000000000000000000000000000010FD13
:5C58680000000000000000000000000000000000000000000000000000000000000000000000000000000000000000000000000000000000000000000000000000000000000000000000000000000000000000000000000000000000000010FFD5
:5C58C40000000000000000000000000000000000000000000000000000000000000000000000000000000000000000000000000000000000000000000000000000000000000000000000000000000000000000000000000000000000000010FF79
:5C592000000064050000000000000000510400000000000000000000000000020400210008000000000021050044200000000000000000000000000000000000000000000000000000000000000000000000000000000000000000000000F0FDC7
:5C597C0000000000000000000000000000000000000000000000000000000000000000000000000000000000000000000000000000000000000000000000000000000000000000000000000000000000000000000000000000000000000010FFC0
:5C59D80000000000000000000000000000000000000000000000000000000000000000000000000000000000000000000000000000000000000000000000000000000000000000000000000000000000000000000000000000000000000010FF64
:5C5A340000000000000000000000000000000000000000000000000000000000000000000000000000000000000000000000000000000000000000000000000000000000000000000000000000000000000000000000000000000000000010FF07
:5C5A900000000000000000000000000000000000000000000000000000000000000000000000000000000000000000000000000000000000000000000000000000000000000000000000000000000000000000000000000000000000000045FA7B
:5C5AEC0000000001000000000000000000000000000000000000000000000000000000000000000000000800008000000000000000000000000000000000000000000000000000000000000000000000000000000000000000000000000080F65F
:5C5B480000000000000000000000000040000000000000000000000000000000000120000000000000000000000002000000000000000000000000000000000000000000000000000000000000000000000000000000000000000000000040FD61
:5C5BA40000000000000000000000000000000000000000000000000000000000000000000000000000000000000000000000000000000000000000000000000000000000000000000000000000000000000000000000000000000000000010FF96
:5C5C000000000000000000000000000000000000000000000000000000000000000000000000000000000000000020000000000000000000000000000000000000000000000000000000000000000000000000000000000000000000000030FFF9
:5C5C5C0000000000000000000000000000000000000000000000000000000000000000000000000000000000000000000000000000000000000000000000000000000000000000000000000000000000000000000000000000000000000010FFDD
:5C5CB80000000000000000000000000000000000000000000000000000000000000000000000000000000000000000000000000000000000000000000000000000000000000000000000000000000000000000000000000000000000000010FF81
:5C5D1400000000000000000000000000000000000000000000000000000000004400000100000000000020000000080000000000000000000000000000000000000000000000000000000000000000000000000000000000000000000000D0F402
:5C5D7000000000000000000000000000080000000000000000000000000000002000000000000000000010000000000000000000000000000000000000000000000000000000000000000000000000000000000000000000000000000000B0F4FB
:5C5DCC0000000000000000000000000000000000000000000000000000000000000000000000000000000000000000000000000000000000000000000000000000000000000000000000000000000000000000000000000000000000000010FF6C
:5C5E280000000000000000000000000000000000000000000000000000000000000000000000000000000000000000000000000000000000000000000000000000000000000000000000000000000000000000000000000000000000000010FF0F
:5C5E840000000000000000000000000000000000000000000000000000000000000000000000000000000000000000000000000000000000000000000000000000000000000000000000000000000000000000000000000000000000000010FFB3
:5C5EE00000000000000000000000000000000000000000000000000000000000000000000000000000000000000000000000000000000000000000000000000000000000000000000000000000000000000000000000000000000000000032FD37
:5C5F3C0000000008000000000000000000020000000000000000000000000000000800000000000000000000000000000000000000000000000000000000000000000000000000000000000000000000000000000000000000000000000010F5F2
:5C5F980000000000000000000000000000000000000000000000000000000000000000080000000000000000004040000000000000000000000000000000000000000000000000000000000000000000000000000000000000000000000050F3E2
:5C5FF40000000000000000000000000000000000000000000000000000000000000000000000000000000000000000000000000000000000000000000000000000000000000000000000000000000000000000000000000000000000000010FF42
:5C60500000000000000000000000000000000000000000000000000000000000000000000000000000000000000000000000000000000000000000000000000000000000000000000000000000000000000000000000000000000000000001FEF5
:5C60AC0000000000000000000000000000000000000000000000000000000000000000000000000000000008000000000000000000000000000000000000000000000000000000000000000000000000000000000000000000000000000090F709
:5C61080000000000000000000000000000000000000000000000000000000000000000000000000000000000000000000000000000000000000000000000000000000000000000000000000000000000000000000000000000000000000010FF2C
:5C61640000000000000000000000000000000000000000000000000000000000000000000000000000000000000000000000000000000000000000000000000000000000000000000000000000000000000000000000000000000000000010FFD0
:5C61C000000000000000000000000000800000000000000000000000000000000000000000000000000080000000000000000000000000000000000000000000000000000000000000000000000000000000000000000000000000000000D4F3BC
:5C621C0000000000000000000000000000000000000000000000000000000000000000000000000000000000000000000000000000000000000000000000000000000000000000000000000000000000000000000000000000000000000010FF17
:5C62780000000000000000000000000000000000000000000000000000000000000000000000000000000000000000000000000000000000000000000000000000000000000000000000000000000000000000000000000000000000000098F73B
:5C62D40000000000000000000000000000000000000000000000000000000000000000000000000000000000000000000000000000000000000000000000000000000000000000000000000000000000000000000000000000000000000010FF5F
:5C63300000000000000000000000000000000000000000000000000000000000000000000000000000000000000000000000000000000000000000000000000000000000000000000000000000000000000000000000000000000000000010FF02
:5C638C0000000000000000000000000000000000000000000000000000000000000000000000000000000000000000000000000000000000000000000000000000000000000000000000000000000000000000000000000000000000000010FFA6
:5C63E80000000000000000000000000000000000000000000000000000000000000000000000000000000000000000000000000000000000000000000000000000000000000000000000000000000000000000000000000000000000000010FF4A
:5C64440000000000000000000000000000000000000000000000000000000000000000000000000000000000000000000000000000000000000000000000000000000000000000000000000000000000000000000000000000000000000010FFED
:5C64A00000000000000000000000000000000000000000000000000000000000000000000000000000000000000000000000000000000000000000000000000000000000000000000000000000000000000000000000000000000000000010FF91
:5C64FC0000000000000000000000000000000000000000000000000000000000000000000000000000000000000000000000000000000000000000000000000000000000000000000000000000000000000000000000000000000000000010FF35
:5C65580000000000000000000000000000000000000000000000000000000000000000000000000000000000000000000000000000000000000000000000000000000000000000000000000000000000000000000000000000000000000010FFD8
:5C65B40000000000000000000000000000000000000000000000000000000000000000000000000000000000000000000000000000000000000000000000000000000000000000000000000000000000000000000000000000000000000010FF7C
:5C66100000000000000000000000000000000000000000000000000000000000000000000000000000000000000000000000000000000000000000000000000000000000000000000000000000000000000000000000000000000000000010FF1F
:5C666C0000000000000000000000000000000000000000000000000000000000000000000000000000000000000000000000000000000000000000000000000000000000000000000000000000000000000000000000000000000000000010FFC3
:5C66C80000000000000000000000000000000000000000000000000000000000000000000000000000000000000000000000000000000000000000000000000000000000000000000000000000000000000000000000000000000000000010FF67
:5C67240000000000000000000000000000000000000000000000000000000000000000000000000000000000000000000000000000000000000000000000000000000000000000000000000000000000000000000000000000000000000010FF0A
:5C67800000000000000000000000000000000000000000000000000000000000000000000000000000000000000000000000000000000000000000000000000000000000000000000000000000000000000000000000000000000000000010FFAE
:5C67DC0000000000000000000000000000000000000000000000000000000000000000000000000000000000000000000000000000000000000000000000000000000000000000000000000000000000000000000000000000000000000010FF52
:5C68380000000000000000000000000000000000000000000000000000000000000000000000000000000000000000000000000000000000000000000000000000000000000000000000000000000000000000000000000000000000000010FFF5
:5C68940000000000000000000000000000000000000000000000000000000000000000000000000000000000000000000000000000000000000000000000000000000000000000000000000000000000000000000000000000000000000010FF99
:5C68F00000000000000000000000000000000000000000000000000000000000000000000000000000000000000000000000000000000000000000000000000000000000000000000000000000000000000000000000000000000000000010FF3D
:5C694C0000000000000000000000000000000000000000000000000000000000000000000000000000000000000000000000000000000000000000000000000000000000000000000000000000000000000000000000000000000000000010FFE0
:5C69A80000000000000000000000000000000000000000000000000000000000000000000000000000000000000000000000000000000000000000000000000000000000000000000000000000000000000000000000000000000000000010FF84
:5C6A040000000000000000000000000000000000000000000000000000000000000000000000000000000000000000000000000000000000000000000000000000000000000000000000000000000000000000000000000000000000000010FF27
:5C6A600000000000000000000000000000000000000000000000000000000000000000000000000000000000000000000000000000000000000000000000000000000000000000000000000000000000000000000000000000000000000010FFCB
:5C6ABC0000000000000000000000000000000000000000000000000000000000000000000000000000000000000000000000000000000000000000000000000000000000000000000000000000000000000000000000000000000000000010FF6F
:5C6B180000000000000000000000000000000000000000000000000000000000000000000000000000000000000000000000000000000000000000000000000000000000000000000000000000000000000000000000000000000000000010FF12
:5C6B740000000000000000000000000000000000000000000000000000000000000000000000000000000000000000000000000000000000000000000000000000000000000000000000000000000000000000000000000000000000000010FFB6
:5C6BD00000000000000000000000000000000000000000000000000000000000000000000000000000000000000000000000000000000000000000000000000000000000000000000000000000000000000000000000000000000000000010FF5A
:5C6C2C0000000000000000000000000000000000000000000000000000000000000000000000000000000000000000000000000000000000000000000000000000000000000000000000000000000000000000000000000000000000000010FFFD
:5C6C880000000000000000000000000000000000000000000000000000000000000000000000000000000000000000000000000000000000000000000000000000000000000000000000000000000000000000000000000000000000000010FFA1
:5C6CE40000000000000000000000000000000000000000000000000000000000000000000000000000000000000000000000000000000000000000000000000000000000000000000000000000000000000000000000000000000000000010FF45
:5C6D400000000000000000000000000000000000000000000000000000000000000000000000000000000000000000000000000000000000000000000000000000000000000000000000000000000000000000000000000000000000000010FFE8
:5C6D9C0000000000000000000000000000000000000000000000000000000000000000000000000000000000000000000000000000000000000000000000000000000000000000000000000000000000000000000000000000000000000010FF8C
:5C6DF80002000000000000000000000000000000000000000000000000000000000000000000000000000000000000000000000000000000000000000000000000000000000000000000000000000000000000000000000000000000000021FC20
:5C6E540000000000000000000000000000000000000000000000000000000000000000000000000000000000000000000000000000000000000000000000000000000000000000000000000000000000000000000000000000000000000010FFD3
:5C6EB000800010000240000800012000048000100002400008000120000480001000024000080001200004800010000000000000012000048000100002400008000120000480001000024000080001200004800010000240000800012000A0FD3E
:5C6F0C00800010000240000800012000048000100002400008000120000480001000024000080001200004800010000000000000012000048000100002400008000120000480001000024000080001200004800010000240000800012000A0FDE1
:5C6F680000000000000000000000000000000000000000000000000000000000000000000000000000000000000000000000000000000000000000000000000000000000000000000000000000000000000000000000000000000000000010FFBE
:5C6FC40002000000000000000000000000000000000000000000000000000000000000000000000000000000000000000000000000000000000000000000000000000000000000000000000000000000000000000000000000000000000021FC52
:5C70200000000000000000000000000000000000000000000000000000000000000000000000000000000000000000000000000000000000000000000000000000000000000000000000000000000000000000000000000000000000000010FF05
:5C707C0002000000000000000000000000000000000000000000000000000000000000000000000000000000000000000000000000000000000000000000000000000000000000000000000000000000000000000000000000000000000021FC99
:5C70D80000000000000000000000000000000000000000000000000000000000000000000000000000000000000000000000000000000000000000000000000000000000000000000000000000000000000000000000000000000000000010FF4D
:5C71340000000000000000000000000000000000000000000000000000000000000000000000000000000000000000000000000000000000000000000000000000000000000000000000000000000000000000000000000000000000000010FFF0
:5C71900000000000000000000000000000000000000000000000000000000000000000000000000000000000000000000000000000000000000000000000000000000000000000000000000000000000000000000000000000000000000010FF94
:5C71EC0000000000000000000000000000000000000000000000000000000000000000000000000000000000000000000000000000000000000000000000000000000000000000000000000000000000000000000000000000000000000010FF38
:5C72480002000000000000000000000000000000000000000000000000000000000000000000000000000000000000000000000000000000000000000000000000000000000000000000000000000000000000000000000000000000000021FCCB
:5C72A40000000000000000000000000000000000000000000000000000000000000000000000000000000000000000000000000000000000000000000000000000000000000000000000000000000000000000000000000000000000000010FF7F
:5C73000000000000000000000000000000000000000000000000000000000000000000000000000000000000000000000000000000000000000000000000000000000000000000000000000000000000000000000000000000000000000010FF22
:5C735C0000000000000000000000000000000000000000000000000000000000000000000000000000000000000000000000000000000000000000000000000000000000000000000000000000000000000000000000000000000000000010FFC6
:5C73B80002000000000000000000000000000000000000000000000000000000000000000000000000000000000000000000000000000000000000000000000000000000000000000000000000000000000000000000000000000000000021FC5A
:5C74140000000000000000000000000000000000000000000000000000000000000000000000000000000000000000000000000000000000000000000000000000000000000000000000000000000000000000000000000000000000000010FF0D
:5C74700000000000000000000000000000000000000000000000000000000000000000000000000000000000000000000000000000000000000000000000000000000000000000000000000000000000000000000000000000000000000010FFB1
:5C74CC0000000000000000000000000000000000000000000000000000000000000000000000000000000000000000000000000000000000000000000000000000000000000000000000000000000000000000000000000000000000000010FF55
