:020000040000FA
:2B000000FFFF62FF2900FFFFFFFFFFFFFFFFFFFFFFFFFFFFFFFFFFFFFFFFFFFFFFFFFFFFFFFFFFFFFFFFFFFFFFFFFF72
:2B002B00601886611886611886611886611886611886010000000018866118866118866118866118866118866180E74F
:2B005600401004411004411004411004411004411004010000000010044110044110044110044110044110044180E71C
:2B008100000000000000000000000000000000000000000000000000000000000000000000000000000000000080E7ED
:2B00AC00000000000000000000000000000000000000000000000000000000000000000000000000000000000080E7C2
:2B00D700000000000000000000000000000000000000000000000000000000000000000000000000000000000080E797
:2B010200000000000000000000000000000000000000000000000000000000000000000000000000000000000080E76B
:2B012D00000000000000000000000000000000000000000000000000000000000000000000000000000000000080E740
:2B015800000000000000000000000000000000000000000000000000000000000000000000000000000000000080E715
:2B018300000000000000000000000000000000000000800000800000000000000000000000000000000000000080E7EA
:2B01AE00000000000000000000000000000000000000000200000000000000000000000000000000000000000080C5DF
:2B01D900000000000000000000000000000000000000000000000000000000000000000000000000000000000080E794
:2B020400000000000000000000000000000000000000000000000000000000000000000000000000000000000080E768
:2B022F00000000000000000000000000000000000000000000000000000000000000000000000000000000000080E73D
:2B025A00000000000000000000000000000000000000000000000000000000000000000000000000000000000080E712
:2B028500000000000000000000000000000000000000000000000000000000000000000000000000000000000080E7E7
:2B02B000000000000000000000000000000000000000000000000000000000000000000000000000000000000080E7BC
:2B02DB00000000000000000000000000000000000000000000000000000000000000000000000000000000000080E791
:2B030600000000000000000000000000000000000000000000000000000000000000000000000000000000000080E765
:2B033100000000000000000000000000000000000000000100000000000000000000000000000000000000000080F62A
:2B035C00000000000000000000000000000000000000000000000000000000000000000000000000000000000080E70F
:2B038700000000000000000000000000000000000000000000000480220800000000000000000000000000000080819C
:2B03B200020000000000000000000000000000000000000000000080220800000000000000000000000000000008CF9D
:2B03DD00000000000000000000000000000000000000000000000000000000000000000000000000000000000080E78E
:2B040800000000000000000000000000000000000000000000000000000000000000000000000000000000000080E762
:2B043300000000000000000000000000000000000000603704424202000000000000000000000000000000000080F706
:2B045E00000000000000000000000000000000000000207307460200000000000000000000000000000000000080E72A
:2B048900020000000000000000000000000000000000207317440204000000000000000000000000000000000008BE8C
:2B04B400800008800008800008800008800008800008203316500620000220000220000220000220000220000280B032
:2B04DF00800008800008800008800008800008800008203246100320000220000220000220000220000220000280E1EA
:2B050A000000000000000000000000000000000000002033042103020000000000000000000000000000000000808544
:2B053500020000000000000000000000000000000000603700611702000000000000000000000000000000000008CEB2
:2B056000000000000000000000000000000000000000000004000000000000000000000000000000000000000080A745
:2B058B00000000000000000000000000000000000000205264651700000000000000000000000000000000000080D59E
:2B05B6000000000000000000000000000000000000002072252503000000000000000000000000000000000000808635
:2B05E100000000000000000000000000000000000000203225210300000000000000000000000000000000000080864E
:2B060C00020000000000000000000000000000000000603677600700000000000000000000000000000000000008F84D
:2B063700000000000000000000000000000000000000203677210200000000000000000000000000000000000080A682
:2B066200000000000000000000000000000000000000203625210300000000000000000000000000000000000080C28C
:2B068D00000000000000000000000000000000000000603361615700000000000000000000000000000000000080D244
:2B06B80002000000000000000000000000000000000000000000A000000000000000000000000000000000000008E786
:2B06E30000000000000000000000000000000000000060631761A700000000000000000000000000000000000080CFBB
:2B070E00000000000000000000000000000000000000202231211300000000000000000000000000000000000080D7C2
:2B073900000000000000000000000000000000000000202271001300000000000000000000000000000000000080B29D
:2B076400000000000000000000000000000000000000602251161300000000000000000000000000000000000080C628
:2B078F00020000000000000000000000000000000000203611611300000000000000000000000000000000000008FA60
:2B07BA000000000000000000000000000000000000002036312112000000000000000000000000000000000000808357
:2B07E500000000000000000000000000000000000000602337600700000000000000000000000000000000000080E266
:2B081000000000000000000000000000000000000000000000060000000000000000000000000000000000000080E156
:2B083B00020000000000000000000000000000000000605644041704000000000000000000000000000000000008D897
:2B086600000000000000000000000000000000000000204376051300000000000000000000000000000000000080D026
:2B089100000000000000000000000000000000000000204316612301000000000000000000000000000000000080C1FD
:2B08BC00000000000000000000000000000000000000204364212300000000000000000000000000000000000080C6C0
:2B08E700000000000000000000000000000000000000204324402300000000000000000000000000000000000080E399
:2B091200020000000000000000000000000000000000204364011300000000000000000000000000000000000008EFE6
:2B093D00000000000000000000000000000000000000606245003702000000000000000000000000000000000080E3EC
:2B096800000000000000000000000000000000000000000000002000000000000000000000000000000000000080E5DF
:2B099300000000000000000000000000000000000000607337611700000000000000000000000000000000000080E750
:2B09BE00020000000000000000000000000000000000203327259300000000000000000000000000000000000008B022
:2B09E9000000000000000000000000000000000000002006E7051300000000000000000000000000000000000000803E
:2B0A1400000000000000000000000000000000000000206627571700000000000000000000000000000000000080D448
:2B0A3F000000000000000000000000000000000000002026E6053304000000000000000000000000000000000000D054
:2B0A6A00000000000000000000000000000000000000203327251300000000000000000000000000000000000080B27D
:2B0A9500020000000000000000000000000000000000607337617700000000000000000000000000000000000008EB5F
:2B0AC000000000000000000000000000000000000000000000000000000000000000000000000000000000000080E7A4
:2B0AEB00000000000000000000000000000000000000602717605300000000000000000000000000000000000080C54A
:2B0B1600000000000000000000000000000000000000203303321200000000000000000000000000000000000080D6C4
:2B0B4100020000000000000000000000000000000000207106761200000000000000000000000000000000000008EE72
:2B0B6C000000000000000000000000000000000000006071051E1700000000000000000000000000000000000080A92A
:2B0B9700000000000000000000000000000000000000203131171300000000000000000000000000000000000080D334
:2B0BC200000000000000000000000000000000000000203131331700000000000000000000000000000000000080B309
:2B0BED00000000000000000000000000000000000000607537610500000000000000000000000000000000000080A249
:2B0C1800020000000000000000000000000000000000000000000000000000000000000000000000000000000008EDBA
:2B0C4300000000000000000000000000000000000000201745661700000000000000000000000000000000000080B558
:2B0C6E00000000000000000000000000000000000000206505441200000000000000000000000000000000000080A358
:2B0C99000000000000000000000000000000000000002025055010000000000000000000000000000000000000809175
:2B0CC400020000000000000000000000000000000000602557501600000000000000000000000000000000000008C8F1
:2B0CEF00000000000000000000000000000000000000202553701200000000000000000000000000000000000080A69A
:2B0D1A00000000000000000000000000000000000000602553441200000000000000000000000000000000000080D22E
:2B0D4500000000000000000000000000000000000000407653461600000000000000000000000000000000000080821C
:2B0D7000000000000000000000000000000000000000000000000000000000000000000000000000000000000080E7F1
:2B0D9B000200000000000000000000000000000000006033127017000000000000000000000000000000000000088A6D
:2B0DC600000000000000000000000000000000000000203212245300000000000000000000000000000000000080C5E2
:2B0DF1000000000000000000000000000000000000002032162613000000000000000000000000000000000000808333
:2B0E1C00000000000000000000000000000000000000207705661700000000000000000000000000000000000080F71B
:2B0E4700020000000000000000000000000000000000203317261300000000000000000000000000000000000008884B
:2B0E7200000000000000000000000000000000000000203313241300000000000000000000000000000000000080C078
:2B0E9D0000000000000000000000000000000000000060731370170000000000000000000000000000000000008094A9
:2B0EC800000000000000000000000000000000000000000000000000000000000000000000000000000000000080E798
:2B0EF300000000000000000000000000000000000000000000000000000000000000000000000000000000000080E76D
:2B0F1E00020000000000000000000000000000000000000000000000000000000000000000000000000000000008EDB1
:2B0F4900000000000000000000000000000000000000000000000000000000000000000000000000000000000080E716
:2B0F7400000000000000000000000000000000000000000000000000000000000000000000000000000000000080E7EB
:2B0F9F00000000000000000000000000000000000000000000000000000000000000000000000000000000000080E7C0
:2B0FCA00000000000000000000000000000000000000000000000000000000000000000000000000000000000080E795
:2B0FF500000000000000000000000000000000000000000000000000000000000000000000000000000000000080E76A
:2B102000800008800008800008800008800008800008000000000020000220000220000220000220000220000280E742
:2B104B00800008800008800008800008800008800008000000000020000220000220000220000220000220000280E717
:2B107600000000000000000000000000000000000000000000000000000000000000000000000000000000000080E7E8
:2B10A100000000000000000000000000000000000000000000000000000000000000000000000000000000000080E7BD
:2B10CC00000000000000000000000000000000000000004100100000000000000000000000000000000000000080E246
:2B10F700000000000000000000000000000000000000000000000088820000000000000000002000000000000000E7BD
:2B112200000000000000000000000000000000000000000000000088820000000000000000002000000000000000E791
:2B114D00000000000000000000000000000000000000000000000000000000000000000000000000000000000080E710
:2B117800000000000000000000000000000000000000000000000000000000000000000000000000000000000080E7E5
:2B11A300000000000000000000000000000000000000000000000000000000000000000000000000000000000080E7BA
:2B11CE00000000000000000000000000000000000000000000000000000000000000000000000000000000000080E78F
:2B11F90000000000000000000000000000000000000040C001000000000000000000000000000000000000000080BB8F
:2B122400000000000000000000000000000000000000000000000000000000000000000000000000000000000080E738
:2B124F00000000000000000000000000000000000000000000000000000000000000000000000000000000000080E70D
:2B127A00000000000000000000000000000000000000000000000000000000000000000000000000000000000080E7E2
:2B12A500000000000000000000000000000000000000000000000000000000000000000000000000000000000080E7B7
:2B12D000000000000000000000000000000000000000000000000000000000000000000000000000000000000080E78C
:2B12FB00000000000000000000000000000000000000000000000000000000000000000000000000000000000080E761
:2B132600000000000000000000000000000000000000000000040000000000000000000000000000000000000080E335
:2B135100000000000000000000000000000000000000000000000000000000000000000000000000000000000080E70A
:2B137C00000000000000000000000000000000000000000000000000000000000000000000000000000000000080E7DF
:2B13A700000000000000000000000000000000000000000000000000000000000000000000000000000000000080E7B4
:2B13D200000000000000000000000000000000000000000000000000000000000000000000000000000000000080E789
:2B13FD00000000000000000000000000000000000000000000000040040000000000000040040440000000000080E792
:2B142800000000000000000000000000000000000000000000000000020000000000000000002004000000000080A74C
:2B145300000000000000000000000000000000000000000000000000000000000000000000000000000000000080E707
:2B147E00000000000000000000000000000000000000000000000000000000000000000000000000000000000080E7DC
:2B14A900000000000000000000000000000000000000000000000000000000000000000000000000000000000080E7B1
:2B14D400000000000000000000000000000000000000000000000000000000000000000000000000000000000080E786
:2B14FF00000000000000000000000000000000000000000000000000000000000000000000000000000000000080E75B
:2B152A00000000000000000000000000000000000000000000000000000000000000000000000000000000000080E72F
:2B155500000000000000000000000000000000000000000000000000000000000000000000000000000000000080E704
:2B158000000100000000000000000000000000000000000000000000000000000000000000000000000000000080F6C9
:2B15AB00000000000000000000000000000000000000000000000000000000000000000000000000080000000080EF9E
:2B15D600000000000000000000000000000000000000000000000000000000000000000000000000000000000080E783
:2B160100000000000000000000000000000000000004000000000040180400000000000000001008000C03000080C2F5
:2B162C00020000000000000000000000000000000004000000000000000000000000000000000000000000000008ADD8
:2B165700000000000000000000000000000000000000000000000000000000000000000000000000000000000080E701
:2B168200000000000000000000000000000000000000000000000040100400000000000000000000000401000080A3C1
:2B16AD000000000000000000000000000000000000000000000000000004000000000000000010080008020000808AE2
:2B16D800000000000000000000000000000000000000000000000000000000000000000000000000000000000080E780
:2B170300020000000000000000000000000000000000000000000000000000000000000000000000000000000008EDC4
:2B172E00800008800008800008800008800008800008000000000020000220000220000220000220000220000280E72D
:2B175900800008800008800008800008800008800008000000000020000220000220000220000220000220000280E702
:2B178400000000000000000000000000000000000000000000000000200000000000000000000600000000000080A1F3
:2B17AF00020000000000000000000000000000000000000000000098000000000000000000801798C01900000088CB1A
:2B17DA00000000000000000000000000000000000000000000000048020000000000000000000400000004000000ADE5
:2B1805000000000000000000000000000000000000000000000000F0000000000000000000002710020900000080E71F
:2B18300000000000000000000000000000000000000000000000002800000000000000000000040100000000000099C7
:2B185B00000000000000000000000000000000000000000000000008100000000000000000000E000010000000809814
:2B1886000200000000000000000000000000000000000000000000600000000000000000000006600010000000088ACD
:2B18B100000000000000000000000000000000000000000000000060040000000000000000004660000C00000000C531
:2B18DC00000000000000000000000000000000000000000000000000000000000000000000000000028000000080EDF2
:2B190700000000000000000000000000000000000000000000000098080000000000000000801118800100000000EEFD
:2B193200020000000000000000000000000000000000000000000048000000000000000000000000000000000088A117
:2B195D000000000000000000000000000000000000000000000000F0020000000000000000002110021900000080821F
:2B198800000000000000000000000000000000000000000000000028000000000000000000000020040000000000EBFD
:2B19B300000000000000000000000000000000000000000000000008100000000000000000000080001000000080FEE3
:2B19DE00000000000000000000000000000000000000000000000060000000000000000000000600001000000080E602
:2B1A0900020000000000000000000000000000000000000000000060040000000000000000000680040C00000008A905
:2B1A34000000000000000000000000000000000000000000000000000200000000000000000046200100020000808418
:2B1A5F00000000000000000000000000000000000000000000000018000000000000000000800F988009000000008113
:2B1A8A00000000000000000000000000000000000000000000000028200000000000000000801620A00000000000880B
:2B1AB500020000000000000000000000000000000000000000000010000000000000000000000F90002900000088891B
:2B1AE000000000000000000000000000000000000000000000000048000000000000000000802620A00C000000808918
:2B1B0B00000000000000000000000000000000000000000000000068100000000000000000800E00800400000080BBEA
:2B1B3600000000000000000000000000000000000000000000000060000000000000000000000204012400000080A4D5
:2B1B6100000000000000000000000000000000000000000000000060040000000000000000000600000200000080C1AC
:2B1B8C00020000000000000000000000000000000000000000000000000000000000000000000000008000000008E5BF
:2B1BB700000000000000000000000000000000000000000000000018020000000000000000800199810100000000F459
:2B1BE200000000000000000000000000000000000000000000000028100000000000000000800008000000000000DD3B
:2B1C0D00000000000000000000000000000000000000000000000090000000000000000000002190401100000080A4F6
:2B1C38000200000000000000000000000000000000000000000000480000000000000000008008C8000000000088E57A
:2B1C6300000000000000000000000000000000000000000000000068100000000000000000800648000000000000BB55
:2B1C8E00000000000000000000000000000000000000000000000060000000000000000000000640000600000080C53A
:2B1CB900000000000000000000000000000000000000000000000060040000000000000000000020020600000080C331
:2B1CE400000000000000000000000000000000000000000000000000040000000000000000000000008000000080EBE6
:2B1D0F00020000000000000000000000000000000000000000000098000000000000000000801198810100000008ED6F
:2B1D3A00000000000000000000000000000000000000000000000048010000000000000000001088000000000000A3FA
:2B1D65000000000000000000000000000000000000000000000000700000000000000000000009100011000000008039
:2B1D9000000000000000000000000000000000000000000000000028000000000000000000000008011000000080C5A2
:2B1DBB000200000000000000000000000000000000000000000000081000000000000000000020680008000000889932
:2B1DE600000000000000000000000000000000000000000000000060000000000000000000000040020000000080C7E9
:2B1E11000000000000000000000000000000000000000000000000600400000000000000000006A0000600000000A7EF
:2B1E3C00000000000000000000000000000000000000000000000000000000000000000000000000000002000080C732
:2B1E6700000000000000000000000000000000000000000000000018010000000000000000800199C00900000080B61E
:2B1E92000200000000000000000000000000000000000000000000284000000000000000008000008180000000888E24
:2B1EBD00000000000000000000000000000000000000000000000090000000000000000000001110000100000000E662
:2B1EE800000000000000000000000000000000000000000000000048000000000000000000800000800C00000080EF0C
:2B1F13000000000000000000000000000000000000000000000000681000000000000000008024008204000000009968
:2B1F3E00020000000000000000000000000000000000000000000060000000000000000000000E00000400000088A9D3
:2B1F6900000000000000000000000000000000000000000000000060040000000000000000000260001200000080E213
:2B1F9400000000000000000000000000000000000000000000000000010000000000000000010000000002000080C7D7
:2B1FBF00000000000000000000000000000000000000000000000098000000000000000098800199810900000000EF34
:2B1FEA00000000000000000000000000000000000000000000000008000000000000000028801008810000000000CDB6
:2B201500020000000000000000000000000000000000000000000010100000000000000010400990002100000008AEBE
:2B204000000000000000000000000000000000000000000000000008000000000000000048800888800C00000080EF1A
:2B206B00000000000000000000000000000000000000000000000068040000000000000068900448800400000000BF57
:2B209600000000000000000000000000000000000000000000000060000000000000000060000660001400000080A2C3
:2B20C100020000000000000000000000000000000000000000000060000000000000000060042AA0080A00000088C109
:2B20EC00001000000000000000000000000000000000000000000000000000000000000000000060000002000080A037
:2B211700600000000000000000000000000000000000000000000098010000000000000000801138A00900000080852D
:2B2142002000000000000000000000000000000000000000000000A80000000000000000000010608010000000008327
:2B216D004000000000000000000000000000000000000000000000100000000000000000000009F0020100000080C3B8
:2B219800A20100000000000000000000000000000000000000000048000000000000000000004060800C00000008B647
:2B21C300A00100000000000000000000000000000000000000000068100000000000000000000860C00400000080CA62
:2B21EE00800100000000000000000000000000000000000000000060000000000000000000000060000400000000BAC7
:2B221900800100000000000000000000000000000000000000000060040000000000000000002460041A000000809BF8
:2B224400800000000000000000000000000000000000000000000020000000000000000020000220000200000000CDBE
:2B226F00000000000000000000000000000000000000000000000000000000000000000000000000000000000080E7DD
:2B229A00000008800008800008800008800008800008000000000000000220000220000200000000000020000200CD34
:2B22C500800008800008800008800008800008800008000000000020000220000220000220000220000220000280E78B
:2B22F0000000000000000000000000000000000000000000000000000002000000000000008A888AA22800000080CF0C
:2B231B00000000000000000000000000000000000000000000000040000000000000000000000000000000000080A334
:2B234600000000000000000000000000000000000000000000000000000000000000000000000000000000000080E705
:2B237100000000000000000000100001000000000000000000000000000000000000000000000000000000000080E7C9
:2B239C0080000000000000000010000100000000000000000000006008020000000000000082888AA22800000000A11C
:2B23C700000000000000000000000000000000000000000000000000000000000000000000000000000000000080E784
:2B23F200000000000000000000000000000000000000000000000000000000000000000000000000000000000080E759
:2B241D00000000000000000000000000000000000000000000000000000000000000000000000000000000000080E72D
:2B244800000000000000000000000000000000000000000000000000000000000000000000000000000000000080E702
:2B247300000000000000000000000000000000000000000000000000010000000000000000004000200000000080C29B
:2B249E00000000000000000000000000000000000000000000000020280000000000000000000200080803000000F7BF
:2B24C900000000000000000000000000000000000000000000000000000000000000000000000000000000000080E781
:2B24F400000000000000000000000000000000000000000000000000000000000000000000000000000000000080E756
:2B251F00000000000000000000000000000000000000000000000000000000000000000000000000000000000080E72A
:2B254A00000000000000000000000000000000000000000000000000000000000000000000000000000000000080E7FF
:2B25750000000000000000000000000000000000000000000000001000000000000000000040002001000000008095B5
:2B25A000000000000000000000000000000000000000000000000000100000000000000000000020100000000080C58B
:2B25CB00000000000000000000000000000000000000000000000000000000000000000000000110400100000080B65D
:2B25F600000000000000000000000000000000000000000000000000000000000000000000000000000000000080E753
:2B262100000000000000000000000000000000000000000000000000000000000000000000000000000000000080E727
:2B264C00000000000000000000000000000000000000000000000000000000000000000000000000000000000080E7FC
:2B267700000000000000000000000000000000000000000000000000000000000000000000000000000000000080E7D1
:2B26A200000000000000000000000000000000000000000000000000000000000000000000000000000000000080E7A6
:2B26CD00000000000000000000000000000000000000000000000000000000000000000000000000000000000080E77B
:2B26F800000000000000000000000000000000000000000000000000000000000000000000000000000000000080E750
:2B272300000000000000000000000000000000000000000000000000000000000000000000000000000000000080E724
:2B274E00000000000000000000000000000000000000000000000000000000000000000000000000000000000080E7F9
:2B277900000000000000000000000000000000000000000000000000000000000000000000000000000000000080E7CE
:2B27A400000000000000000000000000000000000000000000000000000000000000000000000000000000000080E7A3
:2B27CF00000000000000000000000000000000000000000000000000000000000000000000000000000000000080E778
:2B27FA00000000000000000000000000000000000000000000000000000000000000000000000000000000000080E74D
:2B282500000000000000000000000000000000000000000000000000000000000000000000000000000000000080E721
:2B285000000000000000000000000000000000000000000000000000000000000000000000000000000000000080E7F6
:2B287B00000000000000000000000000000000000000000000000000000000000000000000000000000000000080E7CB
:2B28A600020000000000000000000000000000000000000000000000000000000000000000000000000000000008ED10
:2B28D100000000000000000000000000000000000000000000000000000000000000000000000000000000000080E775
:2B28FC00000000000000000000000000000000000000000000000000000000000000000000000000000000000080E74A
:2B292700000000000000000000000000000000000000000000000000000000000000000000000000000000000080E71E
:2B295200000000000000000000000000000000000000000000000000000000000000000000000000000000000080E7F3
:2B297D00020000000000000000000000000000000000000000000000000000000000000000000000000000000008ED38
:2B29A800800008800008800008800008800008800008000000000020000220000220000220000220000220000280E7A1
:2B29D300800008800008800008800008800008800008000000000020000220000220000220000220000220000280E776
:2B29FE00000000000000000000000000000000000000000000000000000000000000000000000000000000000080E747
:2B2A2900020000000000000000000000000000000000000000000000000000000000000000000000000000000008ED8B
:2B2A5400000000000000000000000000000000000000000000000000000000000000000000000000000000000080E7F0
:2B2A7F00000000000000000000000000000000000000000000000000000000000000000000000000000000000080E7C5
:2B2AAA00000000000000000000000000000000000000000000000000000000000000000000000000000000000080E79A
:2B2AD500000000000000000000000000000000000000000000000000000000000000000000000000000000000080E76F
:2B2B0000020000000000000000000000000000000000000000000000000000000000000000000000000000000008EDB3
:2B2B2B00000000000000000000000000000000000000000000000000000000000000000000000000000000000080E718
:2B2B5600000000000000000000000000000000000000000000000000000000000000000000000000000000000080E7ED
:2B2B8100000000000000000000000000000000000000000000000000000000000000000000000000000000000080E7C2
:2B2BAC00020000000000000000000000000000000000000000000000000000000000000000000000000000000008ED07
:2B2BD700000000000000000000000000000000000000000000000000000000000000000000000000000000000080E76C
:2B2C0200000000000000000000000000000000000000000000000000000000000000000000000000000000000080E740
:2B2C2D00000000000000000000000000000000000000000000000000000000000000000000000000000000000080E715
:2B2C5800000000000000000000000000000000000000000000000000000000000000000000000000000000000080E7EA
:2B2C8300020000000000000000000000000000000000000000000000000000000000000000000000000000000008ED2F
:2B2CAE00000000000000000000000000000000000000000000000000000000000000000000000000000000000080E794
:2B2CD900000000000000000000000000000000000000000000000000000000000000000000000000000000000080E769
:2B2D0400000000000000000000000000000000000000000000000000000000000000000000000000000000000080E73D
:2B2D2F00020000000000000000000000000000000000000000000000000000000000000000000000000000000008ED82
:2B2D5A00000000000000000000000000000000000000000000000000000000000000000000000000000000000080E7E7
:2B2D8500000000000000000000000000000000000000000000000000000000000000000000000000000000000080E7BC
:2B2DB000000000000000000000000000000000000000000000000000000000000000000000000000000000000080E791
:2B2DDB00000000000000000000000000000000000000000000000000000000000000000000000000000000000080E766
:2B2E0600020000000000000000000000000000000000000000000000000000000000000000000000000000000008EDAA
:2B2E3100000000000000000000000000000000000000000000000000000000000000000000000000000000000080E70F
:2B2E5C00000000000000000000000000000000000000000000000000000000000000000000000000000000000080E7E4
:2B2E8700000000000000000000000000000000000000000000000000000000000000000000000000000000000080E7B9
:2B2EB200020000000000000000000000000000000000000000000000000000000000000000000000000000000008EDFE
:2B2EDD00000000000000000000000000000000000000000000000000000000000000000000000000000000000080E763
:2B2F0800000000000000000000000000000000000000000000000000000000000000000000000000000000000080E737
:2B2F3300000000000000000000000000000000000000000000000000000000000000000000000000000000000080E70C
:2B2F5E00000000000000000000000000000000000000000000000000000000000000000000000000000000000080E7E1
:2B2F8900020000000000000000000000000000000000000000000000000000000000000000000000000000000008ED26
:2B2FB400000000000000000000000000000000000000000000000000000000000000000000000000000000000080E78B
:2B2FDF00000000000000000000000000000000000000000000000000000000000000000000000000000000000080E760
:2B300A00000000000000000000000000000000000000000000000000000000000000000000000000000000000080E734
:2B303500020000000000000000000000000000000000000000000000000000000000000000000000000000000008ED79
:2B306000000000000000000000000000000000000000000000000000000000000000000000000000000000000080E7DE
:2B308B00000000000000000000000000000000000000000000000000000000000000000000000000000000000080E7B3
:2B30B600000000000000000000000000000000000000000000000000000000000000000000000000000000000080E788
:2B30E100000000000000000000000000000000000000000000000000000000000000000000000000000000000080E75D
:2B310C00020000000000000000000000000000000000000000000000000000000000000000000000000000000008EDA1
:2B313700000000000000000000000000000000000000000000000000000000000000000000000000000000000080E706
:2B316200000000000000000000000000000000000000000000000000000000000000000000000000000000000080E7DB
:2B318D00000000000000000000000000000000000000000000000000000000000000000000000000000000000080E7B0
:2B31B800020000000000000000000000000000000000000000000000000000000000000000000000000000000008EDF5
:2B31E300000000000000000000000000000000000000000000000000000000000000000000000000000000000080E75A
:2B320E00000000000000000000000000000000000000000000000000000000000000000000000000000000000080E72E
:2B323900000000000000000000000000000000000000000000000000000000000000000000000000000000000080E703
:2B326400000000000000000000000000000000000000000000000000000000000000000000000000000000000080E7D8
:2B328F00020000000000000000000000000000000000000000000000000000000000000000000000000000000008ED1D
:2B32BA00000000000000000000000000000000000000000000000000000000000000000000000000000000000080E782
:2B32E500000000000000000000000000000000000000000000000000000000000000000000000000000000000080E757
:2B331000000000000000000000000000000000000000000000000000000000000000000000000000000000000080E72B
:2B333B00020000000000000000000000000000000000000000000000000000000000000000000000000000000008ED70
:2B336600000000000000000000000000000000000000000000000000000000000000000000000000000000000080E7D5
:2B339100000000000000000000000000000000000000000000000000000000000000000000000000000000000080E7AA
:2B33BC00000000000000000000000000000000000000000000000000000000000000000000000000000000000080E77F
:2B33E700000000000000000000000000000000000000000000000000000000000000000000000000000000000080E754
:2B341200020000000000000000000000000000000000000000000000000000000000000000000000000000000008ED98
:2B343D00000000000000000000000000000000000000000000000000000000000000000000000000000000000080E7FD
:2B346800000000000000000000000000000000000000000000000000000000000000000000000000000000000080E7D2
:2B349300000000000000000000000000000000000000000000000000000000000000000000000000000000000080E7A7
:2B34BE00000000000000000000000000000000000000000000000000000000000000000000000000000000000080E77C
:2B34E900000000000000000000000000000000000000000000000000000000000000000000000000000000000080E751
:2B351400800008800008800008800008800008800008000000000020000220000220000220000220000220000280E729
:2B353F00800008800008800008800008800008800008000000000020000220000220000220000220000220000280E7FE
:2B356A00000000000000000000000000000000000000000000000000000000000000000000000000000000000080E7CF
:2B359500000000000000000000000000000000000000000000000000000000000000000000000000000000000080E7A4
:2B35C000000000000000000000000000000000000000000000000000000000000000000000000000000000000080E779
:2B35EB00000000000000000000000000000000000000000000000000000000000000000000000000000000000080E74E
:2B361600000000000000000000000000000000000000000000000000000000000000000000000000000000000080E722
:2B364100000000000000000000000000000000000000000000000000000000000000000000000000000000000080E7F7
:2B366C00000000000000000000000000000000000000000000000000000000000000000000000000000000000080E7CC
:2B369700000000000000000000000000000000000000000000000000000000000000000000000000000000000080E7A1
:2B36C200000000000000000000000000000000000000000000000000000000000000000000000000000000000080E776
:2B36ED00000000000000000000000000000000000000000000000000000000000000000000000000000000000080E74B
:2B371800000000000000000000000000000000000000000000000000000000000000000000000000000000000080E71F
:2B374300000000000000000000000000000000000000000000000000000000000000000000000000000000000080E7F4
:2B376E00000000000000000000000000000000000000000000000000000000000000000000000000000000000080E7C9
:2B379900000000000000000000000000000000000000000000000000000000000000000000000000000000000080E79E
:2B37C400000000000000000000000000000000000000000000000000000000000000000000000000000000000080E773
:2B37EF00000000000000000000000000000000000000000000000000000000000000000000000000000000000080E748
:2B381A00000000000000000000000000000000000000000000000000000000000000000000000000000000000080E71C
:2B384500000000000000000000000000000000000000000000000000000000000000000000000000000000000080E7F1
:2B387000000000000000000000000000000000000000000000000000000000000000000000000000000000000080E7C6
:2B389B00000000000000000000000000000000000000000000000000000000000000000000000000000000000080E79B
:2B38C600000000000000000000000000000000000000000000000000000000000000000000000000000000000080E770
:2B38F100000000000000000000000000000000000000000000000000000000000000000000000000000000000080E745
:2B391C00000000000000000000000000000000000000000000000000000000000000000000000000000000000080E719
:2B394700000000000000000000000000000000000000000000000000000000000000000000000000000000000080E7EE
:2B397200000000000000000000000000000000000000000000000000000000000000000000000000000000000080E7C3
:2B399D00000000000000000000000000000000000000000000000000000000000000000000000000000000000080E798
:2B39C800000000000000000000000000000000000000000000000000000000000000000000000000000000000080E76D
:2B39F300000000000000000000000000000000000000000000000000000000000000000000000000000000000080E742
:2B3A1E00000000000000000000000000000000000000000000000000000000000000000000000000000000000080E716
:2B3A4900000000000000000000000000000000000000000000000000000000000000000000000000000000000080E7EB
:2B3A7400000000000000000000000000000000000000000000000000000000000000000000000000000000000080E7C0
:2B3A9F00000000000000000000000000000000000000000000000000000000000000000000000000000000000080E795
:2B3ACA00000000000000000000000000000000000000000000000000000000000000000000000000000000000080E76A
:2B3AF500000000000000000000000000000000000000000000000000000000000000000000000000000000000080E73F
:2B3B2000020000000000000000000000000000000000000000000000000000000000000000000000000000000008ED83
:2B3B4B00000000000000000000000000000000000000000000000000000000000000000000000000000000000080E7E8
:2B3B7600000000000000000000000000000000000000000000000000000000000000000000000000000000000080E7BD
:2B3BA100000000000000000000000000000000000000000000000000000000000000000000000000000000000080E792
:2B3BCC00000000000000000000000000000000000000000000000000000000000000000000000000000000000080E767
:2B3BF700020000000000000000000000000000000000000000000000000000000000000000000000000000000008EDAC
:2B3C2200800008800008800008800008800008800008000000000020000220000220000220000220000220000280E714
:2B3C4D00800008800008800008800008800008800008000000000020000220000220000220000220000220000280E7E9
:2B3C7800000000000000000000000000000000000000000000000000000000000000000000000000000000000080E7BA
:2B3CA300020000000000000000000000000000000000000000000000000000000000000000000000000000000008EDFF
:2B3CCE00000000000000000000000000000000000000000000000000000000000000000000000000000000000080E764
:2B3CF900000000000000000000000000000000000000000000000000000000000000000000000000000000000080E739
:2B3D2400000000000000000000000000000000000000000000000000000000000000000000000000000000000080E70D
:2B3D4F00000000000000000000000000000000000000000000000000000000000000000000000000000000000080E7E2
:2B3D7A00020000000000000000000000000000000000000000000000000000000000000000000000000000000008ED27
:2B3DA500000000000000000000000000000000000000000000000000000000000000000000000000000000000080E78C
:2B3DD000000000000000000000000000000000000000000000000000000000000000000000000000000000000080E761
:2B3DFB00000000000000000000000000000000000000000000000000000000000000000000000000000000000080E736
:2B3E2600020000000000000000000000000000000000000000000000000000000000000000000000000000000008ED7A
:2B3E5100000000000000000000000000000000000000000000000000000000000000000000000000000000000080E7DF
:2B3E7C00000000000000000000000000000000000000000000000000000000000000000000000000000000000080E7B4
:2B3EA700000000000000000000000000000000000000000000000000000000000000000000000000000000000080E789
:2B3ED200000000000000000000000000000000000000000000000000000000000000000000000000000000000080E75E
:2B3EFD00020000000000000000000000000000000000000000000000000000000000000000000000000000000008EDA3
:2B3F2800000000000000000000000000000000000000000000000000000000000000000000000000000000000080E707
:2B3F5300000000000000000000000000000000000000000000000000000000000000000000000000000000000080E7DC
:2B3F7E00000000000000000000000000000000000000000000000000000000000000000000000000000000000080E7B1
:2B3FA900020000000000000000000000000000000000000000000000000000000000000000000000000000000008EDF6
:2B3FD400000000000000000000000000000000000000000000000000000000000000000000000000000000000080E75B
:2B3FFF00000000000000000000000000000000000000000000000000000000000000000000000000000000000080E730
:2B402A00000000000000000000000000000000000000000000000000000000000000000000000000000000000080E704
:2B405500000000000000000000000000000000000000000000000000000000000000000000000000000000000080E7D9
:2B408000020000000000000000000000000000000000000000000000000000000000000000000000000000000008ED1E
:2B40AB00000000000000000000000000000000000000000000000000000000000000000000000000000000000080E783
:2B40D600000000000000000000000000000000000000000000000000000000000000000000000000000000000080E758
:2B410100000000000000000000000000000000000000000000000000000000000000000000000000000000000080E72C
:2B412C00020000000000000000000000000000000000000000000000000000000000000000000000000000000008ED71
:2B415700000000000000000000000000000000000000000000000000000000000000000000000000000000000080E7D6
:2B418200000000000000000000000000000000000000000000000000000000000000000000000000000000000080E7AB
:2B41AD00000000000000000000000000000000000000000000000000000000000000000000000000000000000080E780
:2B41D800000000000000000000000000000000000000000000000000000000000000000000000000000000000080E755
:2B420300020000000000000000000000000000000000000000000000000000000000000000000000000000000008ED99
:2B422E00000000000000000000000000000000000000000000000000000000000000000000000000000000000080E7FE
:2B425900000000000000000000000000000000000000000000000000000000000000000000000000000000000080E7D3
:2B428400000000000000000000000000000000000000000000000000000000000000000000000000000000000080E7A8
:2B42AF00020000000000000000000000000000000000000000000000000000000000000000000000000000000008EDED
:2B42DA00000000000000000000000000000000000000000000000000000000000000000000000000000000000080E752
:2B430500000000000000000000000000000000000000000000000000000000000000000000000000000000000080E726
:2B433000000000000000000000000000000000000000000000000000000000000000000000000000000000000080E7FB
:2B435B00000000000000000000000000000000000000000000000000000000000000000000000000000000000080E7D0
:2B438600020000000000000000000000000000000000000000000000000000000000000000000000000000000008ED15
:2B43B100000000000000000000000000000000000000000000000000000000000000000000000000000000000080E77A
:2B43DC00000000000000000000000000000000000000000000000000000000000000000000000000000000000080E74F
:2B440700000000000000000000000000000000000000000000000000000000000000000000000000000000000080E723
:2B443200020000000000000000000000000000000000000000000000000000000000000000000000000000000008ED68
:2B445D00000000000000000000000000000000000000000000000000000000000000000000000000000000000080E7CD
:2B448800000000000000000000000000000000000000000000000000000000000000000000000000000000000080E7A2
:2B44B300000000000000000000000000000000000000000000000000000000000000000000000000000000000080E777
:2B44DE00000000000000000000000000000000000000000000000000000000000000000000000000000000000080E74C
:2B450900020000000000000000000000000000000000000000000000000000000000000000000000000000000008ED90
:2B453400000000000000000000000000000000000000000000000000000000000000000000000000000000000080E7F5
:2B455F00000000000000000000000000000000000000000000000000000000000000000000000000000000000080E7CA
:2B458A00000000000000000000000000000000000000000000000000000000000000000000000000000000000080E79F
:2B45B500020000000000000000000000000000000000000000000000000000000000000000000000000000000008EDE4
:2B45E000000000000000000000000000000000000000000000000000000000000000000000000000000000000080E749
:2B460B00000000000000000000000000000000000000000000000000000000000000000000000000000000000080E71D
:2B463600000000000000000000000000000000000000000000000000000000000000000000000000000000000080E7F2
:2B466100000000000000000000000000000000000000000000000000000000000000000000000000000000000080E7C7
:2B468C00020000000000000000000000000000000000000000000000000000000000000000000000000000000008ED0C
:2B46B700000000000000000000000000000000000000000000000000000000000000000000000000000000000080E771
:2B46E200000000000000000000000000000000000000000000000000000000000000000000000000000000000080E746
:2B470D00000000000000000000000000000000000000000000000000000000000000000000000000000000000080E71A
:2B473800000000000000000000000000000000000000000000000000000000000000000000000000000000000080E7EF
:2B476300000000000000000000000000000000000000000000000000000000000000000000000000000000000080E7C4
:2B478E00800008800008800008800008800008800008000000000020000220000220000220000220000220000280E79D
:2B47B900800008800008800008800008800008800008000000000020000220000220000220000220000220000280E772
:2B47E400000000000000000000000000000000000000000000000000000000000000000000000000000000000080E743
:2B480F00000000000000000000000000000000000000000000000000000000000000000000000000000000000080E717
:2B483A00000000000000000000000000000000000000000000000000000000000000000000000000000000000080E7EC
:2B486500000000000000000000000000000000000000000000000000000000000000000000000000000000000080E7C1
:2B489000000000000000000000000000000000000000000000000000000000000000000000000000000000000080E796
:2B48BB00000000000000000000000000000000000000000000000000000000000000000000000000000000000080E76B
:2B48E600000000000000000000000000000000000000000000000000000000000000000000000000000000000080E740
:2B491100000000000000000000000000000000000000000000000000000000000000000000000000000000000080E714
:2B493C00000000000000000000000000000000000000000000000000000000000000000000000000000000000080E7E9
:2B496700000000000000000000000000000000000000000000000000000000000000000000000000000000000080E7BE
:2B499200000000000000000000000000000000000000000000000000000000000000000000000000000000000080E793
:2B49BD00000000000000000000000000000000000000000000000000000000000000000000000000000000000080E768
:2B49E800000000000000000000000000000000000000000000000000000000000000000000000000000000000080E73D
:2B4A1300000000000000000000000000000000000000000000000000000000000000000000000000000000000080E711
:2B4A3E00000000000000000000000000000000000000000000000000000000000000000000000000000000000080E7E6
:2B4A6900000000000000000000000000000000000000000000000000000000000000000000000000000000000080E7BB
:2B4A9400000000000000000000000000000000000000000000000000000000000000000000000000000000000080E790
:2B4ABF00000000000000000000000000000000000000000000000000000000000000000000000000000000000080E765
:2B4AEA00000000000000000000000000000000000000000000000000000000000000000000000000000000000080E73A
:2B4B1500000000000000100000000000000000000000000000000000000000000000000000000000000000000080F7EE
:2B4B4000000000000000010000000000000000000000000000000000000000000000000000000000000000000080E6E3
:2B4B6B00000010010000000000000000000000000000800000800000000000000000000000000000000000000080F797
:2B4B9600000000000000000040000000000000000400000200000000000000000000000000000000000000000080C569
:2B4BC100000000000080000000000000000000000000000000000000000000000000000000000000000000000000E762
:2B4BEC00000000000000000000000000000000000000000000000000000000000000000000000000000000000080E737
:2B4C1700000000000000010000000000000000000000000000000000000000000000000000000000000000000080E60B
:2B4C4200000000000000000000000000000000000000000000000000000000000000000000000000000000000080E7E0
:2B4C6D00000000000000000004100020000000400201000000000000000000000000000000000000000000000080E73E
:2B4C9800000000000000000000000000000000400000000000000000000000000000000000000000000000000080A78A
:2B4CC300000040000000000000000000000000000000000000000000000000000000000000000000000000000080A363
:2B4CEE00000008000000000000000000000000000000000000000000000000000000000000000000000000000000EFA4
:2B4D1900000000000000000000000000000000000000000100000000000000000000000000000000000000000080F6F8
:2B4D4400000000000000000000000000000000000000000000000000000000000000000000000000000000000080E7DD
:2B4D6F000000000000A0080020000000000000208088000201401080220800000000000000000000001004000000DF39
:2B4D9A000200000000000000000000000000000000000000000000802208000000000000000000000010040000088E98
:2B4DC500000000000000000000000000000000000000008200200800000000000000000000000000000000000000ED2C
:2B4DF000000000000000000000000000000000000000000000000000000000000000000000000000000000000080E731
:2B4E1B000000000000A0080020000000000000A0C08820C201284802000000000000000000000000000000000000D196
:2B4E460000000000000000000000000000000000000080D901200800000000000000000000000000000000000000C3FC
:2B4E710002000000000000000000000000000000000080F91F220804000000000000000000000000000000000008F056
:2B4E9C00800008800008800008800008800008800008A0F91F220A20000220000220000220000220000220000280B8D3
:2B4EC70080000880000880000880000880000880000880D821300820000220000220000220000220000220000200E033
:2B4EF20000000000000004000002000000000080010080D921940902000000000000000000000000000000000000F302
:2B4F1D0002000601000600002600000000000060040628C201A11B02000000000000000000000000000000000008C752
:2B4F480000001000001800000000000000000000001A000002000000000000000000000000000000000000000080F684
:2B4F7300000004080024020064000000000000402064803862231A00000000000000000000000000000000000000C0A2
:2B4F9E00000040000000000000000000000000801182803882830900000000000000000000000000000000000000AA25
:2B4FC900000010000098000040000000000000000022809AC3810900000000000000000000000000000000000000E666
:2B4FF400020010000018000000000000000000800000A09A3BA00A00000000000000000000000000000000000088EF52
:2B501F00000090000018000018000000000000000019809A23800800000000000000000000000000000000000080C682
:2B504A000000180000400000000000000000008001008098838109000000000000000000000000000000000000008AB3
:2B50750000003E020006000046000000000000600866A09921205A000000000000000000000000000000000000009949
:2B50A000020002010040000080000000000000A0018200000000A0000000000000000000000000000000000000889B3A
:2B50CB00000024000024000004000000000000400105A03D8221AA00000000000000000000000000000000000080F18D
:2B50F600000002000000000020000000000000A00102809C83810B00000000000000000000000000000000000080B36C
:2B512100000002000000000000000000000000A003BB809C03001900000000000000000000000000000000000080B299
:2B514C00000000000018000000000000000000800918A09E231A1900000000000000000000000000000000000000A14A
:2B517700020000000018000018000000000000800100809E23A01800000000000000000000000000000000000088A831
:2B51A200000020000000000020000000000000000000809C83810A00000000000000000000000000000000000000B9BF
:2B51CD00000006000006040026000000000000604206A89D83A10B00000000000000000000000000000000000000D194
:2B51F800000008000018000082000000000000000081000000000000000000000000000000000000000000000080C623
:2B52230002000404000410000400000000000040033CA03A22020304000000000000000000000000000000000088CB67
:2B524E00000040000000000082000000000000000200A028A20219000000000000000000000000000000000000009B51
:2B52790000000800009800003A00000000000000038080291AE1290100000000000000000000000000000000008096C9
:2B52A400000008000018000018000000000000000200802922802900000000000000000000000000000000000000CF62
:2B52CF00000088000018000000000000000000000100802982202900000000000000000000000000000000000000EFB0
:2B52FA00020000100040000000020000000000000100A02822211900000000000000000000000000000000000088B3D5
:2B53250000003E000026000026000000000000600606A8A823002302000000000000000000000000000000000000F3DC
:2B53500000000208001A000000000000000000000113000000002000000000000000000000000000000000000000C416
:2B537B0000002400008400006400000000000040026C203882210A00000000000000000000000000000000000000AF99
:2B53A600020002000002080018000000000000000382808B81839900000000000000000000000000000000000088DF22
:2B53D10000009A00003A000000100000000000000322800AE1031900000000000000000000000000000000000000AB76
:2B53FC000000180000180000000000000000000005108028803B0A00000000000000000000000000000000000080B0A4
:2B542700000018000018000000000000000000000090808AE0033904000000000000000000000000000000000000E38D
:2B545200000000000058000000000020000000800300808B818319000000000000000000000000000000000000009B71
:2B547D0002003E01001E000086000026000000E00106283882216A00000000000000000000000000000000000088FB22
:2B54A80000000208001A000000000002040000000080000000000000000000000000000000000000000000000080D2DD
:2B54D30000002400001C0000A4000004000000400035A0821BA05900000000000000000000000000000000000080CAD1
:2B54FE0000004200000200000000001200000000000080AB08981800000000000000000000000000000000000000BA90
:2B55290002001A00000200002010003210000000008080A300021800000000000000000000000000000000000008F70B
:2B555400000018000000000000000050000000000000A0A2023E1A000000000000000000000000000000000000009692
:2B557F000000180000000000180000080000000000A0808383031900000000000000000000000000000000000000DDAA
:2B55AA00000080000000000000020018000000800100808391990300000000000000000000000000000000000080F516
:2B55D50000000600002604002600003E100000E00766A0B29A210200000000000000000000000000000000000000EAC1
:2B56000002008200001801003200001A0000008001430000000000000000000000000000000000000000000000089238
:2B562B00000034000024000034000004020000C00204802323A00300000000000000000000000000000000000000DDB6
:2B56560000000200000000000200005A000000800302802302221800000000000000000000000000000000000080BB2C
:2B5681000000B200009800006200000200000080035A808303221000000000000000000000000000000000000080EDCE
:2B56AC00020020000018000010000018000000800318A08323221200000000000000000000000000000000000088FCD8
:2B56D700000030000018000048000000000000800100808339221800000000000000000000000000000000000080A3FE
:2B570200000080000040000018020018000000000008208239221800000000000000000000000000000000000080AB42
:2B572D0000000600000600003E00003E100000600A1E282238200200000000000000000000000000000000000000FD90
:2B5758000000820000420000180000180000002000980000000000000000000000000000000000000000000000009AE0
:2B57830002003400003C00007C00000402000040003C209818220200000000000000000000000000000000000088937C
:2B57AE00000002000002040018000058000000A001188099188259000000000000000000000000000000000000009003
:2B57D9000000B200003A000058000000000000A00198809802801900000000000000000000000000000000000080AB4A
:2B580400000020000000000098000018000000800118A0BB02800300000000000000000000000000000000000080CEE2
:2B582F00020030000000000008000000000000800118A49903A01900000000000000000000000000000000000088EA10
:2B585A0000002000000000000002000000000080215880991982190000000000000000000000000000000000000082B9
:2B588500000026000006020026000006020000E0032620B818220200000000000000000000000000000000000000CCB3
:2B58B000000002000018000022000000000000000018000000000000000000000000000000000000000000000080C534
:2B58DB000000A400000401003C0000241000004042BC000000000000000000000000000000000000000000000080D0FB
:2B590600020002000000000002000040000000000018000000000000000000000000000000000000000000000088B0E0
:2B593100000002000098000062000018000000000058000000000000000000000000000000000000000000000080DC83
:2B595C00000018000018000018000000000000000018000000000000000000000000000000000000000000000080E759
:2B598700000018000018000000000000000000000018000000000000000000000000000000000000000000000000FEAF
:2B59B200000008000008000008000008000000800008000000000000000000000000000000000000000000000080E7BB
:2B59DD00000000000000000000000000000000000000000000000000000000000000000000000000000000000080E738
:2B5A0800800000800000800000800000800008000000000000000020000220000220000220000220000220000280E7B8
:2B5A3300800008800008800008800008800008800008000000000020000220000220000220000220000220000280E7E5
:2B5A5E000021000000820000A200C0A2000000A02800080000000000000000000000000000000000000000000000FAAC
:2B5A8900000000000000000000044000000000000000000000000000000000000000000000000000000000000080E747
:2B5AB4000001000000000000000000000000000001000084002000000000000000000000000000000000000000808B16
:2B5ADF00000000000000000000000000000000000000000000000888820000000000000000002000000000000080E703
:2B5B0A000020080000820000A204C0A2000000200800088200200888820000000000000000002000000000000000E7D3
:2B5B3500000008000000000000000000000000000800000000000000000000000000000000000000000000000080EFC6
:2B5B6000000000000080000004000004000000000000000000000000000000000000000000000000000000000000E7AB
:2B5B8B00000000000010000000000000000000000000000000000000000000000000000000000000000000000080F669
:2B5BB600000000000008000000000000000000000000000000000000000000000000000000000000000000000000EFCD
:2B5BE10000000002000000000008000000000000800040C001000000000000000000000000000000000000000080B9D5
:2B5C0C00000000000000000000000000000000000000000000000000000000000000000000000000000000000080E706
:2B5C3700000000000000000000000000000000000000000000000000000000000000000000000000000000000080E7DB
:2B5C6200000000000000000000000000000000000000000000000000000000000000000000000000000000000080E7B0
:2B5C8D00000000000040000000000000000000000000000000000000000000000000000000000000000000000080A389
:2B5CB800000000000000000000000000000000000000000000000000000000000000000000000000000000000080E75A
:2B5CE300000004000000000000000000080000000000030000000000000000000000000000000000000000000080AC5B
:2B5D0E000000040C0000040000000000010000008100000000040000000000000000000000000000000000000080B39D
:2B5D3900000000000020000000000000000000000000000000000000000000000000000000000000000000000080C5DA
:2B5D6400000000000000000000000000000000000000000000000000000000000000000000000000000000000080E7AD
:2B5D8F00000000000000000000000000000000000000000000000000000000000000000000000000000000000080E782
:2B5DBA00000000000000000000000000000000000000000000000000000000000000000000000000000000000080E757
:2B5DE500000000000000000000000000000000000000000000000000000000000000000000000000000000000080E72C
:2B5E1000000000000000000000000000000000000000000000000000000000000000000000000000000000000080E700
:2B5E3B00000000000000000000000000000000000000000000000000000000000000000000000000000000000080E7D5
:2B5E6600000000000000000000000000000000000000000000000000000000000000000000000000000000000080E7AA
:2B5E9100000000000000000000000000000000000000000000000000000000000000000000000000000000000080E77F
:2B5EBC00000000000000000000000000000000000000000000000000000000000000000000000000000000000080E754
:2B5EE700000000000000000000000000000000000000000000000000000000000000000000000000000000000080E729
:2B5F1200000000000000000000000000000000000000000000000000000000000000000000000000000000000080E7FD
:2B5F3D00000000000000000000000000000000000000000000000000000000000000000000000000000000000080E7D2
:2B5F6800000000000000000000000000000000000000000000000000000000000000000000000000000000000080E7A7
:2B5F9300000000000000000000000000000000000000000000000000000000000000000000000000000000000080E77C
:2B5FBE00000000000000000000000000000000000000000000000000000000000000000000000000000000000080E751
:2B5FE900000000000000000000000000000000000000000000000000000000000000000000000000000000000080E726
:2B601400020000000000000000000000000000000000000000000000000000000000000000000000000000000008ED6A
:2B603F00000000000000000000000000000000000000000000000000000000000000000000000000000000000080E7CF
:2B606A00000000000000000000000000000000000000000000000000000000000000000000000000000000000080E7A4
:2B609500000000000000000000000000000000000000000000000000000000000000000000000000000000000080E779
:2B60C000000000000000000000000000000000000000000000000000000000000000000000000000000000000080E74E
:2B60EB00020000000000000000000000000000000000000000000000000000000000000000000000000000000008ED93
:2B611600800008800008800008800008800008800008000000000020000220000220000220000220000220000280E7FB
:2B614100800008800008800008800008800008800008000000000020000220000220000220000220000220000280E7D0
:2B616C00000000000000000000000000000000000000000000000000000000000000000000000000000000000080E7A1
:2B619700020000000000000000000000000000000000000000000000000000000000000000000000000000000008EDE6
:2B61C200000000000000000000000000000000000000000000000000000000000000000000000000000000000080E74B
:2B61ED00000000000000000000000000000000000000000000000000000000000000000000000000000000000080E720
:2B621800000000000000000000000000000000000000000000000000000000000000000000000000000000000080E7F4
:2B624300000000000000000000000000000000000000000000000000000000000000000000000000000000000080E7C9
:2B626E00020000000000000000000000000000000000000000000000000000000000000000000000000000000008ED0E
:2B629900000000000000000000000000000000000000000000000000000000000000000000000000000000000080E773
:2B62C400000000000000000000000000000000000000000000000000000000000000000000000000000000000080E748
:2B62EF00000000000000000000000000000000000000000000000000000000000000000000000000000000000080E71D
:2B631A00020000000000000000000000000000000000000000000000000000000000000000000000000000000008ED61
:2B634500000000000000000000000000000000000000000000000000000000000000000000000000000000000080E7C6
:2B637000000000000000000000000000000000000000000000000000000000000000000000000000000000000080E79B
:2B639B00000000000000000000000000000000000000000000000000000000000000000000000000000000000080E770
:2B63C600000000000000000000000000000000000000000000000000000000000000000000000000000000000080E745
:2B63F100020000000000000000000000000000000000000000000000000000000000000000000000000000000008ED8A
:2B641C00000000000000000000000000000000000000000000000000000000000000000000000000000000000080E7EE
:2B644700000000000000000000000000000000000000000000000000000000000000000000000000000000000080E7C3
:2B647200000000000000000000000000000000000000000000000000000000000000000000000000000000000080E798
:2B649D00020000000000000000000000000000000000000000000000000000000000000000000000000000000008EDDD
:2B64C800000000000000000000000000000000000000000000000000000000000000000000000000000000000080E742
:2B64F300000000000000000000000000000000000000000000000000000000000000000000000000000000000080E717
:2B651E00000000000000000000000000000000000000000000000000000000000000000000000000000000000080E7EB
:2B654900000000000000000000000000000000000000000000000000000000000000000000000000000000000080E7C0
:2B657400020000000000000000000000000000000000000000000000000000000000000000000000000000000008ED05
:2B659F00000000000000000000000000000000000000000000000000000000000000000000000000000000000080E76A
:2B65CA00000000000000000000000000000000000000000000000000000000000000000000000000000000000080E73F
:2B65F500000000000000000000000000000000000000000000000000000000000000000000000000000000000080E714
:2B662000020000000000000000000000000000000000000000000000000000000000000000000000000000000008ED58
:2B664B00000000000000000000000000000000000000000000000000000000000000000000000000000000000080E7BD
:2B667600000000000000000000000000000000000000000000000000000000000000000000000000000000000080E792
:2B66A100000000000000000000000000000000000000000000000000000000000000000000000000000000000080E767
:2B66CC00000000000000000000000000000000000000000000000000000000000000000000000000000000000080E73C
:2B66F700020000000000000000000000000000000000000000000000000000000000000000000000000000000008ED81
:2B672200000000000000000000000000000000000000000000000000000000000000000000000000000000000080E7E5
:2B674D00000000000000000000000000000000000000000000000000000000000000000000000000000000000080E7BA
:2B677800000000000000000000000000000000000000000000000000000000000000000000000000000000000080E78F
:2B67A300020000000000000000000000000000000000000000000000000000000000000000000000000000000008EDD4
:2B67CE00000000000000000000000000000000000000000000000000000000000000000000000000000000000080E739
:2B67F900000000000000000000000000000000000000000000000000000000000000000000000000000000000080E70E
:2B682400000000000000000000000000000000000000000000000000000000000000000000000000000000000080E7E2
:2B684F00000000000000000000000000000000000000000000000000000000000000000000000000000000000080E7B7
:2B687A00020000000000000000000000000000000000000000000000000000000000000000000000000000000008EDFC
:2B68A500000000000000000000000000000000000000000000000000000000000000000000000000000000000080E761
:2B68D000000000000000000000000000000000000000000000000000000000000000000000000000000000000080E736
:2B68FB00000000000000000000000000000000000000000000000000000000000000000000000000000000000080E70B
:2B692600020000000000000000000000000000000000000000000000000000000000000000000000000000000008ED4F
:2B695100020000000000000000000000000000000000000000000000000000000000000000000000000000000080E5B4
:2B697C00040000000000000000000000000000000000000000000000000000000000000000000000000000000080E389
:2B69A700020000000000000000000000000000000000000000000000000000000000000000000000000000000080E55E
:2B69D200020000000000000000000000000000000000000000000000000000000000000000000000000000000080E533
:2B69FD00020000000000000000000000000000000000000000000000000000000000000000000000000000000008ED78
:2B6A2800000000000000000000000000000000000000000000000000000000000000000000000000000000000080E7DC
:2B6A5300000000000000000000000000000000000000000000000000000000000000000000000000000000000080E7B1
:2B6A7E00000000000000000000000000000000000000000000000000000000000000000000000000000000000080E786
:2B6AA900020000000000000000000000000000000000000000000000000000000000000000000000000000000008EDCB
:2B6AD400020000000000000000000000000000000000000000000000000000000000000000000000000000000080E530
:2B6AFF00040000000000000000000000000000000000000000000000000000000000000000000000000000000080E305
:2B6B2A00020000000000000000000000000000000000000000000000000000000000000000000000000000000080E5D9
:2B6B5500020000000000000000000000000000000000000000000000000000000000000000000000000000000080E5AE
:2B6B8000020000000000000000000000000000000000000000000000000000000000000000000000000000000008EDF3
:2B6BAB00000000000000000000000000000000000000000000000000000000000000000000000000000000000080E758
:2B6BD600000000000000000000000000000000000000000000000000000000000000000000000000000000000080E72D
:2B6C0100000000000000000000000000000000000000000000000000000000000000000000000000000000000080E701
:2B6C2C00000000000000000000000000000000000000000000000000000000000000000000000000000000000080E7D6
:2B6C5700000000000000000000000000000000000000000000000000000000000000000000000000000000000080E7AB
:2B6C8200800008800008800008800008800008800008000000000020000220000220000220000220000220000280E784
:2B6CAD00800008800008800008800008800008800008000000000020000220000220000220000220000220000280E759
:2B6CD800000000000000000000000000000000000000000000000000000000000000000000000000000000000080E72A
:2B6D0300000000000000000000000000000000000200000000000000000000000000000000000000000000000080C51E
:2B6D2E00000000000000000000000000000000000000000000000000000000000000000000000000000000000080E7D3
:2B6D5900200000000000000000000000000000000000000000000000000000000000000000000000000000000080C7A8
