:020000040000FA
:2B000000FFFF62FF2500FFFFFFFFFFFFFFFFFFFFFFFFFFFFFFFFFFFFFFFFFFFFFFFFFFFFFFFFFFFFFFFFFFFFFFFFFF76
:2B002B00601886611886611886611886611886611886010000000018866118DC6118067718866118866118866100D2F8
:2B0056004010044110044110044110044110044110040100000000100441100A4110844210044110044110044100D22A
:2B008100000000000000000000000000000000000000000000000000000000000000000000000000000000000080E7ED
:2B00AC00000000000000000000000000000000000000000000000000000000000000000000000000000000000080E7C2
:2B00D700000000000000000000000000000000000000000000000000000000000000000000000000000000000080E797
:2B010200000000000000000000000000000000000000000000000000000000000000000000000000000000000080E76B
:2B012D00000000000000000000000000000000000000000000000000000000000000000000000000000000000080E740
:2B015800000000000000000000000000000000000000000000000000000000000000000000000000000000000080E715
:2B018300000000000000000000000000000000000000000000000000000000000000000000000000000000000080E7EA
:2B01AE00000000000000000000000000000000000000000000000000000000000000000000000000000000000080E7BF
:2B01D900000000000000000000000000000000000000000000000000000000000000000000000000000000000080E794
:2B020400000000000000000000000000000000000000000000000000000000000000000000000000000000000080E768
:2B022F00000000000000000000000000000000000000000000000000000000000000000000000000000000000080E73D
:2B025A00000000000000000000000000000000000000000000000000000000000000000000000000000000000080E712
:2B028500000000000000000000000000000000000000000000000000000000000000000000000000000000000080E7E7
:2B02B000000000000000000000000000000000000000000000000000000000000000000000000000000000000080E7BC
:2B02DB00000000000000000000000000000000000000000000000000000000000000000000000000000000000080E791
:2B030600000000000000000000000000000000000000000000000000000000000000000000000000000000000080E765
:2B033100000000000000000000000000000000000000000000000000000000000000000000000000000000000080E73A
:2B035C00000000000000000000000300000000000000000000000000000000000000000000000000000000000080D41F
:2B038700000000000000000000000000000000000000000000000000000000000000000000000000000000000080E7E4
:2B03B200020000000000000000000000000000000000000000000000000000000000000000000000000000000008ED29
:2B03DD00000000000000000000000000000000000000000000000000000000000000000000000000000000000080E78E
:2B040800000000000000000000000000000000000000000000000000000000000000000000000000000000000080E762
:2B043300000000000000000000000000000000000000000000000000000000000000000000000000000000000080E737
:2B045E00000000000000000000000000000000000000000000000000000000000000000000000000000000000080E70C
:2B048900020000000000000000000000000000000000000000000000000000000000000000000000000000000008ED51
:2B04B400800008800008800008800008800008800008000000000020000220000220000220000220000220000280E7BA
:2B04DF00800008800008800008800008800008800008000000000020000220000220000220000220000220000280E78F
:2B050A00000000000000000000000000000000000000000000000000000000000000000000000000000000000080E75F
:2B053500020000000000000000000000000000000000000000000000000000000000000000000000000000000008EDA4
:2B056000000000000000000000000000000000000000000000000000000000000000000000000000000000000080E709
:2B058B00000000000000000000000000000000000000000000000000000000000000000000000000000000000080E7DE
:2B05B600000000000000000000000000000000000000000000000000000000000000000000000000000000000080E7B3
:2B05E100000000000000000000000000000000000000000000000000000000000000000000000000000000000080E788
:2B060C00020000000000000000000000000000000000000000000000000000000000000000000000000000000008EDCC
:2B063700000000000000000000000000000000000000000000000000000000000000000000000000000000000080E731
:2B066200000000000000000000000000000000000000000000000000000000000000000000000000000000000080E706
:2B068D00000000000000000000000000000000000000000000000000000000000000000000000000000000000080E7DB
:2B06B800020000000000000000000000000000000000000000000000000000000000000000000000000000000008ED20
:2B06E300000000000000000000000000000000000000000000000000000000000000000000000000000000000080E785
:2B070E00000000000000000000000000000000000000000000000000000000000000000000000000000000000080E759
:2B073900000000000000000000000000000000000000000000000000000000000000000000000000000000000080E72E
:2B076400000000000000000000000000000000000000000000000000000000000000000000000000000000000080E703
:2B078F00020000000000000000000000000000000000000000000000000000000000000000000000000000000008ED48
:2B07BA00000000000000000000000000000000000000000000000000000000000000000000000000000000000080E7AD
:2B07E500000000000000000000000000000000000000000000000000000000000000000000000000000000000080E782
:2B081000000000000000000000000000000000000000000000000000000000000000000000000000000000000080E756
:2B083B00020000000000000000000000000000000000000000000000000000000000000000000000000000000008ED9B
:2B086600000000000000000000000000000000000000000000000000000000000000000000000000000000000080E700
:2B089100000000000000000000000000000000000000000000000000000000000000000000000000000000000080E7D5
:2B08BC00000000000000000000000000000000000000000000000000000000000000000000000000000000000080E7AA
:2B08E700000000000000000000000000000000000000000000000000000000000000000000000000000000000080E77F
:2B091200020000000000000000000000000000000000000000000000000000000000000000000000000000000008EDC3
:2B093D00000000000000000000000000000000000000000000000000000000000000000000000000000000000080E728
:2B096800000000000000000000000000000000000000000000000000000000000000000000000000000000000080E7FD
:2B099300000000000000000000000000000000000000000000000000000000000000000000000000000000000080E7D2
:2B09BE00020000000000000000000000000000000000000000000000000000000000000000000000000000000008ED17
:2B09E900020000000000000000000000000000000000000000000000000000000000000000000000000000000080E57C
:2B0A1400040000000000000000000000000000000000000000000000000000000000000000000000000000000080E350
:2B0A3F00020000000000000000000000000000000000000000000000000000000000000000000000000000000080E525
:2B0A6A00020000000000000000000000000000000000000000000000000000000000000000000000000000000080E5FA
:2B0A950002000000000000000060800000000000000000000000000000000000000000000000000000000000000885C7
:2B0AC000000000000000000000002100000000000000000000000000000000000000000000000000000000000080F476
:2B0AEB00000000000000000000400100000000000000000000000000000000000000000000000000000000000080B669
:2B0B1600000000000000000000001000000000000000000000000000000000000000000000000000000000000080E63E
:2B0B4100020000000000000000800100000000000000000000000000000000000000000000000000000000000088F48A
:2B0B6C00020000000000000000000101000000000000000000000000000000000000000000000000000000000080E4F6
:2B0B9700040000000000000000800200000000000000000000000000000000000000000000000000000000000000C9E4
:2B0BC200020000000000000000000000000000000000000000000000000000000000000000000000000000000080E5A1
:2B0BED000200000000000000000000000000000000060800000000000000000000000000000000000000000000808DC0
:2B0C1800020000000000000000000000000000000000100000000000000000000000000000000000000000000008FD9A
:2B0C4300000000000000000000000000000000000024000000000000000000000000000000000000000000000080855D
:2B0C6E00000000000000000000000000000000000000000000000000000000000000000000000000000000000080E7F4
:2B0C9900000000000000000000000000000000000000000000000000000000000000000000000000000000000080E7C9
:2B0CC400020000000000000000000000000000000018000000000000000000000000000000000000000000000088F46F
:2B0CEF00000000000000000000000000000000000018000000000000000000000000000000000000000000000000FEC4
:2B0D1A00000000000000000000000000000000000000000000000000000000000000000000000000000000000080E747
:2B0D4500000000000000000000000000000000000000000000000000000000000000000000000000000000000080E71C
:2B0D7000000000000000000000000000000000000000000000000000000000000000000000000000000000000080E7F1
:2B0D9B00020000000000000000000000000000000000000000000000000000000000000000000000000000000008ED36
:2B0DC600000000000000000000000000000000000000000000000000000000000000000000000000000000000080E79B
:2B0DF100000000000000000000000000000000000000000000000000000000000000000000000000000000000080E770
:2B0E1C00000000000000000000000000000000000000000000000000000000000000000000000000000000000080E744
:2B0E4700020000000000000000000000000000000000000000000000000000000000000000000000000000000008ED89
:2B0E7200000000000000000000000000000000000000000000000000000000000000000000000000000000000080E7EE
:2B0E9D00000000000000000000000000000000000000000000000000000000000000000000000000000000000080E7C3
:2B0EC800000000000000000000000000000000000000000000000000000000000000000000000000000000000080E798
:2B0EF300000000000000000000000000000000000000000000000000000000000000000000000000000000000080E76D
:2B0F1E00020000000000000000000000000000000000000000000000000000000000000000000000000000000008EDB1
:2B0F4900000000000000000000000000000000000000000000000000000000000000000000000000000000000080E716
:2B0F7400000000000000000000000000000000000000000000000000000000000000000000000000000000000080E7EB
:2B0F9F00000000000000000000000000000000000000000000000000000000000000000000000000000000000080E7C0
:2B0FCA00000000000000000000000000000000000000000000000000000000000000000000000000000000000080E795
:2B0FF500000000000000000000000000000000000000000000000000000000000000000000000000000000000080E76A
:2B102000800008800008800008800008800008800008000000000020000220000220000220000220000220000280E742
:2B104B00800008800008800008800008800008800008000000000020000220000220000220000220000220000280E717
:2B107600000000000000000000008000000000003000000000000000000000000000000000000000000000000080EC33
:2B10A100000000000000000000000000000000000000000000000000000000000000000000000000000000000080E7BD
:2B10CC00000000000000000000000000000000000000000000000000000000000000000000000000000000000080E792
:2B10F700000000000000000000000000000000000080000000000000000000000000000000000000000000000000E767
:2B112200000000000000000000008000000000001080000000000000000000000000000000000000000000000000EEA4
:2B114D00000000000000000000002000000000000000020000000000000000000000000000000000000000000080E7EE
:2B117800000000000000000000000000000000000000000000000000000000000000000000000000000000000080E7E5
:2B11A300000000000000000000000000000000000000000000000000000000000000000000000000000000000080E7BA
:2B11CE00000000000000000000000000000000000000000000000000000000000000000000000000000000000080E78F
:2B11F900080000000000000000000000000000000000000000000000000000000000000000000000000000000080EF54
:2B122400000000000000000000000000000000000000000000000000000000000000000000000000000000000080E738
:2B124F00000000000000000000000000000000000000000000000000000000000000000000000000000000000080E70D
:2B127A00000000000000000000000000000000000000000000000000000000000000000000000000000000000080E7E2
:2B12A500100000000000000000000000000000000000000000000000000000000000000000000000000000000080F797
:2B12D000000000000000000000000000000000000000000000000000000000000000000000000000000000000080E78C
:2B12FB00000000000000000000000000000000000000000000000000000000000000000000000000000000000080E761
:2B132600000000000000000000008000000000000000080000000000000000000000000000000000000000000080E7AD
:2B135100000000000000000000000000000000000000000000000000000000000000000000000000000000000080E70A
:2B137C00080000000000000000000000000000000000000000000000000000000000000000000000000000000080EFCF
:2B13A700000000000000000000000000000000000000000000000000000000000080010000000000000000000000E6B4
:2B13D200000000000000000000000000000000000000000000000000000000000000000000000000000000000080E789
:2B13FD00080000000000000000000000000000000000000000000000000000000000000000000000000000010080EE4E
:2B1428000000000000000000000000000000000000000000000000000000000000000000000000000000400000C0E7B2
:2B145300000000000000000000000000000000000000000000000000000000000000000000000000000000000090F6E8
:2B147E00000000000000000000000000000000000000000000000000000000000000000000000000000000000080E7DC
:2B14A900000000000000000000000000000000000000000000000000000800000000000000000000000000400000A729
:2B14D400000000000000000000000000000000000000000000000000000000000000000000000000000000000080E786
:2B14FF00000000000000000000000000000000000000000000000000000000000000000000000000000000000080E75B
:2B152A00000000000000000000000000000000000000000000000000010000002000001000000000001000001090F4C1
:2B155500000000000000000000000000000000000000000000000000000000000000000020000000000000000080C506
:2B158000000000000000000000000000000000000000000000000000000000000000000000000000000000000080E7D9
:2B15AB00000000800000800200000008000000000000000000000020000080000000000800000A80000800000800CDFC
:2B15D6000000000000000000000000000000000000000000000000400000C0000000000080000000000000000800E77B
:2B1601000000000000000000000000000000000000000000000000000010001601828441008000000000004008809078
:2B162C00020000000000000000000000000000000000000000000000000000000000000100000000000000000208DEA8
:2B165700000000000000000000000000000000000000000000000000000000000000000000000000000000000008EF71
:2B168200000000000000000000000000000000000000000000000000000000120000000000000000000000000090E4B7
:2B16AD000000000000000000000000000000000000000000000000000010000C0182844000800000000000500C08C704
:2B16D800000000000000000000000000000000000000000000000000000000000000000000000000000000000008EFF0
:2B170300020000000000000000000000000000000000000000000000000000000000000000000000000000000008EDC4
:2B172E00800008800008800008800008800008800008000000000020000220000220000220000220000220000280E72D
:2B175900800008800008800008800008800008800008000000000020000220000220000220000220000220000280E702
:2B178400000000000000000000000000000000000000000000000000100040008400008000000004000000108080AF23
:2B17AF000200000000000000000000000000000000000000000000188001BAC00300800978C00900800599800108FF87
:2B17DA00020000000000000000000000000000000000000000000000040021004200000001100000000000000C00B1AD
:2B180500040000000000000000000000000000000000000000000010000950010D000001F0004F00000B74400D80E6CB
:2B183000020000000000000000000000000000000000000000000000200020080200000002000C00000400010880ECBA
:2B185B000200000000000000000000000000000000000000000000800000C0001C000008E0100400004E60000080D208
:2B188600020000000000000000000000000000000000000000000000000640000C00000060004400000260004488A968
:2B18B1000000000000000000000000000000000000000000000000C0200620020A00000C62000E00002660000800816F
:2B18DC00000000000000000000000000000000000000000000000000100800001400008000000004008080000084B2FB
:2B190700000000000000000000000000000000000000000000000018800518810B98880918C00900800918800900D16F
:2B1932000200000000000000000000000000000000000000000000400404400022400000001000000000400480089131
:2B195D000000000000000000000000000000000000000000000000500001B24005302007940049000001D4000708FE01
:2B198800000000000000000000000000000000000000000000000000200441081240000402000800000000200C90A902
:2B19B3000000000000000000000000000000000000000000000000E00008A0000420010C80100000000080000408DC58
:2B19DE00000000000000000000000000000000000000000000000040000060000462000400004000000640004408ED15
:2B1A09000200000000000000000000000000000000000000000000E0204460020260020A62000C00000680200E88C929
:2B1A3400000000000000000000000000000000000000000000000000101000100040008000080000008000040084EE99
:2B1A5F00000000000000000000000000000000000000000000000078800D188001BCA009188005048009188009809A74
:2B1A8A00000000000000000000000000000000000000000000000000100440040020000481000000000401088000D1D6
:2B1AB5000000000000000000000000000000000000000000000000F0002F50008F50400590008500000570000108F8E8
:2B1AE000020000000000000000000000000000000000000000000000000002200820000082000000000002000800C73C
:2B1B0B00020000000000000000000000000000000000000000000060010EE0000EC0400E00004C00000E60010000C7C0
:2B1B3600020000000000000000000000000000000000000000000060002640000640000400040E00000460004000813B
:2B1B6100020000000000000000000000000000000000000000000060000EA0200620080EC2000200000A62000C80AB86
:2B1B8C00000000000000000000000000000000000000000000000000100400101000000880000000008040020009F4B3
:2B1BB70000000000000000000000000000000000000000000000001880031A8009D8A00198800104800DD8800780BE05
:2B1BE200000000000000000000000000000000000000000000000000100441002440004000044000000040020800A7AA
:2B1C0D00000000000000000000000000000000000000000000000090000B50400370400990000900000534000F8094D0
:2B1C3800020000000000000000000000000000000000000000000000001400101400000002001000000044000008D811
:2B1C6300000000000000000000000000000000000000000000000000010AE00002A0400800000000000CA0021E88E944
:2B1C8E00000000000000000000000000000000000000000000000000000242400622000060000400000620001490B79A
:2B1CB900000000000000000000000000000000000000000000000060000AA0000660080C62000A040082A0080E088745
:2B1CE400000000000000000000000000000000000000000000000000000440000001008000000000000004040888B3C5
:2B1D0F00020000000000000000000000000000000000000000000078C083B8840998810958C00104800D78800F88DF6D
:2B1D3A00000000000000000000000000000000000000000000000000400220000600000000100000000060080080BF5F
:2B1D65000000000000000000000000000000000000000000000000F0004DD0024F700201D4004900008510008780B217
:2B1D900000000000000000000000000000000000000000000000000000022000060000000240080000006000200085B1
:2B1DBB000200000000000000000000000000000000000000000000600224401006600408C0000000000C04010688B89C
:2B1DE6000200000000000000000000000000000000000000000000400204400200600000E0004000000400000400A51B
:2B1E1100040000000000000000000000000000000000000000000060002A20000060000C22000C00002E60002E00851D
:2B1E3C00020000000000000000000000000000000000000000000000080000000001000000000000000480008000B1BB
:2B1E6700020000000000000000000000000000000000000000000098808118A009988181F890071C880319800180AE5C
:2B1E9200020000000000000000000000000000000000000000000000000460010062000860010000000200040808C914
:2B1EBD00000000000000000000000000000000000000000000000090044BF0000770040710008790200DF4000F008BC7
:2B1EE800000000000000000000000000000000000000000000000000000400040060000462000000000240200C00C1D2
:2B1F13000000000000000000000000000000000000000000000000000022E0004E60000C80042E00004CC0000400C164
:2B1F3E00020000000000000000000000000000000000000000000060000660000600000400002460000440004408C9C9
:2B1F6900000000000000000000000000000000000000000000000060002E00000600000A62000E600022A0200A88EF7C
:2B1F9400000000000000000000000000000000000000000000000000000800088040008040000480002400020094BE96
:2B1FBF00000000600001000000000000000000000000000000000018C001188001B88809D890035C800BF8800908C33D
:2B1FEA00000000000100000000000000000000000000000000000000000080004420000040014400200A60028008F757
:2B2015000200004013000000000000000000000000000000000000902001F2000B50200774000BF0000510000F0899F2
:2B2040000000000002000000000000000000000000000000000000000000410004200004420014000012600084809BA3
:2B206B00000000800100000000000000000000000000000000000000000E40081A40010C60020240400480020400B6E8
:2B2096000000000011000000000000000000000000000000000000600006C0000E40000440020240002400000480F773
:2B20C100020000800200000000000000000000000000000000000060000620000E20020E42000C6401026000060CA0E5
:2B20EC00000000000000000000000000000000000000000000000000010C0000000000800040000400200010008CF04C
:2B2117000000000000006020000000061000000000000000000000788003988201FCA007F8800F188809F8800910ACE1
:2B214200000000000000000000000000000000000000000000000000000240000600082080004000200C60008008EB43
:2B216D000000000000004012000000240100000000000000000000F00205B2048FF0000770000F90000310400988C5E5
:2B219800020000000000000000000000000000000000000000000000020241000600102000002000001460018008C5BD
:2B21C3000000000000000000000000000000000000000000000000E0000C20100660000EE0020600000200000080B146
:2B21EE000000000000008001000000180000000000000000000000600004600200600006400206600026000000808330
:2B2219000200000000008001000000180000000000000000000000600042600000600006E0000060000660000404C722
:2B224400000000000000000000000000000000000000000000000000000000000000000000000000000000000080E708
:2B226F00000000000000000000000000000000000000000000000000000000000000000000000000000000000080E7DD
:2B229A00800008800008800008800008800008800008000000000020000220000220000220000220000220000280E7B6
:2B22C500800008800008800008800008800008800008000000000020000220000220000220000220000220000280E78B
:2B22F000000000000400400000000004000000000000000000000010254112004200AAC89282481481288A0C0004BAD2
:2B231B00000000000000000000000000000000000000000000000000000000000000000000000000000000000080E730
:2B234600000000000000000000000000000000000000000000000008001080020000000000000008000000000100F5D4
:2B237100000000000000000000000000000000000000000000000000000000000000000000002000004000002080E35E
:2B239C00000000000400400000000004000000000000000000000018255192024200A2489282681C81688A042184A428
:2B23C700000000400000000000000000000000000000000000000000000010080240000110000110000010000180D8C6
:2B23F200000000800000000000000000000000000000000000000000040020040000004220000200004020004202CB45
:2B241D0000000000000100000000000000000000000000000000000000840000100010000002000400000600008088DB
:2B244800000000000000000000000000000000000000000000000000020000020100000000020000000080000000F4EE
:2B247300000000000000000000000000000000000000000000000000100200100000600001000000100101100080B465
:2B249E00000000000000000000000000000000000000000000000000100000108A00000001000000100001100088C5FA
:2B24C900000000000000000000000000000000000000000000000000000000000000000000000000400000000080A781
:2B24F400000000000000000000000000000000000000000000000000000000000000000000000000000000000080E756
:2B251F000000000000000000000000001000000000000000000000004001006000000000044000000040000000949335
:2B254A00000000000000000000000000000000000000000000000000002000010000000000000000000000000080E4E1
:2B257500080000000000000000000000000000000000000000000000000020040004000000000002000000000080A9E0
:2B25A00000000000000000000000000000000000000000000000000020001120000005081020000200000200014087B6
:2B25CB00000000000000000000000000000000000000000000000000000000000000080000000000000200000080CD8E
:2B25F600000000000000000000000000000000000000000000000000000000000000000000000000000000020080E553
:2B2621000000000000000000000000000000000000000000000000000000000000000000000000000000000000A0C529
:2B264C00000000000000000000000000000000000000000000000000000000000000000000000000000000000080E7FC
:2B267700000000000000000000000000000000000000000000000000000080000000010000011000000000000000E6C0
:2B26A200000000000000000000000000000000000000000000000000000000000000000000000000000000000080E7A6
:2B26CD00000000000000000000000000000000000000000000000000000000000000000000000000000000000008EFEB
:2B26F800100000000000000000000000000000000000000000000000000000000000000000000000000000000080F730
:2B272300000000000000000000000000000000000000000000000000000000000000000000000000000000000080E724
:2B274E00000000000000000000000000000000000000000000000000000000000000000000000000000000000080E7F9
:2B277900000000000000000000000000000000000000000000000000000000410000000000000000000000000080A6CE
:2B27A400000000000000000000000000000000000000000000000000001000040000001000000000001000001008EBD3
:2B27CF00000000000000000000000000000000000000000000000000000000000000000000000000000000000080E778
:2B27FA00000000000000000000000000000000000000000000000000000000000000000000000000000000000080E74D
:2B282500000000000000000000000000000000000000000000000000000800000010000800000000000000000080F6F2
:2B285000000000000000000000000000000000000000000000000000000800000040000C400000C0000400000C80E792
:2B287B000000000000000000000000000000000000000000000000004000002220088000080000088000010001008E08
:2B28A600020000000000000000000000000000000000000000000000000000200000800000000000000000000088C518
:2B28D100020000000000000000000000000000000000000000000000000000000000000000000000000000000080E575
:2B28FC00040000000000000000000000000000000000000000000000000000020000000000000000000001000180E049
:2B29270002000000000000000000000000000000000000000000000040000000A008000008000008800001000080BFCB
:2B295200020000000000000000000000000000000000000000000000000000000000000000000000000000000080E5F3
:2B297D00020000000000000000000000000000000000000000000000000000000000000000000000000000000008ED38
:2B29A800800008800008800008800008800008800008000000000020000220000220000220000220000220000280E7A1
:2B29D300800008800008800008800008800008800008000000000020000220000220000220000220000220000280E776
:2B29FE000000000000000000000000000000000000000000000000000000040000C0008000000000404000000000AF3B
:2B2A29000200000000000000000000000000000000000000000000D88209980800588001784000D88001000000088506
:2B2A54000000000000000000000000000000000000000000000000E00080400000C0008000400000000002000008E944
:2B2A7F000000000000000000000000000000000000000000000000B00007304000B0000FF0000050400900000010F6B7
:2B2AAA000000000000000000000000000000000000000000000000E0000440000040020C000200000200000000088BF8
:2B2AD500000000000000000000000000000000000000000000000020008420080020000C60000040000001000088FFB6
:2B2B0000020000000000000000000000000000000000000000000000000C60200020000C40000000010000000008CCDB
:2B2B2B000000000000000000000000000000000000000000000000400206600000A00202E0020020008C00000000A9FC
:2B2B5600000000000000000000000000000000000000000000000000080004000040102000040000104000000800E993
:2B2B81000000000000000000000000000000000000000000000000188009D84000B8800118000098800100800F80BE39
:2B2BAC0002000000000000000000000000000000000000000000004002800004002000000000000000040200000AC145
:2B2BD7000000000000000000000000000000000000000000000000300001700000D04021F00400D0040D00000F00B469
:2B2C02000000000000000000000000000000000000000000000000C0000040010020104640200060000000000000B4BC
:2B2C2D000000000000000000000000000000000000000000000000200080000000400002C00000E01006010026808BB2
:2B2C5800000000000000000000000000000000000000000000000060000840100040000E40000060020400002480D52C
:2B2C8300020000000000000000000000000000000000000000000060020460000020400EE00800A0008E00000608EBE1
:2B2CAE000000000000000000000000000000000000000000000000000000440000000406040400004040000000808124
:2B2CD900000000000000000000000000000000000000000000000018A009B8200018800F18000098800700800502B81A
:2B2D0400000000000000000000000000000000000000000000000000018020000060008600000000080000000080CCC9
:2B2D2F000200000000000000000000000000000000000000000000D00007D0020070100F90040010004F0000058CEAD1
:2B2D5A00000000000000000000000000000000000000000000000000000420000000000600200000040000008008C3B5
:2B2D8500000000000000000000000000000000000000000000000080084C400200E0080684000000000E04000410D2A3
:2B2DB0000000000000000000000000000000000000000000000000401004400200600086000000002006000046089573
:2B2DDB000000000000000000000000000000000000000000000000800086A00000000002C00800C00006000006088900
:2B2E0600020000000000000000000000000000000000000000000000040004040000000604200040408000000008A7BA
:2B2E3100000000000000000000000000000000000000000000000058800998000098C00B980000B8800F00800182BCFC
:2B2E5C00000000000000000000000000000000000000000000000000018060080040108600020040000004000080BC0A
:2B2E87000000000000000000000000000000000000000000000000700001700000B0000B90000030400F00000184B23E
:2B2EB200020000000000000000000000000000000000000000000040000060000040100600000040020000008008B380
:2B2EDD00000000000000000000000000000000000000000000000000044860000020000204100020001600000000941E
:2B2F0800000000000000000000000000000000000000000000000040000000000060008000000020012400004080ACCD
:2B2F3300000000000000000000000000000000000000000000000060408400000060400060000040000600000480ABDA
:2B2F5E00000000000000000000000000000000000000000000000000048040000000008000000000080000008080A755
:2B2F8900020000000000000000000000000000000000000000000018800138400018810518400058802778A00F888ADC
:2B2FB4000000000000000000000000000000000000000000000000000008200000000280002000000400E00000808D37
:2B2FDF00000000000000000000000000000000000000000000000070200FD00800F0000DF0000050002F10000782A9A2
:2B300A00000000000000000000000000000000000000000000000060000420000060000040000080002060000000A1D6
:2B3035000200000000000000000000000000000000000000000000E0084C400800E02004C40400C0000E004016088872
:2B306000020000000000000000000000000000000000000000000060000440200060000E40400060200600000600E124
:2B308B00040000000000000000000000000000000000000000000060008220000060000AA00000A0000660000000C93B
:2B30B600020000000000000000000000000000000000000000000000008000000080000004040000104000008000B560
:2B30E100020000000000000000000000000000000000000000000098820F98200018800958000098800100800580B812
:2B310C000200000000000000000000000000000000000000000000800008400000800026004000000000000000888DD3
:2B3137000000000000000000000000000000000000000000000000D0000FB00200D0000FD00000900449000005849631
:2B3162000000000000000000000000000000000000000000000000800000400000000200002000000000000008808157
:2B318D000000000000000000000000000000000000000000000000400026200200400086C0000080100804000C809D44
:2B31B8000200000000000000000000000000000000000000000000600024600200400006600000000200000046088D81
:2B31E3000000000000000000000000000000000000000000000000600206E00000C00200A00800C0000600000280EFD8
:2B320E00000000000000000000000000000000000000000000000000010800040080000204040000008000000482E810
:2B323900000000000000000000000000000000000000000000000078800F98000078800B18000098900900800B00886C
:2B3264000000000000000000000000000000000000000000000000600000000800E00004004000600240000004048F7A
:2B328F00020000000000000000000000000000000000000000000010044F70000090002D900000F0000700000B089850
:2B32BA00000000000000000000000000000000000000000000000060000000020060020A002000600004000004008310
:2B32E500000000000000000000000000000000000000000000000000402EE0000000000480000060004C00002A00E72F
:2B331000000000000000000000000000000000000000000000000000002460000000001400000000000404001280A5BB
:2B333B00020000000000000000000000000000000000000000000060000E600000600002C0080000000A00000488E5F2
:2B33660002000000000000000000000000000000000000000000004008000404000002040420000000400000000AE78F
:2B339100040000000000000000000000000000000000000000000038800978000098800D9880019C840158A00D108FD1
:2B33BC0002000000000000000000000000000000000000000000002002166001006000006002000000046210000C9D6A
:2B33E7000200000000000000000000000000000000000000000000500007100000F02029F00089F0100DB0000D08A02E
:2B3412000200000000000000000000000000000000000000000000A0000860100060000C000000600200C0001008BA15
:2B343D000000000000000000000000000000000000000000000000400006000000600002601000E0000601000400A3BE
:2B34680000000000000000000000000000000000000000000000004000060000000000106000066000042000048080F5
:2B349300000000000000000000000000000000000000000000000020020060000000000000000600008A60402E80AFFF
:2B34BE00000000000000000000000000000000000000000000000000000000000000000000000000000000000080E77C
:2B34E900000000000000000000000000000000000000000000000000000000000000000000000000000000000080E751
:2B351400800008800008800008800008800008800008000000000020000220000220000220000220000220000280E729
:2B353F00800008800008800008800008800008800008000000000020000220000220000220000220000220000280E7FE
:2B356A0000000000000000000000000000000000000000000000000885401000009042499022011082C84A210180D86D
:2B359500000000000000000000000000000000000000000000000000000000000000000000000000000000000080E7A4
:2B35C000000000000000000000000000000000000000000000000010000440000000000000000008000000800080F68E
:2B35EB00000000000000000000000000000000000000010000000000000000000100000000002000002000002080F5DE
:2B36160000000000000000000000000000000000000001000000001885401008019042499022211882680AA121809FB7
:2B364100000000000000000000000000000000000000000000000000000100000000000024400004400200008084BEF1
:2B366C00000000000000000000000000000000000000000000000040000022000000000002000000220000000080A38A
:2B369700000000000000000000000000000000000000000000000010000000000000100000000000001002400080878F
:2B36C200000000000000000000000000000000000000000000000010020000000000040000000000000000000080F057
:2B36ED00080000000000000000000000000000000000000000000040410000000000200000040020004010000008F19C
:2B371800000000000000000000000000000000000000000000000080000000080000000000000000000000000000EF0F
:2B374300000000000000000000000000000000000000000000000000000000000000000000000000020000000080E5F4
:2B376E00000000000000000000000000000000000000000000000000000000000000000000000000000000000080E7C9
:2B379900080000000000000000000000000000000000000000000000000000100000000000000000000000000080FF6E
:2B37C400020000000000000000000000000000000000000000000000000000000010000000100000100001020009FE9E
:2B37EF00000000000000000000000000000000000000000000000000080200200000440100000000000000080080B008
:2B381A00000000000000000000000000000000000000000000000000000180000000000100200010000002000102C705
:2B384500000000000000000000000000000000000000000000000000000000000000000000000000000000000080E7F1
:2B387000000000000000000000000000000000000000000000000000000040000000020000000000000000000080A1CA
:2B389B00000000000000000000000000000000000000000000000000000000000000000000000000000000000080E79B
:2B38C60000000000000000000000000000000000000000000000000000000000000000000000000000020400008085CC
:2B38F100000000000000000000000000000000000000000000000000000000000000000000000000000000000080E745
:2B391C00000000000000000000000000000000000000000000000000000000000000000000000000000000000080E719
:2B39470040100441100441100441100441100441108402000000002804411004411004411004A12884A31084A200FB8A
:2B39720060188661188661188661188661188661180617000000007087611886611886611886C17587C51D06D7858025
:02399D00FFFF2A
:00000001FF
