:020000040000FA
:5C000000FFFF62FF2E00FFFFFFFFFFFFFFFFFFFFFFFFFFFFFFFFFFFFFFFFFFFFFFFFFFFFFFFFFFFFFFFFFFFFFFFFFFFFFFFFFFFFFFFFFFFFFFFFFFFFFFFFFFFFFFFFFFFFFFFFFFFFFFFFFFFFFFFFFFFFFFFFFFFFFFFFFFFFFFFFFFFFFFFFFFFF6D
:5C005C0060180C8361300C86C1301806C360180C8361300C86C1301806C360180C8361300C86C1301806C360180C0300000000C0301806C360180C8361300C86C1E0725DEE60180C83C1350C86C130185CC360180C83C1350C86C130180660FFC0
:5C00B8004010080241200804812010048240100802412008048120100482401008024120080481201004824010080200000000802010048240100802412008048150280A8540100802A12008048120100A8240100802A12008048120100480F85B
:5C01140000000000000000000000000000000000000000000000000000000000000000000000000000000000000000000000000000000000000000000000000000000000000000000000000000000000000000000000000000000000000010FF80
:5C01700000000000000000000000000000000000000000000000000000000000000000000000000000000000000000000000000000000000000000000000000000000000000000000000000000000000000000000000000000000000000010FF24
:5C01CC0000000000000000000000000000000000000000000000000000000000000000000000000000000000000000000000000000000000000000000000000000000000000000000000000000000000000000000000000000000000000010FFC8
:5C02280000000000000000000000000000000000000000000000000000000000000000000000000000000000000000000000000000000000000000000000000000000000000000000000000000000000000000000000000000000000000010FF6B
:5C02840000000000000000000000000000000000000000000000000000000000000000000000000000000000000000000000000000000000000000000000000000000000000000000000000000000000000000000000000000000000000010FF0F
:5C02E00000000000000000000000000000000000000000000000000000000000000000000000000000000000000000000000000000000000000000000000000000000000000000000000000000000000000000000000000000000000000010FFB3
:5C033C0000000000000000000000000000000000000000000000000000000000000000000000000000000000000000000000000000000000000000000000000000000000000000000000000000000000000000000000000000000000000010FF56
:5C03980000000000000000000000000000000000000000000000000000000000000000000000000000000000000000000000000000000000000000000000000000000000000000000000000000000000000000000000000000000000000010FFFA
:5C03F40000000000000000000000000000000000000000000000000000000000000000000000000000000000000000000000000000000000000000000000000000000000000000000000000000000000000000000000000000000000000010FF9E
:5C04500000000000000000000000000000000000000000000000000000000000000000000000000000000000000000000000000000000000000000000000000000000000000000000000000000000000000000000000000000000000000010FF41
:5C04AC0000000000000000000000000000000000000000000000000000000000000000000000000000000000000000000000000000000000000000000000000000000000000000000000000000000000000000000000000000000000000010FFE5
:5C05080000000000000000000000000000000000000000000000000000000000000000000000000000000000000000000000000000000000000000000000000000000000000000000000000000000000000000000000000000000000000010FF88
:5C05640000000000000000000000000000000000000000000000000000000000000000000000000000000000000000000000000000000000000000000000000000000000000000000000000000000000000000000000000000000000000010FF2C
:5C05C00000000000000000000000000000000000000000000000000000000000000000000000000000000000000000000000000000000000000000000000000000000000000000000000000000000000000000000000000000000000000010FFD0
:5C061C0000000000000000000000000000000000000000000000000000000000000000000000000000000000000000000000000000000000000000000000000000000000000000000000000000000000000000000000000000000000000010FF73
:5C06780000000000000000000000000000000000000000000000000000000000000000000000000000000000000000000000000000000000000000000000000000000000000000000000000000000000000000000000000000000000000010FF17
:5C06D40000000000000000000000000000000000000000000000000000000000000000000000000000000000000000000000000000000000000000000000000000000000000000000000000000000000000000000000000000000000000010FFBB
:5C07300000000000000000000000000000000000000000000000000000000000000000000000000000000000000000000000000000000000000000000000000000000000000000000000000000000000000000000000000000000000000010FF5E
:5C078C0000000000000000000000000000000000000000000000000000000000000000000000000000000000000000000000000000000000000000000000000000000000000000000000000000000000000000000000000000000000000010FF02
:5C07E80000000000000000000000000000000000000000000000000000000000000000000000000000000000000000000000000000000000000000000000000000000000000000000000000000000000000000000000000000000000000010FFA6
:5C08440000000000000000000000000000000000000000000000000000000000000000000000000000000000000000000000000000000000000000000000000000000000000000000000000000000000000000000000000000000000000010FF49
:5C08A00000000000000000000000000000000000000000000000000000000000000000000000000000000000000000000000000000000000000000000000000000000000000000000000000000000000000000000000000000000000000010FFED
:5C08FC0000000000000000000000000000000000000000000000000000000000000000000000000000000000000000000000000000000000000000000000000000000000000000000000000000000000000000000000000000000000000010FF91
:5C09580000000000000000000000000000000000000000000000000000000000000000000000000000000000000000000000000000000000000000000000000000000000000000000000000000000000000000000000000000000000000010FF34
:5C09B40000000000000000000000000000000000000000000000000000000000000000000000000000000000000000000000000000000000000000000000000000000000000000000000000000000000000000000000000000000000000010FFD8
:5C0A100000000000000000000000000000000000000000000000000000000000000000000000000000000000000000000000000000000000000000000000000000000000000000000000000000000000000000000000000000000000000010FF7B
:5C0A6C0000000000000000000000000000000000000000000000000000000000000000000000000000000000000000000000000000000000000000000000000000000000000000000000000000000000000000000000000000000000000010FF1F
:5C0AC80000000000000000000000000000000000000000000000000000000000000000000000000000000000000000000000000000000000000000000000000000000000000000000000000000000000000000000000000000000000000010FFC3
:5C0B240000000000000000000000000000000000000000000000000000000000000000000000000000000000000000000000000000000000000000000000000000000000000000000000000000000000000000000000000000000000000010FF66
:5C0B800000000000000000000000000000000000000000000000000000000000000000000000000000000000000000000000000000000000000000000000000000000000000000000000000000000000000000000000000000000000000010FF0A
:5C0BDC0000000000000000000000000000000000000000000000000000000000000000000000000000000000000000000000000000000000000000000000000000000000000000000000000000000000000000000000000000000000000010FFAE
:5C0C380000000000000000000000000000000000000000000000000000000000000000000000000000000000000000000000000000000000000000000000000000000000000000000000000000000000000000000000000000000000000010FF51
:5C0C940000000000000000000000000000000000000000000000000000000000000000000000000000000000000000000000000000000000000000000000000000000000000000000000000000000000000000000000000000000000000010FFF5
:5C0CF00000000000000000000000000000000000000000000000000000000000000000000000000000000000000000000000000000000000000000000000000000000000000000000000000000000000000000000000000000000000000010FF99
:5C0D4C0000000000000000000000000000000000000000000000000000000000000000000000000000000000000000000000000000000000000000000000000000000000000000000000000000000000000000000000000000000000000010FF3C
:5C0DA80002000000000000000000000000000000000000000000000000000000000000000000000000000000000000000000000000000000000000000000000000000000000000000000000000000000000000000000000000000000000021FCD0
:5C0E040000000000000000000000000000000000000000000000000000000000000000000000000000000000000000000000000000000000000000000000000000000000000000000000000000000000000000000000000000000000000010FF83
:5C0E6000800010000240000800012000048000100002400008000120000480001000024000080001200004800010000000000000012000048000100002400008000120000480001000024000080001200004800010000240000800012000A0FDEE
:5C0EBC00800010000240000800012000048000100002400008000120000480001000024000080001200004800010000000000000012000048000100002400008000120000480001000024000080001200004800010000240000800012000A0FD92
:5C0F180000000000000000000000000000000000000000000000000000000000000000000000000000000000000000000000000000000000000000000000000000000000000000000000000000000000000000000000000000000000000010FF6E
:5C0F740002000000000000000000000000000000000000000000000000000000000000000000000000000000000000000000000000000000000000000000000000000000000000000000000000000000000000000000000000000000000021FC02
:5C0FD00000000000000000000000000000000000000000000000000000000000000000000000000000000000000000000000000000000000000000000000000000000000000000000000000000000000000000000000000000000000000010FFB6
:5C102C0002000000000000000000000000000000000000000000000000000000000000000000000000000000000000000000000000000000000000000000000000000000000000000000000000000000000000000000000000000000000021FC49
:5C10880000000000000000000000000000000000000000000000000000000000000000000000000000000000000000000000000000000000000000000000000000000000000000000000000000000000000000000000000000000000000010FFFD
:5C10E40000000000000000000000000000000000000000000000000000000000000000000000000000000000000000000000000000000000000000000000000000000000000000000000000000000000000000000000000000000000000010FFA1
:5C11400000000000000000000000000000000000000000000000000000000000000000000000000000000000000000000000000000000000000000000000000000000000000000000000000000000000000000000000000000000000000010FF44
:5C119C0000000000000000000000000000000000000000000000000000000000000000000000000000000000000000000000000000000000000000000000000000000000000000000000000000000000000000000000000000000000000010FFE8
:5C11F80002000000000000000000000000000000000000000000000000000000000000000000000000000000000000000000000000000000000000000000000000000000000000000000000000000000000000000000000000000000000021FC7C
:5C12540000000000000000000000000000000000000000000000000000000000000000000000000000000000000000000000000000000000000000000000000000000000000000000000000000000000000000000000000000000000000010FF2F
:5C12B00000000000000000000000000000000000000000000000000000000000000000000000000000000000000000000000000000000000000000000000000000000000000000000000000000000000000000000000000000000000000010FFD3
:5C130C0000000000000000000000000000000000000000000000000000000000000000000000000000000000000000000000000000000000000000000000000000000000000000000000000000000000000000000000000000000000000010FF76
:5C13680002000000000000000000000000000000000000000000000000000000000000000000000000000000000000000000000000000000000000000000000000000000000000000000000000000000000000000000000000000000000021FC0A
:5C13C40000000000000000000000000000000000000000000000000000000000000000000000000000000000000000000000000000000000000000000000000000000000000000000000000000000000000000000000000000000000000010FFBE
:5C14200000000000000000000000000000000000000000000000000000000000000000000000000000000000000000000000000000000000000000000000000000000000000000000000000000000000000000000000000000000000000010FF61
:5C147C0000000000000000000000000000000000000000000000000000000000000000000000000000000000000000000000000000000000000000000000000000000000000000000000000000000000000000000000000000000000000010FF05
:5C14D80000000000000000000000000000000000000000000000000000000000000000000000000000000000000000000000000000000000000000000000000000000000000000000000000000000000000000000000000000000000000010FFA9
:5C15340002000000000000000000000000000000000000000000000000000000000000000000000000000000000000000000000000000000000000000000000000000000000000000000000000000000000000000000000000000000000021FC3C
:5C15900000000000000000000000000000000000000000000000000000000000000000000000000000000000000000000000000000000000000000000000000000000000000000000000000000000000000000000000000000000000000010FFF0
:5C15EC0000000000000000000000000000000000000000000000000000000000000000000000000000000000000000000000000000000000000000000000000000000000000000000000000000000000000000000000000000000000000010FF94
:5C16480000000000000000000000000000000000000000000000000000000000000000000000000000000000000000000000000000000000000000000000000000000000000000000000000000000000000000000000000000000000000010FF37
:5C16A40002000000000000000000000000000000000000000000000000000000000000000000000000000000000000000000000000000000000000000000000000000000000000000000000000000000000000000000000000000000000021FCCB
:5C17000000000000000000000000000000000000000000000000000000000000000000000000000000000000000000000000000000000000000000000000000000000000000000000000000000000000000000000000000000000000000010FF7E
:5C175C0000000000000000000000000000000000000000000000000000000000000000000000000000000000000000000000000000000000000000000000000000000000000000000000000000000000000000000000000000000000000010FF22
:5C17B80000000000000000000000000000000000000000000000000000000000000000000000000000000000000000000000000000000000000000000000000000000000000000000000000000000000000000000000000000000000000010FFC6
:5C18140000000000000000000000000000000000000000000000000000000000000000000000000000000000000000000000000000000000000000000000000000000000000000000000000000000000000000000000000000000000000010FF69
:5C18700002000000000000000000000000000000000000000000000000000000000000000000000000000000000000000000000000000000000000000000000000000000000000000000000000000000000000000000000000000000000021FCFD
:5C18CC0000000000000000000000000000000000000000000000000000000000000000000000000000000000000000000000000000000000000000000000000000000000000000000000000000000000000000000000000000000000000010FFB1
:5C19280000000000000000000000000000000000000000000000000000000000000000000000000000000000000000000000000000000000000000000000000000000000000000000000000000000000000000000000000000000000000010FF54
:5C19840000000000000000000000000000000000000000000000000000000000000000000000000000000000000000000000000000000000000000000000000000000000000000000000000000000000000000000000000000000000000010FFF8
:5C19E00002000000000000000000000000000000000000000000000000000000000000000000000000000000000000000000000000000000000000000000000000000000000000000000000000000000000000000000000000000000000021FC8C
:5C1A3C0000000000000000000000000000000000000000000000000000000000000000000000000000000000000000000000000000000000000000000000000000000000000000000000000000000000000000000000000000000000000010FF3F
:5C1A980000000000000000000000000000000000000000000000000000000000000000000000000000000000000000000000000000000000000000000000000000000000000000000000000000000000000000000000000000000000000010FFE3
:5C1AF40000000000000000000000000000000000000000000000000000000000000000000000000000000000000000000000000000000000000000000000000000000000000000000000000000000000000000000000000000000000000010FF87
:5C1B500000000000000000000000000000000000000000000000000000000000000000000000000000000000000000000000000000000000000000000000000000000000000000000000000000000000000000000000000000000000000010FF2A
:5C1BAC0002000000000000000000000000000000000000000000000000000000000000000000000000000000000000000000000000000000000000000000000000000000000000000000000000000000000000000000000000000000000021FCBE
:5C1C080000000000000000000000000000000000000000000000000000000000000000000000000000000000000000000000000000000000000000000000000000000000000000000000000000000000000000000000000000000000000010FF71
:5C1C640000000000000000000000000000000000000000000000000000000000000000000000000000000000000000000000000000000000000000000000000000000000000000000000000000000000000000000000000000000000000010FF15
:5C1CC00000000000000000000000000000000000000000000000000000000000000000000000000000000000000000000000000000000000000000000000000000000000000000000000000000000000000000000000000000000000000010FFB9
:5C1D1C0002000000000000000000000000000000000000000000000000000000000000000000000000000000000000000000000000000000000000000000000000000000000000000000000000000000000000000000000000000000000021FC4C
:5C1D780000000000000000000000000000000000000000000000000000000000000000000000000000000000000000000000000000000000000000000000000000000000000000000000000000000000000000000000000000000000000010FF00
:5C1DD40000000000000000000000000000000000000000000000000000000000000000000000000000000000000000000000000000000000000000000000000000000000000000000000000000000000000000000000000000000000000010FFA4
:5C1E300000000000000000000000000000000000000000000000000000000000000000000000000000000000000000000000000000000000000000000000000000000000000000000000000000000000000000000000000000000000000010FF47
:5C1E8C0000000000000000000000000000000000000000000000000000000000000000000000000000000000000000000000000000000000000000000000000000000000000000000000000000000000000000000000000000000000000010FFEB
:5C1EE80002000000000000000000000000000000000000000000000000000000000000000000000000000000000000000000000000000000000000000000000000000000000000000000000000000000000000000000000000000000000021FC7F
:5C1F440000000000000000000000000000000000000000000000000000000000000000000000000000000000000000000000000000000000000000000000000000000000000000000000000000000000000000000000000000000000000010FF32
:5C1FA00000000000000000000000000000000000000000000000000000000000000000000000000000000000000000000000000000000000000000000000000000000000000000000000000000000000000000000000000000000000000010FFD6
:5C1FFC0000000000000000000000000000000000000000000000000000000000000000000000000000000000000000000000000000000000000000000000000000000000000000000000000000000000000000000000000000000000000010FF7A
:5C20580002000000000000000000000000000000000000000000000000000000000000000000000000000000000000000000000000000000000000000000000000000000000000000000000000000000000000000000000000000000000021FC0D
:5C20B40000000000000000000000000000000000000000000000000000000000000000000000000000000000000000000000000000000000000000000000000000000000000000000000000000000000000000000000000000000000000010FFC1
:5C21100000000000000000000000000000000000000000000000000000000000000000000000000000000000000000000000000000000000000000000000000000000000000000000000000000000000000000000000000000000000000010FF64
:5C216C0000000000000000000000000000000000000000000000000000000000000000000000000000000000000000000000000000000000000000000000000000000000000000000000000000000000000000000000000000000000000010FF08
:5C21C80000000000000000000000000000000000000000000000000000000000000000000000000000000000000000000000000000000000000000000000000000000000000000000000000000000000000000000000000000000000000010FFAC
:5C22240002000000000000000000000000000000000000000000000000000000000000000000000000000000000000000000000000000000000000000000000000000000000000000000000000000000000000000000000000000000000021FC3F
:5C22800000000000000000000000000000000000000000000000000000000000000000000000000000000000000000000000000000000000000000000000000000000000000000000000000000000000000000000000000000000000000010FFF3
:5C22DC0000000000000000000000000000000000000000000000000000000000000000000000000000000000000000000000000000000000000000000000000000000000000000000000000000000000000000000000000000000000000010FF97
:5C23380000000000000000000000000000000000000000000000000000000000000000000000000000000000000000000000000000000000000000000000000000000000000000000000000000000000000000000000000000000000000010FF3A
:5C23940002000000000000000000000000000000000000000000000000000000000000000000000000000000000000000000000000000000000000000000000000000000000000000000000000000000000000000000000000000000000021FCCE
:5C23F00000000000000000000000000000000000000000000000000000000000000000000000000000000000000000000000000000000000000000000000000000000000000000000000000000000000000000000000000000000000000010FF82
:5C244C0000000000000000000000000000000000000000000000000000000000000000000000000000000000000000000000000000000000000000000000000000000000000000000000000000000000000000000000000000000000000010FF25
:5C24A80000000000000000000000000000000000000000000000000000000000000000000000000000000000000000000000000000000000000000000000000000000000000000000000000000000000000000000000000000000000000010FFC9
:5C25040000000000000000000000000000000000000000000000000000000000000000000000000000000000000000000000000000000000000000000000000000000000000000000000000000000000000000000000000000000000000010FF6C
:5C25600002000000000000000000000000000000000000000000000000000000000000000000000000000000000000000000000000000000000000000000000000000000000000000000000000000000000000000000000000000000000021FC00
:5C25BC0000000000000000000000000000000000000000000000000000000000000000000000000000000000000000000000000000000000000000000000000000000000000000000000000000000000000000000000000000000000000010FFB4
:5C26180000000000000000000000000000000000000000000000000000000000000000000000000000000000000000000000000000000000000000000000000000000000000000000000000000000000000000000000000000000000000010FF57
:5C26740000000000000000000000000000000000000000000000000000000000000000000000000000000000000000000000000000000000000000000000000000000000000000000000000000000000000000000000000000000000000010FFFB
:5C26D000800010000240000800012000048000100002400008000120000480001000024000080001200004800010000000000000012000048000100002400008000120000480001000024000080001200004800010000240000800012000A0FD66
:5C272C00800010000240000800012000048000100002400008000120000480001000024000080001200004800010000000000000012000048000100002400008000120000480001000024000080001200004800010000240000800012000A0FD09
:5C27880000000000000000000000000000000000000000000000000000000000000000000000000000000000000000000000000000000000000000000000000000000000000000000000000000000000000000000000000000000000000010FFE6
:5C27E40000000000000000000000000000000000000000000000000000000000000000000000000000000000000000000000000000000000000000000000000000000000000000000000000000000000000000000000000000000000000010FF8A
:5C28400000000000000000000000000000000000000000000000000000000000000000000000000000000000000000000000000000000000000000000000000000000000000000000000000000000000000000000000000000000000000010FF2D
:5C289C0000000000000000000000000000000000000000000000000000000000000000000000000000000000000000000000000000000000000000000000000000000000000000000000000000000000000000000000000000000000000010FFD1
:5C28F80000000000000000000000000000000000000000000000000000000000000000000000000000000000000000000000000000000000000000000000000000000000000000000000000000000000000000000000000000000000000010FF75
:5C29540000000000000000000000000000000000000000000000000000000000000000000000000000000000000000000000000000000000000000000000000000000000000000000000000000000000000000000000000000000000000010FF18
:5C29B00000000000000000000000000000000000000000000000000000000000000000000000000000000000000000000000000000000000000000000000000000000000000000000000000000000000000000000000000000000000000010FFBC
:5C2A0C0000000000000000000000000000000000000000000000000000000000000000000000000000000000000000000000000000000000000000000000000000000000000000000000000000000000000000000000000000000000000010FF5F
:5C2A680000000000000000000000000000000000000000000000000000000000000000000000000000000000000000000000000000000000000000000000000000000000000000000000000000000000000000000000000000000000000010FF03
:5C2AC40000000000000000000000000000000000000000000000000000000000000000000000000000000000000000000000000000000000000000000000000000000000000000000000000000000000000000000000000000000000000010FFA7
:5C2B200000000000000000000000000000000000000000000000000000000000000000000000000000000000000000000000000000000000000000000000000000000000000000000000000000000000000000000000000000000000000010FF4A
:5C2B7C0000000000000000000000000000000000000000000000000000000000000000000000000000000000000000000000000000000000000000000000000000000000000000000000000000000000000000000000000000000000000010FFEE
:5C2BD80000000000000000000000000000000000000000000000000000000000000000000000000000000000000000000000000000000000000000000000000000000000000000000000000000000000000000000000000000000000000010FF92
:5C2C340000000000000000000000000000000000000000000000000000000000000000000000000000000000000000000000000000000000000000000000000000000000000000000000000000000000000000000000000000000000000010FF35
:5C2C900000000000000000000000000000000000000000000000000000000000000000000000000000000000000000000000000000000000000000000000000000000000000000000000000000000000000000000000000000000000000010FFD9
:5C2CEC0000000000000000000000000000000000000000000000000000000000000000000000000000000000000000000000000000000000000000000000000000000000000000000000000000000000000000000000000000000000000010FF7D
:5C2D480000000000000000000000000000000000000000000000000000000000000000000000000000000000000000000000000000000000000000000000000000000000000000000000000000000000000000000000000000000000000010FF20
:5C2DA40000000000000000000000000000000000000000000000000000000000000000000000000000000000000000000000000000000000000000000000000000000000000000000000000000000000000000000000000000000000000010FFC4
:5C2E000000000000000000000000000000000000000000000000000000000000000000000000000000000000000000000000000000000000000000000000000000000000000000000000000000000000000000000000000000000000000010FF67
:5C2E5C0000000000000000000000000000000000000000000000000000000000000000000000000000000000000000000000000000000000000000000000000000000000000000000000000000000000000000000000000000000000000010FF0B
:5C2EB80000000000000000000000000000000000000000000000000000000000000000000000000000000000000000000000000000000000000000000000000000000000000000000000000000000000000000000000000000000000000010FFAF
:5C2F140000000000000000000000000000000000000000000000000000000000000000000000000000000000000000000000000000000000000000000000000000000000000000000000000000000000000000000000000000000000000010FF52
:5C2F700000000000000000000000000000000000000000000000000000000000000000000000000000000000000000000000000000000000000000000000000000000000000000000000000000000000000000000000000000000000000010FFF6
:5C2FCC0000000000000000000000000000000000000000000000000000000000000000000000000000000000000000000000000000000000000000000000000000000000000000000000000000000000000000000000000000000000000010FF9A
:5C30280000000000000000000000000000000000000000000000000000000000000000000000000000000000000000000000000000000000000000000000000000000000000000000000000000000000000000000000000000000000000010FF3D
:5C30840000000000000000000000000000000000000000000000000000000000000000000000000000000000000000000000000000000000000000000000000000000000000000000000000000000000000000000000000000000000000010FFE1
:5C30E00000000000000000000000000000000000000000000000000000000000000000000000000000000000000000000000000000000000000000000000000000000000000000000000000000000000000000000000000000000000000010FF85
:5C313C0000000000000000000000000000000000000000000000000000000000000000000000000000000000000000000000000000000000000000000000000000000000000000000000000000000000000000000000000000000000000010FF28
:5C31980000000000000000000000000000000000000000000000000000000000000000000000000000000000000000000000000000000000000000000000000000000000000000000000000000000000000000000000000000000000000010FFCC
:5C31F40000000000000000000000000000000000000000000000000000000000000000000000000000000000000000000000000000000000000000000000000000000000000000000000000000000000000000000000000000000000000010FF70
:5C32500000000000000000000000000000000000000000000000000000000000000000000000000000000000000000000000000000000000000000000000000000000000000000000000000000000000000000000000000000000000000010FF13
:5C32AC0000000000000000000000000000000000000000000000000000000000000000000000000000000000000000000000000000000000000000000000000000000000000000000000000000000000000000000000000000020002000030FF93
:5C33080000000000000000000000000000000000000000000000000000000000000000000000000000000000000000000000000000000000000000000000200000000000000004000000000000000000000000000000000000040000002070FFB2
:5C336400000000000000000000000000000000000000000000000000000000000000000000000000000000000000000000000000000100820010002000000004020000004000000000002000000040000080000000000000000000001404C0F26A
:5C33C00000000000000000000000000000000000000000000000000000000000000000000000000000000000000000000000000040800240008800244000108000000008000020000000001000000000002000000000000000100000000290FE3B
:5C341C0000000000000000000000000000000000000000000000000000000000000000000000000000000000000000000000000040000000000000000000010000000000000000000000020000000000000000000000000000000000000050FCC5
:5C34780000000000000000000000000000000000000000000000000000000000000000000000000000000000000000000000000000000000000000000000000000000000000000000000000000000000000000000000000000001000000010FEDA
:5C34D40000000000000000000000000000000000000000000000000000000000000000000000000000000000000000000000000000000000000000000000000000000000000000000000000000000000000000000000000000000000000010FF8D
:5C35300000000000000000000000000000000000000000000000000000000000000000000000000000000000000000000000000000000000000000000000000000000000000000000000000000000000000000000000000000000000000010FF30
:5C358C00000000000000000000000000000000000000000000000000000000000000000000000000000000000000000000000000800A0240004800080000248004000002000008000020102000001008100000000108200028800010020090FA30
:5C35E80000000000000000000000000000000000000000000000000000000000000000000000000000000000000000000000000024180400001000020800080001000000004010000000002800000000041000000000000008000210820010F9F3
:5C36440000000000000000000000000000000000000000000000000000000000000000000000000000000000000000000000000010000000000000000000000000000000000000000000000000000000000000000000000000000000000000FF1B
:5C36A00000000000000000000000000000000000000000000000000000000000000000000000000000000000000000000000000000000000000000000008000000000000000000000000080000000000008000000000000000000000000090F7B7
:5C36FC0000000000000000000000000000000000000000000000000000000000000000000000000000000000000000000000000000000000000000000000000000000000000000000000000000000000000000000000000000000000000010FF63
:5C37580000000000000000000000000000000000000000000000000000000000000000000000000000000000000000000000000000000000000400000000000000000000000000000000000000000000000000000000000000000000000140FFD1
:5C37B40000000000000000000000000000000000000000000000000000000000000000000000000000000000000000000000000000000400000400000000000000000000000200000000004000000000010000000000000002001000000010F953
:5C38100000000000000000000000000000000000000000000000000000000000000000000000000000000000000000000000000000000004040001000000040008000020000000000041200000000000000008000010000000000800004080FDE9
:5C386C0000000000000000000000000000000000000000000000000000000000000000000000000000000000000000000000000000000000000000000000000000000000000000000000000000000000000000000000000000000000000010FFF1
:5C38C800000000000000000000000000000000000000000000000000000000000000000000000000000000000000000000000000000000800800000002000000000020000000000000000000000000000000000010000200000000010000A0F750
:5C39240000000000000000000000000000000000000000000000000000000000000000000000000000000000000000000000000000000000000000000000000000000000000000000000000000000000000000008000000000400000000050F344
:5C39800000000000000000000000000000000000000000000000000000000000000000000000000000000000000000000000004000000000000000800000000000000800002000000000000000000000000020000000000000020000000030F3BE
:5C39DC00000000000000000000000000000000000000000000000000000000000000000000000000000000000000000000000000000400000100000000200800000000000000040000000004010000000204014000004000040000800000B0F0AE
:5C3A3800000000000000000000000000000000000000000000000000000000000000000000000000000000000000000000000000102010008000300100C00000200000118282000000200400000000002000000040400000400000202000D0F642
:5C3A940000000000000000000000000000000000000000000000000000000000000000000000000000000000000000000000000000000000000000000000000000000000000000000000000000000000000000000000000000000000000010FFC7
:5C3AF00000000000000000000000000000000000000000000000000000000000000000000000000000000000000000000000000000000000000000000000000000001000000000000000000000000000000000000000000000000000000010FE5C
:5C3B4C0000000000000000000000000000000000000000000000000000000000000000000000000000000000000000000000000000000000000000000000000000000000000000000000000000000000000000000000000000000000000010FF0E
:5C3BA80000000000000000000000000000000000000000000000000000000000000000000000000000000000000000000000000000000000000000000000000000000000000000000000000000000000000000080000000000000000000010F7B2
:5C3C040000000100000080000000000000000000000000000000000000000000000000000000000000000000000000000000000000884021448000A1008045225010880641060200802806C10000149802000C8A04004002400088000222F0F1B1
:5C3C600000002100000080000000000000000000000000000000000000000000000000000000000000000000000000000000000000000000000000000000000000000804010000000000060000000000000000000000000000000000000271FFE2
:5C3CBC00000000000000000000000000000000000000000000000000000000000000000000000000000000000000000000000000000000004080000000000020040000000000000000080000000000480000000000000000000088000220D0FD01
:5C3D1800000020000000000000000000000000000000000000000000000000000000000000000000000000000000000000000000000040000000000000800000001000020002000000200000000000000200000000004000000000000000E0FC1D
:5C3D740000000000000000000000000000000000000000000000000000000000000000000000000000000000000000000000000000880025040000A1028055025000800040040300800000C1000014B000000C8B0400000260000000000050F06F
:5C3DD00002000000000000000000000000000000000000000000000000000000000000000000000000000000000000000000000000000000000000000000000000000000000000000000000000000000000000000000000000000000000021FC78
:5C3E2C0000000000000000000000000000000000000000000000000000000000000000000000000000000000000000000000000000000000000000000000000000000000000000000000000000000000000000000000000000000000000010FF2B
:5C3E8800800010000240000800012000048000100002400008000120000480001000024000080001200004800010000000000000012000048000100002400008000120000480001000024000080001200004800010000240000800012000A0FD96
:5C3EE400800010000240000800012000048000100002400008000120000480001000024000080001200004800010000000000000012000048000100002400008000120000480001000024000080001200004800010000240000800012000A0FD3A
:5C3F400000000000000000000000000000000000000000000000000000000000000000000000000000000000000000000000000003014028000020012080000800000002040180000046004000001000000C000800010600041000100000A0FDF7
:5C3F9C000200000000000000000000000000000000000000000000000000000000000000000000000000000000000000000000C00798000300000C8009B002460000D80003600200800FF00100C00600001364006C800FB101B6C004000041FA7C
:5C3FF800000000000000000000000000000000000000000000000000000000000000000000000000000000000000000000000000030000890000240400100018000040000090090000060080000002000000000020018680042200000000E0FF04
:5C40540002000000000000000000000000000000000000000000000000000000000000000000000000000000000000000000008007320402000008000728119C0000D00202C00300002FE00100800A000042400028000FA000248017000031F8FD
:5C40B0000000000000000000000000000000000000000000000000000000000000000000000000000000000000000000000000000361040900002402069010180000200400080900000C000000000900000080011000064000122003000030F7E2
:5C410C0000000000000000000000000000000000000000000000000000000000000000000000000000000000000000000000000003C0000104000400089201380800E000008001000006C0040000030000508001700112C0053200400000E0FD1A
:5C4168000000000000000000000000000000000000000000000000000000000000000000000000000000000000000000000000000060201800002000060020182000600200000100000600000000030000008001304006C000000803000030F88F
:5C41C4000000000000000000000000000000000000000000000000000000000000000000000000000000000000000000000000000360000C0000704006C000380000600090800B0000160000000007010000800170001EC000190003000010F4FA
:5C422000020000000000000000000000000000000000000000000000000000000000000000000000000000000000000000000000000000000000A0000000400000000000040000000006C408000000000028000800080000010000000000F1F16F
:5C427C000000000000000000000000000000000000000000000000000000000000000000000000000000000000000000000000C014D8025B600B0C802930018600001808136200028007300100C01000001B60004C80293001B6C000DA0240F4C0
:5C42D800000000000000000000000000000000000000000000000000000000000000000000000000000000000000000000000000104001080001250420C0005800008000000410000006C080000000000001000000002000001000804000E0F82C
:5C4334000000000000000000000000000000000000000000000000000000000000000000000000000000000000000000000000800350004A4003080007E0051C0000700002400200000F220000800000000244004820072080948003500290F119
:5C43900002000000000000000000000000000000000000000000000000000000000000000000000000000000000000000000000083A0000480082402068100000400400000808100000600000000030000098001302016C0008800032400C0FC0A
:5C43EC0000000000000000000000000000000000000000000000000000000000000000000000000000000000000000000000000004E0002C8001040000C004000000001010100000008E000101000300000981010000000009180000E04061F537
:5C4448000000000000000000000000000000000000000000000000000000000000000000000000000000000000000000000000000360100C800121400680040820004040000000000006C20000000300000084010000060000180203600041FC75
:5C44A4000000000000000000000000000000000000000000000000000000000000000000000000000000000000000000000000000360009C8001300006C000200000600080000000000A000000000300000C80010000060000180003E004D1FADC
:5C450000000000000000000000000000000000000000000000000000000000000000000000000000000000000000000000000000000200000020001000002008000020000C10200000200000000000200040000000000000400000100002E1F600
:5C455C000200000000000000000000000000000000000000000000000000000000000000000000000000000000000000000000C00418021361004C800132010E040098011F6000008001308000C01098081F60044C8809310126C4005800B0F36D
:5C45B800000000000000000000000000000000000000000000000000000000000000000000000000000000000000000000000000030004000000300186000018100000400C00100000000000000000000800A8010010068001000000400090F25B
:5C46140000000000000000000000000000000000000000000000000000000000000000000000000000000000000000000000008084F00002C243380001208104000090009EC00300001F208100800090000EC0077800012200048413D001F0F8EC
:5C4670000000000000000000000000000000000000000000000000000000000000000000000000000000000000000000000000004040020C0801200080C04018000000000C0801000016C040000003800048A0012000000000181003200070FF2E
:5C46CC0002000000000000000000000000000000000000000000000000000000000000000000000000000000000000000000000007C00000000231400E000038010000200C00090000080000000003000008A001402006C180000004620231F2F4
:5C472800000000000000000000000000000000000000000000000000000000000000000000000000000000000000000000000000030020000081200006000018200000010C0280000006000000000300002000002020068000000003601040F60C
:5C47840000000000000000000000000000000000000000000000000000000000000000000000000000000000000000000000000003600000800130010600003800008000148001000006000000000380100C0000300006C0090000036000C0F6B4
:5C47E0000000000000000000000000000000000000000000000000000000000000000000000000000000000000000000000000000040000000010000000000000083000014000000000241080000080000480000A000000000000280000090FC5C
:5C483C000000000000000000000000000000000000000000000000000000000000000000000000000000000000000000000000C010980213610B4C8221304026D0035802136080008009F00100C00458020B60082C8021B00426C004982080F5EF
:5C489800020000000000000000000000000000000000000000000000000000000000000000000000000000000000000000000000084800082110000010000018108040000000000000004080004003400001000404021080000010000108C1F990
:5C48F40000000000000000000000000000000000000000000000000000000000000000000000000000000000000000000000008003102002400048200FE0811C8004500102C102020049E00000800FD00102C40108000FA0023C8003900040FC4F
:5C49500000000000000000000000000000000000000000000000000000000000000000000000000000000000000000000000000003480400200130100E800200000020088080110000084000004003200109800124101640021000036080F0FDF0
:5C49AC00000000000000000000000000000000000000000000000000000000000000000000000000000000000000000000000000040C000C22210000008000000000E0001000030000080081004003E000090102250000C000000480000010FCB0
:5C4A08000200000000000000000000000000000000000000000000000000000000000000000000000000000000000000000000000340000808000000060040000000600200808100000041200000006040008001000406C080101003000050FC19
:5C4A64000000000000000000000000000000000000000000000000000000000000000000000000000000000000000000000000000360800C8001010006C0000000006000008201000000C00000000060001C8201700006C000180003000061F07B
:5C4AC00000000000000000000000000000000000000000000000000000000000000000000000000000000000000000000000000000800020000100102400001800006020080009000024800200004040000002008000020010100812400081F483
:5C4B1C000000000000000000000000000000000000000000000000000000000000000000000000000000000000000000000000C08418000B60044C800D3021261000F8002F600200800FB00100C00458021360102C8019300036C006D802C1F824
:5C4B7800000000000000000000000000000000000000000000000000000000000000000000000000000000000000000000000000830001282041B08040000018080040000C2401000006100000000008000C8001A0000004002240200804E1F520
:5C4BD40002000000000000000000000000000000000000000000000000000000000000000000000000000000000000000000008000F0001A400238000160091C000050100E404200004F202000808010109240126800092081248000100020FE92
:5C4C3000000000000000000000000000000000000000000000000000000000000000000000000000000000000000000000000000404004042001A08004C00008000060400C201100000E90000000034880000100100000C040124002480420FE7E
:5C4C8C000000000000000000000000000000000000000000000000000000000000000000000000000000000000000000000000000780002C208070800C848128080060001C300000000E900200001448001C800BB000100000124806CC00F0FE1F
:5C4CE8000000000000000000000000000000000000000000000000000000000000000000000000000000000000000000000000000340200C0203200000C14008000040100C0001000006010000000000040C80013040800000000004000000F5F5
:5C4D44000000000000000000000000000000000000000000000000000000000000000000000000000000000000000000000000000360000C8001B0000EC00028010080008C8003010006C01100000060000C80017000080000180207E00810FE99
:5C4DA00002000000000000000000000000000000000000000000000000000000000000000000000000000000000000000000000000000000000000080400801800000000080040000004884000004000080080010004040000300000000011FBF0
:5C4DFC000200000000000000000000000000000000000000000000000000000000000000000000000000000000000000000000C0041A011364050C802DF0013E100098203FE003008009B00100C000980053E0050C8025304116C0081810C1F287
:5C4E5800020000000000000000000000000000000000000000000000000000000000000000000000000000000000000000000000110000000001008040008000100040001C0000008024C000000002422000810100804080002200006001F1FA46
:5C4EB40002000000000000000000000000000000000000000000000000000000000000000000000000000000000000000000008005F001024207482001E00004000090101EC007000001E081008004900012C001482001202124800F1000A1F4C2
:5C4F10000000000000000000000000000000000000000000000000000000000000000000000000000000000000000000000000000060400C8800319004800000000000000C0001008004004000000000000C100030A0040000122007000880FD4D
:5C4F6C00000000000000000000000000000000000000000000000000000000000000000000000000000000000000000000000000040400008003008004840200000060100C01050080008400000083E04000000000800CC481320000E00020F038
:5C4FC800000000000000000000000000000000000000000000000000000000000000000000000000000000000000000000000000836000008041000000010000000040408C0004000004C20000000240200000000000008240000003600030F665
:5C50240000000000000000000000000000000000000000000000000000000000000000000000000000000000000000000000000004600000800100000EC00300000060001C8003000006C005000017600000000000000EC000180203600020F3DB
:5C508000020000000000000000000000000000000000000000000000000000000000000000000000000000000000000000000000024000000000000000800018000040024C0020000002000200000B00204000010000008400100012400280FE74
:5C50DC000000000000000000000000000000000000000000000000000000000000000000000000000000000000000000000000C01258011361420C880132053E1000D800076000008089B00100C00798001F60094C8401B00416E0021800C1F354
:5C513800000000000000000000000000000000000000000000000000000000000000000000000000000000000000000000000040040808000000000006901018080008040C80010000008000000003000000280240000E10002240204810A1FFE3
:5C5194000000000000000000000000000000000000000000000000000000000000000000000000000000000000000000000000800490000E4140782001210004000010001E4800020009A20300800390400E40023800092020248000900081F768
:5C51F000000000000000000000000000000000000000000000000000000000000000000000000000000000000000000000000040024800088001220080900808000048010C00000000084004000000602028200120000090001341024800F1F174
:5C524C0002000000000000000000000000000000000000000000000000000000000000000000000000000000000000000000004002CC40000200E0000E100028080048000C8241000000C000000000000018200142200691003240020C2050F895
:5C52A800000000000000000000000000000000000000000000000000000000000000000000000000000000000000000000000000000000080800001006800808040000800C8001000000C00000000000000000402020060000000004404090FF8A
:5C53040000000000000000000000000000000000000000000000000000000000000000000000000000000000000000000000000003E2040C0000300006C00108000060001C8201000010C00900000000003C8001300006C0081802076000D0F87D
:5C53600000000000000000000000000000000000000000000000000000000000000000000000000000000000000000000000000002004008000000200408000800004000080801000000082000000300080080012001048004100100800020F71D
:5C53BC000200000000000000000000000000000000000000000000000000000000000000000000000000000000000000000000C08098005B60424C8009304026100058021F6005008001300100C00F180003E2076C802DB00116C084180020FF85
:5C541800000000000000000000000000000000000000000000000000000000000000000000000000000000000000000000000040026000010480008004C02018100088000C2002000006000100000340080C800104824010002200030140B1F211
:5C54740000000000000000000000000000000000000000000000000000000000000000000000000000000000000000000000008014100202C00358082120011C000090000E4402000041E000008003900082C0010800012020248000F000F1F298
:5C54D00000000000000000000000000000000000000000000000000000000000000000000000000000000000000000000000004006000089000130800C000018000048010C30210000008000000000000000010024900490001220004008A1F45E
:5C552C0000000000000000000000000000000000000000000000000000000000000000000000000000000000000000000000004004601019004060A008C02038010048000C20030000060181000000E0401C000024800C94401200838000D1F25E
:5C558800020000000000000000000000000000000000000000000000000000000000000000000000000000000000000000000000026000001001321004C20018040000000C0100000006804000000040200C00000040000000000003408070F785
:5C55E4000000000000000000000000000000000000000000000000000000000000000000000000000000000000000000000000000761000C8001300006C00018000060400C8083000006C00000000060000C0000300006C8081802036000F2FE14
:5C5640000800000000000000000000000000000000000000000000000000000000000000000000000000000000000000000000000120000480001000024000000000200000800000000240000000012000048000100002400008000120005EF6B9
:5C569C0000000000000000000000000000000000000000000000000000000000000000000000000000000000000000000000000000000000000000000000000000000000000000000000000000000000000000000000000000000000000010FFA3
:5C56F80080001000024000080001200004800010000240000800012000048000100002400008000120000480001000000000000000000000000000000000000800010000040000100000000008000000000000000000000000000000000080F232
:5C575400800010000240000800012000048000100002400008000120000480001000024000080001200004800010000000000000012000048000100002400008000120000480001000024000080001200004800010000240000800012000A0FDB1
:5C57B0000000000000000000000000000000000000000000000000000000000000000000000000000000000000000000000000400480301800830088210000A24281810007860000002800040A00D00100580000081E0100018000048060A0F770
:5C580C0000000000000000000000001000020000080000000000000000000000000000010000000000000000000000000000000000000000000000000020010000000020080000000000010000000000000800400000000000000480000010F906
:5C586800000000000000000000000000000000000000000000000000000000000000000000000000000000000000000000000000000300020008800800100000800000002000000000000200404020020000000000000000041400000001E0F30F
:5C58C40000000000000000000000001100020400080000000000000000000000000000018040000002002000000000000000000000000200000000100000040000000000008000080000000000000000000840400000004000080040000850F090
:5C59200000000000000000000000000100000400000000000000000000000000000000008040000002002000000000000000004004832212008A8090213005A2C00081202B0400080028030442403003005040000812010005840484806110F19D
:5C597C0000000000000000000000000000000000000000000000000000000000000000000000000000000000000000000000000000000000000000000000000000000020000020000000000000000000000000000000000000000000000010FF80
:5C59D80000000000000000000000000000000000000000000000000000000000000000000000000000000000000000000000000000000000000000000000000000000000000000000000000000000000000000000000000000000100000000FF73
:5C5A340000000000000000000000000000000000000000000000000000000000000000000000000000000000000000000000000000000008000000000000000000004800000000008000000000000000000000000400006000000000000050FD95
:5C5A900000000000000000000000000000000000000000000000000000000000000000000000000000000000000000000000000000000000000000000000000000000000000000000000000000000220000000000000000000000000000010FF89
:5C5AEC0000000000000000000000000000000000000000000000000000000000000000000000000000000000000000000000000000000000008008000000000000000008000000000089000000000000000A400000000000100000000000F0FEFD
:5C5B480000000000000000000000000000000000000000000000000000000000000000000000000000000000000000000000000080000000000000081000010000000000000002000080020000000040000000000000000200000000000050F75B
:5C5BA40000000000000000000000000000000000000000000000000000000000000000000000000000000000000000000000000000204000200000000000000000000000040000000002000000000000000080000000000000100000010820FD69
:5C5C000000000000000000000000000000000000000000000000000000000000000000000000000000000000000000000000000000000000000000000020400000000040000000000000004000000000000004000000001000000000000070FAEA
:5C5C5C0000000000000000000000000000000000000000000000000000000000000000000000000000000000000000000000000000000000000000400000000000000000000000000000000100000000000000000000001000000000000040FA61
:5C5CB80000000000000000000000000000000000000000000000000000000000000000000000000000000000000000000000000000000000000000000000000000000000000000000000000000000000000000000000000000000000000010FF81
:5C5D140000000000000000000000000000000000000000000000000000000000000000000000000000000000000000000000000000001010000000010002000000000000080000000000000000000080006000004000000180000000000030F740
:5C5D700000000000000000000000000000000000000000000000000000000000000000000000000000000000000000000000000000000000000000000400020000000000211001000010000000008000400000000082880180200008001020FBF1
:5C5DCC0000000000000000000000000000000000000000000000000000000000000000000000000000000000000000000000000000100001000000000000000000000000000000000000000000000000000000000000000400000000000050FF17
:5C5E280000000000000000000000000000000000000000000000000000000000000000000000000000000000000000000000000000000000000000000000000000000000000000000000000000000000000000000000000000000000000010FF0F
:5C5E840000000000000000000000000000000000000000000000000000000000000000000000000000000000000000000000000000000000000000000000000000000000000000000000000000000000000000000000000000000000000010FFB3
:5C5EE00000000000000000000000000000000000000000000000000000000000000000000000000000000000000000000000000000000000000000000000000000000000000000000000000000000000000000000020000000000000000030FF17
:5C5F3C0000000000000000000000000000000000000000000000000000000000000000000000000000000000000000000000000000000000000000806001020000000004801010020000000000000000000000000000100040004008800220F84E
:5C5F9800000000000000000000000000000000000000000000000000000000000000000000000000000000000000000000000000080000000001000000000000000880000804000000000000000000000000000000040080000004000000C0F3D5
:5C5FF40000000000000000000000000000000000000000000000000000000000000000000000000000000000000000000000000000000000000000000000000000000000000040000000000000000000000000000000000000000000000050FFC2
:5C60500000000000000000000000000000000000000000000000000000000000000000000000000000000000000000000000000000000000000000000000000000000000000000000000000000000000000000000000000010004000000000FBA9
:5C60AC0000000000000000000000000000000000000000000000000000000000000000000000000000000000000000000000000000000000000000000000000000000001000000000000000000000000000000000000000000000100000010FE88
:5C61080000000000000000000000000000000000000000000000000000000000000000000000000000000000000000000000000000000000002000000000000000000000000000000000000000000000000000000000000000000000000010FD0E
:5C61640000000000000000000000000000000000000000000000000000000000000000000000000000000000000000000000000008000000000180000004000000000000220000000000000000000000000000000000000000000000081060FABE
:5C61C0000000000000000000000000000000000000000000000000000000000000000000000000000000000000000000000000000000200A00400000200000000010000000080000800000060000048000000000A000000000082000100090F976
:5C621C0000000000000000000000000000000000000000000000000000000000000000000000000000000000000000000000000000000000000000008000000000000000000000010000000000000000000000000000000000000000000010F69F
:5C62780000000000000000000000000000000000000000000000000000000000000000000000000000000000000000000000000000000000000000000000000000000000000000000000000000000000080000000000000000000000000010F7BB
:5C62D40000000000000000000000000000000000000000000000000000000000000000000000000000000000000000000000000000000000000000000000000000000000000000000000000000000000000000000000000000000000000010FF5F
:5C63300000000000000000000000000000000000000000000000000000000000000000000000000000000000000000000000000000000000000000000000000000000000000000000000000000000000000000000000000000000000000010FF02
:5C638C0000000000000000000000000000000000000000000000000000000000000000000000000000000000000000000000000000000000000000000000000000000000000000000000000000000000000000000000000000000000000010FFA6
:5C63E80000000000000000000000000000000000000000000000000000000000000000000000000000000000000000000000000000000000000000000000000000000000000000000000000000000000000000000000000000000000000010FF4A
:5C64440000000000000000000000000000000000000000000000000000000000000000000000000000000000000000000000000000000000000000000000000000000000000000000000000000000000000000000000000000000000000010FFED
:5C64A00000000000000000000000000000000000000000000000000000000000000000000000000000000000000000000000000000000000000000000000000000000000000000000000000000000000000000000000000000000000000010FF91
:5C64FC0000000000000000000000000000000000000000000000000000000000000000000000000000000000000000000000000000000000000000000000000000000000000000000000000000000000000000000000000000000000000010FF35
:5C65580000000000000000000000000000000000000000000000000000000000000000000000000000000000000000000000000000000000000000000000000000000000000000000000000000000000000000000000000000000000000010FFD8
:5C65B40000000000000000000000000000000000000000000000000000000000000000000000000000000000000000000000000000000000000000000000000000000000000000000000000000000000000000000000000000000000000010FF7C
:5C66100000000000000000000000000000000000000000000000000000000000000000000000000000000000000000000000000000000000000000000000000000000000000000000000000000000000000000000000000000000000000010FF1F
:5C666C0000000000000000000000000000000000000000000000000000000000000000000000000000000000000000000000000000000000000000000000000000000000000000000000000000000000000000000000000000000000000010FFC3
:5C66C80000000000000000000000000000000000000000000000000000000000000000000000000000000000000000000000000000000000000000000000000000000000000000000000000000000000000000000000000000000000000010FF67
:5C67240000000000000000000000000000000000000000000000000000000000000000000000000000000000000000000000000000000000000000000000000000000000000000000000000000000000000000000000000000000000000010FF0A
:5C67800000000000000000000000000000000000000000000000000000000000000000000000000000000000000000000000000000000000000000000000000000000000000000000000000000000000000000000000000000000000000010FFAE
:5C67DC0000000000000000000000000000000000000000000000000000000000000000000000000000000000000000000000000000000000000000000000000000000000000000000000000000000000000000000000000000000000000010FF52
:5C68380000000000000000000000000000000000000000000000000000000000000000000000000000000000000000000000000000000000000000000000000000000000000000000000000000000000000000000000000000000000000010FFF5
:5C68940000000000000000000000000000000000000000000000000000000000000000000000000000000000000000000000000000000000000000000000000000000000000000000000000000000000000000000000000000000000000010FF99
:5C68F00000000000000000000000000000000000000000000000000000000000000000000000000000000000000000000000000000000000000000000000000000000000000000000000000000000000000000000000000000000000000010FF3D
:5C694C0000000000000000000000000000000000000000000000000000000000000000000000000000000000000000000000000000000000000000000000000000000000000000000000000000000000000000000000000000000000000010FFE0
:5C69A80000000000000000000000000000000000000000000000000000000000000000000000000000000000000000000000000000000000000000000000000000000000000000000000000000000000000000000000000000000000000010FF84
:5C6A040000000000000000000000000000000000000000000000000000000000000000000000000000000000000000000000000000000000000000000000000000000000000000000000000000000000000000000000000000000000000010FF27
:5C6A600000000000000000000000000000000000000000000000000000000000000000000000000000000000000000000000000000000000000000000000000000000000000000000000000000000000000000000000000000000000000010FFCB
:5C6ABC0000000000000000000000000000000000000000000000000000000000000000000000000000000000000000000000000000000000000000000000000000000000000000000000000000000000000000000000000000000000000010FF6F
:5C6B180000000000000000000000000000000000000000000000000000000000000000000000000000000000000000000000000000000000000000000000000000000000000000000000000000000000000000000000000000000000000010FF12
:5C6B740000000000000000000000000000000000000000000000000000000000000000000000000000000000000000000000000000000000000000000000000000000000000000000000000000000000000000000000000000000000000010FFB6
:5C6BD00000000000000000000000000000000000000000000000000000000000000000000000000000000000000000000000000000000000000000000000000000000000000000000000000000000000000000000000000000000000000010FF5A
:5C6C2C0000000000000000000000000000000000000000000000000000000000000000000000000000000000000000000000000000000000000000000000000000000000000000000000000000000000000000000000000000000000000010FFFD
:5C6C880000000000000000000000000000000000000000000000000000000000000000000000000000000000000000000000000000000000000000000000000000000000000000000000000000000000000000000000000000000000000010FFA1
:5C6CE40000000000000000000000000000000000000000000000000000000000000000000000000000000000000000000000000000000000000000000000000000000000000000000000000000000000000000000000000000000000000010FF45
:5C6D400000000000000000000000000000000000000000000000000000000000000000000000000000000000000000000000000000000000000000000000000000000000000000000000000000000000000000000000000000000000000010FFE8
:5C6D9C0000000000000000000000000000000000000000000000000000000000000000000000000000000000000000000000000000000000000000000000000000000000000000000000000000000000000000000000000000000000000010FF8C
:5C6DF80002000000000000000000000000000000000000000000000000000000000000000000000000000000000000000000000000000000000000000000000000000000000000000000000000000000000000000000000000000000000021FC20
:5C6E540000000000000000000000000000000000000000000000000000000000000000000000000000000000000000000000000000000000000000000000000000000000000000000000000000000000000000000000000000000000000010FFD3
:5C6EB000800010000240000800012000048000100002400008000120000480001000024000080001200004800010000000000000012000048000100002400008000120000480001000024000080001200004800010000240000800012000A0FD3E
:5C6F0C00800010000240000800012000048000100002400008000120000480001000024000080001200004800010000000000000012000048000100002400008000120000480001000024000080001200004800010000240000800012000A0FDE1
:5C6F680000000000000000000000000000000000000000000000000000000000000000000000000000000000000000000000000000000000000000000000000000000000000000000000000000000000000000000000000000000000000010FFBE
:5C6FC40002000000000000000000000000000000000000000000000000000000000000000000000000000000000000000000000000000000000000000000000000000000000000000000000000000000000000000000000000000000000021FC52
:5C70200000000000000000000000000000000000000000000000000000000000000000000000000000000000000000000000000000000000000000000000000000000000000000000000000000000000000000000000000000000000000010FF05
:5C707C0002000000000000000000000000000000000000000000000000000000000000000000000000000000000000000000000000000000000000000000000000000000000000000000000000000000000000000000000000000000000021FC99
:5C70D80000000000000000000000000000000000000000000000000000000000000000000000000000000000000000000000000000000000000000000000000000000000000000000000000000000000000000000000000000000000000010FF4D
:5C71340000000000000000000000000000000000000000000000000000000000000000000000000000000000000000000000000000000000000000000000000000000000000000000000000000000000000000000000000000000000000010FFF0
:5C71900000000000000000000000000000000000000000000000000000000000000000000000000000000000000000000000000000000000000000000000000000000000000000000000000000000000000000000000000000000000000010FF94
:5C71EC0000000000000000000000000000000000000000000000000000000000000000000000000000000000000000000000000000000000000000000000000000000000000000000000000000000000000000000000000000000000000010FF38
:5C72480002000000000000000000000000000000000000000000000000000000000000000000000000000000000000000000000000000000000000000000000000000000000000000000000000000000000000000000000000000000000021FCCB
:5C72A40000000000000000000000000000000000000000000000000000000000000000000000000000000000000000000000000000000000000000000000000000000000000000000000000000000000000000000000000000000000000010FF7F
:5C73000000000000000000000000000000000000000000000000000000000000000000000000000000000000000000000000000000000000000000000000000000000000000000000000000000000000000000000000000000000000000010FF22
:5C735C0000000000000000000000000000000000000000000000000000000000000000000000000000000000000000000000000000000000000000000000000000000000000000000000000000000000000000000000000000000000000010FFC6
:5C73B80002000000000000000000000000000000000000000000000000000000000000000000000000000000000000000000000000000000000000000000000000000000000000000000000000000000000000000000000000000000000021FC5A
:5C74140000000000000000000000000000000000000000000000000000000000000000000000000000000000000000000000000000000000000000000000000000000000000000000000000000000000000000000000000000000000000010FF0D
:5C74700000000000000000000000000000000000000000000000000000000000000000000000000000000000000000000000000000000000000000000000000000000000000000000000000000000000000000000000000000000000000010FFB1
:5C74CC0000000000000000000000000000000000000000000000000000000000000000000000000000000000000000000000000000000000000000000000000000000000000000000000000000000000000000000000000000000000000010FF55
