:020000040000FA
:2B000000FFFF62FF2500FFFFFFFFFFFFFFFFFFFFFFFFFFFFFFFFFFFFFFFFFFFFFFFFFFFFFFFFFFFFFFFFFFFFFFFFFF76
:2B002B006018866118DC611896C11D06771806D71D8601000000001886C11D866118866570876118866118866180FA1E
:2B00560040100441100A41100EA11084421084A2100401000000001004A110044110844328044110044110044180B87F
:2B008100000000000000000000000000000000000000000000000000000000000000000000000000000000000080E7ED
:2B00AC00000000000000000000000000000000000000000000000000000000000000000000000000000000000080E7C2
:2B00D700000000000000000008000000000000000000000000000000000000000000000200000000000000000000CD27
:2B010200000000000000000006000000000000000000000000000000000000000000000200000000000000000080A5A5
:2B012D00000000000000000000000000000000000000000000000000000000000000000000000000000000000080E740
:2B015800000000000000000000000000000000000000000000000000000000000000000000000000000000000080E715
:2B018300000000000000000200000000000000000000000000000000000000000000000000000000000000000080C50A
:2B01AE00000000000000000400000000000000000000000000000000000000000000000000000000000000000080A3FF
:2B01D900080000000000000000000000000000000000000000000000000000000000000000000000000000000080EF84
:2B020400000000000000000000000000000000000000000000000000000000000000000000000000000000000080E768
:2B022F00020000000000000000000000000000000000000000000000000000000000000000000000000000000080E53D
:2B025A00000000000000000000000000000000000000000000000000000000000000000000000000000000000080E712
:2B028500000000000000000000000000000000000000000000000000000000000000000000000000000000000080E7E7
:2B02B000080000000000000000000000000000000000000000000000000000000000000000000000000000000080EFAC
:2B02DB00000000000000000000000000000000000000000000000000000000000000000000000000000000000080E791
:2B030600000000000000000000000000000000000000000000000000000000000000000000000000000000000080E765
:2B033100000000000000000000000000000000000000000000000000000000000000000000000000000000000080E73A
:2B035C00000000000000000000000000000000000000000000000000000000000000000000000000000000000080E70F
:2B038700000000000002200080000000000080000000000000000000000000000000000000000000000000000080E7C2
:2B03B200020000000002000008000000000000000000000000000000000000000000000000000000000000000088C5C7
:2B03DD00000000000000000000000000000000000000000000000000000000000000000000000000000000000080E78E
:2B040800000000000000000000000000000080000000000000000000000000000000000000000000000000000000E762
:2B043300000000000000200088020000000000000000000000000000000000000000000000000000000000000080CDA7
:2B045E00000000000000000000000000000000000000000000000000000000000000000000000000000000000080E70C
:2B048900020000000000000000000000000000000000000000000000000000000000000000000000000000000008ED51
:2B04B400800008800008800008800008800008800008000000000020000220000220000220000220000220000280E7BA
:2B04DF00800008800008800008800008800008800008000000000020000220000220000220000220000220000280E78F
:2B050A00000000000000000000000000000000000000000000000000000000000000000000000000000000000080E75F
:2B053500020000000000E00B00000000000000000000000000000000000000000000000000000000000000000080BE70
:2B056000020000000000800300000000000000000000000000000000000000000000000000000000000000000088D68D
:2B058B00040000000000400000000000000000000000000000000000000000000000000000000000000000000008AB4E
:2B05B600020000000000800300000000000000000000000000000000000000000000000000000000000000000088D637
:2B05E100020000000000000200000000000000000000000000000000000000000000000000000000000000000008CF14
:2B060C00020000000000000000000000000000000000000000000000000000000000000000000000000000000080E55C
:2B063700000000000000800100000000000000000000000000000000000000000000000000000000000000000000FE19
:2B066200000000000000000400000000000000000000000000000000000000000000000000000000000000000080A346
:2B068D0000000000000060000000000000000000000000000000000000000000000000000000000000000000008087DB
:2B06B800020000000000004000000000000000000000000000000000000000000000000000000000000000000008E9E4
:2B06E300000000000000C003000000000000000000000000000000000000000000000000000000000000000000009C8D
:2B070E00000000000000000000000000000000000000000000000000000000000000000000000000000000000080E759
:2B073900000000000000800301000000000000000000000000000000000000000000000000000000000000000000CC45
:2B076400000000000000800100000000000000000000000000000000000000000000000000000000000000000000FEEB
:2B078F00020000000000800100000000000000000000000000000000000000000000000000000000000000000088F440
:2B07BA00000000000000000000000000000000000000000000000000000000000000000000000000000000000080E7AD
:2B07E500000000000000E08300000000000000000000000000000000000000000000000000000000000000000000B4D2
:2B081000000000000000802100000000000000000000000000000000000000000000000000000000000000000000FC20
:2B083B000200000000004002000000000000000000000000000000000000000000000000000000000000000000808747
:2B086600020000000000800100000000000000000000000000000000000000000000000000000000000000000088F468
:2B089100040000000000002000000000000000000000000000000000000000000000000000000000000000000008E927
:2B08BC00020000000000000000000000000000000000000000000000000000000000000000000000000000000008ED1A
:2B08E700020000000000800100000000000000000000000000000000000000000000000000000000000000000088F4E7
:2B091200020000000000000000000000000000000000000000000000000000000000000000000000000000000080E553
:2B093D00000000000000E00500000000000000000000000000000000000000000000000000000000000000000000DAD0
:2B096800000000000000800101000000000000000000000000000000000000000000000000000000000000000000EEF4
:2B099300000000000000400000000000000000000000000000000000000000000000000000000000000000000080A7D2
:2B09BE00000000000000800101000000000000000000000000000000000000000000000000000000000000000088E61E
:2B09E900020000000000000200000000000000000000000000000000000000000000000000000000000000000080C798
:2B0A1400020000000000000000000000000000000000000000000000000000000000000000000000000000000080E550
:2B0A3F00020000000000800100000000000000000000000000000000000000000000000000000000000000000000FC0D
:2B0A6A00020000000000000000000000000000000000000000000000000000000000000000000000000000000080E5FA
:2B0A9500000000000000600400000000000000000000000000000000000000000000000000000000000000000008CBFF
:2B0AC000000000000000000001000000000000000000000000000000000000000000000000000000000000000080F793
:2B0AEB00000000000000C00100000000000000000000000000000000000000000000000000000000000000000000BE61
:2B0B1600000000000000000001000000000000000000000000000000000000000000000000000000000000000080F73C
:2B0B4100020000000000800300000000000000000000000000000000000000000000000000000000000000000000DE26
:2B0B6C00020000000000800100000000000000000000000000000000000000000000000000000000000000000088F45F
:2B0B9700040000000000800100000000000000000000000000000000000000000000000000000000000000000088F234
:2B0BC200020000000000000000000000000000000000000000000000000000000000000000000000000000000008ED11
:2B0BED00020000000000608200000000000000000000000000000000000000000000000000000000000000000008A74A
:2B0C1800020000000000002000000000000000000000000000000000000000000000000000000000000000000080E728
:2B0C4300000000000000C003000000000000000000000000000000000000000000000000000000000000000000009C27
:2B0C6E00000000000000000000000000000000000000000000000000000000000000000000000000000000000080E7F4
:2B0C9900000000000000802100000000000000000000000000000000000000000000000000000000000000000000FC93
:2B0CC400020000000000800100000000000000000000000000000000000000000000000000000000000000000088F406
:2B0CEF00000000000000800100000000000000000000000000000000000000000000000000000000000000000000FE5B
:2B0D1A00000000000000000400000000000000000000000000000000000000000000000000000000000000000080A387
:2B0D4500000000000000E001000000000000000000000000000000000000000000000000000000000000000000009E04
:2B0D7000000000000000804100000000000000000000000000000000000000000000000000000000000000000000FA9D
:2B0D9B000200000000004002000000000000000000000000000000000000000000000000000000000000000000088F52
:2B0DC600000000000000800100000000000000000000000000000000000000000000000000000000000000000000FE83
:2B0DF100000000000000000201000000000000000000000000000000000000000000000000000000000000000080D57F
:2B0E1C00000000000000000000000000000000000000000000000000000000000000000000000000000000000080E744
:2B0E4700000000000000800100000000000000000000000000000000000000000000000000000000000000000000FE01
:2B0E7200020000000000000000000000000000000000000000000000000000000000000000000000000000000008ED5E
:2B0E9D00020000000000600A00000000000000000000000000000000000000000000000000000000000000000088AF87
:2B0EC800020000000000000200000000000000000000000000000000000000000000000000000000000000000008CF24
:2B0EF300020000000000C00100000000000000000000000000000000000000000000000000000000000000000088B4D5
:2B0F1E00000000000000000200000000000000000000000000000000000000000000000000000000000000000080C561
:2B0F4900000000000000800300000000000000000000000000000000000000000000000000000000000000000000DC1E
:2B0F7400000000000000800100000000000000000000000000000000000000000000000000000000000000000000FED3
:2B0F9F000000000000008001000000000000000000000000000000000000000000000000000000000000000000A8D42A
:2B0FCA00120000000000000000000000000000000000000000000000000000000000000000000000000000000028DFE3
:2B0FF500000000000000000000000000000000000000000000000000000000000000000000000000000000000080E76A
:2B102000800008800008800008800008800008800008000000000020000220000220000220000220000220000280E742
:2B104B00800008800008800008800008800008800008000000000020000220000220000220000220000220000280E717
:2B107600000000000000000000030000000000000000000000000000000000000000000000000000000000000080E4E8
:2B10A100000000000000000000000000000000000000000000000000000000000000000000000000000000000080E7BD
:2B10CC00200000000000000000000000000000000000000000000000000000000000000000000000000000000080C792
:2B10F700000000000000000000000000000000000000000000000000000000000000000000000000000000000080E767
:2B112200200000000000800000010000000000000000000000000000000000000000000000000000000000000000CE33
:2B114D00000000000000000000000000000000000000000000000000000000000000000000000000000000000080E710
:2B117800000000000000000001000000000000000000000000000000000000000000000000000000000000000080F7D4
:2B11A300000000000000008000000000000000000000000000000000000000000000000000000000000000000080EF32
:2B11CE00000000000000408000000000000000000000000000000000000000000000000000000000000000000080AF07
:2B11F900000000000000004000000000000000000000000000000000000000000000000000000000000000000080E328
:2B122400000000000000000000000000000000000000000000000000000000000000000000000000000000000080E738
:2B124F00000000000000000000000000000000000000000000000000000000000000000000000000000000000080E70D
:2B127A00000000000000000000000000000000000000000000000000000000000000000000000000000000000080E7E2
:2B12A500000000000000400000000000000000000000000000000000000000000000000000000000000000000080A7B7
:2B12D000000000000000000000000000000000000000000000000000000000000000000000000000000000000080E78C
:2B12FB00080000000000000000000000000000000000000000000000000000000000000000000000000000000080EF51
:2B132600000000000000000000000000000000000000000000000000000000000000000000000000000000000080E735
:2B135100000000000000000000000000000000000000000000000000000000000000000000000000000000000080E70A
:2B137C00000000000000000800000000000000000000000000000000000000000000000000000000000000000000E757
:2B13A700020000000000000000000000000000000000000000000000000000000000000000000000000000000080E5B4
:2B13D200000000000000000000000000000000000000000000000000000000000000000000000000000000000080E789
:2B13FD00000000000000000000000000000000000000000000000000000000000000000000000000000000000080E75E
:2B142800000000000000000000000000000000000000000000000000000000000000000000000000000000000080E732
:2B145300000000000000000000000000000000000000000000000000000000000000000000000000000000000080E707
:2B147E00000000000000000000000000000000000000000000000000000000000000000000000000000000000080E7DC
:2B14A900080000000000000000000000000000000000000000000000000000000000000000000000000000000090FE82
:2B14D400000000000000000000000000000000000000000000000000000000000000000000000000000000000080E786
:2B14FF00002000000000000000000000000000000000000000000000000000000000000400000000000000000080A17D
:2B152A00088100000000000000000000000000000000000000000000000000000000000400000000000000000090A3D6
:2B155500000000000000000000000000000000000000000000000000000000000000000000000000000000000080E704
:2B158000000000000000000000000000000000000000000000000000000000000000000000000000000000000080E7D9
:2B15AB00000000000000000000000000000000000000000000000000000000000000000000000000000000000080E7AE
:2B15D600000000000000000000000000000000000000000000000000000000000000000000000000000000000080E783
:2B160100001002000000000000200080000000200000000000000000002000000000010008000000000000000080CD76
:2B162C00020000000000000000200000000000200000000000000000000000000000000008000000000000000000ED5C
:2B165700000010000000000000000000000000000000000000000000000000000000000000000000000000000008FE52
:2B168200000000000000000000000080000000000000000000000000002000000000000000000000000000000088ED28
:2B16AD0000101A000000000000000000000000000000000000000000000000000040010000000000000000000088928D
:2B16D800000000000000000000000000000000000000000000000000000000000000000000000000000000000008EFF0
:2B170300020000000000000000000000000000000000000000000000000000000000000000000000000000000080E554
:2B172E00800008800008800008800008800008800008000000000020000220000220000220000220000220000280E72D
:2B175900800008800008800008800008800008800008000000000020000220000220000220000220000220000280E702
:2B178400000800000000000000000000000000000000000000000000000000000000000000000000000000000000E74B
:2B17AF00E201000000000000000000000000000000000000000000000000000000008029000000000000000000888F6C
:2B17DA00824100000000000000000000000000000000000000000000000000000000000002000000000000000000D847
:2B180500440200000000000000000000000000000000000000000000000000000000000700000000000000000080F6F5
:2B183000821100000000000000000000000000000000000000000000000000000000000000000000000000000000FDFD
:2B185B00020000000000000000000000000000000000000000000000000000000000004E00000000000000000000878B
:2B1886000200000000000000000000000000000000000000000000000000000000000006000000000000000000088B9C
:2B18B10080010000000000000000000000000000000000000000000000000000000000060000000000000000000098ED
:2B18DC00000400000000000000000000000000000000000000000000000000000000000000000000000000000080A3BA
:2B190700E00100000000000000000000000000000000000000000000000000000000802100000000000000000080852E
:2B193200828100000000000000000000000000000000000000000000000000000000000000000000000000000088FC03
:2B195D00400200000000000000000000000000000000000000000000000000000000000F04000000000000000088BAC8
:2B198800800100000000000000000000000000000000000000000000000000000000000800000000000000000090EF2C
:2B19B300008000000000000000000000000000000000000000000000000000000000000E000000000000000000888172
:2B19DE000000000000000000000000000000000000000000000000000000000000000006000000000000000000088947
:2B1A0900820100000000000000000000000000000000000000000000000000000000000600000000000000000088920F
:2B1A3400000400000000000000000000000000000000000000000000000000000000002000000000000000000080A142
:2B1A5F00600000000000000000000000000000000000000000000000000000000000800F00000000000000000080F8F5
:2B1A8A000080000000000000000000000000000000000000000000000000000000000046000000000000000000808D5E
:2B1AB500C203000000000000000000000000000000000000000000000000000000000001000000000000000000888731
:2B1AE00002000000000000000000000000000000000000000000000000000000000000060000000000000000008083D0
:2B1B0B00848100000000000000000000000000000000000000000000000000000000004000000000000000000000F674
:2B1B3600820100000000000000000000000000000000000000000000000000000000000000000000000000000000FC05
:2B1B61008201000000000000000000000000000000000000000000000000000000000006000000000000000000009A36
:2B1B8C00020200000000000000000000000000000000000000000000000000000000000000000000000000000008CF53
:2B1BB700E00300000000000000000000000000000000000000000000000000000000808900000000000000000000AD6A
:2B1BE200800101000000000000000000000000000000000000000000000000000000000000000000000000000000EE68
:2B1C0D00400200000000000000000000000000000000000000000000000000000000000F02000000000000000000D287
:2B1C3800820300000000000000000000000000000000000000000000000000000000000800000000000000000008D616
:2B1C630000000000000000000000000000000000000000000000000000000000000000060000000000000000000889BF
:2B1C8E000000000000000000000000000000000000000000000000000000000000000006000000000000000000909005
:2B1CB9008001000000000000000000000000000000000000000000000000000000000006000000000000000000889061
:2B1CE400000000000000000000000000000000000000000000000000000000000000002000000000000000000008EDC0
:2B1D0F00620400000000000000000000000000000000000000000000000000000000800900000000000000000008D0E2
:2B1D3A00000000000000000000000000000000000000000000000000000000000000004000000000000000000080E3DB
:2B1D6500C01100000000000000000000000000000000000000000000000000000000000700000000000000000000C8B3
:2B1D9000000000000000000000000000000000000000000000000000000000000000000000000000000000000080E7C1
:2B1DBB008201010000000000000000000000000000000000000000000000000000000046000000000000000000888625
:2B1DE6008201000000000000000000000000000000000000000000000000000000000006000000000000000000009AAF
:2B1E11008401000000000000000000000000000000000000000000000000000000000006000000000000000000009C7F
:2B1E3C00020200000000000000000000000000000000000000000000000000000000000000000000000000000080C730
:2B1E6700620200000000000000000000000000000000000000000000000000000000802F00000000000000000080DAE3
:2B1E9200020001000000000000000000000000000000000000000000000000000000000602000000000000000008BB57
:2B1EBD00C003000000000000000000000000000000000000000000000000000000000001000000000000000000008DA9
:2B1EE800000200000000000000000000000000000000000000000000000000000000000600000000000000000080A3A4
:2B1F1300800100000000000000000000000000000000000000000000000000000000004800000000000000000080FA60
:2B1F3E00820100000000000000000000000000000000000000000000000000000000000000000000000000000088F479
:2B1F690080010000000000000000000000000000000000000000000000000000000000060000000000000000008890AE
:2B1F9400000000000000000000000000000000000000000000000000000000000000000000000000000000000090F69C
:2B1FBF00E00500000000000000000000000000000000000000000000000000000000808F00000000000000000088A5D6
:2B1FEA00800100000000000000000000000000000000000000000000000000000000000600000000000000000088902D
:2B2015004210000000000000000000000000000000000000000000000000000000000009020000000000000000889D1E
:2B204000800100000000000000000000000000000000000000000000000000000000000E0000000000000000008098CE
:2B206B00000001000000000000000000000000000000000000000000000000000000000000000000000000000080F7D2
:2B209600000000000000000000000000000000000000000000000000000000000000000000000000000000000080E7B8
:2B20C10080010000000000000000000000000000000000000000000000000000000000060000000000000000000098D5
:2B20EC00020800000000000000000000000000000000000000000000000000000000000000000000000000000088ED4A
:2B211700620000000000000000000000000000000000000000000000000000000000802700000000000000000088F01C
:2B2142000240000000000000000000000000000000000000000000000000000000000006000000000000000000088F93
:2B216D00C20300000000000000000000000000000000000000000000000000000000000904000000000000000008C7A6
:2B219800001000000000000000000000000000000000000000000000000000000000000E00000000000000000000807E
:2B21C300800100000000000000000000000000000000000000000000000000000000000800000000000000000080FEEA
:2B21EE00800100000000000000000000000000000000000000000000000000000000000000000000000000000000FE47
:2B221900800100000000000000000000000000000000000000000000000000000000000600000000000000000040DCF7
:2B224400020000000000000000000000000000000000000000000000000000000000000000000000000000000008ED78
:2B226F00000000000000000000000000000000000000000000000000000000000000000000000000000000000080E7DD
:2B229A00800008800008800008800008800008800008000000000020000220000220000220000220000220000280E7B6
:2B22C500800008800008800008800008800008800008000000000020000220000220000220000220000220000280E78B
:2B22F0004000800200000000000000000000000000000000000000000000000000C0080002000000000000000080C9EE
:2B231B00000000000000000000000000000000000000000000000000000000000000000000000000000000000080E730
:2B234600000000200000000000000000000000000000000000000008000000000000000000000000800000800000CF75
:2B237100000000000000200000000000000000000080000000000000000000000000080200002000002000020000EF66
:2B239C004000802000002000000000000000000000800000000000080000000000800000020020008020008200808DBD
:2B23C700000000000000000000000000000000000000000000000000000000000000000200000000000000000080C5A4
:2B23F200400000000000000000000000000000000000000000000000000000000000000000000000000000000080A759
:2B241D00000001000000000000000000000000000000000000000000000000000000001000000000000000000080F60D
:2B244800000000000000000000000000000000000000000000000000000000000000000000000000000000000080E702
:2B2473000800000000000000000000000000000000000000000000000000000000000000010000000000000000C0BBBA
:2B249E00004000000000000000000000000000000000000000000000000000000000008000000000000000000080EBE8
:2B24C900000000000000000000000000000000000000000000000000000000000000000000000000000000000080E781
:2B24F400000000000000000000000000000000000000000000000000000000000000000000000000000000000080E756
:2B251F00400000000000000000000000000000000000000000000000000000000000000000000000000000000090B60B
:2B254A000000000000000000000000000000000000000000000000000000000000000000000000000000000000C0A303
:2B257500000100000000000000000000000000000000000000000000000000000000000102000000000000000080C7F0
:2B25A000000000000000000000000000000000000000000000000000000000000000000100000000000000000080F699
:2B25CB00080000000000000000000000000000000000000000000000000000000000000000000000000000000080EF6E
:2B25F600000800000000000000000000000000000000000000000000000000000000000000000000000000000000E7CB
:2B262100020000000000000000000000000000000000000000000000000000000000000000000000000000000080E527
:2B264C00000000000000000000000000000000000000000000000000000000000000000000000000000000000080E7FC
:2B267700000000000000000000000000000000000000000000000000000000000000000000000000000000000080E7D1
:2B26A200000000000000000000000000000000000000000000000000000000000000000000000000000000000080E7A6
:2B26CD00000000000000000000000000000000000000000000000000000000000000000000000000000000000080E77B
:2B26F800000000000000000000000000000000000000000000000000000000000000000000000000000000000080E750
:2B272300000000000000000000000000000000000000000000000000000000000000000000000000000000000080E724
:2B274E00100000000000000000000000000000000000000000000000000000000000000000000000000000000080F7D9
:2B277900000000000000000000000000000000000000000000000000000000000000000000000000000000000080E7CE
:2B27A400100000000000000000000000000000000000000000000000000000000000000000000000000000000080F783
:2B27CF00000000000000000000000000000000000000000000000000000000000000000000000000000000000080E778
:2B27FA00000000000000000000000000000000000000000000000000000000000000000000000000000000000080E74D
:2B282500000400000000000000000000000000000000000000000000000000000000000000000000000000000080A361
:2B285000000300000000000000000000000000000000000000000000000000000000000000000000000000000080D406
:2B287B00000002080000000000000000000000000000000000000000000000000000000000000000000000000080CFD9
:2B28A600020000000000000000000000000000000000000000000000000000000000000000000000000000000008ED10
:2B28D100020000000000000000000000000000000000000000000000000000000000000000000000000000000080E575
:2B28FC00040000000000000000000000000000000000000000000000000000000000000000000000000000000080E34A
:2B29270002000A0C0000000000000000000000000000000000000000000000000000000000000000000000000000C1AC
:2B295200020000000000000000000000000000000000000000000000000000000000000000000000000000000080E5F3
:2B297D00020000000000000000000000000000000000000000000000000000000000000000000000000000000008ED38
:2B29A800800008800008800008800008800008800008000000000020000220000220000220000220000220000280E7A1
:2B29D300800008800008800008800008800008800008000000000020000220000220000220000220000220000280E776
:2B29FE00000000000000000000000000000000000000000000000000000000000000000000000000000000000080E747
:2B2A2900E209000000000000000000000000000000000000000000000000000000000000000000000000000000809C7B
:2B2A5400800100000000000000000000000000000000000000000000000000000000000000000000000000000088F658
:2B2A7F00404000000000000000000000000000000000000000000000000000000000000000000000000000000008ABF9
:2B2AAA00800100000000000000000000000000000000000000000000000000000000000000000000000000000088F602
:2B2AD500002000000000000000000000000000000000000000000000000000000000000000000000000000000008EDC1
:2B2B0000020000000000000000000000000000000000000000000000000000000000000000000000000000000080E543
:2B2B2B00800100000000000000000000000000000000000000000000000000000000000000000000000000000000FE00
:2B2B5600000400000000000000000000000000000000000000000000000000000000000000000000000000000080A32D
:2B2B8100E00300000000000000000000000000000000000000000000000000000000000000000000000000000000BC8A
:2B2BAC00820101000000000000000000000000000000000000000000000000000000000000000000000000000088E40E
:2B2BD700400200000000000000000000000000000000000000000000000000000000000000000000000000000080858C
:2B2C0200802100000000000000000000000000000000000000000000000000000000000000000000000000000000FC0A
:2B2C2D00000000000000000000000000000000000000000000000000000000000000000000000000000000000080E715
:2B2C5800000000000000000000000000000000000000000000000000000000000000000000000000000000000080E7EA
:2B2C8300820100000000000000000000000000000000000000000000000000000000000000000000000000000088F427
:2B2CAE00000000000000000000000000000000000000000000000000000000000000000000000000000000000080E794
:2B2CD900000000000000000000000000000000000000000000000000000000000000000000000000000000000080E769
:2B2D0400000000000000000000000000000000000000000000000000000000000000000000000000000000000080E73D
:2B2D2F00020000000000000000000000000000000000000000000000000000000000000000000000000000000080E512
:2B2D5A00020000000000000000000000000000000000000000000000000000000000000000000000000000000008ED57
:2B2D8500040000000000000000000000000000000000000000000000000000000000000000000000000000000008EB2C
:2B2DB000020000000000000000000000000000000000000000000000000000000000000000000000000000000008ED01
:2B2DDB00020000000000000000000000000000000000000000000000000000000000000000000000000000000008EDD6
:2B2E0600020400000000000000000000000000000000000000000000000000000000000000000000000000000080A17A
:2B2E3100600200000000000000000000000000000000000000000000000000000000000000000000000000000080A5EF
:2B2E5C00000001000000000000000000000000000000000000000000000000000000000000000000000000000080F7D3
:2B2E8700C003000000000000000000000000000000000000000000000000000000000000000000000000000000009CC1
:2B2EB200022000000000000000000000000000000000000000000000000000000000000000000000000000000008EFDC
:2B2EDD00820100000000000000000000000000000000000000000000000000000000000000000000000000000000FC4B
:2B2F0800840100000000000000000000000000000000000000000000000000000000000000000000000000000000FA1F
:2B2F3300820100000000000000000000000000000000000000000000000000000000000000000000000000000000FCF4
:2B2F5E00021000000000000000000000000000000000000000000000000000000000000000000000000000000080E4D2
:2B2F89006200000000000000000000000000000000000000000000000000000000000000000000000000000000088D26
:2B2FB400800100000000000000000000000000000000000000000000000000000000000000000000000000000000FE73
:2B2FDF00C00101000000000000000000000000000000000000000000000000000000000000000000000000000000AE57
:2B300A00800100000000000000000000000000000000000000000000000000000000000000000000000000000000FE1C
:2B303500820100000000000000000000000000000000000000000000000000000000000000000000000000000088F471
:2B306000020000000000000000000000000000000000000000000000000000000000000000000000000000000008ED4E
:2B308B00040000000000000000000000000000000000000000000000000000000000000000000000000000000090F294
:2B30B600020000000000000000000000000000000000000000000000000000000000000000000000000000000008EDF8
:2B30E100622300000000000000000000000000000000000000000000000000000000000000000000000000000008BC7B
:2B310C00820300000000000000000000000000000000000000000000000000000000000000000000000000000088D6B5
:2B313700C00000000000000000000000000000000000000000000000000000000000000000000000000000000000AFFE
:2B316200800100000000000000000000000000000000000000000000000000000000000000000000000000000000FEC3
:2B318D00800001000000000000000000000000000000000000000000000000000000000000000000000000000000FF97
:2B31B800021000000000000000000000000000000000000000000000000000000000000000000000000000000008ECE6
:2B31E300000100000000000000000000000000000000000000000000000000000000000000000000000000000080F64A
:2B320E00000000000000000000000000000000000000000000000000000000000000000000000000000000000080E72E
:2B323900602200000000000000000000000000000000000000000000000000000000000000000000000000000080A7C1
:2B326400000200000000000000000000000000000000000000000000000000000000000000000000000000000080C5F8
:2B328F00420100000000000000000000000000000000000000000000000000000000000000000000000000000008BC0D
:2B32BA00000000000000000000000000000000000000000000000000000000000000000000000000000000000080E782
:2B32E500000101000000000000000000000000000000000000000000000000000000000000000000000000000080E656
:2B331000801100000000000000000000000000000000000000000000000000000000000000000000000000000000FF02
:2B333B00820100000000000000000000000000000000000000000000000000000000000000000000000000000088F468
:2B336600000000000000000000000000000000000000000000000000000000000000000000000000000000000080E7D5
:2B3391006008000000000000000000000000000000000000000000000000000000000000000000000000000000008722
:2B33BC00000000000000000000000000000000000000000000000000000000000000000000000000000000000080E77F
:2B33E700C04100000000000000000000000000000000000000000000000000000000000000000000000000000000BA00
:2B341200020000000000000000000000000000000000000000000000000000000000000000000000000000000008ED98
:2B343D00802100000000000000000000000000000000000000000000000000000000000000000000000000000000FCC7
:2B346800800100000000000000000000000000000000000000000000000000000000000000000000000000000000FEBA
:2B3493008001000000000000000000000000000000000000000000000000000000000000000000000000000000A8D411
:2B34BE00000000000000000000000000000000000000000000000000000000000000000000000000000000000080E77C
:2B34E900000000000000000000000000000000000000000000000000000000000000000000000000000000000080E751
:2B351400800008800008800008800008800008800008000000000020000220000220000220000220000220000280E729
:2B353F00800008800008800008800008800008800008000000000020000220000220000220000220000220000280E7FE
:2B356A00008800000000000000000000000000000000000000000000000000000000000000000000000000000000EFBF
:2B359500000000000000000000000000000000000000000000000000000000000000020000000000000000000080E5A4
:2B35C000000000000000000000000000000000000000000000000000000000000000000000000000000000000080E779
:2B35EB00000000000000000000000000000000000000000000000000000000000000000000000000000000000080E74E
:2B361600808800000000000000000000000000000000000000000000000000000000020000000000000000000080E51A
:2B3641004002010000000000000000000000000000000000000000000000000000000000000000000000000000809506
:2B366C00008000000000000000000000000000000000000000000000000000000000000000000000000000000080EF44
:2B369700001000000000000000000000000000000000000000000000000000000000000000000000000000000080E692
:2B36C200000000000000000000000000000000000000000000000000000000000000000000000000000000000080E776
:2B36ED00000000000000000000000000000000000000000000000000000000000000000000000000000000000080E74B
:2B371800080000000000000000000000000000000000000000000000000000000000000000000000000000000080EF0F
:2B374300000000000000000000000000000000000000000000000000000000000000000000000000000000000080E7F4
:2B376E00000000000000000000000000000000000000000000000000000000000000000000000000000000000080E7C9
:2B3799001000000000000000000000000000000000000000000000000000000000000000000000000000000000A0D580
:2B37C400000000000000000000000000000000000000000000000000000000000000000000000000000000000080E773
:2B37EF00000000000000000000000000000000000000000000000000000000000000000000000000000000000080E748
:2B381A00000000000000000000000000000000000000000000000000000000000000000000000000000000000080E71C
:2B384500000000000000000000000000000000000000000000000000000000000000000000000000000000000080E7F1
:2B387000000000000000000000000000000000000000000000000000000000000000000000000000000000000080E7C6
:2B389B00000000000000000000000000000000000000000000000000000000000000000000000000000000000080E79B
:2B38C600000048000000000000000000000000000000000000000000000000000000000000000000000000000000ABE4
:2B38F100000000000000000000000000000000000000000000000000000000000000000000000000000000000080E745
:2B391C00000000000000000000000000000000000000000000000000000000000000000000000000000000000080E719
:2B39470040100EA1100441100441100441100441108402000000002804411004411004411004A11084A2108A4280917D
:2B397200601896C11D8661188661188661188661180617000000007087611886611886611886C11D06D71D5C7700A8DE
:02399D00FFFF2A
:00000001FF
