:020000040000FA
:2B000000FFFF62FF2900FFFFFFFFFFFFFFFFFFFFFFFFFFFFFFFFFFFFFFFFFFFFFFFFFFFFFFFFFFFFFFFFFFFFFFFFFF72
:2B002B00601886611886611886611886611886611886010000000018866118866118866118866118866118866180E74F
:2B005600401004411004411004411004411004411004010000000010044110044110044110044110044110044180E71C
:2B008100000000000000000000000000000000000000000000000000000000000000000000000000000000000080E7ED
:2B00AC00000000000000000000000000000000000000000000000000000000000000000000000000000000000080E7C2
:2B00D700000000000000000000000000000000000000000000000000000000000000000000000000000000000080E797
:2B010200000000000000000000000000000000000000000000000000000000000000000000000000000000000080E76B
:2B012D00000000000000000000000000000000000000000000000000000000000000000000000000000000000080E740
:2B015800000000000000000000000000000000000000000000000000000000000000000000000000000000000080E715
:2B018300000000000000000000000000000000000000000000000000000200000000000000000020000000000080E7C8
:2B01AE000000000000000000000000000000000000000000000000C0000000000000000000000000000000000000A3C3
:2B01D900000000000000000000000000000000000000000000000000000000000000000000000000000000000080E794
:2B020400000000000000000000000000000000000000000000000000000000000000000000000000000000000080E768
:2B022F00000000000000000000000000000000000000000000000000000000000000000000000000000000000080E73D
:2B025A00000000000000000000000000000000000000000000000000000000000000000000000000000000000080E712
:2B028500000000000000000000000000000000000000000000000040000000000000000000000000000000000080A3EB
:2B02B000000000000000000000000000000000000000000000000000000000000000000000000000000000000080E7BC
:2B02DB00000000000000000000000000000000000000000000000000000000000000000000000000000000000080E791
:2B030600000000000000000000000000000000000000000000000000000000000000000000000000000000000080E765
:2B033100000000000000000000000000000000000000000000000000000000000000000000000000000000000080E73A
:2B035C00000000000000000000000000000000000000000000000000000000000000000000000000000000000080E70F
:2B038700000000000000000000000000000000000000000000000000802800000000000000200000000000000080CD36
:2B03B200020000000000000000000000000000000000000000000000000000000000000000000000000000000008ED29
:2B03DD00000000000000000000000000000000000000000000000000000000000000000000000000000000000080E78E
:2B040800000000000000000000000000000000000000000000000000000000000000000000200000000000000080C762
:2B043300000000000000000000000000000000000000000000000000802800000000000000000000000000000080ED89
:2B045E00000000000000000000000000000000000000000000000000000000000000000000000020000000000080C50E
:2B048900020000000000000000000000000000000000000000000000000000000000000000000000000000000008ED51
:2B04B4008000088000088000088000088000088000080000000000A0000220000220000220000280000220000280C5FC
:2B04DF00800008800008800008800008800008800008000000000020000220000220000220000220000220000280E78F
:2B050A00000000000000000000000000000000000000000000000000000000000000000000000000080000000080EF4F
:2B053500020000000000000000000000000000000000000000000000802700000000000000000078000000000008EF83
:2B0560000000000000000000000000000000000000000000000000000026000000000000000000080000000000008BB7
:2B058B000000000000000000000000000000000000000000000000000001000000000000000000F8400000000080C9C3
:2B05B600000000000000000000000000000000000000000000000000001600000000000000000048000000000000CCF0
:2B05E1000000000000000000000000000000000000000000000000000000000000000000000000C8020000000080A9FC
:2B060C00020000000000000000000000000000000000000000000000000000000000000000000040020000000008ABCC
:2B0637000000000000000000000000000000000000000000000000000006000000000000000000C0000000000000C50D
:2B066200000000000000000000000000000000000000000000000000004200000000000000000000080000000080C9DA
:2B068D00000000000000000000000000000000000000000000000000800D00000000000000000078000000000000C578
:2B06B800020000000000000000000000000000000000000000000000002400000000000000000008020000000088A1BE
:2B06E300000000000000000000000000000000000000000000000000000B00000000000000000078000000000080AB3E
:2B070E00000000000000000000000000000000000000000000000000000400000000000000000048000000000000EF85
:2B073900000000000000000000000000000000000000000000000000001A000000000000000000480200000000808A27
:2B0764000000000000000000000000000000000000000000000000000002000000000000000000400000000000808127
:2B078F000200000000000000000000000000000000000000000000000014000000000000000000C0020000000088EEF1
:2B07BA00000000000000000000000000000000000000000000000000000600000000000000000000000000000080810D
:2B07E5000000000000000000000000000000000000000000000000F8A04F00000000000000000098040000000080DE08
:2B081000000000000000000000000000000000000000000000000008A02600000000000000000008020000000000A93C
:2B083B00020000000000000000000000000000000000000000000078000700000000000000000010000000000088F485
:2B086600000000000000000000000000000000000000000000000048800000000000000000000008000000000000ABEC
:2B089100000000000000000000000000000000000000000000000048820000000000000000000008000000000000A9C1
:2B08BC00000000000000000000000000000000000000000000000040020600000000000000000060000000000080A148
:2B08E700000000000000000000000000000000000000000000000040000600000000000000000070000000000080B2FE
:2B091200020000000000000000000000000000000000000000000000000600000000000000000000080000000008831F
:2B093D000000000000000000000000000000000000000000000000F8A04F00000000000000000078000000000000BC74
:2B0968000000000000000000000000000000000000000000000000088406000000000000000000080100000000008C3D
:2B0993000000000000000000000000000000000000000000000000780027000000000000000000780000000000809210
:2B09BE00020000000000000000000000000000000000000000000048810000000000000000000048000000000088E48F
:2B09E900000000000000000000000000000000000000000000000048800000000000000000000048010000000000EEE4
:2B0A14000000000000000000000000000000000000000000000000400006000000000000000000400000000000808130
:2B0A3F000000000000000000000000000000000000000000000000400206000000000000000000400200000000808101
:2B0A6A00000000000000000000000000000000000000000000000000000600000000000000000060000000000080E794
:2B0A95000200000000000000000000000000000000000000000000F8A04F000000000000000000F8040000000008B297
:2B0AC000000000000000000000000000000000000000000000000008881600000000000000000068010000000000E715
:2B0AEB000000000000000000000000000000000000000000000000780007000000000000000000700000000000009859
:2B0B1600000000000000000000000000000000000000000000000048800000000000000000000008000000000000AB39
:2B0B4100020000000000000000000000000000000000000000000048810000000000000000000008000000000088A08E
:2B0B6C00000000000000000000000000000000000000000000000040010600000000000000000060000000000080A295
:2B0B9700000000000000000000000000000000000000000000000040000600000000000000000070000000000080B24B
:2B0BC200000000000000000000000000000000000000000000000060000600000000000000000000080000000080EF2B
:2B0BED00000000000000000000000000000000000000000000000098A04F00000000000000000078000000000000DA04
:2B0C1800020000000000000000000000000000000000000000000068800600000000000000000008200000000088C54C
:2B0C43000000000000000000000000000000000000000000000000180417000000000000000000F8000000000000F368
:2B0C6E00000000000000000000000000000000000000000000000048810000000000000000000048000000000000EE5C
:2B0C99000000000000000000000000000000000000000000000000C88000000000000000000000C8200000000000CF31
:2B0CC4000200000000000000000000000000000000000000000000400006000000000000000000400000000000088BEA
:2B0CEF000000000000000000000000000000000000000000000000400106000000000000000000400100000000808151
:2B0D1A00000000000000000000000000000000000000000000000000000000000000000000000000010000000080E647
:2B0D4500000000000000000000000000000000000000000000000088A04900000000000000000078000000000000ADED
:2B0D7000000000000000000000000000000000000000000000000008811000000000000000000060200000000080A11E
:2B0D9B00020000000000000000000000000000000000000000000090000900000000000000000090000000000088FC7E
:2B0DC6000000000000000000000000000000000000000000000000088000000000000000000000600200000000808315
:2B0DF100000000000000000000000000000000000000000000000018800000000000000000000000000000000080F6C9
:2B0E1C00000000000000000000000000000000000000000000000060000600000000000000000000000000000080E7DE
:2B0E47000200000000000000000000000000000000000000000000600006000000000000000000600000000000088B25
:2B0E7200000000000000000000000000000000000000000000000000000000000000000000000000000000000080E7EE
:2B0E9D000000000000000000000000000000000000000000000000F8A049000000000000000000E8010000000080CA16
:2B0EC800000000000000000000000000000000000000000000000088800000000000000000000008080000000080E780
:2B0EF3000000000000000000000000000000000000000000000000F8001900000000000000000010000000000000991A
:2B0F1E00020000000000000000000000000000000000000000000048820000000000000000000008020000000088A1A9
:2B0F49000000000000000000000000000000000000000000000000488000000000000000000000F8000000000080DC61
:2B0F7400000000000000000000000000000000000000000000000040000600000000000000000060000000000080A389
:2B0F9F000000000000000000000000000000000000000000000000C0010600000000000000000060000000000000A25E
:2B0FCA00000000000000000000000000000000000000000000000000000200000000000000000000000000000080C5B5
:2B0FF500000000000000000000000000000000000000000000000000200000000000000000000000200000000080E72A
:2B102000800008800008800008800008800008800008000000000020000020000220000220000220000220000280C566
:2B104B00800008800008800008800008800008800008000000000020000220000220000220000220000220000280E717
:2B107600000000000000000000000000000000000000000000000008802802000000000000000080000000000080C5D8
:2B10A100000000000000010000000000000000000000000000000000000000000002000000020000000000000080C4DB
:2B10CC00000000000000000000000000000000000000000000000000000000000000000000000000000000000080E792
:2B10F700000000001000000000000000000000000000000000000000000000000000000000000000000000000080E658
:2B1122000000000010000100000000000000000000000000000000088028020000020000000200A0000000000080C5F6
:2B114D00000000000000000000000000000000000000000000000000000000000000000000000000000000000080E710
:2B117800000000000000000000000000000000000000000000000000000000000000000000000000000000000080E7E5
:2B11A300000000000000000000000000000000000000000000000000000000000000000000000000000000000080E7BA
:2B11CE00000000000000000000000000000000000000000000000000000000000000000000000000000000000080E78F
:2B11F900000000000000000000000000000000000000000000000010000000000000000000000010300000000080D724
:2B122400000000000000000000000000000000000000000000000000000200000000000000000000000000000080C558
:2B124F00000000000000000000000000000000000000000000000000080000000000000000000000000000000080EFFD
:2B127A00000000000000000000000000000000000000000000000000000000000000000000000000000000000080E7E2
:2B12A500000000000000000000000000000000000000000000000000000000000000000000000000000000000080E7B7
:2B12D000000000000000000000000000000000000000000000000000000000000000000000000000000000000080E78C
:2B12FB00000000000000000000000000000000000000000000000000100000000000000000000000000000000080F741
:2B132600000000000000000000000000000000000000000000000010080000000000000000000080100000000000EE06
:2B135100000000000000000000000000000000000000000000000000000000000000000000000000080000000080EFFA
:2B137C00000000000000000000000000000000000000000000000000000000000000000000000000000000000080E7DF
:2B13A700000000000000000000000000000000000000000000000000000000000000000000000000000000000080E7B4
:2B13D200000000000000000000000000000000000000000000000000000000000000000000000000000000000080E789
:2B13FD00000000000000000100000000000000000000000000000000000000000000000000000000000000000080F64E
:2B142800000000000000000000000000000000000000000000000000000000000000000000000000000000000080E732
:2B145300000000000000000000000000000000000000000000000000000000000000000000000000000000000080E707
:2B147E00000000000000000000000000000000000000000000000000000000000000000000000000000000000080E7DC
:2B14A900000000000000000000000000000000000000000000000000000000000000000000000000000000000080E7B1
:2B14D400000000000000000000000000000000000000000000000000000000000000000000000000000000000080E786
:2B14FF00000000000000000000000000000000000000000000000000000000000000000000000000000000000080E75B
:2B152A00000000000000000000000000000000000000000000000000000000000000000000000000000000000080E72F
:2B155500000000000000000000000000000000000000000000000000000000000000000000000000000000000080E704
:2B158000000000000000000000000000000000000000000000000000000000000000000000000000000000000080E7D9
:2B15AB00000000000000000000000000000000000000000000000000000000000000000000000000000000000080E7AE
:2B15D600000000000000000000000000000000000000000000000000000000000000000000000000000000000080E783
:2B160100000000000020000000000000000000000000000000000000000000000000000000000000000000000080C559
:2B162C00020000000000000000000000000000000000000000000000000000000000000000000000000000000008ED9C
:2B165700000000000000000000000000000000000000000000000000000000000000000000000000000000000080E701
:2B168200000000000000000000000000000000000000000000000000000000000000000000000000000000000080E7D6
:2B16AD00000000000020000000000000000000000000000000000000000000000000000000000000000000000080C5AD
:2B16D800000000000000000000000000000000000000000000000000000000000000000000000000000000000080E780
:2B170300020000000000000000000000000000000000000000000000000000000000000000000000000000000008EDC4
:2B172E00800008800008800008800008800008800008000000000020000220000220000220000220000220000280E72D
:2B175900800008800008800008800008800008800008000000000020000220000220000220000220000220000280E702
:2B178400000000000000000000000000000000000000000000000000000000000000000000000000000000000080E7D3
:2B17AF00020000000000000000000000000000000000000000000000000000000000000000000000000000000008ED18
:2B17DA00000000000000000000000000000000000000000000000000000000000000000000000000000000000080E77D
:2B180500000000000000000000000000000000000000000000000000000000000000000000000000000000000080E751
:2B183000000000000000000000000000000000000000000000000000000000000000000000000000000000000080E726
:2B185B00000000000000000000000000000000000000000000000000000000000000000000000000000000000080E7FB
:2B188600020000000000000000000000000000000000000000000000000000000000000000000000000000000008ED40
:2B18B100000000000000000000000000000000000000000000000000000000000000000000000000000000000080E7A5
:2B18DC00000000000000000000000000000000000000000000000000000000000000000000000000000000000080E77A
:2B190700000000000000601000000000000000000000000000000000000000000000000000000000000000000080863F
:2B193200020000000000200000000000000000000000000000000000000000000000000000000000000000000008CD93
:2B195D00000000000000400000000000000000000000000000000000000000000000000000000000000000000080A7F8
:2B198800000000000000A00100000000000000000000000000000000000000000000000000000000000000000000DEB5
:2B19B300000000000000A00100000000000000000000000000000000000000000000000000000000000000000000DE8A
:2B19DE00000000000000800100000000000000000000000000000000000000000000000000000000000000000000FE5F
:2B1A0900020000000000800100000000000000000000000000000000000000000000000000000000000000000088F4B3
:2B1A3400000000000040000000000000000000000000000000000000000000000000000000000000000000000080A324
:2B1A5F00000000000026600800000000000000000000000000000000000000000000000000000000000000000000C509
:2B1A8A00000000000002200000000000000000000000000000000000000000000000000000000000000000000080E7A8
:2B1AB500020000000004400000000000000000000000000000000000000000000000000000000000000000000008EDCB
:2B1AE00000000000001AA00100000000000000000000000000000000000000000000000000000000000000000080E7B9
:2B1B0B0000000000001AA00100000000000000000000000000000000000000000000000000000000000000000080E78D
:2B1B3600000000000018800100000000000000000000000000000000000000000000000000000000000000000080E784
:2B1B6100000000000018800100000000000000000000000000000000000000000000000000000000000000000080E759
:2B1B8C000200000000300004000000000000000000000000000000000000000000000000000000000000000000089A56
:2B1BB70000000000003E600000000000000000000000000000000000000000000000000000000000000000000000DC89
:2B1BE2000000000000582000000000000000000000000000000000000000000000000000000000000000000000009AC6
:2B1C0D0000000000003C400000000000000000000000000000000000000000000000000000000000000000000000DC54
:2B1C3800020000000018A00100000000000000000000000000000000000000000000000000000000000000000008CDF1
:2B1C6300000000000078A00100000000000000000000000000000000000000000000000000000000000000000080A11C
:2B1C8E00000000000018800100000000000000000000000000000000000000000000000000000000000000000080E72B
:2B1CB900000000000038900100000000000000000000000000000000000000000000000000000000000000000080D5E2
:2B1CE400000000000000000100000000000000000000000000000000000000000000000000000000000000000080F65E
:2B1D0F00020000000006610100000000000000000000000000000000000000000000000000000000000000000008FD3A
:2B1D3A00000000000000200100000000000000000000000000000000000000000000000000000000000000000080D607
:2B1D6500000000000064400100000000000000000000000000000000000000000000000000000000000000000080909E
:2B1D9000000000000000200100000000000000000000000000000000000000000000000000000000000000000080D6B1
:2B1DBB00020000000020300100000000000000000000000000000000000000000000000000000000000000000008EEB4
:2B1DE600000000000040000100000000000000000000000000000000000000000000000000000000000000000080B25F
:2B1E1100000000000030008100000000000000000000000000000000000000000000000000000000000000000080CDA8
:2B1E3C00000000000000000800000000000000000000000000000000000000000000000000000000000000000000E78C
:2B1E6700000000000046600000000000000000000000000000000000000000000000000000000000000000000080A387
:2B1E9200020000000052200000000000000000000000000000000000000000000000000000000000000000000008B8F1
:2B1EBD00000000000014400000000000000000000000000000000000000000000000000000000000000000000080F630
:2B1EE800000000000012A00100000000000000000000000000000000000000000000000000000000000000000000EF2D
:2B1F130000000000009AA00100000000000000000000000000000000000000000000000000000000000000000000E781
:2B1F3E00020000000090800100000000000000000000000000000000000000000000000000000000000000000008E578
:2B1F6900000000000018800100000000000000000000000000000000000000000000000000000000000000000080E74D
:2B1F9400000000000000000400000000000000000000000000000000000000000000000000000000000000000080A3FB
:2B1FBF000000000000666000000000000000000000000000000000000000000000000000000000000000000000808130
:2B1FEA00000000000002000000000000000000000000000000000000000000000000000000000000000000000080C783
:2B201500020000000004400800000000000000000000000000000000000000000000000000000000000000000088EDDD
:2B20400000000000001A000800000000000000000000000000000000000000000000000000000000000000000080DEF5
:2B206B0000000000001A000000000000000000000000000000000000000000000000000000000000000000000000DE52
:2B209600000000000018000000000000000000000000000000000000000000000000000000000000000000000000FE09
:2B20C100020000000018000B00000000000000000000000000000000000000000000000000000000000000000008C700
:2B20EC00000000000000000500000000000000000000000000000000000000000000000000000000000000000080B292
:2B211700000000000026F00100000000000000000000000000000000000000000000000000000000000000000000CCBA
:2B214200000000000002800100000000000000000000000000000000000000000000000000000000000000000000DE11
:2B216D00000000000004C00900000000000000000000000000000000000000000000000000000000000000000080FEFC
:2B21980002000000001A800900000000000000000000000000000000000000000000000000000000000000000088CD22
:2B21C30000000000001A800100000000000000000000000000000000000000000000000000000000000000000080C70F
:2B21EE00000000000018800100000000000000000000000000000000000000000000000000000000000000000080E7C6
:2B221900000000000018800B00000000000000000000000000000000000000000000000000000000000000000000C532
:2B224400000000000008800000000000000000000000000000000000000000000000000000000000000000000080E780
:2B226F00000000000000000000000000000000000000000000000000000000000000000000000000000000000080E7DD
:2B229A00800008800000000008800008800008800008000000000020000220000220000220000220000220000280E73E
:2B22C500800008800008800008800008800008800008000000000020000220000220000220000220000220000280E78B
:2B22F000000000002000200A00000000000000000000000000000000000000000000000000000000000000000000E792
:2B231B00000000000000000000000000000000000000000000000000000000000000000000000000000000000080E730
:2B234600000000000000000020000000000000000000000000000000000000000000000000000000000000000080C507
:2B237100000000000000020000000000000000000000000000000000000000000000000000000000000000000080E5DA
:2B239C00000000002000200A20000000000000000000000000000000000000000000000000000000000000000000C5E7
:2B23C700000000000000000000000000000000000000000000000000000000000000000000000000000000000080E784
:2B23F200000000000004000000000000000000000000000000000000000000000000000000000000000000000080A795
:2B241D00000000000000000000000000000000000000000000000000000000000000000000000000000000000080E72D
:2B244800000000000000000000000000000000000000000000000000000000000000000000000000000000000080E702
:2B247300000000000010000000000000000000000000000000000000000000000000000000000000000000000080F6B8
:2B249E00000000000000000000000000000000000000000000000000000000000000000000000000000000000080E7AC
:2B24C900000000000000000000000000000000000000000000000000000000000000000000000000000000000080E781
:2B24F400000000000000000000000000000000000000000000000000000000000000000000000000000000000080E756
:2B251F00000000000000000000000000000000000000000000000000000000000000000000000000000000000080E72A
:2B254A00000000000000000000000000000000000000000000000000000000000000000000000000000000000080E7FF
:2B257500000000000000082000000000000000000000000000000000000000000000000000000000000000000080EDA6
:2B25A000000000000000000000000000000000000000000000000000000000000000000000000000000000000080E7A9
:2B25CB00000000000000000000000000000000000000000000000000000000000000000000000000000000000080E77E
:2B25F600000000000000000000000000000000000000000000000000000000000000000000000000000000000080E753
:2B262100000000000000000000000000000000000000000000000000000000000000000000000000000000000080E727
:2B264C00000000000000000000000000000000000000000000000000000000000000000040000000000000000080A300
:2B267700000000000000000000000000000000000000000000000000000200000200000240040000000000000280A7C5
:2B26A200000000000000000000000000000000000000000000000000000000000000000000000000000000000080E7A6
:2B26CD00000000000000000000000000000000000000000000000000000000000000000000000000000000000080E77B
:2B26F800000000000000000000000000000000000000000000000000000000000000000000000000000000000080E750
:2B272300000000000000000000000000000000000000000000000000000000000000000000000000000000000080E724
:2B274E00000000000000000000000000000000000000000000000000000000000000000000000000000000000080E7F9
:2B277900000000000000000000000000000000000000000000000000000000000000000020010000000000000080C4D0
:2B27A400000000000000000000000000000000000000000000000000000000000000000400000000000000000080A3E3
:2B27CF00000000000000000000000000000000000000000000000000000000000000000000000000000000000080E778
:2B27FA00000000000000000000000000000000000000000000000000000000000000000000000000000000000080E74D
:2B282500000000000000000000000000000000000000000000000000000000000000000000000000000000000080E721
:2B285000000000000000000000000000000000000000000000000000000000000000000000000000000000000080E7F6
:2B287B000000000000000000000000000000004000000000000000000000000008020000083000802000000000009F71
:2B28A600020000000000000000000000000000000000000000000000000000000000000000000000000000000008ED10
:2B28D1000000000000000000000000000000004000000000000000000000000000000000000000802000000000008775
:2B28FC00000000000000000000000000000000000000000000000000000000000000000000100000000000000080F72A
:2B292700000000000000000000000000000000000000000000000000000000000802000008200000000000000080EFE4
:2B295200000000000000000000000000000000000000000000000000000000000200000020000000000000000080E7D1
:2B297D00020000000000000000000000000000000000000000000000000000000000000000000000000000000008ED38
:2B29A800800008800008800008800008800008800008000000000020000220000020000200000220000220000280E7C3
:2B29D300800008800008800008800008800008800008000000000020000220000220000220000220000220000280E776
:2B29FE00000000000000000000000000000000000000000000000000000000002000000000020000000000000080E725
:2B2A2900020000000000000000000000000000000000000000000000804F00800900000098000000800C02804F0881AA
:2B2A5400000000000000000000000000000000000000000000000000800600800600000008200000800600802400EF0A
:2B2A7F000000000000000000000000000000000000000000000000000029000007010000F0000000002F00000300A237
:2B2AAA00000000000000000000000000000000000000000000000000802000800600000068000000802000802000ED46
:2B2AD500000000000000000000000000000000000000000000000000800E008028000000E8020000800E00800E80EF2B
:2B2B0000020000000000000000000000000000000000000000000000000000000600000060000000000000000008ED4D
:2B2B2B00000000000000000000000000000000000000000000000000000600000700000070000000004E00002E80877F
:2B2B5600000000000000000000000000000000000000000000000000000000000000000040020000000000001080A0E2
:2B2B8100000000000000000000000000000000000000000000000000800901800C020000D8000000801100800180DEC9
:2B2BAC00020000000000000000000000000000000000000000000000000000800602000048000000002000000008ED17
:2B2BD7000000000000000000000000000000000000000000000000000011000005000000B0400000000F00002180B568
:2B2C0200000000000000000000000000000000000000000000000000001000800400000048200000000002000080E643
:2B2C2D000000000000000000000000000000000000000000000000000000008014000000C8000000000C00000080A2F2
:2B2C580000000000000000000000000000000000000000000000000000200000040000004000000000000000068083E4
:2B2C8300020000000000000000000000000000000000000000000000000400002C000000D0020000000204000608BC52
:2B2CAE00000000000000000000000000000000000000000000000000000400000000000000000000000000000480E78C
:2B2CD900000000000000000000000000000000000000000000000000804D00804F00000098080000800C02804D80E1D8
:2B2D04000000000000000000000000000000000000000000000000008004000020000000000000008006008014008A5C
:2B2D2F00020000000000000000000000000000000000000000000000002300000F00000090040000002700000308F887
:2B2D5A000000000000000000000000000000000000000000000000008014000008000000600000008020008004808A24
:2B2D8500000000000000000000000000000000000000000000000000800400000200000060000000800600802400CF44
:2B2DB000000000000000000000000000000000000000000000000000002400000000000000000000000000002480E749
:2B2DDB00000000000000000000000000000000000000000000000000000400002000000000000000004E0000040087D0
:2B2E0600020000000000000000000000000000000000000000000000000000002400000000020000002000000008ABA6
:2B2E3100000000000000000000000000000000000000000000000000800901800900000098000000800900804F808C67
:2B2E5C00000000000000000000000000000000000000000000000000000000800400000008200000000002801600CC3B
:2B2E87000000000000000000000000000000000000000000000000000011000029000000F0000000000F00000100F5F1
:2B2EB200020000000000000000000000000000000000000000000000000000800400000008000000002000800088A39C
:2B2EDD00000000000000000000000000000000000000000000000000000000800004000088020000000000802680C9CD
:2B2F0800000000000000000000000000000000000000000000000000000600000600000000000000001400000080A25C
:2B2F3300000000000000000000000000000000000000000000000000000600002700000010000000000200000680A10D
:2B2F5E00000000000000000000000000000000000000000000000000000400000000000000000000000000000080A321
:2B2F8900020000000000000000000000000000000000000000000000804D00800F02000018020000801100801188F009
:2B2FB400000000000000000000000000000000000000000000000000800400000602000008000000000000001080E4EA
:2B2FDF00000000000000000000000000000000000000000000000000000B01000700000010000000000104000980E234
:2B300A00000000000000000000000000000000000000000000000000800400000600000068000000000000000080A386
:2B303500020000000000000000000000000000000000000000000000801400001600000068000000000000000008A9AB
:2B306000000000000000000000000000000000000000000000000000001400000600000060000000000600000680A29D
:2B308B00000000000000000000000000000000000000000000000000000400000600000070000000000600000680B262
:2B30B600000000000000000000000000000000000000000000000000000000000000000040020000000000000680C760
:2B30E100000000000000000000000000000000000000000000000000804F00800E020000D8000000800C02804F809818
:2B310C00020000000000000000000000000000000000000000000000800600800602000048010000801600800088E7BA
:2B313700000000000000000000000000000000000000000000000000000901000700000050000000000F00001180A3C9
:2B316200000000000000000000000000000000000000000000000000800000800000000048000000800000800000AB4F
:2B318D00000000000000000000000000000000000000000000000000801600801600000068020000801600800000EC7F
:2B31B800020000000000000000000000000000000000000000000000000000000000000060000000000000000608ED8F
:2B31E300000000000000000000000000000000000000000000000000000600000600000070040000004E00000600905D
:2B320E00000000000000000000000000000000000000000000000000000400000000000060000000000000000080C5EC
:2B323900000000000000000000000000000000000000000000000000804D00800C020000F8010000801100804F00CFE7
:2B326400000000000000000000000000000000000000000000000000800400800200000048040000000002800680875E
:2B328F00020000000000000000000000000000000000000000000000002B00001F00000050000000000F000011889838
:2B32BA0000000000000000000000000000000000000000000000000080240080040000006802000000000080108080C7
:2B32E500000000000000000000000000000000000000000000000000800C00801400000068000000000004800E80A67E
:2B3310000000000000000000000000000000000000000000000000000014000014000000000100000006000000808063
:2B333B00120000000000000000000000000000000000000000000000000C00000C000000C0000000000000000688DF10
:2B336600020000000000000000000000000000000000000000000000000000000602000660020000000000001080A09A
:2B339100040000000000000000000000000000000000000000000000802900800700804FF80000008011008001008282
:2B33BC00020000000000000000000000000000000000000000000000002000000000004660000000002000000080E19D
:2B33E700020000000000000000000000000000000000000000000000000900001100000770100000000F0000218090D8
:2B341200000000000000000000000000000000000000000000000000000000000000000060010000002000002008885E
:2B343D0000000000000000000000000000000000000000000000000000000000000000066100000000060000008091E6
:2B346800000000000000000000000000000000000000000000000000000600000000000640000000000000002080A1AC
:2B349300000000000000000000000000000000000000000000000000000600000000000660020000000600000C00A1ED
:2B34BE00020000000000000000000000000000000000000000000000000200008000000000000000000000000280EDF0
:2B34E900000000000000000000000000000000000000000000000000000000000000000000200000000002000080E72F
:2B351400800008800008800008800008800008800008000000000020000020000A20000200000220000A20000080C55F
:2B353F00800008800008800008800008800008800008000000000020000220000220000220000220000220000280E7FE
:2B356A00000000000000000000000000000000000000000000000000800828002800000090220000800000800000F4B8
:2B359500000100000000010000000000000000000000000000000000000000000001000000000000000000000080E7A1
:2B35C000000000000000000000000000000000000000000000000000000000000000000000000000000000000080E779
:2B35EB00000100001000000000000000000000000000000000000000000000000000000220080010000000000080EEFC
:2B361600000000001000010000000000000000000000000000000000800808002801000090220010800000800000D726
:2B364100000000000000000000000000000000000000000000000000002000000000000000000000000000000080E5D9
:2B366C001000000000000000000000000000000000000000000000000000000000000000000000000000000000C0B3B0
:2B369700000000000000000000000000000000000000000000000000000000000001000000000000000001000080E79F
:2B36C200040000000000000000000000000000000000000000000000000000000000000000000000000000000090F257
:2B36ED000000000000000000000000000000000000000000000000000000000001040000002000000001000000808785
:2B371800000000000000000000000000000000000000000000000000000000008000000000000000000001000080FF86
:2B374300000000000000000000000000000000000000000000000000000000000000000000080000000000000080EFE4
:2B376E00000000000000000000000000000000000000000000000000000000000000000000000000000000000080E7C9
:2B379900000000000000000000000000000000000000000000000000000000000000000000000000000000000080E79E
:2B37C400020000000000000000000000000000000000000000000000000000000000000000000000000000000080E573
:2B37EF000000000000000000000000000000000000000000000000000000000040000040000000000002040000808524
:2B381A00000000000000000000000000000000000000000000000000000000000000000000100000000000000080F7FC
:2B384500000000000000000000000000000000000000000000000000000000000000000000000000008000000080EF69
:2B387000000000000000000000000000000000000000000000000000000000000800000000000000000000000000E73E
:2B389B00000000000000000000000000000000000000000000000000000000000000000000000000000000000080E79B
:2B38C600000000000000000000000000000000000000000000000000000000000000000000000000000000000080E770
:2B38F100100000000000000000000000000000000000000000000000000000000000000000000000000000000080F725
:2B391C00000000000000000000000000000000000000000000000000000000000000020000000000000000000080E519
:2B394700000000000000000000000000000000000000000000000000000000000000000000000000000000000080E7EE
:2B397200000000000000000000000000000000000000000000000000000000000000000000000000000000000080E7C3
:2B399D00000000000000000000000000000000000000000000000000000000000000000000000000000000000080E798
:2B39C800000000000000000000000000000000000000000000000000000000000000000000000000000000000080E76D
:2B39F300000000000000000000000000000000000000000000000000000000000020010000000000000000000080C444
:2B3A1E00000000000000000000000000000000000000000000000000000000000000000000000000000000000080E716
:2B3A4900000000000000000000000000000000000000000000000000000000000000000000000000000000000080E7EB
:2B3A7400000000000000000000000000000000000000000000000000000000000000000000000000000000000080E7C0
:2B3A9F00000000000000000000000000000000000000000000000000000000000000000000000000000000000080E795
:2B3ACA00000000000000000000000000000000000000000000000000000000000000000000000000000000000080E76A
:2B3AF5000000000000000000000000000000000000000000000000000000000000000000004000C8300000000080DB13
:2B3B2000160000000000000000000000000000000000000000000000000000000000000000000000000000000008F963
:2B3B4B00020000000000000000000000000000000000000000000000000000000000000000000000000000000080E5E8
:2B3B7600040000000000000000000000000000000000000000000000000000000000000000400040100000000080F719
:2B3BA100020000000000000000000000000000000000000000000000000000000000000000000088200000000080CD02
:2B3BCC00020000000000000000000000000000000000000000000000000000000000000000000000000000000080E567
:2B3BF700000000000000000000000000000000000000000000000000000000000000000000000000000000000008EFAC
:2B3C2200800008800008800008800008800008800008000000000020000220000220000220000220000220000280E714
:2B3C4D00800008800008800008800008800008800008000000000020000220000220000220000220000220000280E7E9
:2B3C7800000000000000000000000000000000000000000000000000000000000000040000000000000000000080E3BA
:2B3CA300020000000000000000000000000000000000000000000000000000000018000000000018200000000008CDCF
:2B3CCE0000000000000000000000000000000000000000000000000000000000000802000000006002000000000089D6
:2B3CF9000000000000000000000000000000000000000000000000000000000000F0000000000070000000000000E759
:2B3D2400000000000000000000000000000000000000000000000000000000000048100000000060000000000000DDDF
:2B3D4F000000000000000000000000000000000000000000000000000000000000C8000000000060000000000080CDD4
:2B3D7A000200000000000000000000000000000000000000000000000000000000800000000000600000000000888B29
:2B3DA5000000000000000000000000000000000000000000000000000000000000E0000000000060000000000000E7CC
:2B3DD000000000000000000000000000000000000000000000000000000000000000000000000040080000000080AB55
:2B3DFB000000000000000000000000000000000000000000000000000000000000F80800000000D8000000000080CD78
:2B3E2600020000000000000000000000000000000000000000000000000000000008100000000040020000000088B3DA
:2B3E510000000000000000000000000000000000000000000000000000000000007000000000001000000000008081C5
:2B3E7C000000000000000000000000000000000000000000000000000000000000080000000000C0000000000080AB28
:2B3EA7000000000000000000000000000000000000000000000000000000000000E80200000000C0000000000000CF77
:2B3ED200000000000000000000000000000000000000000000000000000000000040020000000040010000000080E4DE
:2B3EFD00020000000000000000000000000000000000000000000000000000000040000000000060000000000008CF21
:2B3F2800000000000000000000000000000000000000000000000000000000000000000000000000020000000080E507
:2B3F53000000000000000000000000000000000000000000000000000000000000F80400000000F8000000000080E3EC
:2B3F7E000000000000000000000000000000000000000000000000000000000000000000000000680000000000008927
:2B3FA9000200000000000000000000000000000000000000000000000000000000F00100000000F0200000000008CC16
:2B3FD400000000000000000000000000000000000000000000000000000000000040000000000008020000000000A9CF
:2B3FFF000000000000000000000000000000000000000000000000000000000000C0020000000068000000000080CF1E
:2B402A00000000000000000000000000000000000000000000000000000000000000000000000080000000000000E704
:2B4055000000000000000000000000000000000000000000000000000000000000000200000000A0000000000000C7D7
:2B4080000200000000000000000000000000000000000000000000000000000000000400000000600000000000088F18
:2B40AB000000000000000000000000000000000000000000000000000000000000180000000000F80100000000008059
:2B40D600000000000000000000000000000000000000000000000000000000000060000000000060020000000080E598
:2B4101000000000000000000000000000000000000000000000000000000000000F0020000000070000000000000E54C
:2B412C00020000000000000000000000000000000000000000000000000000000000020000000080000000000088EF6D
:2B4157000200000000000000000000000000000000000000000000000000000000C0000000000080000000000080A1DA
:2B418200040000000000000000000000000000000000000000000000000000000060010000000020010000000080A765
:2B41AD00020000000000000000000000000000000000000000000000000000000020000000000080000000000000C77E
:2B41D8000200000000000000000000000000000000000000000000000000000000002000000000400200000000808355
:2B4203000200000000000000000000000000000000000000000000000000000000F80000000000D8000000000008CFE7
:2B422E00000000000000000000000000000000000000000000000000000000000068010000000048000000000080C470
:2B4259000000000000000000000000000000000000000000000000000000000000700000000000D0200000000000E5F5
:2B428400000000000000000000000000000000000000000000000000000000000008010000000048000000000080A29C
:2B42AF000200000000000000000000000000000000000000000000000000000000E80000000000C8020000000008CD5B
:2B42DA00020000000000000000000000000000000000000000000000000000000040000000000000010000000080A056
:2B430500040000000000000000000000000000000000000000000000000000000040010000000060000000000080C0A8
:2B433000020000000000000000000000000000000000000000000000000000000000000000000000020000000080E7F7
:2B435B00020000000000000000000000000000000000000000000000000000000098040000000098000000000080E1A0
:2B438600020000000000000000000000000000000000000000000000000000000000040000000000000000000008E915
:2B43B100000000000000000000000000000000000000000000000000000000000010000000000090200000000000C75A
:2B43DC000000000000000000000000000000000000000000000000000000000000600000000000000200000000808351
:2B440700000000000000000000000000000000000000000000000000000000000080010000000000000000000000E623
:2B443200020000000000000000000000000000000000000000000000000000000020020000000080000000000088CD66
:2B445D000000000000000000000000000000000000000000000000000000000000800000000000A0000000000080C5CF
:2B448800000000000000000000000000000000000000000000000000000000000000040000000000000000000080E3A2
:2B44B3000000000000000000000000000000000000000000000000000000000000180000000000F8010000000000804D
:2B44DE000000000000000000000000000000000000000000000000000000000000000200000000680100000000008ABE
:2B4509000200000000000000000000000000000000000000000000000000000000900000000000F00000000000088B72
:2B453400000000000000000000000000000000000000000000000000000000000080000000000008000000000080EF65
:2B455F000000000000000000000000000000000000000000000000000000000000800000000000680100000000808840
:2B458A00000000000000000000000000000000000000000000000000000000000000000000000000000000000080E79F
:2B45B5000200000000000000000000000000000000000000000000000000000000600000000000000000000000088BE6
:2B45E000020000000000000000000000000000000000000000000000000000000000040000000000020000000080E345
:2B460B00040000000000000000000000000000000000000000000000000000000018000000000098000000000000E3ED
:2B463600020000000000000000000000000000000000000000000000000000000040000000000000000000000080A1F6
:2B4661000200000000000000000000000000000000000000000000000000000000F0020000000090200000000080A169
:2B468C00020000000000000000000000000000000000000000000000000000000000010000000000020000000008EE08
:2B46B700000000000000000000000000000000000000000000000000000000000000000000000000000000000080E771
:2B46E2000000000000000000000000000000000000000000000000000000000000600200000000000000000000808348
:2B470D001000000000000000000000000000000000000000000000000000000000E0000000000060000000000000F73A
:2B473800000000000000000000000000000000000000000000000000000000000000000000000000080000000080EFDF
:2B476300000000000000000000000000000000000000000000000000000000000000200000000000000000000080C7C4
:2B478E00800008800008800008800008800008800008000000000020000220000200000220000200000220000280E7DD
:2B47B900800008800008800008800008800008800008000000000020000220000220000220000220000220000280E772
:2B47E400000000000000000000000000000000000000000000000000000000000008000000000088020000000000E533
:2B480F0000040000000009001000000200008000000000000000000000000000000000010800000000000000008082D4
:2B483A00000000000000000000000000000000000000000000000000000000000000000800000000100000000000F744
:2B486500000000001000000010000000000000000000000000000000000000000020000000000020000000000080F751
:2B48900000040000100009000000000200008000000000000000000000000000000800090800008802000000008090AB
:2B48BB00000000000000000000000000000000000000000000000000000000000000000000000000000000000080E76B
:2B48E600000000000000000000000000000000000000000000000000000000000000000000000010000000000080F621
:2B4911000800000000000000000000000000000000000000000000000000000000000000000000000000000000A0CD06
:2B493C00000000000000000000000000000000000000000000000000000000000000000000000000000000000080E7E9
:2B496700120000000000000000000000000000000000000000000000000000000000000000000000100000000080E59E
:2B499200000000000000000000000000000000000000000000000000000000000050140000000000000000000080A670
:2B49BD00000000000000000000000000000000000000000000000000000000000000080000000000000000000080EF58
:2B49E800000000000000000000000000000000000000000000000000000000000000000000000000000000000080E73D
:2B4A1300000000000000000000000000000000000000000000000000000000000000000000000000080000000080EF01
:2B4A3E00000000000000000000000000000000000000000000000000000000000000000000000000000000000080E7E6
:2B4A6900000000000000000000000000000000000000000000000000000000000000000000000000000000000080E7BB
:2B4A9400080000000000000000000000000000000000000000000000000000000000000000000000010000000080EE80
:2B4ABF00120000000000000000000000000000000000000000000000000000000000000000000000000000000080F545
:2B4AEA00000000000000000000000000000000000000000000000000000000000000000000000080000000000000E73A
:2B4B1500000000000000000000000000000000000000000000000000000000000000000000000000000000000080E70E
:2B4B40000A0000000000800000000008800000000000000000000000000000000000000000000000000000000000E553
:2B4B6B00000000000000000000000000000000000000000000000000000000000000000000000000000000000080E7B8
:2B4B9600000000000000000000000000000200000000000000000000000000000000000000000000000000000080C5AD
:2B4BC100100000000000000000000000000000000000000000000000000000000000000000000000000000000080F742
:2B4BEC00000000000000000000000000000000000000000000000000000000000000000000000000000000000080E737
:2B4C1700040000000000000000000000000000000000000000000000000000000000000000000000000000000080E30B
:2B4C4200000000000000000000000000000000000000000000000000000000000000000000000000000000000080E7E0
:2B4C6D00000000000000000000000000000000000000000000000000000000000000000000000000000000000080E7B5
:2B4C98001A0000000000000000000000000000000000000000000000000000000000000000000000000000000080FD5A
:2B4CC300000000000000000000000000000000000000000000000000000000000000000000000000000000000080E75F
:2B4CEE00000000000000000000000000000000000000000000000000000000000000000000000000000000000080E734
:2B4D1900000000000000400000000004400000000000000000000000000000000000000000000000000000000080A7C4
:2B4D4400000000000000000800000000000000000000000000000000000000000000000000000000000000000000E755
:2B4D6F0000000000000000880000002008020200000000000000000000000000000000000000000000000000010496CA
:2B4D9A00020000000000000000000000000000000000000000000000000000000000000000000000000000000008EDF7
:2B4DC500020000000000000000000000000000000000000000000000000000000000000000000000000000000080E55C
:2B4DF000040000000000000000000000000000000000000000000000000000000000000000000000000000000184B25D
:2B4E1B0002000000000000880000002008020A000000000000000000000000000000000000000000000000000080CD61
:2B4E4600020000000000000000000000000000000000000000000000000000000000000000000000000000000080E5DA
:2B4E7100020000000000000000000000000000000000000000000000000000000000000000000000000000000008ED1F
:2B4E9C00800008800008800008800008800008800008000000000020000220000220000220000220000220000280E788
:2B4EC700800008800008800008800008800008800008000000000020000220000220000220000220000220000280E75D
:2B4EF200000000000000008000000000080000000000000000000000000000000000000000000000000000000080E7A6
:2B4F1D00020000000000E00200000036600400000000000000000000000000000000000000000000000000000088D093
:2B4F4800020000000000000200000020000200000000000000000000000000000000000000000000000000000080C7D1
:2B4F73000400000000004000000000044002000000000000000000000000000000000000000000000000000000808188
:2B4F9E00020000000000801100000000010000000000000000000000000000000000000000000000000000000000FC58
:2B4FC90002000000000080030000002800060000000000000000000000000000000000000000000000000000008092F8
:2B4FF400020000000000800000000000002000000000000000000000000000000000000000000000000000000088E781
:2B501F00000000000000000001000000100100000000000000000000000000000000000000000000000000000080F6DE
:2B504A00000000000000008000000018088000000000000000000000000000000000000000000000000000000000F625
:2B50750000000000000060020000003E600200000000000000000000000000000000000000000000000000000000BC52
:2B50A000020000000000000000000038000200000000000000000000000000000000000000000000000000000088F42D
:2B50CB0002000000000040230000001CC000000000000000000000000000000000000000000000000000000000808574
:2B50F600040000000000800500000018011000000000000000000000000000000000000000000000000000000080A7B6
:2B512100020000000000800100000028000300000000000000000000000000000000000000000000000000000080E550
:2B514C00020000000000000000000018000000000000000000000000000000000000000000000000000000000000FC22
:2B517700020000000000000900000010100001000000000000000000000000000000000000000000000000000088ED6C
:2B51A200000000000000000000000018080000000000000000000000000000000000000000000000000000000000F6CC
:2B51CD00000000000000000000000036600400000000000000000000000000000000000000000000000000000080900D
:2B51F800000000000000000000000038000000000000000000000000000000000000000000000000000000000000DC78
:2B52230002000000000000000000001C40060000000000000000000000000000000000000000000000000000008892E2
:2B524E00020000000000000000000008810100000000000000000000000000000000000000000000000000000080F534
:2B527900040000000000000000000038800900000000000000000000000000000000000000000000000000000000C184
:2B52A400020000000000000000000018000400000000000000000000000000000000000000000000000000000000B809
:2B52CF00020000000000000000000018100100000000000000000000000000000000000000000000000000000000FD8C
:2B52FA00020000000000800300000018888100000000000000000000000000000000000000000000000000000088D685
:2B53250000000000000060000000003E6002000000000000000000000000000000000000000000000000000000009EBF
:2B535000000000000000801100000038800300000000000000000000000000000000000000000000000000000000FFE7
:2B537B00000000000000C0030000001CC001000000000000000000000000000000000000000000000000000000009CCB
:2B53A600020000000000800100000018811000000000000000000000000000000000000000000000000000000088E543
:2B53D100020000000000800101000038000300000000000000000000000000000000000000000000000000000080E48E
:2B53FC00040000000000800100000010800100000000000000000000000000000000000000000000000000000080F2FE
:2B542700020000000000800100000018900101000000000000000000000000000000000000000000000000000000FC31
:2B545200020000000000004100000000888100000000000000000000000000000000000000000000000000000000E9FA
:2B547D00020000000000E0030000002EE00300000000000000000000000000000000000000000000000000000088A7DF
:2B54A800000000000000800500000020000200000000000000000000000000000000000000000000000000000000BA78
:2B54D300000000000000C00300000004C001000000000000000000000000000000000000000000000000000000808521
:2B54FE00000000000000000000000008811100000000000000000000000000000000000000000000000000000080F673
:2B5529000200000000008007000000208002000000000000000000000000000000000000000000000000000000089A8A
:2B555400000000000000000000000010000000000000000000000000000000000000000000000000000000000080F6A6
:2B557F00000000000000800500000008100101000000000000000000000000000000000000000000000000000080A33F
:2B55AA00000000000000808100000080000000000000000000000000000000000000000000000000000000000080F6DF
:2B55D500000000000000E00300000026602200000000000000000000000000000000000000000000000000000000BE62
:2B560000020000000000000300000000000000000000000000000000000000000000000000000000000000000008DE94
:2B562B00000000000000400000000094400000000000000000000000000000000000000000000000000000000000B68A
:2B565600000000000000801100000018800100000000000000000000000000000000000000000000000000000000FF00
:2B5681000000000000008003000000B8800100000000000000000000000000000000000000000000000000000080FEC4
:2B56AC00020000000000000000000058800100000000000000000000000000000000000000000000000000000008A947
:2B56D700020000000000000101000038800100000000000000000000000000000000000000000000000000000080C6A5
:2B570200040000000000008000000018880100000000000000000000000000000000000000000000000000000080E3F4
:2B572D0002000000000060020000003EE02300000000000000000000000000000000000000000000000000000080A587
:2B575800020000000000000200000020800100000000000000000000000000000000000000000000000000000000FC85
:2B57830002000000000040000000001CC00900000000000000000000000000000000000000000000000000000088AD9F
:2B57AE00000000000000001000000018010000000000000000000000000000000000000000000000000000000000FEA9
:2B57D900000000000000000300000038000A00000000000000000000000000000000000000000000000000000080CD13
:2B580400000000000000000000000018000000000000000000000000000000000000000000000000000000000000FE63
:2B582F00020000000000000001000018800100000000000000000000000000000000000000000000000000000008FDAD
:2B585A00020000000000008000000010888000000000000000000000000000000000000000000000000000000000F495
:2B588500040000000000E00200000026E00300000000000000000000000000000000000000000000000000000080B0D9
:2B58B000020000000000000200000020800300000000000000000000000000000000000000000000000000000000DE48
:2B58DB00020000000000400000000004C00100000000000000000000000000000000000000000000000000000000BCDF
:2B590600020000000000001000000018811100000000000000000000000000000000000000000000000000000008ECC6
:2B593100000000000000000200000030800300000000000000000000000000000000000000000000000000000000CDC9
:2B595C00000000000000000000000000800100000000000000000000000000000000000000000000000000000000FEA1
:2B598700000000000000000001000008900101000000000000000000000000000000000000000000000000000080E6F4
:2B59B200000000000000000000000000000000000000000000000000000000000000000000000000000000000080E763
:2B59DD00000000000000000000000000000000000000000000000000000000000000000000000000000000000080E738
:2B5A0800800008800008800008800008800008800008000000000020000220000220000220000220000220000280E710
:2B5A3300800008800008800008800008800008800008000000000020000220000220000220000220000220000280E7E5
:2B5A5E00000000000000000000000080080000020000000000000000000000000000000000000000000000000000EDA6
:2B5A8900000000000200000000000000200000000000000000000000000000000000000000000000000000014180F11D
:2B5AB400000000000000000000000000000000000000000000000000000000000000000000000000000000000080E760
:2B5ADF00000000000000000000000008000000020000000000000000000000000000000000000000000000000000EDA5
:2B5B0A00000000000200000000000080280000000000000000000000000000000000000000000000000000014100F98B
:2B5B3500000000000000000000000000000000000000000000000000000000000000000000000000000000000080E7DE
:2B5B6000000000000000000000000000000000000000000000000000000000000000000000000000000000000080E7B3
:2B5B8B00000000000000000001000000100001000000000000000000000000000000000000000000000000000080F766
:2B5BB600000000000000000000000000000000000000000000000000000000000000000000000000000000000080E75D
:2B5BE100040000000000000000000000000000000000000000000000000000000000000000000000000000000080E332
:2B5C0C00000000000000000000000000000000000000000000000000000000000000000000000000000000000080E706
:2B5C3700040000000000000000000000000000000000000000000000000000000000000000000000000000000080E3DB
:2B5C6200000000000000004000000000044000000000000000000000000000000000000000000000000000000080E330
:2B5C8D00000000000000000400000000000400000000000000000000000000000000000000000000000000000080E77D
:2B5CB800000000000000000000000000000000000000000000000000000000000000000000000000000000000080E75A
:2B5CE300000000000000000000000000000000000000000000000000000000000000000000000000000000000080E72F
:2B5D0E00120000000000000000000000400000000000000000000000000000000000000000000000000000000080B5E3
:2B5D3900000000000000000000000000000000000000000000000000000000000000000000000000000000000080E7D8
:2B5D6400000000000000000000000000000000000000000000000000000000000000000000000000000000000080E7AD
:2B5D8F00000000400000000000000000000000000000000000000000000000000000000000000000000000000080A782
:2B5DBA00000000000800000100000000000180000800000000000000002400000000000000000000000440022400E5B9
:2B5DE500000020100100010000011000001000000000000000000000004840000400000000000000000000000000C0F4
:2B5E100004008000000000000000000000000001000000000000000000C010000000000200000000000080000080DD33
:2B5E3B00000010000000000000000000000000000000000000000000000000000000000000000000000000200080D6B6
:2B5E66000A0000800028000000000000000008000000000000000000000000000000000800000000000000000080C708
:2B5E9100100080004080004000000000000000000000000000000000000500000000002000000000000000000480E4C9
:2B5EBC00000000400000000200000000000000000000000000000000000000000000000400000180080000000000D814
:2B5EE700000000000000000000000000004004000000000000000000000000000000000010000000000000010080B308
:2B5F1200020000000000000000000000000000000000000000000080000000000880000010000000000000000000F456
:2B5F3D00000000000040800008000000000000000000000000000000000200000000001000000020000000000080A21D
:2B5F6800800000000000001000000000000000000000000000000020000200000000000000000000000000000000EE6E
:2B5F9300000000000000000100000000000000000000000000000000000000000040008000000000000000000080BAE8
:2B5FBE00000000000000000000000000000000000000000000000000000000000200000000008000000000000080CDE9
:2B5FE900400841210240080000000200409022C0840100000000000023000A802002200800000800615984000183D4CB
:2B601400020000000000000000000000000000000000000000000000000000000000000000000000000000000208CF86
:2B603F00020000000000000000000000000000000000000000000000000000000000000000000000410000000080A4CF
:2B606A00040000000000000000000000000000000000000000000000000000000000000000000000000000000081F393
:2B609500420841A102500C000000020040902240840100000000000023000A802002200C000008002059C40001829248
:2B60C000020000000000000000000000000000000000000000000000000000000000000000000000000000000080E54E
:2B60EB00020000000000000000000000000000000000000000000000000000000000000000000000000000000008ED93
:2B611600800008800008800008800008800008800008000000000020000220000220000220000220000220000280E7FB
:2B614100800008800008800008800008800008800008000000000020000220000220000220000220000220000280E7D0
:2B616C00001000800000800100800100000510800100000000000000040460021000400000000002004660024080F4C8
:2B619700E20100E010B6600A00601000600236F009000000000000F8800D7C800718000078C00178C00318800788CAE4
:2B61C200220800800010001000800100000032004000000000000008820400010000000048200648800460810400B592
:2B61ED00C40300C01204C20300C003014010144002000000000000F0000712001170010070002770202110004700A0F1
:2B621800220800801000000800800100800182000000000000000008822000001600000008000608800664901080BC79
:2B62430022000080033082010080410000033B000000000000000008800800000EE0010088020688820680800800F2C0
:2B626E008201008041108101008001000000380000000000000000600000620000600000400200400224E0002408E2BE
:2B6299008001008003380000008001008040380000000000000000600006600006600000C00000C0000CC0000C00F2AF
:2B62C400008010000348008000000000000418000000000000000000000400000E40040480000000000064000080D4A6
:2B62EF00E00336640126E00100600400E002460000000000000000F8C00D3C8101D88019788015F8810178400000D46C
:2B631A002202122001100004008001000000180000000000000000608004E0000048200260001660002600100088ABE7
:2B634500C20134C8831C410000C0070040102C020000000000000010044DD0008F70000712020390100F10000080B309
:2B637000240112280000800100000500800118040000000000000060810060010008004060000660200600000000A763
:2B639B00220B12200A30900900800300800301000000000000000000802E40001E88020A000122000006E0080000A14C
:2B63C600020800000818040000800100800018020000000000000000002600020600024600000002000620080080FE3F
:2B63F1008201B8800308800100800900004020000000000000000060000620000060000460000460000600000008F89D
:2B641C00008000800050004000001000000000008000000000000000200600021600400400004400001660000002F9FE
:2B644700E00306F01016E001006002000000066402000000000000F8800159800178802578C00D78820F38820F00FDF8
:2B647200200200800010220800000400000000000200000000000088000008400060008448A00460200624900800A893
:2B649D00C20104C20205C001004001000000B44000000000000000700027D0001710010170000792000130000708B3C2
:2B64C800220900801030200000800100000050004000000000000048020008001060000C08842060102660802400DF9A
:2B64F3002401A0800310201000800B000000100002000000000000480016C8400E80010488800080000EE0880480B32B
:2B651E00020418804110800100000800000010000000000000000000000660000600001440022000000620400080DF23
:2B6549008201008003988001000003000000308101000000000000600200E0010060000640000E600006A0000E829A2C
:2B65740002800000001000110080110000051881810000000000000020404000046000060004000000460000008CA227
:2B659F00E00300E00936640100E0030060021EE003000000000000F8800F58C0059C821578802518900718C009808997
:2B65CA00200200200012200100000100000058800300000000000088800048A0040200040C800004011000881480B3EB
:2B65F500C00100400035C88300401000C0113CC00100000000000070002770000710080170020D70000110000580D55B
:2B662000220100200092200000800100000018840100000000000048800008800000010608800001000660800088CB23
:2B664B00220900A0231220080080030100020180010000000000004882080A822000008C88A00CE0200660802600B8F2
:2B6676000400008001000000010000000000180000000000000000000806000020000014600026600006000004809C0D
:2B66A100820B008001988003000041000041180000000000000000600006E0020600000660000660000600000E01EEEE
:2B66CC00028100000100004000000000000418000200000000000000000000000840040480001000040004200002D7E0
:2B66F700620300608356E00100E01100600346600000000000000078C007798407D8800D198007788001988009088213
:2B672200200100204010200400800100000010000000000000000008010008010048A00400804008012000000880A8EF
:2B674D00400101C00304C20100C00301C01124421200000000000070002170008970000D72020170000930040100DA44
:2B677800200200200300202000800100000018810100000000000008000608000608812400800808080600000080E58A
:2B67A300220100200330220000804100800221800100000000000008021688041E08800460810E08000680024808E148
:2B67CE00820500000510800100800100000118040000000000000060000060000000001060000660000060400081A18D
:2B67F9000401000001988001008001000041000000000000000000600006600006600406600006600000E0000C80AF7D
:2B682400028000002058000000801100000400010000000000000000044400000000000000400000004660020080ED1C
:2B684F00E20306E10326E00301E00200E0021E6008000000000000F8800558814778C01F98801578C00178802780B151
:2B687A00220200200000200000800100000018000300000000000008800408C0000800464890000C0006640026088A4B
:2B68A500C001A4C0053CD01300C0110040103C4400000000000000700147D00017700109D0000DF00407F0080F80BBAB
:2B68D000200100240000240900800100800098800100000000000008800008808008084608800049022600000680E0CC
:2B68FB002005382006182003000003010002398013000000000000088210C8C00008000068810C48000E00001E80943B
:2B692600020018800118800100800100000118804100000000000060001060000660000040021660000660000688C114
:2B695100800918800100800500804100804018800300000000000060000E600206600006E0000E60010660000680934E
:2B697C00001000002000100018101000001118000000000000000000000EE0000004400080004400004600040600B554
:2B69A700E00106E10326600A2660020060013E640800000000000098C001D88009D8802D98800D78900778804F00BC61
:2B69D200200480200418801100000000A0059820040000000000000000066080040801040482046001062C010081939F
:2B69FD00C20304C0030444021C44100040033C400300000000000070042970010DD40001900007120001F00009088B41
:2B6A280020000020041884090000000020001820400000000000000001060181100810002088106000260802068180C2
:2B6A5300200A00200000000038080301201238220200000000000060000800800EC8008C00800880200E88000600C529
:2B6A7E00800118800118800118000000800100820500000000000060000660020460010404020000000660000080E01D
:2B6AA900820118800118800100004000808328800100000000000060000640002660000E00002E60000660040A89E478
:2B6AD400001000100190808100001000800488008000000000000000200220000004400002401000004000000004AF7E
:2B6AFF00E0032660833660003EF0020060020E6002000000000000F8808138C00D98800998800118820798C00900931B
:2B6B2A00200002204010020402000000000088200000000000000088000028A000481000481000002006048210009BA7
:2B6B5500C0075CC00304C0013C411000C0102CC00900000000000070002970001DD0004FD00015F00001100007008660
:2B6B8000220812200130000052000000800008210100000000000048000009800008004008000000102600810488DA23
:2B6BAB002000123023108009320002010003392007000000000000C8010088810CEC0106E80124E0000E00800C04F5B8
:2B6BD600800110000110810118000000000018040500000000000000022000024640000640020662000600000480A0B3
:2B6C01008001780007380000780040000040388001000000000000600008E0000EE0020660000660000660001E00F502
:2B6C2C00000220002000000220000000000200020200000000000000008000000000000001008000100000000080E75B
:2B6C5700000220000020010220000000000200000200000000000000200000200002200000200000000002200082C4BF
:2B6C8200000000000000000000800008000000000008000000000000000000000000000000000000000000000000EF68
:2B6CAD00800008800008800008800008800008800008000000000020000220000220000220000220000220000280E759
:2B6CD80020144200000224088202800000140540120000000000001002A11400A00000A08AA0088882580CA3408087ED
:2B6D03000002000001800500000000000000000000000000000000000000000000000000100000000000400000008409
:2B6D2E00000000000000000000000000000000000000000000000000000000000010000400000010000000000080A3F3
:2B6D5900000000001800000000000000800000000000000000000000000000000000000000000000200000008280E471
