:020000040000FA
:5C000000FFFF62FF2E00FFFFFFFFFFFFFFFFFFFFFFFFFFFFFFFFFFFFFFFFFFFFFFFFFFFFFFFFFFFFFFFFFFFFFFFFFFFFFFFFFFFFFFFFFFFFFFFFFFFFFFFFFFFFFFFFFFFFFFFFFFFFFFFFFFFFFFFFFFFFFFFFFFFFFFFFFFFFFFFFFFFFFFFFFFFF6D
:5C005C0060700DAE61300C86C1B01806836B700D8361300C86C1E21906EE60700D83C1352C86C1B0185C836B580C2E00000000C0301816C360700D8361300C06D7B0185CC360700D8B6130B886C1E0195CC362180CAE61300C96C1E0720760F951
:5C00B800402808054120080481701004424128080241200804C15110048540280802A1201C048170100A4241380805000000008020100E8240280802412008848270100A8240280807412014048150100AC2411008054120080E8150280400F87E
:5C01140000000000000000000000000000000000000000000000000000000000000000000000000000000000000000000000000000000000000000000000000000000000000000000000000000000000000000000000000000000000000010FF80
:5C01700000000000000000000000000000000000000000000000000000000000000000000000000000000000000000000000000000000000000000000000000000000000000000000000000000000000000000000000000000000000000010FF24
:5C01CC00000000000000000000400000000000000000000000000100000000000000000012000042000000002400000000000000000000000000000000000000004000000000000004000000000000000020010000000000000808000000E0F2D7
:5C02280000000000000000000018000000000000000000000000400000000000000000000400001000000000080000000000000000004000000000000000000000100200000000200100000000000000000000000000000000020000000080FF12
:5C02840000000000000000000000000000000000000000000000000000000000000000000000000000000000000000000000000000000000000000000000000000000000000000000000000000000000000000000000000000000000000010FF0F
:5C02E00000000000000000000000000000000000000000000000000000000000000000000000000000000000000000000000000000000000000000000000000000000000000000000000000000000000000000000000000000000000000010FFB3
:5C033C0000000000000000000000000000000000000000000000000000000000000000000000000000000000000000000000000000000000000000000000000000000000000000000000000000000000000000000000000000000000000010FF56
:5C03980002000000000000000000000000000000000000000000000000000000000000000000000000000000000000000000000000000000000000000000000000000000000000000000000000000000000000000000000000000000000030FDDA
:5C03F40000000000000000000000000000000000000000000000000000000000000000000000000000000000000000000000000000000000000000000000000000000000000000000000000000000000000000000000000000000000000010FF9E
:5C04500000000000000000000000000000000000000000000000000000000000000000000000000000000000000000000000000000000000000000000000000000000000000000000000000000000000000000000000000000000000000010FF41
:5C04AC0000000000000000000000000000000000000000000000000000000000000000000000000000000000000000000000000000000000000000000000000000000000000000000000000000000000000000000000000000000000000010FFE5
:5C05080000000000000000000000000000000000000000000000000000000000000000000000000000000000000000000000000000000000000000000000000000000000000000000000000000000000000000000000000000000000000010FF88
:5C05640000000000000000000000000000000000000000000000000000000000000000000000000000000000000000000000000000000000000000000000000000000000000000000000000000000000000000000000000000000000000010FF2C
:5C05C00000000000000000000000000000000000000000000000000000000000000000000000000000000000000000000000000000000000000000000000000000000000000000000000000000000000000000000000000000000000000010FFD0
:5C061C0000000000000000000000000000000000000000000000000000000000000000000000000000000000000000000000000000000000000000000000000000000000000000000000000000000000000000000000000000000000000010FF73
:5C06780000000000000000000000000000000000000000000000000000000000000000000000000000000000000000000000000000000000000000000000000000000000000000000000000000000000000000000000000000000000000010FF17
:5C06D40000000000000000000000000000000000000000000000000000000000000000000000000000000000000000000000000000000000000000000000000000000000000000000000000000000000000000000000000000000000000010FFBB
:5C07300000000000000000000000000000000000000000000000000000000000000000000000000000000000000000000000000000000000000000000000000000000000000000000000000000000000000000000000000000000000000010FF5E
:5C078C0000000000000000000000000000000000000000000000000000000000000000000000000000000000000000000000000000000000000000000000000000000000000000000000000000000000000000000000000000000000000010FF02
:5C07E80000000000000000000000000000000000000000000000000000000000000000000000000000000000000000000000000000000000000000000000000000000000000000000000000000000000000000000000000000000000000010FFA6
:5C08440000000000000000000000000000000000000000000000000000000000000000000000000000000000000000000000000000000000000000000000000000000000000000000000000000000000000000000000000000000000000010FF49
:5C08A00000000000000000000000000000000000000000000000000000000000000000000000000000000000000000000000000000000000000000000000000000000000000000000000000000000000000000000000000000000000000010FFED
:5C08FC0000000000000000000000000000000000000000000000000000000000000000000000000000000000000000000000000000000000000000000000000000000000000000000000000000000000000000000000000000000000000010FF91
:5C09580000000000000000000000000000000000000000000000000000000000000000000000000000000000000000000000000000000000000000000000000000000000000000000000000000000000000000000000000000000000000010FF34
:5C09B40000000000000000000000000000000000000000000000000000000000000000000000000000000000000000000000000000000000000000000000000000000000000000000000000000000000000000000000000000000000000010FFD8
:5C0A100000000000000000000000000000000000000000000000000000000000000000000000000000000000000000000000000000000000000000000000000000000000000000000000000000000000000000000000000000000000000010FF7B
:5C0A6C0000000000000000000000000000000000000000000000000000000000000000000000000000000000000000000000000000000000000000000000000000000000000000000000000000000000000000000000000000000000000010FF1F
:5C0AC80000000000000000000000000000000000000000000000000000000000000000000000000000000000000000000000000000000000000000000000000000000000000000000000000000000000000000000000000000000000000010FFC3
:5C0B240000000000000000000000000000000000000000000000000000000000000000000000000000000000000000000000000000000000000000000000000000000000000000000000000000000000000000000000000000000000000010FF66
:5C0B800000000000000000000000000000000000000000000000000000000000000000000000000000000000000000000000000000000000000000000000000000000000000000000000000000000000000000000000000000000000000010FF0A
:5C0BDC0000000000000000000000000000000000000000000200000000000000000000000000000000000000000000000000000000000000000000000000000000000000000000000000000000000000000000000000000000000000000030FF8C
:5C0C380000000000000000000000000000000000000000000000000000000000000000000000000000000000000000000000000000000000000000000000000000000000000000000000000000000000000000000000000000000000000010FF51
:5C0C940000000000000000000000000000000000000000000000000000000000000000000000000000000000000000000000000000000000000000000000000000000000000000000000000000000000000000000000000000000000000010FFF5
:5C0CF00000000000000000000000000000000000000000000200000000000000000000000000000000000000000000000000000000000000000000000000000000000000000000000000000000000000000000000000000000000000000030FF77
:5C0D4C0000000000000000000000000000000000000000000000000000000000000000000000000000000000000000000000000000000000000000000000000000000000000000000000000000000000000000000000000000000000000010FF3C
:5C0DA80002000000000000000000000000000000000000000000000000000000000000000000000000000000000000000000000000000000000000000000000000000000000000000000000000000000000000000000000000000000000021FCD0
:5C0E040000000000000000000000000000000000000000000000000000000000000000000000000000000000000000000000000000000000000000000000000000000000000000000000000000000000000000000000000000000000000010FF83
:5C0E6000800010000240000800012000048000100002400008000120000480001000024000080001200004800010000000000000012000048000100002400008000120000480001000024000080001200004800010000240000800012000A0FDEE
:5C0EBC00800010000240000800012000048000100002400008000120000480001000024000080001200004800010000000000000012000048000100002400008000120000480001000024000080001200004800010000240000800012000A0FD92
:5C0F180000000000000000000000000000000000000000000000000000000000000000000000000000000000000000000000000000000000000000000000000000000000000000000000000000000000000000000000000000000000000010FF6E
:5C0F740002000000000000000000000000000000000000000000000000000000000000000000000000000000000000000000000000000000000000000000000000000000000000000000000000000000000000000000000000000000000021FC02
:5C0FD00000000000000000000000000000000000000000000000000000000000000000000000000000000000000000000000000000000000000000000000000000000000000000000000000000000000000000000000000000000000000010FFB6
:5C102C0002000000000000000000000000000000000000000000000000000000000000000000000000000000000000000000000000000000000000000000000000000000000000000000000000000000000000000000000000000000000021FC49
:5C10880000000000000000000000000000000000000000000000000000000000000000000000000000000000000000000000000000000000000000000000000000000000000000000000000000000000000000000000000000000000000010FFFD
:5C10E40000000000000000000000000000000000000000000000000000000000000000000000000000000000000000000000000000000000000000000000000000000000000000000000000000000000000000000000000000000000000010FFA1
:5C11400000000000000000000000000000000000000000000000000000000000000000000000000000000000000000000000000000000000000000000000000000000000000000000000000000000000000000000000000000000000000010FF44
:5C119C0000000000000000000000000000000000000000000000000000000000000000000000000000000000000000000000000000000000000000000000000000000000000000000000000000000000000000000000000000000000000010FFE8
:5C11F80002000000000000000000000000000000000000000000000000000000000000000000000000000000000000000000000000000000000000000000000000000000000000000000000000000000000000000000000000000000000021FC7C
:5C12540000000000000000000000000000000000000000000000000000000000000000000000000000000000000000000000000000000000000000000000000000000000000000000000000000000000000000000000000000000000000010FF2F
:5C12B00000000000000000000000000000000000000000000000000000000000000000000000000000000000000000000000000000000000000000000000000000000000000000000000000000000000000000000000000000000000000010FFD3
:5C130C0000000000000000000000000000000000000000000000000000000000000000000000000000000000000000000000000000000000000000000000000000000000000000000000000000000000000000000000000000000000000010FF76
:5C13680002000000000000000000000000000000000000000000000000000000000000000000000000000000000000000000000000000000000000000000000000000000000000000000000000000000000000000000000000000000000021FC0A
:5C13C40000000000000000000000000000000000000000000000000000000000000000000000000000000000000000000000000000000000000000000000000000000000000000000000000000000000000000000000000000000000000010FFBE
:5C14200000000000000000000000000000000000000000000000000000000000000000000000000000000000000000000000000000000000000000000000000000000000000000000000000000000000000000000000000000000000000010FF61
:5C147C0000000000000000000000000000000000000000000000000000000000000000000000000000000000000000000000000000000000000000000000000000000000000000000000000000000000000000000000000000000000000010FF05
:5C14D80000000000000000000000000000000000000000000000000000000000000000000000000000000000000000000000000000000000000000000000000000000000000000000000000000000000000000000000000000000000000010FFA9
:5C15340002000000000000000000000000000000000000000000000000000000000000000000000000000000000000000000000000000000000000000000000000000000000000000000000000000000000000000000000000000000000021FC3C
:5C15900000000000000000000000000000000000000000000000000000000000000000000000000000000000000000000000000000000000000000000000000000000000000000000000000000000000000000000000000000000000000010FFF0
:5C15EC0000000000000000000000000000000000000000000000000000000000000000000000000000000000000000000000000000000000000000000000000000000000000000000000000000000000000000000000000000000000000010FF94
:5C16480000000000000000000000000000000000000000000000000000000000000000000000000000000000000000000000000000000000000000000000000000000000000000000000000000000000000000000000000000000000000010FF37
:5C16A40002000000000000000000000000000000000000000000000000000000000000000000000000000000000000000000000000000000000000000000000000000000000000000000000000000000000000000000000000000000000021FCCB
:5C17000002000000000000000000000000000000000000000000000000000000000000000000000000000000000000000000000000000000000000000000000000000000000000000000000000000000000000000000000000000000000030FD5E
:5C175C0004000000000000000000000000000000000000000000000000000000000000000000000000000000000000000000000000000000000000000000000000000000000000000000000000000000000000000000000000000000000050FBE2
:5C17B80002000000000000000000000000000000000000000000000000000000000000000000000000000000000000000000000000000000000000000000000000000000000000000000000000000000000000000000000000000000000030FDA6
:5C18140002000000000000000000000000000000000000000000000000000000000000000000000000000000000000000000000000000000000000000000000000000000000000000000000000000000000000000000000000000000000030FD49
:5C18700002000000000000000000000000000000000000000000000000000000000000000000000000000000000000000000000000000000000000000000000000000000000000000000000000000000000000000000000000000000000021FCFD
:5C18CC0000000000000000000000000000000000000000000000000000000000000000000000000000000000000000000000000000000000000000000000000000000000000000000000000000000000000000000000000000000000000010FFB1
:5C19280000000000000000000000000000000000000000000000000000000000000000000000000000000000000000000000000000000000000000000000000000000000000000000000000000000000000000000000000000000000000010FF54
:5C19840000000000000000000000000000000000000000000000000000000000000000000000000000000000000000000000000000000000000000000000000000000000000000000000000000000000000000000000000000000000000010FFF8
:5C19E00002000000000000000000000000000000000000000000000000000000000000000000000000000000000000000000000000000000000000000000000000000000000000000000000000000000000000000000000000000000000021FC8C
:5C1A3C0000000000000000000000000000000000000000000000000000000000000000000000000000000000000000000000000000000000000000000000000000000000000000000000000000000000000000000000000000000000000010FF3F
:5C1A980000000000000000000000000000000000000000000000000000000000000000000000000000000000000000000000000000000000000000000000000000000000000000000000000000000000000000000000000000000000000010FFE3
:5C1AF40000000000000000000000000000000000000000000000000000000000000000000000000000000000000000000000000000000000000000000000000000000000000000000000000000000000000000000000000000000000000010FF87
:5C1B500000000000000000000000000000000000000000000000000000000000000000000000000000000000000000000000000000000000000000000000000000000000000000000000000000000000000000000000000000000000000010FF2A
:5C1BAC0002000000000000000000000000000000000000000000000000000000000000000000000000000000000000000000000000000000000000000000000000000000000000000000000000000000000000000000000000000000000021FCBE
:5C1C080000000000000000000000000000000000000000000000000000000000000000000000000000000000000000000000000000000000000000000000000000000000000000000000000000000000000000000000000000000000000010FF71
:5C1C640000000000000000000000000000000000000000000000000000000000000000000000000000000000000000000000000000000000000000000000000000000000000000000000000000000000000000000000000000000000000010FF15
:5C1CC00000000000000000000000000000000000000000000000000000000000000000000000000000000000000000000000000000000000000000000000000000000000000000000000000000000000000000000000000000000000000010FFB9
:5C1D1C0002000000000000000000000000000000000000000000000000000000000000000000000000000000000000000000000000000000000000000000000000000000000000000000000000000000000000000000000000000000000021FC4C
:5C1D780000000000000000000000000000000000000000000000000000000000000000000000000000000000000000000000000000000000000000000000000000000000000000000000000000000000000000000000000000000000000010FF00
:5C1DD40000000000000000000000000000000000000000000000000000000000000000000000000000000000000000000000000000000000000000000000000000000000000000000000000000000000000000000000000000000000000010FFA4
:5C1E300000000000000000000000000000000000000000000000000000000000000000000000000000000000000000000000000000000000000000000000000000000000000000000000000000000000000000000000000000000000000010FF47
:5C1E8C0000000000000000000000000000000000000000000000000000000000000000000000000000000000000000000000000000000000000000000000000000000000000000000000000000000000000000000000000000000000000010FFEB
:5C1EE80002000000000000000000000000000000000000000000000000000000000000000000000000000000000000000000000000000000000000000000000000000000000000000000000000000000000000000000000000000000000021FC7F
:5C1F440000000000000000000000000000000000000000000000000000000000000000000000000000000000000000000000000000000000000000000000000000000000000000000000000000000000000000000000000000000000000010FF32
:5C1FA00000000000000000000000000000000000000000000000000000000000000000000000000000000000000000000000000000000000000000000000000000000000000000000000000000000000000000000000000000000000000010FFD6
:5C1FFC0000000000000000000000000000000000000000000000000000000000000000000000000000000000000000000000000000000000000000000000000000000000000000000000000000000000000000000000000000000000000010FF7A
:5C20580002000000000000000000000000000000000000000000000000000000000000000000000000000000000000000000000000000000000000000000000000000000000000000000000000000000000000000000000000000000000021FC0D
:5C20B40000000000000000000000000000000000000000000000000000000000000000000000000000000000000000000000000000000000000000000000000000000000000000000000000000000000000000000000000000000000000010FFC1
:5C21100000000000000000000000000000000000000000000000000000000000000000000000000000000000000000000000000000000000000000000000000000000000000000000000000000000000000000000000000000000000000010FF64
:5C216C0000000000000000000000000000000000000000000000000000000000000000000000000000000000000000000000000000000000000000000000000000000000000000000000000000000000000000000000000000000000000010FF08
:5C21C80000000000000000000000000000000000000000000000000000000000000000000000000000000000000000000000000000000000000000000000000000000000000000000000000000000000000000000000000000000000000010FFAC
:5C22240002000000000000000000000000000000000000000000000000000000000000000000000000000000000000000000000000000000000000000000000000000000000000000000000000000000000000000000000000000000000021FC3F
:5C22800000000000000000000000000000000000000000000000000000000000000000000000000000000000000000000000000000000000000000000000000000000000000000000000000000000000000000000000000000000000000010FFF3
:5C22DC0000000000000000000000000000000000000000000000000000000000000000000000000000000000000000000000000000000000000000000000000000000000000000000000000000000000000000000000000000000000000010FF97
:5C23380000000000000000000000000000000000000000000000000000000000000000000000000000000000000000000000000000000000000000000000000000000000000000000000000000000000000000000000000000000000000010FF3A
:5C23940002000000000000000000000000000000000000000000000000000000000000000000000000000000000000000000000000000000000000000000000000000000000000000000000000000000000000000000000000000000000021FCCE
:5C23F00000000000000000000000000000000000000000000000000000000000000000000000000000000000000000000000000000000000000000000000000000000000000000000000000000000000000000000000000000000000000010FF82
:5C244C0000000000000000000000000000000000000000000000000000000000000000000000000000000000000000000000000000000000000000000000000000000000000000000000000000000000000000000000000000000000000010FF25
:5C24A80000000000000000000000000000000000000000000000000000000000000000000000000000000000000000000000000000000000000000000000000000000000000000000000000000000000000000000000000000000000000010FFC9
:5C25040000000000000000000000000000000000000000000000000000000000000000000000000000000000000000000000000000000000000000000000000000000000000000000000000000000000000000000000000000000000000010FF6C
:5C25600002000000000000000000000000000000000000000000000000000000000000000000000000000000000000000000000000000000000000000000000000000000000000000000000000000000000000000000000000000000000021FC00
:5C25BC0000000000000000000000000000000000000000000000000000000000000000000000000000000000000000000000000000000000000000000000000000000000000000000000000000000000000000000000000000000000000010FFB4
:5C26180000000000000000000000000000000000000000000000000000000000000000000000000000000000000000000000000000000000000000000000000000000000000000000000000000000000000000000000000000000000000010FF57
:5C26740000000000000000000000000000000000000000000000000000000000000000000000000000000000000000000000000000000000000000000000000000000000000000000000000000000000000000000000000000000000000010FFFB
:5C26D000800010000240000800012000048000100002400008000120000480001000024000080001200004800010000000000000012000048000100002400008000120000480001000024000080001200004800010000240000800012000A0FD66
:5C272C00800010000240000800012000048000100002400008000120000480001000024000080001200004800010000000000000012000048000100002400008000120000480001000024000080001200004800010000240000800012000A0FD09
:5C27880000000000000000000000000000000000000000000000000000000000000000000000000000000000000000000000000000000000000000000000000000000000000000000000000000000000000000000000000000000000000010FFE6
:5C27E40000000000000000000000000000000000000000000000000000000000000000000000000000000000000000000000000000000000000000000000000000000000000000000000000000000000000000000000000000000000000010FF8A
:5C28400000000000000000000000000000000000000000000000000000000000000000000000000000000000000000000000000000000000000000000000000000000000000000000000000000000000000000000000000000000000000010FF2D
:5C289C0000000000000000000000000000000000000000000000000000000000000000000000000000000000000000000000000000000000000000000000000000000000000000000000000000000000000000000000000000000000000010FFD1
:5C28F80000000000000000000000000000000000000000000000000000000000000000000000000000000000000000000000000000000000000000000000000000000000000000000000000000000000000000000000000000000000000010FF75
:5C29540000000000000000000000000000000000000000000000000000000000000000000000000000000000000000000000000000000000000000000000000000000000000000000000000000000000000000000000000000000000000010FF18
:5C29B00000000000000000000000000000000000000000000000000000000000000000000000000000000000000000000000000000000000000000000000000000000000000000000000000000000000000000000000000000000000000010FFBC
:5C2A0C0000000000000000000000000000000000000000000000000000000000000000000000000000000000000000000000000000000000000000000000000000000000000000000000000000000000000000000000000000000000000010FF5F
:5C2A680000000000000000000000000000000000000000000000000000000000000000000000000000000000000000000000000000000000000000000000000000000000000000000000000000000000000000000000000000000000000010FF03
:5C2AC40000000000000000000000000000000000000000000000000000000000000000000000000000000000000000000000000000000000000000000000000000000000000000000000000000000000000000000000000000000000000010FFA7
:5C2B200000000000000000000000000000000000000000000000000000000000000000000000000000000000000000000000000000000000000000000000000000000000000000000000000000000000000000000000000000000000000010FF4A
:5C2B7C0000000000000000000000000000000000000000000000000000000000000000000000000000000000000000000000000000000000000000000000000000000000000000000000000000000000000000000000000000000000000010FFEE
:5C2BD80000000000000000000000000000000000000000000000000000000000000000000000000000000000000000000000000000000000000000000000000000000000000000000000000000000000000000000000000000000000000010FF92
:5C2C340000000000000000000000000000000000000000000000000000000000000000000000000000000000000000000000000000000000000000000000000000000000000000000000000000000000000000000000000000000000000010FF35
:5C2C900000000000000000000000000000000000000000000000000000000000000000000000000000000000000000000000000000000000000000000000000000000000000000000000000000000000000000000000000000000000000010FFD9
:5C2CEC0000000000000000000000000000000000000000000000000000000000000000000000000000000000000000000000000000000000000000000000000000000000000000000000000000000000000000000000000000000000000010FF7D
:5C2D480000000000000000000000000000000000000000000000000000000000000000000000000000000000000000000000000000000000000000000000000000000000000000000000000000000000000000000000000000000000000010FF20
:5C2DA40000000000000000000000000000000000000000000000000000000000000000000000000000000000000000000000000000000000000000000000000000000000000000000000000000000000000000000000000000000000000010FFC4
:5C2E000000000000000000000000000000000000000000000000000000000000000000000000000000000000000000000000000000000000000000000000000000000000000000000000000000000000000000000000000000000000000010FF67
:5C2E5C0000000000000000000000000000000000000000000000000000000000000000000000000000000000000000000000000000000000000000000000000000000000000000000000000000000000000000000000000000000000000010FF0B
:5C2EB80000000000000000000000000000000000000000000000000000000000000000000000000000000000000000000000000000000000000000000000000000000000000000000000000000000000000000000000000000000000000010FFAF
:5C2F140000000000000000000000000000000000000000000000000000000000000000000000000000000000000000000000000000000000000000000000000000000000000000000000000000000000000000000000000000000000000010FF52
:5C2F700000000000000000000000000000000000000000000000000000000000000000000000000000000000000000000000000000000000000000000000000000000000000000000000000000000000000000000000000000000000000010FFF6
:5C2FCC0000000000000000000000000000000000000000000000000000000000000000000000000000000000000000000000000000000000000000000000000000000000000000000000000000000000000000000000000000000000000010FF9A
:5C30280000000000000000000000000000000000000000000000000000000000000000000000000000000000000000000000000000000000000000000000000000000000000000000000000000000000000000000000000000000000000010FF3D
:5C30840000000000000000000000000000000000000000000000000000000000000000000000000000000000000000000000000000000000000000000000000000000000000000000000000000000000000000000000000000000000000010FFE1
:5C30E00000000000000000000000000000000000000000000000000000000000000000000000000000000000000000000000000000000000000000000000000000000000000000000000000000000000000000000000000000000000000010FF85
:5C313C0000000000000000000000000000000000000000000000000000000000000000000000000000000000000000000000000000000000000000000000000000000000000000000000000000000000000000000000000000000000000010FF28
:5C31980000000000000000000000000000000000000000000000000000000000000000000000000000000000000000000000000000000000000000000000000000000000000000000000000000000000000000000000000000000000000010FFCC
:5C31F40000000000000000000000000000000000000000000000000000000000000000000000000000000000000000000000000000000000000000000000000000000000000000000000000000000000000000000000000000000000000010FF70
:5C32500000000000000000000000000000000000000000000000000000000000000000000000000000000000000000000000000000000000000000000000000000000000000000000000000000000000000000000000000000000000000010FF13
:5C32AC0000000000000000000000000000000000000000000000000000000000000000000000000000000000000000000000000000000000000000000000000000000000000000000000000000000000000000000000000000000000000010FFB7
:5C33080000000000000000000000000000000000000000000000000000000000000000000000000000000000000000000000000000000000000000000000000000000000000000000000000000000000000000000000000000000000000010FF5A
:5C33640000000000000000000000000000000000000000000000000000000000000000000000000000000000800000000000000000000000000000000000000000000000000000000000000000000000000000000000000000000000000090F706
:5C33C00000000000000000000000000000000040000000000000000000000000000000000020000000000000040000000000000000000000000000000000000000000000000000000000000000000000000000000000000000000000000070FBE2
:5C341C0008000000000000000000000000000000000000000000000000000000000000000000000000000000000000000000000000000000000000000000000000000000000000000000000000000000000000000000000000000000000090F7C5
:5C34780000000000000000000000000000000000000000000000000000000000000000000000000000000000000000000000000000000000000000000000000000000000000000000000000000000000000000000000000000000000000010FFE9
:5C34D40000000000000000000000000000000000000000000000000000000000000000000000000000000000000000000000000000000000000000000000000000000000000000000000000000000000000000000000000000000000000010FF8D
:5C35300000000000000000000000000000000000000000000000000000000000000000000000000000000000000000000000000000000000000000000000000000000000000000000000000000000000000000000000000000000000000010FF30
:5C358C0000000000000000000000000000000000000000000000000000000000000000000000000000000000000000000000000000000000000000000000000000000000000000000000000000000000000000000000000000000000000010FFD4
:5C35E80000000000000000000000000000000000100000000008000000000000000000000000080000000000000000000000000000000000000000000000000000000000000000000000000000000000000000000000000000000000000080FEE9
:5C36440000000000000000000000000000000000000000000000000000000000000000000000000000000000000000000000000000000000000000000000000000000000000000000000000000000000000000000000000000000000000010FF1B
:5C36A000000000000000000000000000000000000000000000000000000000000000004000000000000000800010000000000000000000000000000000000000000000000000000000000000000000000000000000000000000000000000D0FA34
:5C36FC0000000000000000000000000000000000000000000000000000000000000000000000000000000000000000000000000000000000000000000000000000000000000000000000000000000000000000000000000000000000000010FF63
:5C37580000000000000000000000000000000000000000000000000000000000000000000000000000000000000000000000000000000000000000000000000000000000000000000000000000000000000000000000000000000000000010FF06
:5C37B40000000000000000000000000000000000000000000010100000000000000000000000000000000000048000000000000000000000000000000000000000000000000000000000000000000000000000000000000000000000000010F213
:5C381000000000000000000000000000000000000800000000040000000000000000000040000400000000008000100000000000000000000000000000000000000000000000000000000000000000000000000000000000000000000000C0FBC1
:5C386C0000000000000000000000000000000000000000000000000000000000000000000000000000000000000000000000000000000000000000000000000000000000000000000000000000000000000000000000000000000000000010FFF1
:5C38C80000000000000000000000000000000000000000000000000000000000000000000000000000000000000000000000000000000000000000000000000000000000000000000000000000000000000000000000000000000000000010FF95
:5C39240000000000000000000000000000000000000000000000000000000000000000000000000000000000000000000000000000000000000000000000000000000000000000000000000000000000000000000000000000000000000010FF38
:5C39800000000000000000000000000000000000000000000000000000000000000000000000000000000000000000000000000000000000000000000000000000000000000000000000000000000000000000000000000000000000000010FFDC
:5C39DC0010000000000000000000000000000004000000004000000000000000000000000002000000000000000000000000000000000000000000000000000000000000000000000000000000000000000000000000000000000000000060FDDC
:5C3A380000000000000000000000000000000000000000000000000000000000000000000000000000000000024000000000000000000000000000000000000000000000000000000000000000000000000000000000000000000000000010F9E7
:5C3A940000000000000000000000000000000000000000000000000000000000000000000000000000000000000000000000000000000000000000000000000000000000000000000000000000000000000000000000000000000000000010FFC7
:5C3AF00000000000000000000000000000000000000000000000000000000000000000000000000000000000000000000000000000000000000000000000000000000000000000000000000000000000000000000000000000000000000010FF6B
:5C3B4C00180000000000000000200000000000000200000000010000000000000000000000000100000000000000000000000000000000000000000000000000000000000000000000000000000000000000000000000000000000000000B0F53C
:5C3BA80000000000000000000010000000000000010000008000000000000000000000000080000000000000000000000000000000000000000000000000000000000000000000000000000000000000000000000000000000000000000080F63A
:5C3C040000080001000000004010000040001000000000000000C001000100080000208000800001000240008100050000000000000000000000000000000000000000000000000000000000000000000000000000000000000000000000E0F434
:5C3C600000000000000000000000000000000000000000000800000000010000000000000000000000000000000000000000000000000000000000000000000000000000000000000000000000000000000000000000000000000000000090FE71
:5C3CBC0000000000000000000000000000004000000000001000000000000000000000000000000000000000000000000000000000000000000000000000000000000000000000000000000000000000000000000000000000000000000010FA52
:5C3D1800000800010000000000000000400010000000000000008001000000080000208000000000000240000100010000000000000000000000000000000000000000000000000000000000000000000000000000000000000000000000E0F9B0
:5C3D740000000000000000004010000000004000000000001000400000000000000000000080000100000000810000000000000000000000000000000000000000000000000000000000000000000000000000000000000000000000000050F3CE
:5C3DD00002000000000000000000000000000000000000000000000000000000000000000000000000000000000000000000000000000000000000000000000000000000000000000000000000000000000000000000000000000000000030FD68
:5C3E2C0002000000000000000000000000000000000000000000000000000000000000000000000000000000000000000000000000000000000000000000000000000000000000000000000000000000000000000000000000000000000021FC1B
:5C3E8800840010000240000800012000048000100002400008000120000480001000024000080001200004800010000000000000012000048000100002400008000120000480001000024000080001200004800010000240000800012000F1F846
:5C3EE40082001000024000080001200004800010000240000800012000048000100002400008000120000480001000000000000001200004800010000240000800012000048000100002400008000120000480001000024000080001200091FE46
:5C3F400002000000000000000000000000000050000000001804830000000000000000000008000000000080413000000000000000000000000000000000000000000000000000000000000000000000000000000000000000000000000071FCCE
:5C3F9C000200000000000000000000000000003C000000001EC000000000000000000000001E200000000060007C200000000000000000000000000000000000000000000000000000000000000000000000000000000000000000000000B0FBC8
:5C3FF800000000000000000000000000000000200200000018084000000000000000000000100200000000004030080000000000000000000000000000000000000000000000000000000000000000000000000000000000000000000000A0FDC4
:5C40540002000000000000000000000000000008000000001C800700000000000000000000240000000000C00378000000000000000000000000000000000000000000000000000000000000000000000000000000000000000000000000C1F251
:5C40B0000200000000000000000000000000002000000000180000000000000000000000001000000000008000B000000000000000000000000000000000000000000000000000000000000000000000000000000000000000000000000000F743
:5C410C0004000000000000000000000000000000100000001800830000000000000000000000080000000000017100000000000000000000000000000000000000000000000000000000000000000000000000000000000000000000000050FEE0
:5C41680002000000000000000000000000000010000000000000030000000000000000000088000000000000010000000000000000000000000000000000000000000000000000000000000000000000000000000000000000000000000020F746
:5C41C400020000000000000000000000000000700100000000000000000000000000000000180000000000800A3000000000000000000000000000000000000000000000000000000000000000000000000000000000000000000000000050FD0D
:5C42200002000000000000000000000000000000200000001808000000000000000000000018100000000000003008000000000000000000000000000000000000000000000000000000000000000000000000000000000000000000000001F5AA
:5C427C000000000000000000C00701000000000C000000003E0000000000000000000000001E000000000060020D00000000000000000000000000000000000000000000000000000000000000000000000000000000000000000000000000F651
:5C42D80000000000000000000003040000000000000000001810000000000000000000000018000000000000020000000000000000000000000000000000000000000000000000000000000000000000000000000000000000000000000020F32E
:5C43340000000000000000008000000000000048040000003C0000000000000000000000003C020000000040007802000000000000000000000000000000000000000000000000000000000000000000000000000000000000000000000000F33A
:5C43900002000000000000000003000000000008100000001800000000000000000000000018080000000040002104000000000000000000000000000000000000000000000000000000000000000000000000000000000000000000000090F097
:5C43EC0000000000000000000000010000000000000000001800000000000000000000000018000000000000005000000000000000000000000000000000000000000000000000000000000000000000000000000000000000000000000011F3F0
:5C444800000000000000000000000000000000300800000000000000000000000000000000000400000000800110010000000000000000000000000000000000000000000000000000000000000000000000000000000000000000000000A1F3B6
:5C44A40000000000000000000003000000000010000000000000000000000000000000000010000000000080826000000000000000000000000000000000000000000000000000000000000000000000000000000000000000000000000031F115
:5C45000000000000000000000000000000000000000000001000830000000000000000000000100000000080013008000000000000000000000000000000000000000000000000000000000000000000000000000000000000000000000091FF73
:5C455C000200000000000000000000000000004C100000000EC8000000000000000000F002060000000000E0120C00000000000000000000000000000000000000000000000000000000000000000000000000000000000000000000000080F267
:5C45B80000000000000000000000000000000000400000000810000000000000000000C000000000000000802100000000000000000000000000000000000000000000000000000000000000000000000000000000000000000000000000A0F45A
:5C461400000000000000000000000000000000080000000034800704000000000000002041240200000000C0023808000000000000000000000000000000000000000000000000000000000000000000000000000000000000000000000080FA80
:5C46700000000000000000000000000000000038200000001808020100000000000000C080040800000000C00111000000000000000000000000000000000000000000000000000000000000000000000000000000000000000000000000C0F69F
:5C46CC0000000000000000000000000000000070000000002000010000000000000000000000000000000080026008000000000000000000000000000000000000000000000000000000000000000000000000000000000000000000000071F1B5
:5C47280002000000000000000000000000000030000000000000090000000000000000000018040000000000102000000000000000000000000000000000000000000000000000000000000000000000000000000000000000000000000080FB33
:5C47840002000000000000000000000000000000000000003804020000000000000000C000080000000000000010010000000000000000000000000000000000000000000000000000000000000000000000000000000000000000000000A0FC24
:5C47E000020000000000000000030000000000300400000018000000000000000000000000000000000000808100000000000000000000000000000000000000000000000000000000000000000000000000000000000000000000000000B0F289
:5C483C000200000000000000C00701000000001C000000001E000000000000000000000000260800000000E0004C20000000000000000000000000000000000000000000000000000000000000000000000000000000000000000000000030F082
:5C48980000000000000000000003040000000030020000000000000000000000000000000000200000000080010008000000000000000000000000000000000000000000000000000000000000000000000000000000000000000000000021F0D1
:5C48F400000000000000000080030000000000580000000000000000000000000000000000040000000000C0024A000000000000000000000000000000000000000000000000000000000000000000000000000000000000000000000000D0FEAF
:5C49500000000000000000000003000000000030000000001800000000000000000000000018100000000080010820000000000000000000000000000000000000000000000000000000000000000000000000000000000000000000000030F5CA
:5C49AC0000000000000000000003000000000010400000001800000000000000000000000038000000000080400000000000000000000000000000000000000000000000000000000000000000000000000000000000000000000000000080F5D7
:5C4A0800020000000000000000000000000000000400000000000000000000000000000000180000000000000030000000000000000000000000000000000000000000000000000000000000000000000000000000000000000000000000A0F272
:5C4A640000000000000000000000000000000040000000000000000000000000000000000000000000000000425010000000000000000000000000000000000000000000000000000000000000000000000000000000000000000000000011FD06
:5C4AC00000000000000000000003000000000030080000001000030000000000000000000040000000000080013004000000000000000000000000000000000000000000000000000000000000000000000000000000000000000000000081F1E5
:5C4B1C000000000000000000C01300000000001C0000000016C00F00000000000000000000260000000000E0825C000000000000000000000000000000000000000000000000000000000000000000000000000000000000000000000000B1FADA
:5C4B7800000000000000000000030000000000301000000008000B0000000000000000000000000000000080013100000000000000000000000000000000000000000000000000000000000000000000000000000000000000000000000001F5E3
:5C4BD4000200000000000000800F0000000000180000000008800700000000000000000000040800000000C0005802000000000000000000000000000000000000000000000000000000000000000000000000000000000000000000000070FEB9
:5C4C30000000000000000000000300000000003820000000380007000000000000000000001C1000000000C0113002000000000000000000000000000000000000000000000000000000000000000000000000000000000000000000000000FE61
:5C4C8C00000000000000000000030100000000500000000008000300000000000000000000280000000000800010000000000000000000000000000000000000000000000000000000000000000000000000000000000000000000000000D0F7EE
:5C4CE800000000000000000000000000000000004000000018000300000000000000000000002000000000000001200000000000000000000000000000000000000000000000000000000000000000000000000000000000000000000000C0FB19
:5C4D440000000000000000000003000000000000000000000820000000000000000000000000000000000000024000000000000000000000000000000000000000000000000000000000000000000000000000000000000000000000000080FA2C
:5C4DA00002000000000000000080000000000000000000001000810000000000000000C020001000000000800130080000000000000000000000000000000000000000000000000000000000000000000000000000000000000000000000F1F119
:5C4DFC000200000000000000C00300000000004C1000000008C0020000000000000000F000060000000000E0120C00000000000000000000000000000000000000000000000000000000000000000000000000000000000000000000000061F625
:5C4E580002000000000000000003010000000000040000000800010000000000000000C000000000000000802100020000000000000000000000000000000000000000000000000000000000000000000000000000000000000000000000D1F6C1
:5C4EB400020000000000000080000000000000480000000008800E0000000000000000E081240200000000C0023800000000000000000000000000000000000000000000000000000000000000000000000000000000000000000000000031F39D
:5C4F10000000000000000000000B000000000030000000001000010000000000000000C020000800000000800120200000000000000000000000000000000000000000000000000000000000000000000000000000000000000000000000F0F16F
:5C4F6C0000000000000000000000000000000030400000000808060200000000000000C00100000000000080425000000000000000000000000000000000000000000000000000000000000000000000000000000000000000000000000050FA44
:5C4FC80000000000000000000000000000000030000000002800020000000000000000C000180400000000000010000000000000000000000000000000000000000000000000000000000000000000000000000000000000000000000000F0FE59
:5C5024000000000000000000000300000000000000000000080041000000000000000000000800000000000040E000000000000000000000000000000000000000000000000000000000000000000000000000000000000000000000000020FBA1
:5C50800002000000000000000003000000000020020000001800030000000000000000002000000000000080010000000000000000000000000000000000000000000000000000000000000000000000000000000000000000000000000020FDD4
:5C50DC000000000000000000C01000000000007C0000000008C04300000000000000003000260800000000E0126C100000000000000000000000000000000000000000000000000000000000000000000000000000000000000000000000F1F173
:5C51380000000000000000000000000000000010040000001800030000000000000000001000020000000080210020000000000000000000000000000000000000000000000000000000000000000000000000000000000000000000000011F810
:5C519400000000000000000080870000000000080000000018800702000000000000002000240000000000C0022800000000000000000000000000000000000000000000000000000000000000000000000000000000000000000000000051F997
:5C51F0000000000000000000002200000000001000000000180003000000000000000020081C0000000000C0010002000000000000000000000000000000000000000000000000000000000000000000000000000000000000000000000001F31B
:5C524C00020000000000000000010000000000001000000028020300000000000000000000182000000000804220000000000000000000000000000000000000000000000000000000000000000000000000000000000000000000000000E0F0DC
:5C52A80000000000000000000001000000000020000000001810000000000000000000C080180000000000000030200000000000000000000000000000000000000000000000000000000000000000000000000000000000000000000000C0F009
:5C530400000000000000000000020100000000F0000000001800000000000000000000400100000000000000407000000000000000000000000000000000000000000000000000000000000000000000000000000000000000000000000050FA07
:5C536000000000000000000000230000000000302000000018004300000000000000000000180100000000800130000000000000000000000000000000000000000000000000000000000000000000000000000000000000000000000000C0F3A6
:5C53BC000200000000000000C00300000000003C0000000008C007000000000000000030812E0000000000E0027E20000000000000000000000000000000000000000000000000000000000000000000000000000000000000000000000070F9FD
:5C54180000000000000000000003000000000030000000001800030000000000000000002018020000000080813008000000000000000000000000000000000000000000000000000000000000000000000000000000000000000000000091F5F1
:5C5474000000000000000000808700000000007804000000088083000000000000000020010C0000000000C0007800000000000000000000000000000000000000000000000000000000000000000000000000000000000000000000000031FFB9
:5C54D000000000000000000000030000000000B0000000001800030000000000000000008018010000000080013020000000000000000000000000000000000000000000000000000000000000000000000000000000000000000000000031FC1B
:5C552C000000000000000000000300000000003000000000A800030000000000000000000008000000000080003100000000000000000000000000000000000000000000000000000000000000000000000000000000000000000000000091FFFC
:5C55880002000000000000000000000000000030000000009800000000000000000000C00020000000000000400000000000000000000000000000000000000000000000000000000000000000000000000000000000000000000000000020FCC1
:5C55E4000200000000000000000000000000000000000000280000000000000000000040410000000000000002601000000000000000000000000000000000000000000000000000000000000000000000000000000000000000000000005AF103
:5C5640000800000000000000000000000000000000000000000000000000000000000000000000000000000000000000000000000000000000000000000000000000000000000000000000000000000000000000000000000000000000006FF89F
:5C569C0000000000000000000000000000000000000000000000000000000000000000000000000000000000000000000000000000000000000000000000000000000000000000000000000000000000000000000000000000000000000010FFA3
:5C56F800800010000240000800012000048000100002400008000120000480001000024000080001200004800010000000000000012000048000100002400008000120000480001000024000080001200004800010000240000800012000A0FD0E
:5C575400800010000240000800012000048000100002400008000120000480001000024000080001200004800010000000000000012000048000100002400008000120000480001000024000080001200004800010000240000800012000A0FDB1
:5C57B00000000000000000004200000000000000000000000048040000000000000000000000080000000000820000000000000000000000000000000000000000000000000000000000000000000000000000000000000000000000000070F520
:5C580C0000000000000000000002000000000020000000000000000000000000000000000000000000000000000000000000000000000000000000000000000000000000000000000000000000000000000000000000000000000000000010FD11
:5C586800200000000020000000000000102000000001000000000080000000000400008000004000000000200004000000000000000000000000000000000000000000000000000000000000000000000000000000000000000000000000B0FF5C
:5C58C400000000000000008002000000000000000000000000004000000000000000000000000000000000000000000000000000000000000000000000000000000000000000000000000000000000000000000000000000000000000000F0F3E3
:5C592000200000000020008040020000102000200001000000480480000000000400000000004800000000208204040000000000000000000000000000000000000000000000000000000000000000000000000000000000000000000000B0F373
:5C597C0000000000000000000000000000000000000000000000000000000000000000000000000000000000000000000000000000000000000000000000000000000000000000000000000000000000000000000000000000000000000010FFC0
:5C59D80000000000000000000020000000000000020000000001000000000000000000000000010000000000000000000000000000000000000000000000000000000000000000000000000000000000000000000000000000000000000020FD32
:5C5A340000000000000000000000000000000000200000000000000000000000000000000000100000000000000000000000000000000000000000000000000000000000000000000000000000000000000000000000000000000000000020FCCA
:5C5A900000000000000000000000000000000010000000000000000000000000000000000008000000000000000000000000000000000000000000000000000000000000000000000000000000000000000000000000000000000000000080F72B
:5C5AEC0000000000000000000048000000000040000000002000000000000000000000002020000000000000480009000000000000000000000000000000000000000000000000000000000000000000000000000000000000000000000060F2D3
:5C5B4800000000000000000000000000000000002000000000020400000000000000000020001000000000004000080000000000000000000000000000000000000000000000000000000000000000000000000000000000000000000000C0F4AF
:5C5BA40000000000000000000000000000000000000000000200020400000000000000001000000000000040200A040000000000000000000000000000000000000000000000000000000000000000000000000000000000000000000000F0FA35
:5C5C0000000000000000000000010200000000080000000000000000000000000000000000040000000000000000000000000000000000000000000000000000000000000000000000000000000000000000000000000000000000000000C0F089
:5C5C5C0000000000000000000000000000000000000000000000000000000000000000000000000000000000000000000000000000000000000000000000000000000000000000000000000000000000000000000000000000000000000010FFDD
:5C5CB80000000000000000000000000000000000000000000000000000000000000000000000000000000000000000000000000000000000000000000000000000000000000000000000000000000000000000000000000000000000000010FF81
:5C5D140000000000000000000000000000000000000000000000800000000000000000000000000000000000000000000000000000000000000000000000000000000000000000000000000000000000000000000000000000000000000090F72C
:5C5D700000000000000000000000000000000000000000000000000000000000000000000000000000000000000000000000000000000000000000000000000000000000000000000000000000000000000000000000000000000000000010FFC8
:5C5DCC0000000000000000000000000000000000000000000000000000000000000000000000000000000000000000000000000000000000000000000000000000000000000000000000000000000000000000000000000000000000000010FF6C
:5C5E280000000000000000000000000000000000000000000000000000000000000000000000000000000000000000000000000000000000000000000000000000000000000000000000000000000000000000000000000000000000000010FF0F
:5C5E840000000000000000000000000000000000000000000000000000000000000000000000000000000000000000000000000000000000000000000000000000000000000000000000000000000000000000000000000000000000000010FFB3
:5C5EE00000000000000000000000000000000000000000000000000000000000000000000000000000000000000000000000000000000000000000000000000000000000000000000000000000000000000000000000000000000000000010FF57
:5C5F3C0000000000000000000000000000000000040000000000000000000000000000000000020000000020000000000000000000000000000000000000000000000000000000000000000000000000000000000000000000000000000030F9BA
:5C5F980000000000000000000000000000000020000000000000000000000000000000000210000000000000008000000000000000000000000000000000000000000000000000000000000000000000000000000000000000000000000000F704
:5C5FF40000000000000000000000000000000000000000000000000000000000000000000000000000000000000000000000000000000000000000000000000000000000000000000000000000000000000000000000000000000000000010FF42
:5C60500000000000000000000000000000000000000000000000000000000000000000000000000000000000000000000000000000000000000000000000000000000000000000000000000000000000000000000000000000000000000010FFE5
:5C60AC0000000000000000000000000000000000000000000000000000000000000000000000000000000000000000000000000000000000000000000000000000000000000000000000000000000000000000000000000000000000000010FF89
:5C61080000000000000000000000000000000000000000000000000000000000000000000000000000000000000000000000000000000000000000000000000000000000000000000000000000000000000000000000000000000000000010FF2C
:5C61640000000000000000000000000000000000000000000040000000000000000000000000000000000000000000000000000000000000000000000000000000000000000000000000000000000000000000000000000000000000000050FF50
:5C61C000000000000000000000000000000000000000000000003000000000000000008004000000000000001800010000000000000000000000000000000000000000000000000000000000000000000000000000000000000000000000E0FCDA
:5C621C0000000000000000000000000000000000000000000000000000000000000000000000000000000000000000000000000000000000000000000000000000000000000000000000000000000000000000000000000000000000000010FF17
:5C62780000000000000000000000000000000000000000000000000000000000000000000000000000000000000000000000000000000000000000000000000000000000000000000000000000000000000000000000000000000000000010FFBB
:5C62D40000000000000000000000000000000000000000000000000000000000000000000000000000000000000000000000000000000000000000000000000000000000000000000000000000000000000000000000000000000000000010FF5F
:5C63300000000000000000000000000000000000000000000000000000000000000000000000000000000000000000000000000000000000000000000000000000000000000000000000000000000000000000000000000000000000000010FF02
:5C638C0000000000000000000000000000000000000000000000000000000000000000000000000000000000000000000000000000000000000000000000000000000000000000000000000000000000000000000000000000000000000010FFA6
:5C63E80000000000000000000000000000000000000000000000000000000000000000000000000000000000000000000000000000001000000000000000000000000000000000000000008000000000000000000000000000000000000010F6C3
:5C64440000000000000000000000000000000000000000000000000000000000000000000000000000000000000000000000000000000000000000000000000000000000000000000000000000000000000000000000000000000000000010FFED
:5C64A00000000000000000000000000000000000000000000000000000000000000000000000000000000000000000000000000000000000000000000000000000000000000000000000000000000000000000000000000000000000000010FF91
:5C64FC0000000000000000000000000000000000000000000000000000000000000000000000000000000000000000000000000000000000000000000000000000000000000000000000000000000000000000000000000000000000000010FF35
:5C65580000000000000000000000000000000000000000000000000000000000000000000000000000000000000000000000000000000000000000000000000000000000000000000000000000000000000000000000000000000000000010FFD8
:5C65B40000000000000000000000000000000000000000000000000000000000000000000000000000000000000000000000000000000000000000000000000000000000000000000000000000000000000000000000000000000000000010FF7C
:5C66100000000000000000000000000000000000000000000000000000000000000000000000000000000000000000000000000000000000000000000000000000000000000000000000000000000000000000000000000000000000000010FF1F
:5C666C0000000000000000000000000000000000000000000000000000000000000000000000000000000000000000000000000000000000000000000000000000000000000000000000000000000000000000000000000000000000000010FFC3
:5C66C80000000000000000000000000000000000000000000000000000000000000000000000000000000000000000000000000000000000000000000000000000000000000000000000000000000000000000000000000000000000000010FF67
:5C67240002000000000000000000000000000000000000000000000000000000000000000000000000000000000000000000000000000000000000000000000000000000000000000000000000000000000000000200000000000000000010FD08
:5C67800000000000000000000000000000000000000000000000000000000000000000000000000000000000000000000000000000004000080000000000000000000000000000000000000000000000000000000000000000000000000010F372
:5C67DC0000000000000000000000000000000000000000000000000000000000000000000000000000000000000000000000000000000200000000000000000000000000000000000000000000000000000000000000000000000000000030FF30
:5C68380000000000000000000000000000000000000000000000000000000000000000000000000000000000000000000000000000000000000000000000000000000000000000000000000000000000000000000000000000000000000010FFF5
:5C68940000000000000000000000000000000000000000000000000000000000000000000000000000000000000000000000000000000000000000000000000000000000000000000000000000000000000000000000000000000000000010FF99
:5C68F00000000000000000000000000000000000000000000000000000000000000000000000000000000000000000000000000000000000000000000000000000000000000000000000000000000000000000000000000000000000000010FF3D
:5C694C0000000000000000000000000000000000000000000000000000000000000000000000000000000000000000000000000000000000000000000000000000000000000000000000000000000000000000000000000000000000000010FFE0
:5C69A80000000000000000000000000000000000000000000000000000000000000000000000000000000000000000000000000000000000000000000000000000000000000000000000000000000000000000000000000000000000000010FF84
:5C6A040000000000000000000000000000000000000000000000000000000000000000000000000000000000000000000000000000000000000000000000000000000000000000000000000000000000000000000000000000000000000010FF27
:5C6A600000000000000000000000000000000000000000000000000000000000000000000000000000000000000000000000000000000800010000000000000000000000000000000000000000000000000000800000000000000000000010F64B
:5C6ABC0000000000000000000000000000000000000000000000000000000000000000000000000000000000000000000000000000000000000000000000000000000000000000000000000000000000000000000000000000000000000010FF6F
:5C6B180000000000000000000000000000000000000000000000000000000000000000000000000000000000000000000000000000000000000000000000000000000000000000000000000000000000000000000000000000000000000010FF12
:5C6B740000000000000000000000000000000000000000000000000000000000000000000000000000000000000000000000000000000000000000000000000000000000000000000000000000000000000000000000000000000000000010FFB6
:5C6BD00000000000000000000000000000000000000000000000000000000000000000000000000000000000000000000000000000000120000000000000000000000000000000000000000200000000000000040000000000000000000000FB47
:5C6C2C00000000000000000000000000000000000000000000000000000000000000000000000000000000000000000000000000000000000008000000000080000000000000000000002024000100000000000000000000000000100800E0FE49
:5C6C880000000000000000000000000000000000000000000000000000000000000000000000000000000000000000000000000000000000000000000000000000000000000000000000000000000000000000000000000000000000080010F7A1
:5C6CE40000000000000000000000000000000000000000000000000000000000000000000000000000000000000000000000000000001000000000000000000000000000000000000000000000000000000800000000000000000000000090FEAE
:5C6D4000000000000000000000000000000000000000000000000000000000000000000000000000000000000000000000000000000000000008000000000080000000000000000000000024000000000000000000000000000000100000C0F586
:5C6D9C00000000000000000000000000000000000000000000000000000000000000000000000000000000000000000000000000000000000000000000000000000000000000000000002000000300000008000000000000000000000000B0FEC2
:5C6DF80002000000000000000000000000000000000000000000000000000000000000000000000000000000000000000000000000000000000000000000000000000000000000000000000000000000000000000000000000000000000030FD10
:5C6E540000000000000000000000000000000000000000000000000000000000000000000000000000000000000000000000000000000000000000000000000000000000000000000000000000000000000000000000000000000000000001FEE3
:5C6EB000800010000240000800012000048000100002400008000120000480001000024000080001200004800010000000000000012000048000100002400008000120000480001000024000080001200004800010000240000800012000B1FC2E
:5C6F0C00800010000240000800012000048000100002400008000120000480001000024000080001200004800010000000000000012000048000100002400008000120000480001000024000080001200004800010000240000800012000B1FCD1
:5C6F680000000000000000000000000000000000000000000000000000000000000000000000000000000000000000000000000000A00000000000000000000000000000000000000000400100000000000080010000000000000000000071F109
:5C6FC40002000000000000000000000000000000000000000000000000000000000000000000000000000000000000000000000000D80000000000000000000000000000000000000000B001000000000000E0030200000000000000000080F091
:5C702000000000000000000000000000000000000000000000000000000000000000000000000000000000000000000000000000002000000000000000000000000000000000000000004002000000000000800100000000000000000000D0F869
:5C707C0000000000000000000000000000000000000000000000000000000000000000000000000000000000000000000000000000D00200000000000000000000000000000000000000A001000000000000C0050000000000000000000081FC03
:5C70D800020000000000000000000000000000000000000000000000000000000000000000000000000000000000000000000000002040000000000000000000000000000000000000004080000000000000800100000000000000000000D0F6F3
:5C71340002000000000000000000000000000000000000000000000000000000000000000000000000000000000000000000000000C000000000000000000000000000000000000000008000000000000000800B00000000000000000000F0F250
:5C719000020000000000000000000000000000000000000000000000000000000000000000000000000000000000000000000000004000000000000000000000000000000000000000008000000000000000000000000000000000000000F0F100
:5C71EC00020000000000000000000000000000000000000000000000000000000000000000000000000000000000000000000000002010000000000000000000000000000000000000004021000000000000800100000000000000000000C0F97A
:5C72480000000000000000000000000000000000000000000000000000000000000000000000000000000000000000000000000000008000000000000000000000000000000000000000000000000000000000020000000000000000000001F473
:5C72A40000000000000000000000000000000000000000000000000000000000000000000000000000000000000000000000000000180000000000000000000000000000000000000000000000000000000060010000000000000000000060F7BE
:5C73000000000000000000000000000000000000000000000000000000000000000000000000000000000000000000000000000000008000000000000000000000000000000000000000000000000000000000200000000000000000000030F56C
:5C735C00000000000000000000000000000000000000000000000000000000000000000000000000000000000000000000000000009000000000000000000000000000000000000000000000000000000000400300000000000000000000C0F54D
:5C73B80002000000000000000000000000000000000000000000000000000000000000000000000000000000000000000000000000101000000000000000000000000000000000000000000000000000000000000000000000000000000020FD3A
:5C74140000000000000000000000000000000000000000000000000000000000000000000000000000000000000000000000000000800000000000000000000000000000000000000000000000000000000000830000000000000000000001FD1B
:5C747000000000000000000000000000000000000000000000000000000000000000000000000000000000000000000000000000006000000000000000000000000000000000000000000000000000000000804100000000000000000000A1FD01
:5C74CC0000000000000000000000000000000000000000000000000000000000000000000000000000000000000000000000000000A02000000000000000000000000000000000000000000000000000000080030000000000000000000021F50B
